:100000000C9461020C9482020C9482020C94820281
:100010000C9482020C9482020C9482020C94820250
:100020000C9482020C9482020C9482020C94820240
:100030000C9482020C9482020C9482020C94820230
:100040000C9482020C9482020C9482020C94820220
:100050000C9482020C9482020C9482020C94820210
:100060000C9482020C9482020C9482020C94820200
:100070000C9482020C9482020C9482020C948202F0
:100080000C9482020C9482020C9482020C948202E0
:100090000C9482020C9482020C9482020C948202D0
:1000A0000C9482020C9482020C9482020C948202C0
:1000B0000C9482020C9482020C9482020C948202B0
:1000C0000C9482020C9482020C9482020C948202A0
:1000D0000C9482020C9482020C9482020C94820290
:1000E0000C9482020C9482020C9482020C94820280
:1000F0000C9482020C9482020C9482020C94820270
:100100000C9482020C9482020C9482020C9482025F
:100110000C9482020C9482020C9482020C9482024F
:100120000C9482020C9482020C9482020C9482023F
:100130000C9482020C9482020C9482020C9482022F
:100140000C9482020C9482020C9482020C9482021F
:100150000C9482020C9482020C9482020C9482020F
:100160000C9482020C9482020C9482020C948202FF
:100170000C9482020C9482020C9482020C948202EF
:100180000C9482020C9482020C9482020C948202DF
:100190000C9482020C9482020C9482020C948202CF
:1001A0000C9482020C9482020C9482020C948202BF
:1001B0000C9482020C9482020C9482020C948202AF
:1001C0000C9482020C948202E4D12FB83A6C590745
:1001D0000F74E2D1A6CB953841E8D62BFC973A5064
:1001E000FC8249175B3EA06DF18E6B34972DC05A8F
:1001F0003D47F28EC01A69B50E7BA4D158C6932F25
:10020000D8A13F42B67C05E9A09E63F51DC7B4287E
:10021000D709346A285ECBF1D6498F30B12C5AE722
:100220001AD069874FE3B52C7DE3069A1285BC4F3F
:10023000D8B56F03472C1AE9A690CB7DF13E5284C6
:100240003F06A1D8945BC72E2C417AB6853FD0E9F2
:10025000EB2C47D150FA3986421BAD78F9C5630EB5
:10026000B8C71E2D6F09A453C1AF92680D34E75B68
:10027000AF427C9561DE0B389EF528C3704A1DB6EF
:10028000432C95FABE17608D4B2EF08D3C975A612A
:10029000D0B7491AE35C2F8614BDC37EAF680592C0
:1002A0006BD814A7950FE23CD2846FB1A93E50C71A
:1002B0001FD8A374C56B0E927B419CE206ADF35828
:1002C00021E74A8DFC90356B0406200102030405EA
:1002D00004050607080908090A0B0C0D0C0D0E0F82
:1002E00010111011121314151415161718191819C6
:1002F0001A1B1C1D1C1D1E1F2001040410071415B1
:100300001D0C1C11010F171A05121F0A0208180EE6
:10031000201B0309130D1E06160B041908083A3298
:100320002A221A120A023C342C241C140C043E36D5
:100330002E261E160E064038302820181008393197
:100340002921191109013B332B231B130B033D35C5
:100350002D251D150D053F372F271F170F070808DF
:10036000280830103818402027072F0F37173F1F55
:1003700026062E0E36163E1E25052D0D35153D1D65
:1003800024042C0C34143C1C23032B0B33133B1B75
:1003900022022A0A32123A1A210129093111391985
:1003A000080739312921191109013A322A221A1272
:1003B0000A023B332B231B130B033C342C243F3703
:1003C0002F271F170F073E362E261E160E063D3509
:1003D0002D251D150D051C140C0407060E110B18F8
:1003E0000105031C0F06150A17130C041A08100741
:1003F0001B140D0229341F252F371E28332D2130C1
:100400002C31273822352E2A32241D20080840405E
:100410000106020304054040070C08090A0B40408E
:100420000D120E0F101140401318141516174040EE
:10043000191E1A1B1C1D40401F242021222340404E
:10044000252A2627282940402B302C2D2E2F070720
:1004500002030405060708090A0B0C0D0E0F101104
:1004600012131415161718191A1B1C011E1F202110
:1004700022232425262728292A2B2C2D2E2F3031E4
:10048000323334353637381D07071C0102030405A3
:10049000060708090A0B0C0D0E0F10111213141584
:1004A000161718191A1B381D1E1F20212223242558
:1004B000262728292A2B2C2D2E2F30313233343564
:1004C000363711241FBECFEFDFE3DEBFCDBF00E024
:1004D0000CBF10E2A0E0B0E2EEE6FFE000E00BBFF0
:1004E00002C007900D92A031B107D9F710E2A0E148
:1004F000B0E201C01D92A836B107E1F70E94E60202
:100500000C94B5070C9400000F931F93CF93DF93C7
:100510008B01BA01EC0140E050E024C088818A33AD
:1005200030F08062A82FB0E0A755B04003C0A82FDC
:10053000B0E0D09799819A3330F09062292F30E063
:100540002755304004C0292F30E020533040FB01B4
:10055000E40FF51F8A2F8295807F822B80834F5F67
:100560005F4F2296CA01880F991F80179107B0F23A
:10057000CB01DF91CF911F910F910895CF93DF931E
:10058000EC01DA0120E030E015C0E881E295EF707F
:10059000F0E0E050F04E80818C93E991F0E0EF7054
:1005A000F070E050F04E808111968C9311972F5F80
:1005B0003F4F1296FB012617370738F3EE0FFF1F48
:1005C000E40FF51F1082DF91CF910895AF92BF9293
:1005D000DF92EF92FF920F931F93DF93CF930F92CF
:1005E000CDB7DEB70E945E040E946E0381E0E0E0BA
:1005F000F6E0818300E010E090E0E12C56E0F52E7B
:10060000DD24D39403C000E010E091E099830E94C0
:10061000A4039981883719F400E010E056C08B36A6
:1006200091F3803721F400E010E092E0EFCF9130B9
:1006300089F48A3019F08D3009F049C0F801E85E7C
:10064000FF4D108288E190E2B80140E150E20E9443
:1006500084023BC09230D1F68A3011F08D3091F592
:10066000F801E85EFF4D108288E190E2B80148E3AE
:1006700050E20E94840280E690E268E370E240E18A
:1006800050E20E94B206F701D68280E690E268E06E
:1006900070E048E150E20E94BE0282E70E94AB0394
:1006A00048E1A42E40E2B42EF50181915F010E9441
:1006B000AB03F8E2AF16F0E2BF06B1F78AE00E94A2
:1006C000AB0303C00032110514F090E09FCFF80196
:1006D000E85EFF4D80830F5F1F4F98CFE0E4F6E0A8
:1006E00088E0818384E08283E0EAF8E083E0858328
:1006F0008BE0868317828481806184838481886013
:1007000084830895DF93CF930F920F92CDB7DEB716
:10071000FC0169837A8320E030E00BC08091A1085E
:1007200087FF05C08091A008808381E008C02F5F0B
:100730003F4F89819A812817390781F780E00F9010
:100740000F90CF91DF9108958091A10887FFFCCF92
:100750008091A0080895982F8091A10885FFFCCF73
:100760009093A0080895FC016083718342831486EE
:100770001386168615860895FC0162830895FC0190
:100780008585968520E08F5F8370891321E0822F15
:100790000895DC011D968C911D971E969C911E97C5
:1007A00020E08F5F83708917B1F021E01D968C9156
:1007B0001D97FD01E80FF11D67838F5F83701D9604
:1007C0008C931D97ED91FC91119783818C7F1296EC
:1007D0009C91892B8383822F0895FC0193858485C6
:1007E00020E0981321E0822F0895DC011C968C9163
:1007F0001C97FD01E80FF11D83811C969C911C97AD
:100800009F5F93701C969C930895DC011B969C91AE
:100810001B979F5F93701C968C911C97ED91FC9198
:1008200011972081981711F480E008951B968C9100
:100830001B97FD01E80FF11D23831B969C9381E01C
:100840000895CF93DF93DC011E969C911E971D9611
:100850008C911D97CD91DC911197891721F48B8193
:100860008C7F8B830FC01E968C911E97FD01E80F25
:10087000F11D878188831E968C911E978F5F8370F0
:100880001E968C93DF91CF910895FC0170FF03C0F9
:100890008481816002C084818E7F84836083089517
:1008A000FC01848180FF05C08081282F30E0316009
:1008B00003C08081282F30E0C9010895E0E5F0E011
:1008C0001282158280915000886080935000809140
:1008D000510083FFFCCF88ED84BF83E0809340000C
:1008E00088E080935000E0E0F6E080E68183858335
:1008F0000895AF92BF92CF92DF92EF92FF920F9343
:100900001F93CF93DF93FC016B017A013196049121
:10091000EF01219660E070E080E8A82EB12C2AC09B
:1009200010E040E050E0FE01E40FF51FE491E150DB
:10093000110F8E2F869586958695D601A80FB11D2D
:100940008C9190E0E770950102C035952795EA9566
:10095000E2F782239323892B09F011604F5F5F4FE9
:100960004830510501F72896F701E60FF71F10836D
:100970006F5F7F4F6017A0F2DF91CF911F910F91B2
:10098000FF90EF90DF90CF90BF90AF900895EF92DF
:10099000FF920F931F93FC0120813181428153818B
:1009A000E52EFF2400271127B22FAA279927882791
:1009B000E82AF92A0A2B1B2BDA01C9018070A070E2
:1009C000B070BA2FA92F982F8827E82AF92A0A2B66
:1009D0001B2B207030705070232F342F452F55273C
:1009E000E22AF32A042B152BE082F182028313837F
:1009F0001F910F91FF90EF900895EF92FF920F9348
:100A00001F93DF93CF93CDB7DEB7A497CDBFDEBFE3
:100A100069A37AA38BA39CA3F42EE52E19821A82D4
:100A20001B821C828E01075F1F4F88EC92E0BE0183
:100A30006F5D7F4FA8010E9479042F2D3E2DC901C3
:100A4000DC01F8019E01205F3F4F80819D91892745
:100A50008193E217F307C9F781E0E0E0F6E08583D0
:100A600089859A852B853C854D855E85198E1A8EE4
:100A70001B8E1C8E1D8E1E8E1F8E18A2898B9A8B2C
:100A80002B8B3C8B4D8B5E8B1F8A188E8CE094E0F9
:100A9000BE016F5E7F4FAE01475E5F4F0E947904DB
:100AA000898D89878A8D8A878B8D8B878C8D8C87A2
:100AB0008D8D8D878E8D8E878F8D8F8788A1888B6A
:100AC00068EC71E0F8019081892F8695FB01E80FB1
:100AD000F11D249190FF22952F7030E040E050E00E
:100AE00089819A81AB81BC81E4E0880F991FAA1F9C
:100AF000BB1FEA95D1F7282B392B4A2B5B2B298377
:100B00003A834B835C830F5F1F4FF2E0683A7F07A5
:100B100019F0605E7F4FD6CF8E010F5F1F4FC80167
:100B20000E94C7048AEF92E0B801AE014B5F5F4FAD
:100B30000E9479046D817E818F819885A496CDBFB6
:100B4000DEBFCF91DF911F910F91FF90EF9008953D
:100B5000DF93CF93CDB7DEB72797CDBFDEBFAC0114
:100B6000DE011196FC0187E001900D928150E1F7C2
:100B700088E894E0BE016F5F7F4F0E94790427965A
:100B8000CDBFDEBFCF91DF9108952F923F924F925C
:100B90005F926F927F928F929F92AF92BF92CF920D
:100BA000DF92EF92FF920F931F93DF93CF93CDB716
:100BB000DEB76597CDBFDEBF1C017A018CE193E003
:100BC000AE01425F5F4F0E9479048E01095F1F4FA3
:100BD00080EA93E0B701A8010E947904B7E0AB2E48
:100BE000B12C48013E010894611C711CACEF4A2EE7
:100BF000AEE75A2E8AED93E0B401A3010E94790476
:100C0000EE84FF84088919896A897B898C899D898A
:100C1000A3010E94FD04E626F72608271927EE8681
:100C2000FF86088B198BC4010E94A8056501CC0CB6
:100C3000DD1C0894C11CD11CC2010C2C02C095956E
:100C400087950A94E2F70894C108D10880FF03C091
:100C5000C4010E94A8058AED93E0B401A3010E949B
:100C60007904EA88FB880C891D896E857F858889CF
:100C70009989A3010E94FD04E626F7260827192773
:100C8000EA8AFB8A0C8B1D8BC4010E94A805C20155
:100C900002C095958795CA94E2F780FF03C0C4010E
:100CA0000E94A8050894A108B1088FEFA8168FEF3D
:100CB000B80609F09FCF8E859F85A889B9892A89B2
:100CC0003B894C895D89282739274A275B2782275A
:100CD0009327A427B5278E879F87A88BB98B2827B2
:100CE00039274A275B272A8B3B8B4C8B5D8B8EE504
:100CF00093E0BE01625F7F4FA1010E947904659677
:100D0000CDBFDEBFCF91DF911F910F91FF90EF908C
:100D1000DF90CF90BF90AF909F908F907F906F901B
:100D20005F904F903F902F900895DF93CF93CDB772
:100D3000DEB72797CDBFDEBFAC01DE011196FC0107
:100D400087E001900D928150E1F78EE494E0BE01BE
:100D50006F5F7F4F0E9479042796CDBFDEBFCF9192
:100D6000DF9108952F923F924F925F926F927F9200
:100D70008F929F92AF92BF92CF92DF92EF92FF92AB
:100D80000F931F93DF93CF93CDB7DEB76597CDBF9A
:100D9000DEBF1C017A018CE193E0AE01425F5F4F40
:100DA0000E9479048E01095F1F4F80EA93E0B7012A
:100DB000A8010E947904AA24BB2448010CEF402E0C
:100DC0000EE7502E3E010894611C711CC4010E9464
:100DD00095066501CC0CDD1CC2010C2C02C095955A
:100DE00087950A94E2F780FF03C0C4010E9495062C
:100DF0008AED93E0B401A3010E947904EE84FF849C
:100E0000088919896A897B898C899D89A3010E9437
:100E1000FD04E626F72608271927EE86FF86088BAD
:100E2000198BC4010E9495060894C11CD11CC201F3
:100E300002C095958795CA94E2F780FF03C0C4016C
:100E40000E9495068AED93E0B401A3010E94790403
:100E5000EA88FB880C891D896E857F858889998938
:100E6000A3010E94FD049B01AC012E253F254027D4
:100E700051272A8B3B8B4C8B5D8B0894A11CB11C9A
:100E800088E0A816B10409F0A1CF8E859F85A889B6
:100E9000B989282739274A275B2782279327A42740
:100EA000B5278E879F87A88BB98B282739274A2794
:100EB0005B272A8B3B8B4C8B5D8B8EE593E0BE01D1
:100EC000625F7F4FA1010E9479046596CDBFDEBFAE
:100ED000CF91DF911F910F91FF90EF90DF90CF9016
:100EE000BF90AF909F908F907F906F905F904F904A
:100EF0003F902F900895EF92FF920F931F938C01D4
:100F00007A01405F5F4F0E94C505A701485F5F4FB0
:100F1000C801B8010E94B206C801B801A7010E9429
:100F2000C5051F910F91FF90EF900895EF92FF92EA
:100F30000F931F938C017A010E94B20688E090E023
:100F4000E80EF91EC801B801A7010E94C50588E096
:100F500090E0E80EF91EC801B801A7010E94B20690
:0E0F60001F910F91FF90EF900895F894FFCF2E
:100F6E0030313233343536373839414243444546D1
:00000001FF
