:0200000280007C
:100000000020082025470800214708002147080054
:100010002147080021470800214708000000000090
:100020000000000000000000000000002147080060
:100030002147080000000000214708002147080070
:1000400021470800214708002147080021470800F0
:1000500021470800214708002147080021470800E0
:100060002147080021470800792D08008D2D080040
:10007000A12D0800A5150800C5150800E515080004
:1000800021470800214708002147080021470800B0
:1000900021470800214708008D1308002147080068
:1000A0002147080021470800214708002147080090
:1000B00021470800D13708002147080010B5054C3A
:1000C000237833B9044B13B10448AFF30080012304
:1000D000237010BD580D00200000000014C308005C
:1000E00008B5034B1BB103490348AFF3008008BDBB
:1000F000000000005C0D002014C3080010B54FF094
:1001000060514F200E4CA0474FF060515020A04747
:100110004FF060515120A0474FF040513F20A04781
:100120003F20084B98474FF020513E20A0474FF00A
:1001300000624FF4C0510448044B984710BD00BF03
:10014000BD2B0800A12B0800000C0E408D2C0800D0
:1001500010B5074B4FF400425A600A20054CA047E7
:100160000B20A0470C20A047034B984710BD00BFB1
:1001700050120E401D2F0800FD0008002DE9F0412F
:1001800005460C4E341D1C360B4FDFF8308004E062
:100190002846B8470834B44209D054F8043CAB426E
:1001A000F8D12368012BF3D12846C047F2E7BDE818
:1001B000F08100BFB0BD0800872B0800A12B08000C
:1001C0002DE9F04105460C4E341D1C360B4FDFF86F
:1001D000308004E02846B8470834B44209D054F8C7
:1001E000043CAB42F8D12368012BF3D12846C04729
:1001F000F2E7BDE8F08100BFB0BD0800A12B080008
:10020000872B0800104B99421BD84B00B2FBF3F22E
:10021000131FFF2B13D900220132B3F5007F4FEAE1
:10022000530301D3072AF7D1190289B2120402F449
:10023000E0220A43DBB2134303610020704700222F
:10024000F2E70120704700BF801A060038B5044667
:100250000D464FF0FF338362036A80230360036B14
:100260000823036020230360042303600A684968AD
:10027000054B9847012814BF002001206B7A012B01
:1002800004BF4023236038BD05020800F0B50546D1
:10029000C868002855D08C6800266E600B7C1B0453
:1002A00003F4FE034A68120202F44072134343F45B
:1002B00080536B60EE604A685AB10B78012AC4BF64
:1002C0004E7846EA0323022A04DD8A7842EA0323B1
:1002D00000E00023EB6001280AD001232B600026F8
:1002E00043F698231F464FF0010C4FF0020E12E028
:1002F00003232B600126F3E70EB9C5F800E012F0E6
:10030000020F15D066462A6B234603F8012B0138ED
:100310001C463B4678B12A6A12F4807F13D1591EDD
:100320009BB10128E8D012F0020FECD10B46F1E7A7
:100330000B466646EFE72B6A13F0010FFBD02B6AE2
:1003400000E00120F0BD0520FCE70920FAE7CA68BB
:10035000002A3BD070B40346886800265E600C7C9F
:10036000240404F4FE044D682D0205F440752C436A
:100370005C60DE604D685DB10C78012DC4BF4E78C5
:1003800046EA0424022D04DD897841EA042400E0D1
:100390000024DC60811881420AD01A6A12F4807F3E
:1003A00016D112F0040F1CBF10F8012B5A63F2E7AC
:1003B0001A6A12F480700ED112F0040FF8D00222E3
:1003C0001A601A6A12F0010FFBD002E00120704798
:1003D000052070BC70470520FBE700000A4BC0F801
:1003E000E430002343604362836288230360242354
:1003F00003604FF4807303604FF4002303604FF4F5
:1004000000330360704700BF0041535570B5064686
:100410000D461446154B9847154B00221A6005B33C
:100420002B6804EB5302B2FBF3F2511E4FF6FE733E
:10043000994218D83262736823F4987343F4807336
:1004400073606B68EA681343AA6813432A6913430D
:1004500043F48023064A13607268134373600020DC
:1004600070BD0120FCE70120FAE700BFDD030800B2
:10047000740D0020402303607047802303607047A1
:10048000102303607047202303607047C1607047EA
:10049000406970474069C0F340207047436913F0DA
:1004A000020F1DBFC1F30801C16100200120704788
:1004B000436913F0020FFBD0C1F30801C1610020B2
:1004C0007047436913F0010F05D08369C3F3080334
:1004D0000B600020704701207047000000B589B014
:1004E0008DF8071000230393079360F07F008DF8C9
:1004F0000C00012304930DF1070205920693692372
:100500008DF81C3003A90448044B9847B0FA80F0DA
:10051000400909B05DF804FB008008404F03080063
:1005200000B587B000230193059360F07F008DF83C
:100530000400012302930391049369238DF814307E
:1005400001A90448044B9847B0FA80F0400907B06D
:100550005DF804FB008008408D02080010B584B0EF
:100560004FF000611820174CA0474FF00061192090
:10057000A0470024ADF80E404CF25033029369239B
:100580008DF80C30104B01938DF80D4013200F4B5C
:10059000984701A90E480F4B98478DF803400DF17D
:1005A000030120460C4B9847034638B19DF80330B1
:1005B00003F00F03012B14BF00230123184604B0DE
:1005C00010BD00BFBD2B080000D8B8051D2F0800C6
:1005D000008008404D0208002105080010B404689E
:1005E0000134802C28BF00244368A34205D1002A8F
:1005F000FAD183680133836003E00368034419730D
:10060000046010BC704702464368C118087B11683B
:10061000994205D00133802B28BF002353607047D7
:10062000FF20704703684068C01A18BF0120704758
:1006300008B54FF060510820024B98470820024B44
:10064000984708BDBD2B0800872B080010B508206F
:10065000194B9847194C2046194B98478023236023
:10066000636843F001036360636843F010036360F1
:10067000636823F080036360002211462046114B1B
:1006800098470122002120460F4B98470F491048F8
:10069000104B9847C2B2002120460F4B98470123C8
:1006A00023604FF000610E200C4CA0474FF000611A
:1006B0000F20A04710BD00BFA12B08000080004004
:1006C00071320800B5320800D332080000D8B805EE
:1006D00000366E01F132080007330800BD2B080018
:1006E00008B50820014B984708BD00BF872B0800BC
:1006F00010B5014600231A460148024CA04710BD20
:10070000008000408132080010B54FF040510F20AA
:100710000A4CA0474FF040513220A0474FF02051E3
:100720000E20A0474FF060513620A0473620044BE2
:1007300098470F20034B984710BD00BFBD2B080002
:10074000872B0800A12B080008B53620014B9847DD
:1007500008BD00BFA12B080008B53620014B984703
:1007600008BD00BF872B08002DE9F8430546082681
:100770000024DFF860900F27DFF85C8009E032206A
:10078000C0473846C0476D00EDB26400E4B2013E98
:100790000FD00E20C847002818BF44F00104384687
:1007A0000B4B984715F0800FE9D13220084B984742
:1007B000E7E70E20074B9847002818BF44F00104D4
:1007C00064B20F20024B9847E0B2BDE8F88300BF47
:1007D000A12B08006B2B0800872B080010B5002107
:1007E0000F20044CA04700213220A04700213620D2
:1007F000A04710BDBD2B080008B5044B1868044B7A
:100800009847044B1868044B984708BDA80100207E
:10081000872B0800B4010020A12B080008B5024B6B
:100820001868024B984708BDA8010020A12B0800BA
:1008300008B5024B1868024B984708BDA801002074
:10084000872B08002DE9F843054608260024DFF829
:100850007890194FDFF874800AE0184B1868C04789
:100860003868C0476D00EDB26400E4B2013E12D0BA
:10087000D9F80000124B9847002818BF44F0010433
:100880003868104B984715F0800FE6D10B4B18686D
:100890000C4B9847E4E70C4B1868094B9847002825
:1008A00018BF44F0010464B2034B1868054B984725
:1008B000E0B2BDE8F88300BFB4010020B001002021
:1008C0006B2B0800A12B0800AC010020872B08002F
:1008D0007047000038B50446C0B2054DA847C4F3C0
:1008E0000720A847C4F30740A847200EA84738BDF3
:1008F0006111080008B5034B1B681843024B984769
:1009000008BD00BFBC010020D508080070B5074E27
:10091000074D084C8020B047A847236823B110F04A
:10092000020FF7D0012000E0002070BD6111080027
:100930008D1108009414002070B56B20094B984766
:100940000F20094B9847074E084D094C2020B0470F
:10095000A847236823B110F0800FF7D1012000E0F1
:10096000002070BD61110800F50808008D11080015
:10097000941400202DE9F04383B01A4B9847C1200E
:10098000194CA0475920A047C220A0470220A047E9
:10099000E020A0470DF10704E9464FF0120889272F
:1009A000114E8DF800808DF80170AB238DF8023068
:1009B00045238DF80330CD238DF80430D8238DF8EE
:1009C000053088238DF80630FF238DF80730207816
:1009D000B0474C4504F1FF34E3D1044B984703B0D2
:1009E000BDE8F0832D120800611108000D09080010
:1009F00070B5094B9847094C094D0A4EC120A047D4
:100A00000020A0478120A047A84710B13368002BE1
:100A1000F4D1054B984770BD0D090800611108001D
:100A20008D1108009414002005110800F8B5064641
:100A30000C4615461C4B9847034608B91846F8BDA6
:100A40004C201A4FB8470A20194B98474320B84703
:100A5000012D19D96B20B8473046164B9847A02076
:100A6000B847681EC0B2B8472420B847013DADB2B0
:100A700001352544104E114F336873B1B84704F85F
:100A8000010BAC42F8D108E00C20084B98473046E7
:100A9000084B9847094B98472070074B1B68003B51
:100AA00018BF0123CAE700BF390908006111080017
:100AB000F5080800D5080800941400208D110800DE
:100AC0002DE9F0410746884616460B4B98470546E8
:100AD00010B92846BDE8F0814C20084CA0470A20F8
:100AE000074B98473846A0474C20A0474046054B47
:100AF00098473046A047ECE7390908006111080023
:100B0000F5080800D50808002DE9F84F814617467A
:100B10001C460B9DBDF8306013F0010F08D1F6B9EB
:100B200014F0020F3FD14FF0010A5046BDE8F88F94
:100B30008846274B984782460028F6D04C20DFF89D
:100B40009CA0D0470A20DFF88CB0D8474046D04759
:100B50004C20D0470B20D8470120D047DFE71C4B63
:100B6000984782460028E0D04C20DFF87080C047CC
:100B70000A20184B98474846C0476B20C0470A9840
:100B8000154B9847A020C047701EC0B2C0476420D4
:100B9000C047013EB6B201362E4415F8010BC047DE
:100BA000B542FAD1BCE70A4B984782460028BCD030
:100BB0004C200A4CA0470A20064B98473846A047CD
:100BC0004C20A0470A98044B98470020A047ACE768
:100BD00039090800F5080800D50808006111080067
:100BE000F8B504460D46364B98470346A8B1402C4D
:100BF00015D0302C22D04C20324EB0470A20324B38
:100C000098472046B0474C20B04728462F4B98477E
:100C10000020B0472E4B984703461846F8BD4C209D
:100C2000284CA0470A20284DA8474020A0474C2028
:100C3000A0470B20A8470120A047EBE74C20214C00
:100C4000A0470A20204EB0473620A0474C20A0479E
:100C50000B20B0470120A047194B984703460028B6
:100C6000DBD04C20A0470A20B0473320A0476B20A0
:100C7000A0472846154B9847A020A047154D287837
:100C80000138C0B2A0476420A0472B884BB1002494
:100C900027460C4E3846B047631CDCB22A88A24275
:100CA000F8D84C20074CA0470A20074DA847302011
:100CB000A0474C20A0470B20A8470120A047A9E748
:100CC0003909080061110800F5080800D508080076
:100CD0000D090800B801002070B584B08F4B598809
:100CE000CBB28F4A1370013B212B2BD8DFE813F0D6
:100CF00022002F0037007300C200E600E9002A003E
:100D00002A002A002A002A002A002A002A002A0093
:100D10002A002A002A002A002A002A002A002A0083
:100D20002A002A002A002A002A002A002A007C0120
:100D30005C016B017B4B98477B4B984780F001002F
:100D40007A4B18707A4B9847002004B070BD754BF1
:100D50009847784B9847754B00221A70F2E7714B11
:100D60009847724B00221A706C4B9B89042B15D943
:100D70006A4B9B681A79D978090441EA02615A786A
:100D800011439A7841EA02211B78013B072B1ED8B8
:100D9000DFE803F01F0811131517191B634B01221D
:100DA0001A70CFE72020644B98470028CAD15F4BC8
:100DB00003221A70C6E76820F5E73020F3E7222007
:100DC000F1E72A20EFE73220EDE71820EBE70020DB
:100DD000E9E74020E7E7534B9847544B00221A704D
:100DE0004E4BDB88072B02D8504B01221A704B4B1D
:100DF0009B685A791979090441EA02619A7811438A
:100E0000DA7841EA02211A78013A052A2ED8DFE879
:100E100012F0FD000E000101050106002900082066
:100E2000464B1A78464B984700288BD116E026256A
:100E300023202C22DE799C7944EA06245B78B4F5E1
:100E4000807F28BF4FF4807402943C4C0194009141
:100E500029463C4CA04700287FF474AF334B032253
:100E60001A706FE7262523201A22E3E72E22262573
:100E70002320DFE72B4B98472C4B00221A70274B7F
:100E800099688B794A7942EA03220879CB781B0466
:100E900043EA0063487803438878B2F5807F28BF2F
:100EA0004FF48072254943EA0020274B98470028D9
:100EB0007FF448AF1D4B03221A7043E7194B984744
:100EC00040E7184B9847194B00221A70134B998929
:100ED00001290BD9114B9A681378013B072B5FD876
:100EE000DFE803F0083643475E5E5E4B0F4B01229E
:100EF0001A7027E704290CD91179D3781B0443EA27
:100F0000016351780B43927843EA02230F4A13603E
:100F100018E7064B01221A7014E700BFFC1B0020E3
:100F2000780D002031130800750908009014002086
:100F300079130800F1090800E10B08007C0D00207E
:100F4000C10A0800090B08002D0A0800BC01002096
:100F5000022906D99178537843EA0123304A138055
:100F6000F0E6304B01221A70ECE652782E4B1A70E4
:100F7000E8E652782D4B1A70E4E6042903D8294B91
:100F800001221A70DEE61179D3781B0443EA01636B
:100F900051780B43907843EA0020254B9847D1E6DF
:100FA000204B01221A70CDE6080A224BDB8803EBA6
:100FB0001121B1F5807F27DC1E491F4A02448A6057
:100FC0008B810120C1E6080A1A4BDA8802EB112155
:100FD000B1F5807F01DD0020B7E69968164B184413
:100FE000164B98470120B0E6154A0E4B1B785370FC
:100FF000144B1B68B3FA83F35B0993700D4B9A6033
:1010000003229A810120A0E600209EE626252320C7
:1010100024220FE73625332035220BE74C20FFE64C
:10102000B801002090140020C0010020C101002060
:10103000C1120800FC1B00207C0D0020BD4F0800E1
:10104000780D00209414002038B50B4D0B4C284629
:10105000A0470028FBD0084C2046094B9847204663
:10106000084B98474FF020511220074B9847074BE9
:1010700000221A7038BD00BF000009409504080026
:101080007B04080081040800BD2B08007C0E0020B2
:1010900070B51125144C154E2846A04710B1336881
:1010A000002BF9D11125104C104E2846A04710B93D
:1010B0003368002BF9D111250B4C0C4E2846A04764
:1010C00010B13368002BF9D1094C2046094B9847E1
:1010D0002046094B98474FF000611220074B984774
:1010E000074B01221A7070BD6B2B0800941400206E
:1010F000000009408704080075040800BD2B0800A3
:101100007C0E002010B50F4B1B78BBB90E4C20464F
:101110000E4B984720460E4B98474FF02051112018
:101120000C4CA0474FF020511320A0474FF0205106
:101130001220A0470D20084B984710BD074B984739
:10114000E4E700BF7C0E002000000940870408008F
:101150007B040800BD2B0800492F08004910080037
:1011600010B50446054B1B7823B121460448054BB6
:10117000984710BD044B9847F7E700BF7C0E00204E
:1011800000000940B10408009110080070B582B059
:101190000A4B1B7873B90A4D0A4C0B4E01A928461D
:1011A000A047012802D13368002BF7D19DF8040035
:1011B00002B070BD054B9847EDE700BF7C0E0020E4
:1011C00000000940C30408009414002049100800DE
:1011D000F8B5124B1B7823B10C271125104C114E7A
:1011E00006E0114B9847F7E7013F17F0FF0713D0D0
:1011F0002846A04710B13368002BF9D12846A047F4
:1012000010B93368002BF9D12846A0470028EBD04D
:101210003368002BF8D1E7E7F8BD00BF7C0E002053
:101220006B2B0800941400209110080070B586B054
:101230000025194B1D700D20184B98474FF0405159
:101240001220174CA0474FF020511320A0474FF019
:1012500040511120A04740F25710124EB0471220C3
:10126000114B98474520B0470295049505950F4BC3
:101270000093C02301934FF4005303930C4A694633
:101280000C480D4B98474FF000611120A0470B4CC4
:10129000A047A04706B070BD7C0E00201D2F08009F
:1012A000BD2B080087000020872B080020A1070025
:1012B00000B0710B000009400D040800D1110800B6
:1012C000014B1860704700BFC401002038B51620DC
:1012D000104B9847104B4FF48002C3F88021102523
:1012E00083F816531A600D4C4CF20102002120467F
:1012F0000B4B98474FF4965200212046094B9847D4
:101300002A4600212046084B9847084B01221A70B4
:1013100038BD00BF1D2F080000E100E000000840BC
:10132000791F0800A31F0800AB1F08007D0E0020D6
:1013300010B50A4B1B786BB1094C00212046094BB4
:101340009847094B1A68094B1A6000212046084B40
:10135000984710BD074B9847EEE700BF7D0E002071
:10136000000008409B1F0800C401002094140020C6
:10137000931F0800CD12080008B500210148024B58
:10138000984708BD000008409B1F080008B5054BA2
:101390001B6813B1013B034A136000210248034B51
:1013A000984708BD9414002000000840B31F0800AF
:1013B00008B50C4B1A680C4B1B689A4200D808BD44
:1013C0000A4B9847084A136864331360054A126849
:1013D0009342F4D2034B00221A60034B64221A603A
:1013E000EDE700BF9C140020800E0020014F080094
:1013F000030143EA10135840C3B2C0F385005840BC
:1014000080EA500000F0010070470000A0F516735C
:101410009BB2B3F5167F4BD810B58CB0A0F5167003
:10142000254C84FB0034C017C0EBA404E4B2204672
:10143000224B9847C8B18DF82F40214B1B68ADF85F
:1014400018301B0C8DF81A30012307930DF12F0271
:101450000892099334238DF8283006A919481A4BAD
:10146000984738B100200CB010BD64F07F048DF8AF
:101470002F40E2E7124B1B68ADF800301B0C8DF8D3
:101480000230012301930DF11702029203933423DA
:101490008DF8103069460B480C4B984750B99DF8B1
:1014A00017009DF82F30984214BF00200120DAE782
:1014B000002070470020D6E767666666F1130800D3
:1014C000C8BD0800004008404F0308008D02080016
:1014D00070B584B04FF000610920134CA0474FF065
:1014E00000610A20A0470023ADF80E304CF25032C4
:1014F000029234228DF80C200C4A01928DF80D30A6
:1015000012200B4B984701A90A480B4B984703241C
:101510004FF47A76094D3046A847034608B9013C96
:10152000F9D1184604B070BDBD2B080000D8B8052D
:101530001D2F0800004008404D0208000D1408004F
:10154000F8B507460D461646104B9847044610F06E
:10155000010F03D114F0020F07D1F8BDB9690022C1
:10156000C9B228460A4B9847F4E73046094B9847DA
:1015700038B13046084B984701463846074B9847E4
:10158000EBE702213846064B9847E6E7910408004E
:10159000DD0508002506080007060800B10408005C
:1015A0008D04080008B5034A03490448044B9847D2
:1015B00008BD00BF5C1700202C150020000009406A
:1015C0004115080008B5034A03490448044B9847ED
:1015D00008BD00BFB8150020D0160020004009400B
:1015E0004115080008B5034A03490448044B9847CD
:1015F00008BD00BFA0140020441600200080094050
:101600004115080008B5014B984708BDD90C0800E2
:1016100038B5064B1D685C680420054B984704F1FB
:10162000C044044B1C60044B1D6038BD880E002074
:10163000111F0800C80E0020CC0E002070B50C4B06
:101640001C685D6801200B4B98476CB1084AD31D9C
:1016500014440734084E073DAD1AEA18316813F8F0
:10166000010F8854A342F8D10020024B984770BD67
:10167000880E0020111F0800CC01002008B50320AF
:10168000014B984708BD00BF111F080038B5064B35
:101690001D685C680220054B9847054A294604F1FD
:1016A000C040044B984738BD880E0020111F080029
:1016B000D91A0800D92108002DE9F84F2C4B1968D8
:1016C0005A689D6804290BD018460B33294C2244D4
:1016D0000844073013F8011F02F8011F8342F9D1B3
:1016E00015F0010F42D0244B1C685FEA154A3DD02B
:1016F000C5F3400BC5F380090026DFF890801F4D2D
:1017000031271CE04FF4A0632A68210ED15404FB5A
:1017100004F242F0050214440133B3F5A26FF3D191
:1017200012E00020C0473846154B98473220154B31
:1017300098473846144B98470136564516D0012035
:10174000C047BBF1000FDDD1B9F1000FE9D04FF474
:10175000C0632A68210ED15404FB04F242F0050252
:1017600014440133B3F5C26FF3D1DAE7BDE8F88F63
:10177000880E0020E7170020E8170020CC01002089
:10178000872B080087000020A12B0800111F0800EC
:10179000F8B5164B5B88A03B042B06D8DFE803F0B6
:1017A0000306090C0F00124B9847F8BD114B9847E0
:1017B000FBE7114B9847F8E7104B9847F5E70B4AC2
:1017C000D38892899A42F0D3013B9BB23F2BECD84D
:1017D0000B4E0024054D0B4FAB68185DB84706F85B
:1017E000010B0134EB88A342F6DCDEE7FC1B002092
:1017F000F9070800D10808001D0808003108080092
:101800005013002045080800424BDB88022B7FD193
:1018100010B5404B9B681C785F2C08D85A783D4B1C
:101820005B88A12B64D0A22B67D0A02B00D010BD69
:10183000013A122A57D8DFE802F00A1056565656D7
:1018400056565656565656565616263646004FF09B
:1018500020512046304B9847E9E74FF06051204631
:101860002D4B9847E3E72D4B1868002807DA4FF017
:1018700040512046284B9847284B1C60D7E7002151
:10188000254B9847F3E7264B1868002807DA4FF0F6
:1018900020512046204B9847214B1C60C7E7002170
:1018A0001D4B9847F3E71F4B1868002807DA4FF0E5
:1018B00040512046184B98471A4B1C60B7E700214F
:1018C000154B9847F3E7184B1868002807DA4FF0D4
:1018D00060512046104B9847134B1C60A7E700212E
:1018E0000D4B9847F3E7002120460B4B98479EE7A6
:1018F00000212046084B984799E72AB1012A96D142
:1019000020460A4B984792E72046094B98478EE7B6
:10191000704700BFFC1B0020BD2B0800B001002059
:10192000AC010020B4010020A8010020872B080092
:10193000A12B0800F8B5164B5B88A03B042B06D8FA
:10194000DFE803F00306090C0F00124B9847F8BDBF
:10195000114B9847FBE7114B9847F8E7104B984716
:10196000F5E70B4AD38892899A42F0D3013B9BB2A8
:101970003F2BECD80B4E0024054D0B4FAB68185D88
:10198000B84706F8010B0134EB88A342F6DCDEE72A
:10199000FC1B002009070800DD07080049070800B4
:1019A00059070800D00E0020690708001A4BD98893
:1019B0009B898B422FD310B5174B9A6810785478B7
:1019C00080EA0403927883F0AE039A4203D0134B6B
:1019D00001221A7010BD02290BD940EA0424A4F593
:1019E00016739BB2B3F5167F07D90C4B01221A7000
:1019F000F0E70A4B04221A70ECE7084B03221A7036
:101A00002046074B98470028E4D0064B1C80034B28
:101A100002221A70DEE77047FC1B002090130020A2
:101A20000D140800CA01002008B5164BDA889B89FE
:101A3000934211D3022A0CD9134B03221A70114B73
:101A40009B681A784AB1012A11D00F4B01221A70F3
:101A500002E00D4B01221A7008BD0C4958780C4B5E
:101A600098470028F8D0084B02221A70F4E79978BA
:101A70005878084B98470028EED0034B02221A7082
:101A8000EAE700BFFC1B0020860E0020850E002028
:101A900021050800DD04080008B50B4B5B88A12B6D
:101AA00007D0A22B0BD0A02B00D008BD074B984726
:101AB000FBE7074B9847074B0A221A70F5E7054BDF
:101AC00000221A70F1E700BFFC1B00204D06080041
:101AD000E1060800840E002000B1704708B5044BF1
:101AE0009847022800D008BD0020024B9847FAE72B
:101AF0001D1F0800111F080070B5B8B9184B1B78DE
:101B0000FBB941B1174A184D286812F8014BC4546B
:101B100001339942F8D1154B984703280DD0144A48
:101B20004FF480610F48134B984770BD104A4FF433
:101B300080610C480F4B9847F7E700200E4B984701
:101B4000EDE70A2BEBD139B1064D4C190B4E15F8C8
:101B5000010BB047A542FAD10F20094B9847DEE7A9
:101B6000840E0020100F0020CC0100201D1F080053
:101B7000F91A0800F5210800111F0800F1060800F5
:101B8000A12B080010B5234B9B78013B052B0ED8E9
:101B9000DFE803F0030E12292F353E201E4B984735
:101BA0001E4CA0470028FCD010201D4B984710BDAC
:101BB00010201C4B9847FAE73F201B4B9847012207
:101BC0000C211A481A4B98471A4B98471A4B5A68D7
:101BD00012F4003FFBD1184A136843F0254343F049
:101BE00005031360FEE74FF040511B20134B98474D
:101BF000DDE74FF080511B20104B9847D7E731208D
:101C00000F4B9847FA200F4B98473120064B9847C7
:101C1000CDE700BFFC1B0020752E08009D2E08009C
:101C2000B52D0800152E0800A12B080000080E4055
:101C3000291F08001D3F080000120E40BD2B0800A0
:101C4000872B08008700002008B5014B984708BD86
:101C50002120080008B5014B984708BD4120080025
:101C600008B5044B1B7803B908BD034B9847034BD9
:101C70009847F9E7C80100209D3F08005920080057
:101C800010B50124044B1C70044A4FF480610448D1
:101C9000044B9847204610BDC8010020F91A0800DF
:101CA000100F0020F5210800014B00221A70704728
:101CB000C8010020334B344A9A60DA88402A28BF92
:101CC00040229A81314A002111705B78103B252B0C
:101CD00055D8DFE803F0131D182254272C54545410
:101CE00054545454545431543654545454545454F5
:101CF0005454545454543B4054454A4F214B244A65
:101D00001A61012070471F4B224A1A610120704757
:101D10001C4B214A1A61012070471A4B1F4A1A6155
:101D200001207047174B1E4A1A6101207047154B5E
:101D30001C4A1A6101207047124B1B4A1A6101208C
:101D40007047104B194A1A61012070470D4B184A11
:101D50001A61012070470B4B164A1A610120704727
:101D6000084B154A1A6101207047064B134A1A6145
:101D700001207047034B124A1A610120704700206E
:101D8000704700BFFC1B0020880E0020840E00203E
:101D90008D160800111608007D1608003D16080073
:101DA000B9160800991A080005160800851B0800D6
:101DB000291A0800AD19080035190800091808008B
:101DC0009117080038B5444B5B78123B232B7DD824
:101DD000DFE803F0127C7C267C407C7C7C7C7C7C75
:101DE0007C7C3D7C7C7C7C7C7C7C7C7C7C7C7C7C72
:101DF0007C7C4C597C687C72374A384B1B689360FA
:101E0000374B1968918100221A60364B9847042895
:101E100001D001205BE00020334B9847012056E0C1
:101E20000720324DA847324C003818BF01202070DF
:101E30005D20A847003818BF012060700023A37000
:101E4000E370254B9C6004229A8101203FE0294BDE
:101E500098473CE0264B00221A7028225A70012035
:101E600098701D4A93600323938130E0204B224AEF
:101E700012781A70214A12785A70174A9360022316
:101E80009381012023E01A4B1D4A12781A701D4AD3
:101E900012885A70120A9A700F4A93600323938132
:101EA000012014E00C4BDB88402B11D80A4A16495C
:101EB0009160938101200AE0074BDB88402B09D811
:101EC000054A124991609381012000E0002038BD4D
:101ED0000020FCE70020FAE7FC1B0020C80E0020D1
:101EE000CC0E00201D1F0800111F08006B2B0800DE
:101EF00010130020D90C0800860E0020850E00204B
:101F000090130020CA010020D00E002050130020A2
:101F1000014B1870704700BF91130020014B1878D7
:101F2000704700BF9113002038B5A1F10E03012BBB
:101F30001AD9EFF3108472B6BFF35F8F0C4B0025F4
:101F40001D70120222F07F4222F0FF02C9B211433B
:101F500041F0B441074B98472CB9054B01221A7048
:101F6000BFF35F8F62B638BD4FF0FF30FBE700BFB5
:101F7000820300206D00002010B48B0100EB811162
:101F80000224C4504FF0FF338B620B6A4A6010BCCE
:101F9000704789010523435070478901022343504C
:101FA000704700EB8110C261704700EB8110426204
:101FB000704700EB8110006A7047000070B586B072
:101FC00004460D460423009302AB0F220E210C4859
:101FD0000C4EB04780B903462E46042D28BF042678
:101FE00065B102A9221F51F8044B42F8044F013396
:101FF0009E42F8D806B070BD1020FBE72846F9E7EE
:1020000000080E400100002010B54F20034CA047EF
:102010005020A0475120A04710BD00BF7D010800FF
:1020200010B54F20044CA0475020A0475120A04796
:102030003F20024B984710BD7D010800A12B0800EE
:1020400008B54F20024B98473F20024B984708BDE8
:10205000C1010800872B080008B50D4BA3FB002326
:102060009B094FF47A7202FB130080B238B1B0F5CD
:10207000FA7F08D0074A13680133136008BD4F2068
:10208000054B9847F6E74F20044B9847F2E700BF0F
:10209000D34D62109C140020C10108007D0108008E
:1020A00010B53E20074B9847074CA0470028FCD0AE
:1020B000064B4FF47102DA61054CA0470028FCD0B2
:1020C00010BD00BF752E08009D2E080000040E40B4
:1020D0000D2F080010B51248124B98473E20124BA6
:1020E0009847124CA0470028FCD04FF08070104B4E
:1020F0009847104CA0470028FCD00F4B98470F4B37
:102100000F4A9A620F4CA0470028FCD010200E4BBB
:1021100098470E4B98470248024B984710BD00BFA6
:1021200000D8B80539010020752E08009D2E080042
:10213000BD2E0800AD2E0800DD2E080000040E4064
:10214000013F0F20ED2E0800152E0800C1470800A2
:10215000014B1878704700BF9213002008B5054B5B
:102160009847C378044A13700BB1012008BD034B94
:102170009847FBE79123080092130020811C080078
:1021800008B5034B1B7803B108BD024B9847FBE72A
:1021900092130020A91C080008B50C4A137892F984
:1021A0000020002A06DB03F06003402B18BF00204C
:1021B00009D008BD03F06003402B18BF0020F8D100
:1021C000034B9847F5E7034B9847F2E7FC1B0020C9
:1021D000C51D0800B51C080010B582B00B46009262
:1021E000024600218120024CA04702B010BD00BF72
:1021F0000142080010B582B00B4600920246002151
:102200000220024CA04702B010BD00BF01420800EE
:102210000B4B1B681A6853881A4403781844904281
:102220000AD24378042B09D08B4208D00378184493
:102230009042F6D30020704700207047002070477E
:102240009C13002008B5034B987800F07F00024BE8
:10225000984708BDFC1B0020653F0800184B1B7801
:102260003BB3184B1B681B681A79824223D970B4A0
:10227000154A13605C881C44A3421ED20025012627
:1022800004E01A7813443546A3420DD25A78042A42
:10229000F7D19A788242F4D1DA788A42F1D10DB13D
:1022A000094A1360012002E0074A1360002070BC55
:1022B000704700207047002070470020F7E700BFFC
:1022C000991300209C130020A01300202DE9F8434F
:1022D00004460021124B98478046F0B1114B1B6811
:1022E0005B6853F82490D9F80C3098470146204693
:1022F0000B4B9847804680B10B4B1C6805260B4D55
:102300000B4F01E08078B84731462046A847044685
:102310000028F7D1D9F8043098474046BDE8F88343
:102320005D2208009C130020A01300201122080049
:10233000B93F08002DE9F0418046104B984703460D
:10234000C8B10F4B1C6805260E4D0F4F3146204675
:10235000A847044638B18288C1788078B8470346D8
:102360000028F3D107E0094B1B685B6853F828305D
:102370001B68984703461846BDE8F0815D220800B7
:10238000A013002011220800FD4208009C13002029
:10239000014B1868704700BFA013002008B5014B1F
:1023A000984708BD553E080070B50D4B1B7883B1AA
:1023B0000C4B1B681B681B795BB100240A4E094D4E
:1023C000E0B2B04701342B681B681A79E3B29A4235
:1023D000F6D80023024A1370044A138070BD00BF70
:1023E000991300209C130020CD2208009413002094
:1023F00038B50E4B1B78BBB10D4B1A6813681B79AF
:1024000093B100240A4D06E02A6801341368197953
:10241000E3B2994208D9E3B2526852F823301B69FB
:10242000002BF1D09847EFE738BD00BF991300208B
:102430009C1300202DE9F041914B00229A811A61F2
:102440005A611B88B3F5E07F1BD08D4B1A7893F946
:102450000030002B1BDB12F0600F00F04781884B2F
:102460001B7803F01F03012B00F04582844B1B787F
:1024700003F01F03022B00F0918200231846BDE8F1
:10248000F0819E217F48804B98470123F6E77C4BE3
:10249000DB88002B00F0AE8212F0600FDFD112F06B
:1024A0001F0240F0C180764A5278062A0BD0082AD3
:1024B00000F0B280002AD2D1022BD0D10221734881
:1024C000714B98472FE16E4B5A88D4B2130A013BE7
:1024D0000E2B00F20982DFE813F00F0023007A00D0
:1024E0000702070244005200070207020702070220
:1024F0000702070207027500654B984728B9654B2C
:1025000098680178604B984730E0624B1A68102158
:1025100091700221D170186801785B4B984725E0D3
:102520005B4B984780B15B4B9B685B7CA34296D921
:10253000584B1B6953F834004188534B9847504B14
:102540009B6802225A7011E0524B1B685B7CA342CD
:1025500085D9504B5B6853F8340041884A4B984703
:10256000EDE74C4BD8680178474B9847444BDA88E5
:102570009B89934240F2D780414B9A81D3E0444BF0
:10258000984788B9434B9B685B7CA3427FF667AF53
:10259000404B1B6953F8340041883B4B9847384BFC
:1025A0009B6807225A70E1E73A4B1B685B7CA342A9
:1025B0007FF655AF374B5B6853F834004188324B98
:1025C0009847ECE7212134482F4B9847CEE7D2B209
:1025D000032A3FF644AFDFE802F014191C02202062
:1025E0002E4A13462E49024413F8014B21F8024F9C
:1025F0009A42F9D14100023129480170224B984793
:10260000B4E704212748204B9847AFE71520264A16
:10261000E7E71320254AE4E7012B7FF420AF0121EF
:102620002348194B98477EE0012A49D1144A527831
:102630000A2A7FF414AF012B7FF411AF1C4B1B78D7
:10264000002B3FF40CAF0E4B1C791A4B1D682B6806
:102650001B79A3427FF603AF00212046164B984713
:1026600000283FF4FCAE6B6853F82430DB689847D1
:10267000124B187001211846034B984753E000BFD6
:10268000FC1B0020E4020020AD3F08009413002052
:10269000553F0800E4010020CCBD0800880300205D
:1026A00070020020B4020020B8020020D0020020F6
:1026B000991300209C1300205D220800981300202D
:1026C000022A7FF4CCAE934A5278002A7FF4C7AE38
:1026D000022B7FF4C4AE8F4B18798F4B98478F4BEA
:1026E0001880022118468E4B98471CE012F01F02FA
:1026F00040F0B180874B5B78013B082B00F2AB8048
:10270000DFE813F01300A9002300A9000900A900C5
:10271000A900A90054007F4BDB88002B7FF49FAEFB
:102720007C4B804A1A610123A8E67A4BDB88002B98
:102730007FF495AE774B5B88012B7FF490AE7A4A9D
:10274000138823F002031380EDE7724BDB88002B24
:102750007FF485AE6F4B5B88022B7FF480AE734BAA
:10276000984700283FF47BAE6A4B1B79002B7FF41F
:1027700076AE6F4B9847674B9B881B0A013B032B38
:1027800000F2B780DFE803F002060A0E614B694AE7
:102790001A61C8E75F4B684A1A61C4E75D4B674A34
:1027A0001A61C0E75B4B664A1A61BCE7594BDB888C
:1027B000002B7FF454AE634B984700283FF44FAE94
:1027C0005A4B9847002834D05F4B9B685A7C514B3A
:1027D0009B789A42FFF443AE554B98474D4B9B78FC
:1027E0005A4A1370002B9ED0504B9847002828D08F
:1027F000564B1B7803F10052013A534B1B6903EB14
:10280000C203534A13601B681B79002B8BD0002432
:102810002646504D4E4F3146E0B2A84700283FF4BF
:102820001EAE01343B681B681A79E3B29A42F2D8B3
:1028300079E7454B1B685A7C364B9B789A42CBD242
:102840000DE6424B1B7803F10052013A3E4B5B68A8
:1028500003EBC203D5E7012A1AD0022A7FF4FFADA9
:102860002C4B5B78012B31D0032B7FF4F8AD294A38
:10287000D388528813439BB2002B7FF4F0AD254CD4
:102880002079354B98472079344B984703462CE004
:10289000204B5B780B2B7FF4E2AD1E4BDB88002BCB
:1028A0007FF4DDAD294B1B78002B3FF4D8AD194BDD
:1028B0001C795D8820462A4B984700283FF4CFAD0D
:1028C000E9B22046234B984703460EE0114AD388CD
:1028D000528813439BB2002B7FF4C1AD0D4B187986
:1028E000204B9847034600E00023002B7FF4C6AD41
:1028F000B5E50023F9E7154B1B78002B7CD0054B81
:102900001C79134B1D682B681B79A3422CD800231C
:10291000B4E500BFFC1B0020114008009613002006
:10292000AD3F08004522080094130020553F0800E1
:10293000A9230800D1450800F545080019460800FC
:10294000314608008D3F0800E40100209913002063
:102950009C130020352308005D4508004540080011
:10296000CD2208000941080000212046234B98474A
:1029700000283FF47BAD6B6853F82450EB68984710
:10298000014620461D4B984700283FF46FADAB68C9
:102990009847034600287FF471AD67E5184B1B7814
:1029A00023B3184B1A6813681B790BB30025134E19
:1029B000144FECB2536853F82480D8F80C30984781
:1029C00001462046B047034600283FF457ADD8F8EB
:1029D00008309847034600287FF450AD3A68013527
:1029E00011680879E9B28842E3D847E5002345E554
:1029F000002343E5002341E500233FE55D22080075
:102A0000991300209C1300202DE9F04180B90C4659
:102A10009046002A0FDD8F18084E094D30682B684C
:102A2000214698470134BC42F8D14046BDE8F081C8
:102A30004FF0FF38F9E78046F7E700BFF81B0020AA
:102A4000F01B0020013802281AD82DE9F8430E4661
:102A50001746C2B14D1EDFF83C90DFF83C80D9F834
:102A600000002C46D8F8003015F8011F98470028C0
:102A70000BDB0234A01BEB433B44F342EFD106E0F7
:102A80004FF0FF307047104601E04FF0FF30BDE8D7
:102A9000F88300BFF81B0020F41B002001EB81012C
:102AA00000EB81010A67704701EB810100EB8101B6
:102AB0004A67704701EB810100EB81018A6770472B
:102AC00001EB810100EB8101C1F880207047426475
:102AD000B1F1805F15D00AD891B1B1F1006F0ED17C
:102AE000016F036F0B4023EA0203036707E0B1F1B4
:102AF000405F05D021F08051B1F1205F00D04260ED
:102B00007047036F13430367F9E7416412F0010F45
:102B100014BF4166016612F00A0F14BF01624162E0
:102B200012F0020F04D0C0F88010416101607047BC
:102B300012F0080F18BFC0F88410F6E710B4019C1B
:102B4000416444B1416643B1016542B10163016131
:102B5000016010BC70470166F5E74165F5E7416328
:102B6000F5E7C06C7047806C7047430903F50013AC
:102B700003F206735B02DB6B00F01F0023FA00F028
:102B800000F001007047430903F5001303F20673D8
:102B90005B0200F01F00012202FA00F01863704788
:102BA000430903F5001303F206735B0200F01F00F4
:102BB000012202FA00F0586370470000F0B583B0BC
:102BC0000E46430903F5001303F206735D0201F09C
:102BD000F043B3F1205F32D018D8B3F1006F1DD0AD
:102BE000B3F1805F18BF002016D100F01F00012450
:102BF000844022464FF080512846214B984716F0DA
:102C0000010012BF6C662C66012005E001F0E04374
:102C1000B3F1405F1ED0002003B0F0BD00F01F00F4
:102C20000124844022464FF000612846144B984707
:102C300016F0010012BF6C662C660120ECE700F074
:102C40001F010124324604FA01F128460D4B984732
:102C50002046E1E701F0605200F01F01012706EA7B
:102C600007030093C6F38003B2F1605F14BF002234
:102C7000012207FA01F12846034CA0473846CBE76A
:102C8000CF2A08000B2B08003D2B080070B582B03E
:102C900005460E46144602F0F043B3F1205F29D0FA
:102CA00014D8B3F1006F19D0B3F1805F18BF0020C2
:102CB00012D10A464FF080512846184B984714F01D
:102CC000010012BF6E662E66012005E002F0E043AF
:102CD000B3F1405F12D0002002B070BD0A464FF041
:102CE00000610E4B984714F0010012BF6E662E660D
:102CF0000120F1E70A4B98470120EDE702F060520E
:102D000004F001030093C4F38003B2F1605F14BFC9
:102D100000220122034CA0470120DDE7CF2A080052
:102D20000B2B08003D2B08002DE9F04104460E4610
:102D30000E4B9847054620460D4B9847054013D04B
:102D40000C4C04F1600803E044450DD010345DB133
:102D50002068B042F8D161682942F5D0E36898470D
:102D6000636825EA0305EFE7BDE8F081632B0800FF
:102D7000672B0800A413002008B50A210148024B64
:102D8000984708BD000C0E40292D080008B50B21FE
:102D90000148024B984708BD000E0E40292D08003F
:102DA00008B50C210148024B984708BD00100E40A1
:102DB000292D0800164A136B23F0030343F0010387
:102DC0001363936E13F0080F0AD14FF40063104998
:102DD0008A6E12F0080F03D1013BF9D10120704730
:102DE0000B4A136B23F0700303431363906E10F0D0
:102DF00008000AD14FF4006305498A6E12F0080FEB
:102E000005D1013BF9D10120704700207047704780
:102E100000040E40164A136B23F070030343136340
:102E2000936E13F0080F0AD14FF4006310498A6EB5
:102E300012F0080F03D1013BF9D1012070470C4A71
:102E4000136B23F0030343F002031363906E10F03F
:102E500008000AD14FF4006305498A6E12F0080F8A
:102E600005D1013BF9D10120704700207047704720
:102E700000040E4008490A6A03029BB222F00302D2
:102E8000134343F45C1343F001030B620A46936E51
:102E900013F0010FFBD0704700040E40024B986EF8
:102EA00000F00100704700BF00040E40024B986E16
:102EB00000F48030704700BF00040E40064B1B6AD0
:102EC00030B143F0807343F45C13034A13627047DC
:102ED00023F08073F7E700BF00040E40024B4FF071
:102EE00000529A62704700BF00040E40024B986E79
:102EF00000F00200704700BF00040E40024AD36990
:102F000023F48033D361704700040E40024B986E67
:102F100000F04000704700BF00040E401D280CD890
:102F2000084B9A6901238340934308D0012303FA95
:102F300000F0044B1861002070470120704700200A
:102F4000704700BF00040E401D280ED8084B9A6938
:102F500001238340934301D000207047012303FAEB
:102F600000F0034B5861002070470120704700BFFC
:102F700000040E404FF480738340014A1360704791
:102F800000040E40034B1A6FC0F312001043186781
:102F9000704700BF00040E400A4A136F43F48013C9
:102FA0001367094A136923F00403136120BF4FF428
:102FB000FA7300BF013BFCD1024A136A13F0080FF9
:102FC000FBD0704700040E4000ED00E02DE9F04713
:102FD0000446042818DC022828DC431E012B21D8D3
:102FE000934A136F23F480131367924A136923F0F3
:102FF00004031361904B01221A70BFF35F8F62B616
:10300000022811D020BF0DE005280BD1894A136991
:1030100043F004031361884B01221A70BFF35F8FE2
:1030200062B620BFBDE8F08730BFFBE772B6BFF3E2
:103030005F8F814B00221A70804B01221A707C4BEB
:103040001F6A1D6B7E4AD2F8009002F50072D2F81A
:1030500000809E6AD3F81CA047F45C1242F008027C
:103060001A6215F0020F0AD025F0030141F00101A8
:1030700019631A46936E13F0080FFBD000E029463F
:1030800011F0700F08D021F07001694B19631A46D6
:10309000936E13F0080FFBD06A4B98476A4B984722
:1030A000634A936E13F4003FFBD0614A136A23F026
:1030B0009B7323F4803343F45C131362936E13F415
:1030C000803FFBD029F470635D4A136028F470637D
:1030D00002F500721360042C09D1A2F5C062136AD4
:1030E00023F45C1323F0010343F45C131362524C8A
:1030F00001232370BFF35F8F62B6544B984772B6BB
:10310000BFF35F8F0023237017F0020F2AD0484AC5
:10311000136A4F4919404F4B0B431362136A23F450
:103120005C1323F0780343F45C1313624A4A324081
:1031300022B146F000563E4B9E6202221AF4803FB6
:1031400004D03B4BC3F81CA042F0400205F003033F
:10315000022B38D0032B3BD135498B6E13F0400F37
:10316000FBD035E017F0010FE0D0314B1B6A13F0B4
:10317000010F0ED12E4A136A23F45C1323F00303CC
:1031800043F45C1343F001031362936E13F0010FD9
:10319000FBD0274B1B6A13F0807F0AD1244A136AA5
:1031A00043F09B7343F480331362936E13F4803FB8
:1031B000FBD01F4A136A23F45C1323F0780343F413
:1031C0005C131362B2E71A498B6E13F0020FFBD047
:1031D00017490B6B23F0700305F0700003430B637A
:1031E0008B6E13F0080FFBD0154BC3F8009003F55E
:1031F0000073C3F80080A3F5C0631D6319468B6E8E
:1032000013F0080FFBD00A498B6E1342FCD00B4B16
:1032100000221A70114B1B681BB198470F4B0022FC
:103220001A60054B01221A70BFF35F8F62B6F9E690
:1032300000040E4000ED00E0820300201414002082
:1032400000080E40DD2E0800FD2E0800992F080012
:10325000FCFFC8FE020037010000FF071814002021
:10326000024B187880F00100704700BF1414002052
:1032700008B51420014B984708BD00BF1D2F08005A
:1032800030B443F69924056915F0020F03D1013CCF
:10329000F9D101200CE0446814F0020F06D01204AA
:1032A00002F4702211430BB141F08071C160002023
:1032B00030BC704732B100EB8100036B43F0010377
:1032C0000363704700EB8100036B23F0010303638A
:1032D000704732B100EB8100036B43F002030363DC
:1032E000704700EB8100036B23F002030363704718
:1032F000431E0B44B3FBF0F0431EFE2B94BF00B201
:103300004FF0FF30704700EB8101086B20F47F40E5
:1033100008630B6B43EA02230B6370470346C0B993
:10332000184A127892B1EFF3108072B6BFF35F8F34
:10333000154A0021117015498A78013A8A7028B916
:10334000114A01211170BFF35F8F62B60D4A1370ED
:1033500070470C4A1278002AF8D1EFF3108072B649
:10336000BFF35F8F084A0021117008498A78013243
:103370008A700028EAD1044A01211170BFF35F8FDF
:1033800062B6E3E71D14002082030020E81B002042
:10339000EFF3108372B6BFF35F8F0E4A00211170F6
:1033A0000D4A4FF48061C2F808112BB9094B012274
:1033B0001A70BFF35F8F62B6074B4FF40072C3F809
:1033C0001821064A0023136153619381044A137044
:1033D000704700BF8203002000400A40FC1B002011
:1033E00022140020034B05221A70034B2022C3F83D
:1033F000142170472214002000400A40114B032280
:103400001A70EFF3108172B6BFF35F8F0E4B00227C
:103410001A700E4B4FF48062C3F818214FF400600D
:10342000C3F81401C3F804214FF40042C3F8182173
:10343000C3F8042129B9044B01221A70BFF35F8F2E
:1034400062B67047221400208203002000400A4028
:1034500008B5024B1B6903B1984708BDFC1B00204F
:1034600038B5EFF3108372B6BFF35F8F4C4A00217B
:1034700011704C4A4FF48061C2F808112BB9484BC7
:1034800001221A70BFF35F8F62B6474B1B78032B84
:103490005AD0464B1B88464A9489E41AA4B2C4B950
:1034A000444A11880B449BB21380414AD2889A4205
:1034B0004FD0414B1B78002B4BD13D4B5B69002B10
:1034C0006CD09847002869D0384B00221A80384BBE
:1034D0009C893F2C92BF012200224024364B1A7057
:1034E000334B9A68314B1888EFF3108572B6BFF3EF
:1034F0005F8F2B4B002119702A4BD3F81C3113F42A
:10350000007F40D14CB102442C4B1946013312F8D4
:10351000010B0870D9B2A142F7D3244A13881C4486
:103520001480204B4FF48062C3F818214FF40061DF
:10353000C3F81411C3F804217DBB194B01221A7082
:10354000BFF35F8F62B628E01D4B98471D4B98472D
:1035500023E0154B04221A70EFF3108172B6BFF30B
:103560005F8F0F4B00221A700E4B4FF48042C3F84E
:103570001821C3F8042181B9094B01221A70BFF345
:103580005F8F62B609E02DB9054B01221A70BFF3B7
:103590005F8F62B6044B04221A7038BD01229DE78A
:1035A0008203002000400A40221400201E14002044
:1035B000FC1B0020201400201C14002000001820F8
:1035C000513408009133080038B503460846197D88
:1035D00011F0010F11D0197D6FF3000119751C68EE
:1035E0005CB102F108014901044D695811F0080F5E
:1035F00018BF42F080029968A04738BD00400A40D9
:10360000F8B50246431E03EB43006C4901EBC001D1
:10361000097D11F0010F00F0CA800146674800EBF8
:10362000C101CD688868854200F0A680401BB0F5D6
:10363000803F63D80404510101F1402101F52021AC
:10364000D1F8006116F0080F14D0D1F8006106F02F
:1036500007060821B1400139014268D044F008044E
:1036600003EB4301554E06EBC1010E7D6FF341069E
:103670000E755CE0510101F1402101F52021D1F8E6
:103680000061C6F30116012E4FD1D1F8006106F09A
:1036900007060821B140814247D248E044F02104A6
:1036A0008C6003EB4301454A02EBC102D16801443F
:1036B000D1601061424A11694FF0007000FA03F3C3
:1036C0000B431361002D72D13E4B01221A70BFF3E0
:1036D0005F8F62B66BE04FF40063C1F80431384B82
:1036E00019694FF4807000FA02F20A431A615EE031
:1036F000D1F800114FF48030002418E0510101F19D
:10370000402101F52021D1F8004114F00804EFD147
:10371000510101F1402101F52021D1F80001C0F350
:103720000110012844D04FF4803044F0140426499D
:1037300001EB021103EB4306204F07EBC606766848
:1037400035444D60EFF3108572B6BFF35F8F1D4EA9
:1037500000273770CE6816F0100F9FD02DB9194989
:1037600001200870BFF35F8F62B603EB430113487B
:1037700000EBC101C8688860510101F1402101F5E9
:103780002021D1F8000110F0080F08D003EB43000E
:103790000A4C04EBC000007D10F0020F9BD103EB3C
:1037A00043030021054800EBC300084B9847F8BDD0
:1037B000D1F800114FF48030B9E700BF2414002085
:1037C00000400A408203002000430A40C935080037
:1037D0002DE9F0411D20A04B9847A04B984720B9F8
:1037E0009F4B5B6913F0020F41D09D4B5B6913F057
:1037F000080F43D19A4B5B6913F0040F4CD1984AE0
:10380000D2F81C31526912F4807F29D0944A4FF4C7
:103810008041C2F808114FF40041C2F8081113F4B6
:10382000805F3FD113F4806F06D08D4AD2F80C210F
:1038300012F4806F40F09E8013F4007F40F09D8072
:1038400013F4005F04D0864A4FF40051C2F81811F7
:1038500013F4004F40F0448113F4804F40F0558141
:1038600001237F494FF0007C4FF4807E9CE172B6CB
:10387000BFF35F8F7B4B00221A7008E0784B082261
:103880009A615B6913F0010F03D0774B9847BDE84D
:10389000F081764B9847F8E7714B04229A61734B9D
:1038A0009847F4E7724B1B78002B40D16C4BD3F850
:1038B0001C31C3F30A53082B3ED16E4A6E4B6F483E
:1038C00019460133097802F8011F8342F8D16C4B85
:1038D0009847002838D0624B4FF48052C3F8182123
:1038E000684B93F90030002B36DB664BDB88002BEE
:1038F0003DD00023644A1380644A13805C4A01214E
:103900001170574A4FF48041C2F81811EFF310803C
:1039100072B6BFF35F8F534C2370C2F804110028B6
:10392000B5D101222270BFF35F8F62B6AFE7584B6B
:103930009847584B9847B9E7574B9847484B4FF42F
:103940008052C3F81821A2E7534B9847444B4FF4D9
:103950008052C3F818219AE700234B4A13804B4A40
:103960001380434B02221A704C4B98478FE74C4B05
:1039700098478CE7494B984789E73D4B1B78012BCB
:103980000BD0022B01D0042B04D1414B9847414B63
:1039900098477CE7404B9847F9E7314BD3F81C0137
:1039A000C0F30A50374B9B89384A14882218934237
:1039B000BCBF1B1B98B2334B9A68224470B12E4B8C
:1039C00019460133097802F8011BD9B28142F7D3B5
:1039D0000444A4B22D4B1C8040280DD0294B9C815F
:1039E0005B690BB1984770B31D4B4FF40072C3F87D
:1039F00018212B4B98474AE7224BDA88224B1B8829
:103A000023449A42EADD1F4B9B89A3424AD0144BC0
:103A10004FF40072C3F818214FF48042C3F8182104
:103A2000EFF3108172B6BFF35F8F0E48002404706D
:103A3000C3F8042100297FF42AAF01220270BFF3EA
:103A40005F8F62B623E7144B9847054B4FF4007223
:103A5000C3F818211BE700BF1D2F080061320800C2
:103A600000400A4082030020611C0800F123080086
:103A700022140020FB1B0020000018200800182042
:103A800035240800FC1B0020201400201E140020F8
:103A90005134080091330800E53308006134080010
:103AA000FD330800B34B5B6953B1984780B1B2490D
:103AB000B24A0B88108803440B8000231380A6E7CA
:103AC000AF4B9847AF4B4FF40072C3F81821DEE6B6
:103AD000AB4B9847AB4B4FF40072C3F81821D6E6B6
:103AE000A84B4FF40042C3F81821D3F81C3113F44B
:103AF000806F7FF4CCAEA44B1B78032B7FF4C7AE52
:103B0000A04B2022C3F81421C1E69E4B4FF4804203
:103B1000C3F81821D3F81C3113F4007F7FF4B7AE3B
:103B2000994B1B78012B07D0042B7FF4B0AE954B3B
:103B30002022C3F81421AAE6944B9847A7E6944B99
:103B400003EB0213D96811F0010F7FF4A0AE8D488A
:103B5000016921EA06060661DB681B0C08D08D4965
:103B600005EB450401EBC404E068C31AE360A360FD
:103B70001046894B98478AE6630103F1402303F519
:103B800020234FF40061C3F80811C3F8141105EBAA
:103B9000450500217F4800EBC500804B984776E63D
:103BA0000133032B00F0B680DAB21C465D1EA84636
:103BB0000F690CFA05F6374202D048690642BED1B9
:103BC0000F690EFA04F63742EAD001EB4410D0F840
:103BD0000C0110F4006F06D001EB4410D0F81C016A
:103BE00010F4006FC8D001EB4412D2F80C2112F48B
:103BF000802FD5D001EB4412D2F81C2112F4402FB3
:103C0000CED1604B03EB44144FF48022C4F808215A
:103C10001A6922EA06061E6108EB48085D4B03EBB1
:103C2000C80898F814306FF3820388F81430D4F879
:103C3000083123F00203C4F808312023C4F81431FA
:103C40004023C4F8183122E64E4C1023A361514E94
:103C5000012211463046514DA8470222012106F1AA
:103C60001800A8474E4B9847236823F07F03236032
:103C7000236843F080032360D4F8003123F47F737A
:103C800023F0030343F04303C4F800310123C4F8D5
:103C90000431EFF3108272B6BFF35F8F414B002106
:103CA00019704FF48053C4F804314FF40073C4F812
:103CB0000431236943F4807323612AB9394B01220B
:103CC0001A70BFF35F8F62B6374B98472D4B1A6956
:103CD00042F008021A611A6942F004021A611A6974
:103CE00042F002021A61D2E5264B20229A611A693B
:103CF00022F002021A611A6942F020021A610222BD
:103D00009A611D20294B9847294B98470020294B41
:103D10009847BCE51B4B5B6913F0100F94D1194B0E
:103D20001B6913F0020F04D0164B5B6913F0020FEE
:103D3000DAD1144B5B6913F0200F3FF4A8AD0120DA
:103D40001C4B98470F4B02229A6120229A611A69F4
:103D500022F020021A611A6942F002021A611A69FD
:103D600042F008021A611A6942F004021A61124B09
:103D700098478CE5FC1B0020201400201E14002016
:103D8000E533080000400A4022140020FD330800FB
:103D900000430A402414002001360800C9350800F9
:103DA000A92308008203002091330800492F08004E
:103DB000491C08001D330800551C080010B5EFF31E
:103DC000108472B6BFF35F8F1D4B00221A70012062
:103DD0001C4B98471D201C4B98471C4B1A6842F4FB
:103DE00000621A601A6822F400721A601A6942F0BE
:103DF00010021A611A6942F002021A611A6942F04D
:103E000020021A611A6942F008021A611A6942F026
:103E100004021A6108229A6104229A6110229A61AE
:103E200002229A6120229A611D20094B98472CB9E1
:103E3000034B01221A70BFF35F8F62B610BD00BF43
:103E4000820300201D3308001D2F080000400A4097
:103E5000492F080070B5274B98471D20264B9847DF
:103E6000EFF3108672B6BFF35F8F244D00242C70E1
:103E7000234B1A6842F480721A60224A502182F859
:103E80001D134FF0005111601F4A117D01F0FE011A
:103E900064F38201117592F82C1001F0FE0164F3B5
:103EA000820182F82C10D3F8E02022F00302C3F83C
:103EB000E0204FF48020154B9847154B1C70EFF312
:103EC000108172B6BFF35F8F2C70124AD378013322
:103ED000D37021B901222A70BFF35F8F62B60E4BF7
:103EE00098472EB9054B01221A70BFF35F8F62B657
:103EF00070BD00BFA12008001D2F08008203002014
:103F000000400A4000E100E024140020852F080052
:103F10001D140020E81B0020BD3D080008B51D2031
:103F2000084B9847084B1A6842F400721A601A68E6
:103F300022F400621A601D20044B98470020044BB5
:103F4000984708BD1D2F080000400A40492F08006F
:103F50001D330800024B586900F00100704700BF94
:103F600000400A40084B1A6822F080021A601A6862
:103F700022F07F0200F07F0002431A601A6842F0CC
:103F800080021A60704700BF00400A40024B186868
:103F900000F07F00704700BF00400A40024B5868A5
:103FA000C0F3CA00704700BF00400A40014B986050
:103FB00099817047FC1B002000F00F02022A00D9F3
:103FC000704770B5530103F1402000F52020012116
:103FD000C0F808110346D0F8000120F0C000C3F873
:103FE0000001551E084C05FA01F605EB450004EBEF
:103FF000C000064B9847354404EBC504237D6FF39E
:104000008203237570BD00BF24140020C935080049
:1040100000F00F00430103F1402303F52023D3F800
:104020001C3113F0200F09D1013800EB4000044B84
:1040300003EBC000007DC0F3800070470120704793
:104040002414002000F00F03022B51D85A0102F172
:10405000402202F52022D2F81C2112F0200F49D173
:1040600010B4591E01EB4104254A02EBC402127D33
:1040700012F0040F40D112F0010F3FD110F0800F69
:1040800014D15B0103F1402303F52023D3F8082169
:1040900022F00202C3F808214FF40052C3F818219D
:1040A0002022C3F81421012010BC70475A0102F1EC
:1040B000402202F52022D2F81C2112F4402FE0D039
:1040C0000F4A02EBC4010A7D42F004020A750D4951
:1040D00003F1080201EB42124FF48020506008699E
:1040E0004FF4807202FA03F303430B610120DBE714
:1040F00000207047012070470120D5E70020D3E75A
:104100002414002000400A4000F00F00022862D86A
:1041100038B5421E02EB4201374B03EBC1031B7D56
:1041200013F0040F5BD00B46334901EBC303197D39
:104130006FF382011975314B03EB40154FF4802169
:10414000C5F8081119694FF48074844021EA04010C
:104150001961D5F81C3113F0200F24D0430103F16D
:10416000402303F52023D3F81C3113F4005F0BD058
:10417000430103F1402303F520234FF40051C3F81A
:1041800018114021C3F81811430103F1402303F52E
:1041900020232021C3F818111846D3F8043143F026
:1041A0000203C0F8043102EB4203134901EBC303DD
:1041B0001B7D13F0010F10D002EB420301EBC30390
:1041C000187D6FF30000187502EB420251F832308F
:1041D0009847012002E000207047012038BD4301CC
:1041E00003F1402303F52023D3F81C3113F0200FF3
:1041F000B4D10120F2E700BF2414002000400A409F
:1042000000F00F00022868D8F8B5440104F14024FA
:1042100004F52024D4F80C4114F0010F5FD04401C0
:1042200004F1402404F52024D4F81C4114F0200F9C
:1042300057D1441E04EB44062D4D05EBC6052D7DDC
:1042400015F0040F4FD1EFF3108772B6BFF35F8FF5
:10425000284D00262E7004EB4405254E06EBC505BF
:104260002D7D15F0010F21D104EB4405204E06EB06
:10427000C5052E7D46F001062E752FB91D4D012670
:104280002E70BFF35F8F62B6194E04EB440706EB46
:10429000C7056A60AB600022EA602A61069A46F8A8
:1042A000372061B9B3FA83F35B0909E0EFB9114B29
:1042B00001221A70BFF35F8F62B6002010E0012365
:1042C00004EB44040A4A02EBC404227D63F3410276
:1042D0002275094B9847012002E00020704700201A
:1042E000F8BD0020FCE70020FAE70020F8E700BF57
:1042F0002414002082030020013608002DE9F04F2D
:1043000083B000F00F05022D00F215816B0103F15F
:10431000402303F52023D3F80C4114F0010440F0AE
:104320000E8101F00307022F55D0032F52D0012F29
:1043300001D0002000E1002D4DD002F4C053B3F5B0
:10434000006F44D0B3F5805F14BFB8464FF0030848
:1043500022F4C05292B24FF0010E4FEA451C0CF10C
:10436000402C0CF5202CDCF8006126F47F7626F03A
:104370000306090101F0300110F0800F0CBF204648
:104380000820B2F5806F2ED2082A38BF08225300C9
:10439000013BB3FA83F3C3F11C03314341EA8717AE
:1043A0003843BEF1000F01D04FEA082403432343F2
:1043B000CCF80031DCF80031002B80F2C4800123FE
:1043C000CCF80431022300266148012412E04FF0AA
:1043D0000208BDE7012712F4C05F40F0B2804FF041
:1043E000000EF046B9E740F2FF73D2E7013BDBB2C3
:1043F0009D421ED800EB4312D2F80C2112F0010F9F
:10440000F4D05A0102F1402202F52022D2F8001124
:10441000C1F381115F00B9400E43B6B200EB431106
:10442000C1F80841D2F8001121F0C001C2F8001112
:10443000DCE72C4605EB4505464B03EBC5051F465F
:104440004FF00108DFF8109123E00EEB4E03414AD4
:1044500052F83340002C78D00CF1080C4FEA4C1C79
:104460003B4B53F80C3013F0080F18BF40F080009E
:104470000EEB4E0E374B03EBCE0E0246DEF80C1061
:104480000120A047002057E001341835E3B2022B89
:104490004FD8E0B2A446630046FA03F313F00302D8
:1044A000F2D004F1FF3E0EEB4E0107EBC1010B7D94
:1044B00003F0010A6FF300030B75630103F140235E
:1044C00003F52023D3F8001121F0C00141EA821244
:1044D000C3F80021C3F80481D3F80021002AB4DA1C
:1044E000D3F8042142F00202C3F80421BAF1000F0C
:1044F000CAD055F80CBC55F8082CABEB020145F8B6
:104500000C1C55F8103C02EB030A55F8142C0EEB6A
:104510004E0E07EBCE0E9EF814C055F8183C0093D3
:10452000AAEB0B030A44CCF34001C8470028ABD1E7
:1045300002E0012000E0002003B0BDE8F08F002081
:10454000FAE70020F8E70020F6E70020F4E700BFD4
:1045500000400A40241400200142080010B500F079
:104560000F02184B03EB02130021996010F0800F2B
:1045700009D1501E00EB40000121134B03EBC0009A
:10458000124B984710BD510101F1402101F5202146
:10459000D1F81C1111F4402FEBD0530103F140214D
:1045A00001F5202101F58A744FF400702060D1F8E4
:1045B0001C3113F4007FFAD1D1F81C3113F4402FD1
:1045C000F4D1D6E700430A4024140020C93508007E
:1045D000074AD2F8E03023F0030343F00203C2F8A5
:1045E000E030D2F8E03043F00403C2F8E030704726
:1045F00000400A40074AD2F8E03023F0030343F0BA
:104600000203C2F8E030D2F8E03043F00803C2F809
:10461000E030704700400A40044AD2F8E03023F00E
:10462000030343F00203C2F8E030704700400A4041
:1046300030B48EB06C46214D0FCD0FC40FCD0FC4DA
:104640000FCD0FC495E8030044F8040B21701C4BF8
:104650000121C3F80811D3F8002122F47F7222F05F
:10466000030242F06B02C3F80021C3F80411D3F82F
:10467000E02022F0030242F00202C3F8E020D3F867
:10468000E02042F01002C3F8E0206B460D480EAA6D
:10469000801A0DF135041A1813F8011B1170A3428A
:1046A000F9D1074B4FF48062C3F818214FF4006230
:1046B000C3F814210EB030BC704700BFF0BD080035
:1046C00000400A403800182010B4AC2303600B6887
:1046D0004A68B3FBF2F31B095C1E4FF6FE7294426C
:1046E0000BD803628B68436040F20223C0F820318C
:1046F00050230360002010BC70470120FBE7436992
:1047000013F0020F1ABFC1610020012070474369F6
:1047100013F0010F1DBF83690B700020012070474B
:10472000FEE7000008B51D4A1D4B9A4211D01A46FB
:104730001C4B9A420DD21146013B9B1A23F00303F6
:104740000433164A134452F8040B41F8040B9A42FE
:10475000F9D1154A154B9A420AD2013B9B1A23F014
:10476000030304331344002142F8041B9342FBD19A
:104770000F4B23F0604222F07F020E498A6003F162
:104780006043B3F5004F03D28B6843F000538B6056
:10479000094B9847094B9847FEE700BF14C3080030
:1047A00000000020580D0020580D00203C1C002067
:1047B0000000080000ED00E04D4F0800F94C080033
:1047C0003D4B1A6B02F00303012B32D012F0020FA3
:1047D0001BD153B9394B5B6913F0800F384B14BFB1
:1047E0004FF400424FF4FA421A60334B1B6B03F054
:1047F0007003702B58D0304B1A6BC2F30212304B3F
:104800001B68D3402E4A136070472B4B1B6A13F072
:10481000807F2AD12A4B2B4A1A60274B1B6A03F050
:104820007003102B2ED0202B22D1254B264A1A6044
:104830001EE0214B1B6A13F0807F03D0204B224ADD
:104840001A60D2E71E4B1F4A1A601B4B1B6A03F00B
:104850007003102B05D0202BC7D1194B1A4A1A60B0
:10486000C3E7174B194A1A60BFE7154B164A1A607F
:10487000114B1B6B03F00303022B07D0104B144AA0
:104880001A60B2E70E4B114A1A60F1E70A4A916AC0
:10489000926A0B48C1F30A41036801FB0333D2B2A9
:1048A000B3FBF2F30360A0E7054B1B68094AA2FBC8
:1048B00003235B08A6E700BF00040E4010120E4061
:1048C0008403002000093D00001BB70000127A009D
:1048D000001C4E0EABAAAAAA0346094A12685AB196
:1048E000074A1068C118074A9142DDBF0B46044AC7
:1048F00013604FF0FF307047014A03491160EFE742
:1049000054140020FCFF0720002008204FF0FF3047
:1049100070474FF400534B600020704701207047F0
:104920000020704708B501460148024B9847FEE752
:1049300028BE0800954F080070474FF0FF307047C1
:10494000F0B583B005460C46002301931E4B9842F8
:104950000FD01E4B984220D01D4B984210D11E46BE
:104960001C4D01A93046A8470028FAD1019B2370AD
:1049700028E01F46184E21463846B0470028FAD195
:10498000164B9D4212D11E46124D01A93046A84732
:104990000028FAD1019B237014E01F460D4E01A997
:1049A0003846B0470028FAD1019B23700C4B9D423A
:1049B00008D11E46074D01A93046A8470028FAD164
:1049C000019B237003B0F0BD00060E4000000940BB
:1049D00000400940C30408000F4708000080094058
:1049E00000C0094070B50C461E4B98420DD01E4BBE
:1049F000984213D01D4B984219D01D4B98421FD09E
:104A00001C4B984225D0002070BD1E461A4D2146F1
:104A10003046A8470028FAD10120F5E71E46174D79
:104A200021463046A8470028FAD10120ECE71E466F
:104A3000124D21463046A8470028FAD10120E3E76D
:104A40001E460E4D21463046A8470028FAD10120C7
:104A5000DAE71E46094D21463046A8470028FAD11C
:104A60000120D1E700060E40000009400040094047
:104A70000080094000C00940FF4608009D0408006E
:104A800070B504464FF040513620954DA8474FF081
:104A900040513220A8474FF020510720A847002C52
:104AA0007ED0904D294629208D4CA04729462A20AA
:104AB000A04729462B20A04729462C20A04729465D
:104AC0002D20A04729462E20A04729462F20A04769
:104AD00029463020A04729463320A04729463720C1
:104AE000A04729463420A0477F4E31462720A047C3
:104AF00031462820A04729464020A047294641208A
:104B0000A04729464220A04729464320A0472946DE
:104B10004420A04729464520A04729464620A047D3
:104B200029464720A04729464820A0472946492032
:104B3000A04729464A20A04729464B20A04729469E
:104B40005420A04729465520A04729465620A04773
:104B500029465720A04729465820A04729465920D2
:104B6000A04729465A20A0474FF060510820A0478F
:104B700008205E4B98474FF040513120A0474FF03E
:104B800060510820A0474FF000610D20A0474FF072
:104B900000610E20A0474FF000610F20A04770BDBC
:104BA0004FF0205129204E4CA0474FF020512A2091
:104BB000A0474FF020512B20A0474FF020512C2030
:104BC000A0474FF020512D20A0474FF020512E201C
:104BD000A0474FF020512F20A0474FF02051302008
:104BE000A0474FF020513320A0474FF020513720ED
:104BF000A0474FF020513420A0474FF020512720EC
:104C0000A0474FF020512820A0474FF020514020CE
:104C1000A0474FF020514120A0474FF020514220A3
:104C2000A0474FF020514320A0474FF0205144208F
:104C3000A0474FF020514520A0474FF0205146207B
:104C4000A0474FF020514720A0474FF02051482067
:104C5000A0474FF020514920A0474FF020514A2053
:104C6000A0474FF020514B20A0474FF02051542037
:104C7000A0474FF020515520A0474FF0205156201B
:104C8000A0474FF020515720A0474FF02051582007
:104C9000A0474FF020515920A0474FF020515A20F3
:104CA000A0474FF02052FF211148124B98474FF078
:104CB00020513520A0474FF020513120A0474FF020
:104CC00020510820A0474FF020510D20A0474FF061
:104CD00020510E20A0474FF020510F20A0475EE743
:104CE000BD2B08000100000801000010872B080000
:104CF000000E0E408D2C08002DE9F04188B01021E7
:104D00000DEB0100534B98470820534DA847534CD7
:104D1000534B1C60534B544A1A60544B544A1A600C
:104D2000544B01934FF4E13302934FF40063039328
:104D30000820A84701A920464F4B98474F4D2B68A4
:104D4000002198684E4CA0472B6800215868A04766
:104D500001214C4B1970BFF35F8F62B64A4B0022A2
:104D60001A705A709A70DA701A715971474B9847D5
:104D7000474B9847474B9847474B9847474B98476F
:104D800004AC474D0DF12008464F474E54F8042B14
:104D900039462846B04708354445F7D1404E0024EF
:104DA00086F82040414A42494248434DA84731468F
:104DB0004248A8470920284B98470120404FB84750
:104DC0004048A847404E414A21463046404B98470C
:104DD000404A21463046404B98474FF00412214646
:104DE00030463E4B98470322214630463C4B98477D
:104DF0003C4B98473C4B98473C4B04221A64204656
:104E00003B4B98473B48A8472046B8471D4C0027D6
:104E10003E461D4DDFF8E48006E001232370BFF31A
:104E20005F8F62B6344B984772B6BFF35F8F2670C0
:104E300028780028F1D1144B0130C0B213F8012FAB
:104E4000002AF9D00028E8D072B6BFF35F8F277030
:104E5000C047E7E7BD1F08001D2F080000060E40F1
:104E6000F81B0020F41B0020E5490800F01B00207F
:104E70004149080000D8B805C9460800AC03002025
:104E80004951080082030020E81B0020D5200800BB
:104E90005101080031060800D11408005D05080022
:104EA0008803002044BE0800F95208004CBE0800E8
:104EB00058BE080064BE0800954F080098BE080060
:104EC000814A0800ACBE080000000E40000101014C
:104ED0009D2A080003010303A92A0800B52A080037
:104EE000C12A0800092008009D23080000040E4084
:104EF000752F0800CCBE0800B1130800CD2F0800A4
:104F000008B53E200E4B9847003818BF01200D4BC6
:104F10001B78984200D108BD3E20094B984758B1F4
:104F20000120094B98473E20054B9847003818BF91
:104F30000120044B1870EEE70020034B9847F2E77E
:104F40006B2B080058140020814A080070B50D4EE4
:104F50000D4D761BB61006D0002455F8043B0134E5
:104F60009847A642F9D1094E094D07F0BDF9761BC5
:104F7000B61006D0002455F8043B01349847A642E9
:104F8000F9D170BDF4C20800F4C20800FCC20800E8
:104F9000F4C208000FB400B5074983B004AB086839
:104FA00053F8042B8168019301F0ACFF03B05DF866
:104FB00004EB04B0704700BFAC030020844641EA14
:104FC000000313F0030349D1403A23D30B68036075
:104FD0004B6843608B688360CB68C3600B69036177
:104FE0004B6943618B698361CB69C3610B6A03625F
:104FF0004B6A43628B6A8362CB6AC3620B6B036347
:105000004B6B43638B6B8363CB6BC363403040312B
:10501000403ADBD230320BD30B6803604B684360FD
:105020008B688360CB68C36010301031103AF3D2C4
:105030000C3205D351F8043B40F8043B043AF9D252
:10504000043208D0D2071CBF11F8013B00F8013B25
:1050500001D30B8803806046704700BF082A13D332
:105060008B07B1D010F00303AED0C3F10403D21A02
:10507000DB071CBF11F8013B00F8013BA4D331F85A
:10508000023B20F8023B9FE7043AD9D3013A11F8DA
:10509000013B00F8013BF9D20B7803704B78437069
:1050A0008B78837060467047F0B4860746D0541EF4
:1050B000002A3CD00346CAB201E0013C37D303F8D2
:1050C000012B9D07F9D1032C2AD9CDB245EA05253C
:1050D0000F2C45EA054534D9A4F1100222F00F0C3B
:1050E00003F120071609674403F1100242E9045551
:1050F00042E902551032BA42F8D1721C14F00C0F7A
:1051000003EB021204F00F0613D0331F23F0030346
:105110000433134442F8045B9342FBD106F00304CA
:105120002CB1CAB21C4403F8012B9C42FBD1F0BC49
:10513000704734461346002CF3D1F8E71446034673
:10514000C1E71A462646E0E700290CBF02220022EA
:105150004FF4806300F000B82DE9F043654D04463C
:10516000D5F800900F4690461E4683B0B9F1000F67
:1051700003D0D9F83830002B79D0B8F1020F06D01F
:10518000B8F1010F00F2A380002EC0F2A080636E80
:10519000D90752D52146484603F092FE216B41B112
:1051A00004F14003994202D0484604F009F8002374
:1051B00023630023B4F90C50A36163602B0665D40C
:1051C00025F44A6525F00305B8F1020FA58164D0E6
:1051D00001AB6A462146484604F0A4FAA389184365
:1051E000A081002E30D0002F2FD0D9F83830002BDE
:1051F00039D0009BC4E90476B342B4F90C3027607F
:105200001CBF43F40063A381B8F1010F04BF43F056
:105210000103A3819AB213F008032CD0D10754D50F
:1052200000217642A661666EA16016F0010627D0C5
:105230000026304603B0BDE8F083A3899A05A9D4BF
:10524000A06D04F06BFAA5E7009E304604F0E2FA88
:10525000074600283ED0A38943F08003A381D9F8F4
:105260003830002BC5D1484603F086FEC1E74846DA
:1052700003F082FE81E7A360666E16F00106D7D1C7
:1052800093051BD5304603B0BDE8F083484621693D
:1052900003F096FFB4F90C5092E700260023012199
:1052A000626E45F00205A360D70704F14303A581B0
:1052B000616123602361E5D4A805E3D4A06D04F007
:1052C0002FFA304603B0BDE8F083A660D4E74FF074
:1052D000FF36D7E7009DB54204D0284604F09AFA7D
:1052E000074620B94FF0FF36B4F90C50D6E72E46EA
:1052F000B1E700BFAC0300200EB4014630B56FF03B
:1053000000449CB01FAB0B4853F8042B0A4D02918C
:105310000691006802A90193CDE90445079400F0C5
:105320000DF80022029B1A701CB0BDE8304003B09B
:10533000704700BFAC0300200802FFFF2DE9F04FCB
:10534000D7B08B4617460E93814604F0DFF9036809
:105350001846189305F0DCFBBBF80C3017901D06BF
:1053600004D5DBF81030002B00F0DF87002300218C
:105370000022CDE92B33CDE91A33CDE91C33139349
:1053800019930A932DAB98462A933B78DA46CDE9D8
:105390001412002B00F0A4813C4604E014F8013FF5
:1053A000002B00F0FD80252BF8D1E51B40F0FB80A1
:1053B0002378002B00F0948100230B938DF88B3021
:1053C00007934FF0FF33667804F1010B20212B2463
:1053D00009930BF1010BA6F120035A2B00F2FF8079
:1053E000DFE813F0BC02FD00FD00B502FD00FD008A
:1053F000FD009102FD00FD006A00E702FD0034029D
:10540000CD02FD00C6025B005B005B005B005B0041
:105410005B005B005B005B00FD00FD00FD00FD002C
:10542000FD00FD00FD009001FD00F7017C009001F2
:1054300090019001FD00FD00FD00FD008A02FD00CD
:10544000FD00A900FD00FD00FD000B02FD003B0278
:10545000FD00FD008107FD00FD00FD00FD00FD00D9
:10546000FD00FD00FD009001FD00F70180009001AE
:1054700090019001800280007500FD007602FD0021
:105480005E02AD004C027500FD000B0272005B076E
:10549000FD00FD005F07FD0072000022A6F1300351
:1054A0001BF8016B02EB820203EB4202A6F1300310
:1054B000092BF5D90B928EE70E9B53F8042B002A8B
:1054C0000B920E93C0F2BF819BF8006081E7079BAF
:1054D0009BF8006043F0200307937AE7079B43F0B3
:1054E00010030793079B9C0640F162810E9B0733D4
:1054F00023F007031946F1E8022314461D460E91D6
:10550000002A73F10003C0F2AB85099B0133079BAE
:1055100000F0148423F0800354EA0502089340F05D
:105520000E84099A002A40F00F840793002356AF97
:1055300009930C936BE2079B43F010030793079BBF
:105540009A0640F126810E9B073323F00703F3E808
:1055500002450E93079B23F48063089300230022E7
:105560008DF88B20099A1146013100F0318208999B
:1055700021F08001079154EA050140F02782002ABA
:1055800040F07D83002BD1D1089B13F001030C93D5
:1055900000F0908530230DF257178DF8573136E221
:1055A000E51B00F09D80DDE92B3201332A44072BF7
:1055B000C8E90075CDE92B3206DC08F108080A9A23
:1055C00023782A440A92F4E6514648462AAA05F06E
:1055D00001FB002841F0CE830DF1B408EFE7002E67
:1055E0007ED0002301211A4608918DF8F4608DF8D1
:1055F0008B300D9309931293169310930C913DAF3A
:10560000079B13F0020302D0089902310891079911
:1056100011F084010F9105D10B9908980D1A002DF6
:1056200000F34B832C9C72B101202B9A044402445A
:105630000DF18B01072ACDE92B24C8E9001000F3F6
:10564000CD8308F108086BB102212B9B0C44013378
:1056500023AA072BCDE92B34C8E9002100F3CC8322
:1056600008F108080F9B802B00F03482099B0C9AEC
:105670009D1A002D00F36E82079BD90500F1D5819C
:105680002B9B0C9A01331444072BC8E900722C940D
:105690002B9300F3978308F10808079B590705D55A
:1056A0000B9B089A9D1A002D00F3B283DDE90A32A4
:1056B00008998A42ACBF9B185B180A93002C40F0F3
:1056C0007D8200232B930D9B1BB148460D9903F05F
:1056D00077FD5F460DF1B4083B78002B7FF45CAE9C
:1056E0002C9BD346002B41F04B82BBF80C3013F0BF
:1056F000400F0A9B18BF4FF0FF330A930A9857B028
:10570000BDE8F08F0E9B073323F007031946F1E83D
:105710000223CDE91423DDE9143424F000441D46AE
:1057200018460E914FF0FF322146A44B06F086F941
:10573000002840F0D984284621464FF0FF329F4B85
:1057400006F05EF9002840F0CF84DDE91401002264
:10575000002306F04BF9002841F00E809DF88B20C5
:1057600003200021964F974B08900D91472EC8BFFC
:105770001F46079C0C9024F0800407940991129115
:1057800016911091002A3FF43BAF089B0133089318
:1057900036E7079BDB0600F19C84079B5F0640F120
:1057A000B2870E9B002553F8044B0E93A4B2D1E6AA
:1057B000079BD80600F16885079B590640F1BE8714
:1057C0000E9B53F8044B24B2E5170E9322462B464A
:1057D00096E6002101240E9B0A4653F8040B089418
:1057E000CDE90D138DF88B108DF8F400099112910D
:1057F000169110910C943DAF02E700250E9C8DF898
:105800008B5054F8047B002F00F09F85099A1346B3
:10581000013300F070872946384604F0C7FA0D902E
:10582000002801F0B9802B460D9A0995D21B0C92E5
:1058300022EAE27208920E949DF88B200D93129347
:10584000169310939EE70B9B5B420B93079B9BF871
:10585000006043F004030793BBE5079B43F010038C
:105860000893089B9D0640F1EA830E9B073323F0C3
:105870000703F3E802450E93012370E647F6300272
:105880000E9B079953F8044B41F002010E934E4BC7
:1058900000251993782602230891ADF88C205EE646
:1058A000079B9D0600F10884079BDC0600F1E1865A
:1058B000079B580600F19587079B990540F1D9860B
:1058C0000E9B0A9953F8042B5F4611700E9303E761
:1058D0009BF80060079B6C2E00F0088543F01003D6
:1058E000079376E59BF80060079B682E00F007851C
:1058F00043F0400307936CE5079B9BF8006043F07F
:105900000803079365E5484603F000FF436818461F
:105910001C9305F0FDF8034648461D461D9303F011
:10592000F5FE826820211A92002D3FF4CDAD1A9B1E
:10593000002B3FF4C9AD1A9B1B78002B3FF4C4AD7C
:10594000079B9BF8006043F48063079341E5079B46
:105950009BF8006043F0010307933AE59DF88B3014
:10596000002B7FF4B1AD9BF800608DF88B1030E513
:10597000079B9BF8006043F08003079329E55A4694
:1059800012F8016B2A2E01F05182A6F13003092B87
:10599000934698BF002201F2EF801BF8016B02EBE7
:1059A000820203EB4202A6F13003092BF5D90992DA
:1059B00011E59BF800608DF88B400AE5FFFFEF7F53
:1059C000F0BE0800F4BE080000BF0800079A089265
:1059D000012B00F0B481022B00F0598156AFE20890
:1059E00042EA4572E90804F007030D4614463033D5
:1059F00054EA05013A4607F8013DF0D108990846F6
:105A0000C00700F1B88256ABDB1B07910C93002353
:105A100009990D931293169310930C9B9DF88B206C
:105A20008B42B8BF0B460893ACE6652E40F3D88096
:105A3000DDE914010022002305F0CEFF002800F06C
:105A40001E8201212B9BC54A0B440C44072BCDE938
:105A50002B34C8E9002100F3BB8508F10808249B1A
:105A6000139A934280F221832B9B179A0133189942
:105A70001444072BC8E900122C942B9300F348849C
:105A800008F10808139B5D1E002D7FF706AE102D50
:105A900040F3C785B24F10262B9B0F9705E008F106
:105AA0000808103D102D40F3BF8501331034072B3B
:105AB000CDE92B34C8E90076F1DD514648462AAAE3
:105AC00005F088F8002840F08180DDE92B340DF1E5
:105AD000B408E6E70B9B089A9D1A002D7FF7C6AD28
