:020000040800F2
:1000000070280024AD0200082D28000825280008CB
:10001000292800080D04000801380008000000002D
:10002000000000000000000000000000392B000864
:100030001D040008000000002F2800083B2B0008CA
:10004000C7020008C7020008C7020008C70200086C
:10005000C7020008C7020008C7020008C70200085C
:10006000C7020008C7020008C7020008C70200084C
:10007000C7020008C7020008C7020008C70200083C
:10008000C7020008C7020008C7020008C70200082C
:10009000C7020008C7020008C7020008C70200081C
:1000A000C7020008C7020008C7020008C70200080C
:1000B000C7020008C7020008C7020008C7020008FC
:1000C000C7020008C7020008C7020008C7020008EC
:1000D000C7020008C7020008C7020008C7020008DC
:1000E000C7020008C702000800000000C70200089D
:1000F000C7020008C7020008C7020008C7020008BC
:10010000C7020008C7020008C7020008C7020008AB
:10011000C7020008C7020008C7020008C70200089B
:10012000C7020008C7020008C7020008C70200088B
:10013000C7020008C7020008C7020008C70200087B
:1001400000000000000000000000000000000000AF
:10015000C7020008C7020008C7020008C70200085B
:10016000C7020008C7020008C7020008C70200084B
:10017000C7020008C7020008C7020008000000000C
:10018000C7020008C7020008C7020008C70200082B
:10019000C7020008C7020008C7020008C70200081B
:1001A000C7020008C7020008C7020008C70200080B
:1001B000C7020008C7020008C7020008C7020008FB
:1001C000C7020008C7020008C7020008C7020008EB
:1001D000C7020008C7020008C7020008C7020008DB
:1001E000C7020008C7020008C7020008C7020008CB
:1001F000C7020008C7020008C7020008C7020008BB
:10020000C7020008C7020008C7020008C7020008AA
:10021000C7020008C7020008C7020008C70200089A
:10022000C7020008C7020008C7020008000000005B
:10023000C7020008C702000800000000C70200084B
:10024000C7020008C7020008C7020008C70200086A
:10025000C7020008C7020008C7020008C70200085A
:10026000C7020008C7020008C7020008C70200084A
:10027000C7020008C7020008C7020008000000000B
:10028000C702000800000000C702000800000000CC
:1002900000000000C7020008DFF80CD000F0A4F84E
:1002A000004800474940000870280024064880475D
:1002B00006480047FEE7FEE7FEE7FEE7FEE7FEE74B
:1002C000FEE7FEE7FEE7FEE7FD2B000899020008C7
:1002D0002DE9F05F0546002092469B46884606467B
:1002E000814640241BE0284641464746224600F00E
:1002F0006AF853465A46C01A914110D3114618461F
:10030000224600F051F82D1A67EB01084F462246AD
:100310000120002100F048F817EB00094E41201E93
:10032000A4F10104DFDC484631462A464346BDE8D5
:10033000F09F00000649074A0868504343F239021B
:100340001044086040087047014908607047000089
:100350002C0000246D4EC641D2B201E000F8012B02
:10036000491EFBD270470022F6E710B513460A4635
:1003700004461946FFF7F0FF204610BD30B50B4686
:10038000014600202022012409E021FA02F59D42C5
:1003900005D303FA02F5491B04FA02F52844151E99
:1003A000A2F10102F1DC30BD202A04DB203A00FA80
:1003B00002F1002070479140C2F1200320FA03F3BC
:1003C000194390407047202A04DB203A21FA02F0BA
:1003D0000021704721FA02F3D040C2F1200291407F
:1003E0000843194670470000064C074D06E0E068D8
:1003F00040F0010394E8070098471034AC42F6D36C
:10040000FFF74EFFE44F00080450000800BFFEE76E
:1004100010B502F053FB02F003FB10BD7047000063
:1004200070B5044600F03CF906462546681C10B13C
:1004300004480078054400BF00F032F9801BA84250
:10044000FAD370BD08000024F8B502460B4600211F
:10045000002600240020824D00BFFCE0012707FA9F
:1004600001F61F6807EA0604B4427CD15F68022FD8
:1004700002D05F68122F1AD14FEAD10C02F1200787
:1004800057F82C004F074FEAD76C0F2707FA0CF7E5
:10049000B8434FEA417C4FEADC6C1F6907FA0CF75E
:1004A00038434FEAD10C02F1200747F82C001068BE
:1004B0004FEA410C032707FA0CF7B8431F7907F0FE
:1004C00003074FEA410C07FA0CF7384310605F68E6
:1004D000012F08D05F68022F05D05F68112F02D06E
:1004E0005F68122F17D190684FEA410C032707FA73
:1004F0000CF7B8434FEA410CDF6807FA0CF73843B2
:100500009060506801278F40B8431F79C7F30017E8
:100510008F4038435060D0684FEA410C032707FAF8
:100520000CF7B8434FEA410C9F6807FA0CF73843C1
:10053000D0605F6807F08057B7F1805F95D100BF4A
:10054000484F3F6847F00207DFF818C1CCF8007049
:1005500067463F6807F00207009700BF00BF424FA1
:100560004FEA910C00E075E057F82C008F074FEA36
:10057000177C0F2707FA0CF7B8433C4FBA4201D15A
:1005800000272DE03A4FBA4201D1012728E0394F28
:10059000BA4201D1022723E0374FBA4201D10327E3
:1005A0001EE0364FBA4201D1042719E0344FBA4257
:1005B00001D1052714E0334FBA4201D106270FE0DD
:1005C000314FBA4201D107270AE0304FBA4201D178
:1005D000082705E02E4FBA4201D1092700E00A277B
:1005E0004FEA817C4FEA1C7C07FA0CF738431E4F18
:1005F0004FEA910C47F82C002868A0435F6807F485
:100600008037B7F5803F00D1204328606868A04359
:100610005F6807F40037B7F5003F00D120436860FA
:100620004FF0B0473868A0435F6807F48017B7F50C
:10063000801F00D120434FF0B04738607868A04356
:100640005F6807F40017B7F5001F00D120434FF093
:10065000B0477860491C1029FFF400AFF8BD0000D6
:1006600080000058F4440258080400580000025862
:100670000004025800080258000C025800100258EA
:100680000014025800180258001C0258002002589A
:10069000002402580AB1018300E041837047000042
:1006A000014800687047000000000024034800680B
:1006B0000349097808440149086070470000002494
:1006C0000800002410B5032000F070F80F2000F09F
:1006D00007F808B1012010BD00F028F80020FAE763
:1006E00070B504460E4800784FF47A71B1FBF0F013
:1006F0000C490968B1FBF0F5284601F001FF08B18B
:10070000012070BD102C07D200222146501E00F09F
:100710000EF80548046001E00120F2E70020F0E750
:10072000080000240C0000240400002470472DE978
:10073000F05F80460D461646002703F073F8074623
:1007400039462A46334601F00700C0F1070ABAF1DC
:10075000040F02D94FF0040A01E0C0F1070AD146A4
:1007600000F1040ABAF1070F02D24FF0000A01E0CB
:10077000A0F1030AD4464FF0010A0AFA09FAAAF1D5
:10078000010A0AEA020A0AFA0CFA4FF0010B0BFA04
:100790000CFBABF1010B0BEA030B4AEA0B042146FD
:1007A000404603F047F8BDE8F09F000000BF00F0AE
:1007B0000702064B19684FF6FF031940044B0B4321
:1007C00043EA0221014B196000BF70470CED00E0C5
:1007D0000000FA0510B501F00FFA0949096801F4A3
:1007E00070614FF4807292FAA2F2B2FA82F2D140B2
:1007F000044A515CC840044908600846006810BDBE
:1008000018440258844F00080C00002410B501F071
:10081000ABF90749096801F07001102292FAA2F2BF
:10082000B2FA82F2D140034A515CC84010BD0000C8
:1008300020440258844F000870B501460022012070
:10084000002300249FED811AB0EE410A9FED7F1A2C
:10085000F0EE410A7E4D2D6805F003027C4D2D68B7
:10086000C5F305307A4D2D1D2D6805F01003784D28
:1008700014352D68C5F3CC0515FB03F501EE105AB0
:10088000B8EE411AB0EE410A22B1012A4DD0022A37
:100890007DD169E06E4D283D2D68C5F340152DB31F
:1008A0006B4D283D2D68C5F3C1066A4D25FA06F447
:1008B000B4FBF0F501EE105AF8EE411A9FED661AFE
:1008C00080EE012A624D10352D68C5F3080501EE52
:1008D000105AB8EE411A32EE011AB7EE002A31EE84
:1008E000021A21EE811AF0EE410A1DE0594DB5FBC6
:1008F000F0F501EE105AF8EE411A9FED571A80EE0E
:10090000012A534D10352D68C5F3080501EE105A24
:10091000B8EE411A32EE011AB7EE002A31EE021A91
:1009200021EE811AF0EE410A5EE04C4DB5FBF0F588
:1009300001EE105AB8EE412A9FED471AC0EE011A97
:10094000434D10352D68C5F3080501EE105AB8EE79
:10095000411A31EE811AF7EE001A31EE211A22EE19
:10096000011AF0EE410A3FE03D4DB5FBF0F501EE16
:10097000105AF8EE411A9FED381A80EE012A344DD4
:1009800010352D68C5F3080501EE105A00E00CE0A3
:10099000B8EE411A32EE011AB7EE002A31EE021A11
:1009A00021EE811AF0EE410A1EE02C4DB5FBF0F568
:1009B00001EE105AB8EE412A9FED271AC0EE011A37
:1009C000234D10352D68C5F3080501EE105AB8EE19
:1009D000411A31EE811AF7EE001A31EE211A22EE99
:1009E000011AF0EE410A00BF00BF194D10352D6805
:1009F000C5F346256D1C01EE105AB8EE411AC0EE43
:100A0000811ABCEEE11A81ED001A114D10352D68E6
:100A1000C5F306456D1C01EE105AB8EE411AC0EE42
:100A2000811ABCEEE11A81ED011A094D10352D68CD
:100A3000C5F306656D1C01EE105AB8EE411AC0EE02
:100A4000811ABCEEE11A81ED021A70BD00000000AF
:100A5000284402580090D0030000004600093D00E1
:100A60001075700070B5014600220120002300249B
:100A70009FED811AB0EE410A9FED7F1AF0EE410A18
:100A80007E4D2D6805F003027C4D2D68C5F30550A1
:100A90007A4D2D1D2D6805F48073784D1C352D6819
:100AA000C5F3CC0515FB03F501EE105AB8EE411A5B
:100AB000B0EE410A22B1012A4DD0022A7DD169E06F
:100AC0006E4D283D2D68C5F340152DB36B4D283D67
:100AD0002D68C5F3C1066A4D25FA06F4B4FBF0F59E
:100AE00001EE105AF8EE411A9FED661A80EE012AC7
:100AF000624D18352D68C5F3080501EE105AB8EEA1
:100B0000411A32EE011AB7EE002A31EE021A21EE36
:100B1000811AF0EE410A1DE0594DB5FBF0F501EEEA
:100B2000105AF8EE411A9FED571A80EE012A534DE4
:100B300018352D68C5F3080501EE105AB8EE411AB4
:100B400032EE011AB7EE002A31EE021A21EE811AB6
:100B5000F0EE410A5EE04C4DB5FBF0F501EE105AA7
:100B6000B8EE412A9FED471AC0EE011A434D1835E1
:100B70002D68C5F3080501EE105AB8EE411A31EEA2
:100B8000811AF7EE001A31EE211A22EE011AF0EE68
:100B9000410A3FE03D4DB5FBF0F501EE105AF8EE8D
:100BA000411A9FED381A80EE012A344D18352D6810
:100BB000C5F3080501EE105A00E00CE0B8EE411A4A
:100BC00032EE011AB7EE002A31EE021A21EE811A36
:100BD000F0EE410A1EE02C4DB5FBF0F501EE105A87
:100BE000B8EE412A9FED271AC0EE011A234D1835A1
:100BF0002D68C5F3080501EE105AB8EE411A31EE22
:100C0000811AF7EE001A31EE211A22EE011AF0EEE7
:100C1000410A00BF00BF194D18352D68C5F34625A0
:100C20006D1C01EE105AB8EE411AC0EE811ABCEEEE
:100C3000E11A81ED001A114D18352D68C5F30645EE
:100C40006D1C01EE105AB8EE411AC0EE811ABCEECE
:100C5000E11A81ED011A094D18352D68C5F30665B5
:100C60006D1C01EE105AB8EE411AC0EE811ABCEEAE
:100C7000E11A81ED021A70BD0000000028440258FC
:100C80000090D0030000004600093D001075700080
:100C90002DE9F04104464FF000080027002500260A
:100CA000206800F0006000283AD0606E48B1B0F5CE
:100CB000801F0DD0B0F5001F15D0B0F5401F1FD11B
:100CC0001DE0FB48006840F40030F949086019E075
:100CD000F748006840F40010F5490860201D01F055
:100CE000A7FD05460EE0F248006840F08070F0492C
:100CF000086004F1240001F017FE054602E001E05F
:100D0000012500BF00BF55B9E9482430006820F430
:100D10004010616E0843E6492431086000E02E432C
:100D2000208800F48070A8B3606D052824D2DFE825
:100D300000F0030A15212200DD48006840F400306D
:100D4000DB4908601AE0DA48006840F40020D8491E
:100D50000860201D01F06CFD05460FE0D4480068D6
:100D600040F48000D249086004F1240001F0DCFD69
:100D7000054603E002E001E0012500BF00BF55B9D0
:100D8000CB482430006820F00700616D0843C84953
:100D90002431086000E02E43208800F40070D8B3AE
:100DA000A06D80281CD003DC40B1402826D10CE087
:100DB000C02821D0B0F5807F20D11EE0BC4800685B
:100DC00040F40030BA4908601AE0B948006840F4BD
:100DD0000020B7490860201D01F02AFD05460FE0FC
:100DE000B348006840F48000B149086004F1240071
:100DF00001F09AFD054603E002E001E0012500BF95
:100E000000BF55B9AA482430006820F4E070A16DF5
:100E10000843A7492431086000E02E43208800F4ED
:100E2000806078B3D4F8A400B0F5800F1ED004DC45
:100E300050B1B0F5001F28D10DE0B0F5C00F22D0A1
:100E4000B0F5000F21D11FE09948006840F4003050
:100E5000974908601BE09648006840F400209449D8
:100E60000860201D01F0E4FC054610E09048006891
:100E700040F480008E49086004F1240001F054FD24
:100E8000054604E012E002E001E0012500BF00BFDA
:100E90005DB987482C30006820F46000D4F8A410B5
:100EA000084383492C31086000E02E43208800F479
:100EB000006078B3D4F8A800B0F1007F1ED004DC45
:100EC00050B1B0F1807F28D10DE0B0F1407F22D049
:100ED000B0F1806F21D11FE07548006840F4003008
:100EE000734908601BE07248006840F400207049B4
:100EF0000860201D01F09CFC054610E06C4800686D
:100F000040F480006A49086004F1240001F00CFDFF
:100F1000054604E012E002E001E0012500BF00BF49
:100F20005DB963482C30006820F0E060D4F8A81068
:100F300008435F492C31086000E02E43206800F030
:100F4000007050B3A06CC8B1102804D0202809D07C
:100F5000302814D111E05648006840F4003054495C
:100F600008600EE05248006840F4001050490860E4
:100F7000201D01F05DFC054603E002E001E00125D3
:100F800000BF00BF55B94A482030006820F030004B
:100F9000A16C084346492031086000E02E432088B8
:100FA00000F4805078B3E06DB0F5005F1ED004DC33
:100FB00050B1B0F5805F28D10DE0B0F5405F21D091
:100FC000B0F5804F21D11FE03948006840F400306F
:100FD000374908601BE03648006840F40020344977
:100FE0000860201D01F024FC054610E03048006830
:100FF00040F480002E49086004F1240001F094FCC4
:10100000054604E003E010E001E0012500BF00BF59
:1010100055B927482430006820F4E040E16D0843CA
:1010200023492431086000E02E43208800F400505A
:10103000E0B3206EB0F5403F27D007DC68B1B0F5D3
:10104000803F0BD0B0F5003F22D112E0B0F5802FE9
:101050001CD0B0F5A02F1BD119E01BE0144800688C
:1010600040F4801012490860201D01F0E1FB0546A4
:1010700010E00F48006840F400000D49086004F1DA
:10108000240001F051FC054604E003E002E001E029
:10109000012500BF00BF6DB905482430006820F469
:1010A000E020216E084302492431086003E000007B
:1010B0002C4402582E43208800F4804078B3D4F8A2
:1010C000AC00B0F1405F27D007DC68B1B0F1805FC1
:1010D0000BD0B0F1005F23D112E0B0F1804F1CD0F3
:1010E000B0F1A04F1CD119E01CE0FA48006840F4B0
:1010F0008010F8490860201D01F09AFB054611E0B8
:10110000F448006840F40000F249086004F124004B
:1011100001F00AFC054605E004E003E002E010E00F
:10112000012500BF00BF5DB9EA482C30006820F0FF
:10113000E040D4F8AC100843E6492C31086000E0E8
:101140002E43208800F4004048B3E06EC0B1B0F1F7
:10115000805F03D0B0F1005F13D106E0DD48006886
:1011600040F40030DB4908600DE0DA48006840F4E4
:101170008010D8490860201D01F05AFB054602E0A6
:1011800001E0012500BF00BF55B9D24824300068F6
:1011900020F04050E16E0843CE492431086000E061
:1011A0002E43206800F0807050B3606CC8B10128F5
:1011B00004D0022809D0032814D111E0C5480068E2
:1011C00040F40030C34908600EE0C248006840F4B3
:1011D0000010C0490860201D01F02AFB054603E00D
:1011E00002E001E0012500BF00BF55B9B948203039
:1011F000006820F00300616C0843B64920310860A4
:1012000000E02E43206800F48000E8B3B248006894
:1012100040F48070B0490860FFF742FA074606E0E4
:10122000FFF73EFAC01B642801D9032505E0AA4850
:10123000006800F480700028F2D000BF9DBBA54874
:101240004430006800F44070B4F8B01001F440710C
:10125000884214D09F484430006820F440789D486C
:101260004430006840F480309A49443108600846B0
:10127000006820F4803008600846C0F80080D4F888
:10128000B000B0F5807F00E045E015D1FFF708FA27
:10129000074609E0FFF704FAC01B41F28831884293
:1012A00002D9032507E035E08A4844300068C0F3DE
:1012B00040000028EED000BF55BB00BFB4F8B0001E
:1012C00000F44070B0F5407F0ED182481C380068B1
:1012D00020F47C51814AD4F8B000104041EA10104B
:1012E0007C491C39086007E07A481C38006820F403
:1012F0007C5078491C390860764844300068B4F85E
:10130000B010C1F30B01084372494431086002E098
:101310002E4300E02E43207800F00100B8B3A06F08
:10132000182823D005DC48B1082808D0102820D17F
:1013300010E020281BD028281BD119E01BE06548AD
:10134000006840F4801063490860201D01F070FAC5
:10135000054610E05F48006840F400005D49086001
:1013600004F1240001F0E0FA054604E003E002E0A5
:1013700001E0012500BF00BF55B95648283000687C
:1013800020F03800A16F084352492831086000E07E
:101390002E43207800F0020080B3606F06281FD231
:1013A000DFE800F003040F1B1C1D1BE04948006828
:1013B00040F4801047490860201D01F039FA0546C5
:1013C00010E04448006840F400004249086004F11D
:1013D000240001F0A9FA054604E003E002E001E080
:1013E000012500BF00BF55B93A482830006820F0F9
:1013F0000700616F084337492831086000E02E4339
:10140000207800F0040090B3D4F8900006281FD292
:10141000DFE800F003040F1B1C1D1BE02D480068D3
:1014200040F480102B490860201D01F001FA0546A8
:1014300010E02848006840F400002649086004F1E4
:10144000240001F071FA054604E003E002E001E047
:10145000012500BF00BF5DB91E482C30006820F098
:101460000700D4F8901008431A492C31086000E0B6
:101470002E43207800F0200090B3D4F88C00B0F117
:10148000405F2ED007DC68B1B0F1805F0BD0B0F1C7
:10149000005F29D112E0B0F1804F23D0B0F1A04F0E
:1014A00022D120E022E00B48006840F400200949E6
:1014B0000860201D01F0BCF9054617E005480068EA
:1014C00040F080700349086004F1240001F02CFA18
:1014D00005460BE02C44025800480258FFFCFF0F61
:1014E00011E003E002E001E0012500BF00BF4DB9BB
:1014F000FE48006820F0E040D4F88C100843FB4917
:10150000086000E02E43207800F0400080B3D4F85B
:101510009800B0F5406F2CD007DC68B1B0F5806F53
:101520000BD0B0F5006F27D114E0B0F5805F21D06B
:10153000B0F5A05F20D11EE020E0EC48283800681C
:1015400040F40020E94928390860201D01F070F9B5
:10155000054613E0E5482838006840F08070E3490C
:101560002839086004F1240001F0DEF9054605E0A1
:1015700013E003E002E001E0012500BF00BF5DB918
:10158000DA48001D006820F4E050D4F898100843B1
:10159000D649091D086000E02E43207800F0800045
:1015A00080B3D4F89C00B0F5C04F2CD007DC68B1F4
:1015B000B0F5005F0BD0B0F5804F27D114E0B0F547
:1015C000004F21D0B0F5204F20D11EE020E0C748C9
:1015D0002838006840F40020C44928390860201DDC
:1015E00001F026F9054613E0C0482838006840F0AD
:1015F0008070BE492839086004F1240001F094F994
:10160000054605E013E003E002E001E0012500BF2C
:1016100000BF5DB9B548001D006820F46040D4F8F3
:101620009C100843B149091D086000E02E43207852
:1016300000F00800D0B1D4F88000B0F5805F0CD184
:1016400004F1240001F070F9A8482838006840F03F
:101650008070A6492839086008E0A448006820F492
:101660004050D4F880100843A0490860207800F06A
:101670001000E0B1D4F89400B0F5807F0CD104F1F3
:10168000240001F051F999482838006840F0807032
:101690009649283908600AE09448001D006820F443
:1016A0004070D4F8941008439049091D08602068E0
:1016B00000F40020A0B3D4F8A00030B1B0F5803F12
:1016C00010D0B0F5003F1CD11AE0884828380068D7
:1016D00040F40020854928390860201D01F0A8F851
:1016E000054610E081482838006840F080707F4946
:1016F0002839086004F1240001F016F9054602E0DB
:1017000001E0012500BF00BF5DB97848001D0068F9
:1017100020F44030D4F8A01008437449091D086033
:1017200000E02E43206800F4802080B3D4F88400C9
:10173000B0F5801F06D0B0F5001F0CD0B0F5401FEB
:1017400018D116E069482838006840F4003067492D
:101750002839086010E065482838006840F4000027
:1017600062492839086004F1240001F0DDF80546DB
:1017700002E001E0012500BF00BF4DB95B480068F1
:1017800020F44010D4F8841008435849086000E061
:101790002E43206800F4803048B3E06C18B1B0F5F7
:1017A000803F16D108E051482838006840F40030E6
:1017B0004E49283908600EE04C482838006840F44B
:1017C00000104A4928390860201D01F031F805460B
:1017D00001E0012500BF00BF55B944480838006842
:1017E00020F48030E16C084340490839086000E08B
:1017F0002E43206800F0005060B13C482838006853
:1018000040F0807039492839086004F1240001F063
:101810008BF80643206800F4003018B3E06FA0B1E5
:10182000B0F5807F06D0B0F5007F0CD0B0F5407FDA
:101830000CD109E02D482838006840F400302B49CD
:101840002839086004E003E002E001E0012500BF60
:1018500000BF45B92548006820F44070E16F084397
:101860002249086000E02E43206800F4801048B14F
:101870001E48001F006820F00040216F08431B49EC
:10188000091F0860206800F0805050B117484438A4
:10189000006820F48040D4F8B41008431349443958
:1018A0000860206800F4001048B11048001F00686C
:1018B00020F08070A16E08430C49091F0860206861
:1018C00000F0804088B100BF08484438006820F428
:1018D000004006494439086008460068D4F8B8104A
:1018E000084302494439086000BF01E054440258EB
:1018F000206800F0004038B10648006820F04050F1
:10190000216D08430349086016B90020BDE8F08145
:101910000120FBE74C44025870B504460D460026F2
:101920008D48006800F00700A8420ED28A4800687F
:1019300020F007002843884908600846006800F046
:101940000700A84201D0012070BD207800F00200FD
:10195000022807D18148006820F00F00E1680843A1
:101960007E490860207800F00100002851D07B48B3
:10197000006820F47060A1680843784908606068D6
:10198000022807D1754818380068C0F34040F8B9FC
:101990000120D9E76068032807D17048183800682B
:1019A000C0F34060A0B90120CEE76068012807D1EC
:1019B0006A4818380068C0F3002048B90120C3E71E
:1019C000664818380068C0F3800008B90120BBE7FA
:1019D00062480838006820F00700616808435F49E2
:1019E00008390860FEF75CFE06466068022811D1DF
:1019F00008E0FEF755FE801B41F28831884201D98C
:101A00000320A1E755480838006800F03800102886
:101A1000EFD13AE06068032811D108E0FEF740FEFC
:101A2000801B41F28831884201D903208CE74B4862
:101A30000838006800F038001828EFD125E0606809
:101A4000012811D108E0FEF72BFE801B41F28831FE
:101A5000884201D9032077E740480838006800F041
:101A600038000828EFD110E008E0FEF719FE801BCF
:101A700041F28831884201D9032065E737480838A8
:101A8000006800F038000028EFD13348006800F00B
:101A90000700A8420ED93048006820F0070028430C
:101AA0002D4908600846006800F00700A84201D0F0
:101AB000012049E7207800F00400042807D12748D6
:101AC000006820F0700021690843244908602078EC
:101AD00000F00800082809D12048001D006820F007
:101AE0007000616908431D49091D0860207800F0F5
:101AF0001000102809D11948001D006820F4E0608A
:101B0000A16908431549091D0860207800F02000EC
:101B1000202809D111480830006820F07000E169E0
:101B200008430E490831086000F066F80B4909685F
:101B300001F470614FF4807292FAA2F2B2FA82F26A
:101B4000D140074A515CC840064908600F20FEF7A3
:101B5000C7FD0020F8E6000000200052184402589B
:101B6000844F00080C00002410B5FEF733FE09492D
:101B7000096801F00F01012292FAA2F2B2FA82F290
:101B8000D140054A515CC8400449086008460068D5
:101B900010BD000018440258844F000810000024B3
:101BA00010B5FFF7E1FF0749096801F07001102245
:101BB00092FAA2F2B2FA82F2D140034A515CC840D2
:101BC00010BD00001C440258844F000810B5FFF7F8
:101BD000CBFF0749096801F4E0614FF4807292FA83
:101BE000A2F2B2FA82F2D140024A515CC84010BD62
:101BF0001C440258844F000870B5012500EE905A2D
:101C00000022012100230024DFED861AB0EE610AD4
:101C1000DFED841AB0EE611A0020834D2D6805F0C7
:101C2000380535B1082D15D0102D15D0182D7CD1C3
:101C300014E07D4D103D2D68C5F3401545B17A4D3A
:101C4000103D2D68C5F3C106784D25FA06F000E079
:101C50007648E5E07648E3E07648E1E0724D1835F5
:101C60002D6805F00302704D18352D68C5F3051178
:101C70006D4D1C352D6805F001036B4D24352D6825
:101C8000C5F3CC0515FB03F501EE905AF8EE611A89
:101C9000B0EE610A22B1012A4FD0022A7DD16BE059
:101CA000614D103D2D68C5F340152DB35E4D103DBF
:101CB0002D68C5F3C1065D4D25FA06F4B4FBF1F5B8
:101CC00001EE905AB8EE612ADFED5B1AC0EE212AD0
:101CD000554D20352D68C5F3080501EE905AF8EEF4
:101CE000611A72EEA11AF7EE002A71EEA21A62EEE4
:101CF000211AB0EE611A1FE04C4DB5FBF1F501EE73
:101D0000905AB8EE612ADFED4C1AC0EE212A464DFA
:101D100020352D68C5F3080501EE905AF8EE611ADA
:101D200072EEA11AF7EE002A00E077E071EEA21A37
:101D300062EE211AB0EE611A5EE03D4DB5FBF1F5A1
:101D400001EE905AB8EE612ADFED3B1AC0EE212A6F
:101D5000354D20352D68C5F3080501EE905AF8EE93
:101D6000611A72EEA11AF7EE002A71EEA21A62EE63
:101D7000211AB0EE611A3FE02E4DB5FBF1F501EEF0
:101D8000905AB8EE612ADFED2C1AC0EE212A264DBA
:101D900020352D68C5F3080500E00EE001EE905AED
:101DA000F8EE611A72EEA11AF7EE002A71EEA21A8D
:101DB00062EE211AB0EE611A1EE01D4DB5FBF1F581
:101DC00001EE905AF8EE612ADFED1B1A80EE212A0F
:101DD000154D20352D68C5F3080501EE905AF8EE33
:101DE000611A72EE211AB7EE002A71EE821A62EEC3
:101DF000A11AB0EE611A00BF00BF0B4D20352D684F
:101E0000C5F346256D1C00EE905AF8EE601A81EE7F
:101E1000212AFCEEC21A11EE900A01E0044800BF2C
:101E200000BF70BD00000000104402580090D003B5
:101E300000093D00107570000000004670B50446B2
:101E40000025207800F00100002872D0F9480068D1
:101E500000F0380010280CD0F648006800F0380078
:101E6000182812D1F3481830006800F00300022847
:101E70000BD1F04810380068C0F3404000286DD006
:101E8000606800286AD1012070BD00BF6068B0F5AD
:101E9000803F08D1E7481038006840F48030E549B9
:101EA000103908602EE0606868B9E24810380068B0
:101EB00020F48030DF49103908600846006820F4BB
:101EC000802008601EE06068B0F5A02F0DD1D948D1
:101ED0001038006840F48020D64910390860084660
:101EE000006840F4803008600CE0D2481038006888
:101EF00020F48030CF49103908600846006820F48B
:101F00008020086000BF6068A0B1FEF7C9FB0546ED
:101F100008E0FEF7C5FB401B41F28831884201D939
:101F20000320B1E7C34810380068C0F340400028E0
:101F3000EFD013E0FEF7B4FB054608E0FEF7B0FB78
:101F4000401B41F28831884201D903209CE7B948FF
:101F500010380068C0F340400028EFD1207800F02E
:101F60000200022847D1B348006800F0380058B199
:101F7000B048006800F0380018283ED1AD4818304D
:101F8000006800F00300B8BBAA4810380068C0F32E
:101F9000800018B1E06808B9012075E7A54810383D
:101FA000006820F01900E1680843A2491039086070
:101FB000FEF776FB054606E0FEF772FB401B0228A3
:101FC00001D9032060E79B4810380068C0F3800007
:101FD0000028F1D097480C38006820F47C304FF48A
:101FE0007C3292FAA2F2B2FA82F22169914008435D
:101FF00090490C3908604AE0FFE7E06868B38D4813
:102000001038006820F01900E16808438949103948
:102010000860FEF745FB054606E0FEF741FB401B66
:10202000022801D903202FE7824810380068C0F346
:1020300080000028F1D07F480C38006820F47C3004
:102040004FF47C3292FAA2F2B2FA82F22169914004
:10205000084378490C39086019E076481038006860
:1020600020F00100734910390860FEF719FB05469E
:1020700006E0FEF715FB401B022801D9032003E709
:102080006C4810380068C0F380000028F1D1207837
:1020900000F01000102877D16648006800F0380082
:1020A00008280CD06348006800F03800182823D1B5
:1020B00060481830006800F0030001281CD15D481A
:1020C00010380068C0F3002020B1E069802801D0FA
:1020D0000120D9E657480C38006820F0F8404FF04E
:1020E000F84292FAA2F2B2FA82F2216A91400843CF
:1020F00050490C39086047E0E06958B34D48103842
:10210000006840F080004B4910390860FEF7C8FABB
:10211000054606E0FEF7C4FA401B022801D9032059
:10212000B2E6444810380068C0F300200028F1D01F
:1021300040480C38006820F0F8404FF0F84292FA1E
:10214000A2F2B2FA82F2216A9140084339490C396D
:10215000086019E037481038006820F080003549E1
:1021600010390860FEF79CFA054606E0FEF798FA7B
:10217000401B022801D9032086E62E48103800684B
:10218000C0F300200028F1D1207800F008000828D2
:1021900036D16069D0B127486430006840F0010052
:1021A000244964310860FEF77BFA054606E0FEF735
:1021B00077FA401B022801D9032065E61D486430E8
:1021C0000068C0F340000028F1D019E019486430DD
:1021D000006820F00100174964310860FEF760FADA
:1021E000054606E0FEF75CFA401B022801D90320F1
:1021F0004AE6104864300068C0F340000028F1D17E
:10220000207800F02000202834D1A069D8B10948F6
:102210001038006840F48050064910390860FEF715
:102220003FFA054608E0FEF73BFA401B022803D9B7
:10223000032029E610440258AF480068C0F340303C
:102240000028F0D016E0AC48006820F48050AA497D
:102250000860FEF725FA054606E0FEF721FA401B66
:10226000022801D903200FE6A3480068C0F34030DC
:102270000028F2D1207800F0040004287DD19F4886
:10228000006840F480709D490860FEF709FA054631
:1022900006E0FEF705FA401B642801D90320F3E5A8
:1022A0009648006800F480700028F2D000BFA06853
:1022B000012808D190487030006840F001008E4934
:1022C000703108602DE0A06868B98B4870300068F4
:1022D00020F001008849703108600846006820F04D
:1022E000040008601DE0A06805280DD18248703008
:1022F000006840F0040080497031086008460068BA
:1023000040F0010008600CE07B487030006820F06D
:1023100001007949703108600846006820F0040027
:10232000086000BFA068A0B1FEF7BAF9054608E052
:10233000FEF7B6F9401B41F28831884201D90320EB
:10234000A2E56D4870300068C0F340000028EFD06F
:1023500013E0FEF7A5F9054608E0FEF7A1F9401BDA
:1023600041F28831884201D903208DE562487030FE
:102370000068C0F340000028EFD1606A00287CD0DC
:102380005D481030006800F03800182876D0606A88
:10239000022874D15848006820F0807056490860BF
:1023A000FEF77EF9054606E0FEF77AF9401B0228A3
:1023B00001D9032068E550480068C0F34060002858
:1023C000F2D100BFD4E90A1041EA00104A4928318D
:1023D000096840F2F33291430843474928310860C5
:1023E000208E401EC0F30800616B491E4FF47E42F0
:1023F00002EA41210843218F491ED20102EA01412C
:1024000008433C21095D491E120202EA01610843AA
:1024100039493031086000BF081D00684FF6F87177
:1024200088434FF6F87292FAA2F2B2FA82F2A16CE5
:10243000914008433049343108602F482C300068FF
:1024400020F00C00216C08432B492C310860084611
:10245000006820F00200616C084327492C310860B5
:102460000846006840F4803008600846006840F480
:10247000003008600846006802E03BE038E01FE0FA
:1024800040F4802008600846006840F001000860C1
:102490001948006840F0807017490860FEF700F99D
:1024A000054606E0FEF7FCF8401B022801D9032090
:1024B000EAE411480068C0F340600028F2D019E057
:1024C0000D48006820F080700B490860FEF7E8F8BE
:1024D000054606E0FEF7E4F8401B022801D9032078
:1024E000D2E405480068C0F340600028F2D101E062
:1024F0000120C9E40020C7E4004402580048025803
:1025000070B504462546681EB0F1807F01D30120D6
:102510000FE0681E4FF0E02148610F214FF0FF30BF
:1025200001F088F900204FF0E02188610720086160
:10253000002070BD10B504460CB9012010BDA06983
:1025400000B100E000BF94F8790028B9002084F8B9
:102550007800204600F02AF8242084F879002068CA
:10256000006820F0010021680860204600F040FC6F
:10257000012800D1E2E7606B10B1204600F088FB33
:102580002068406820F49040216848602068806896
:1025900020F02A00216888602068006840F001006F
:1025A00021680860204600F0E8FBC7E710B5B6B028
:1025B000044600BF2348006840F01000214908602D
:1025C0000846006800F01000019000BF00BF00BF87
:1025D0000846006840F0100008600846006800F0F7
:1025E0001000019000BF00BF012002900020209049
:1025F00002A8FEF74DFB00BF12480830006840F00B
:1026000000401049083108600846006800F00040AA
:10261000019000BF00BF0220319032900120339022
:10262000032034900820359031A90748FDF70CFFAE
:10263000012031900820359031A90348FDF704FFAF
:1026400036B010BDE0440258001002582DE9F84F92
:1026500004460D46164699464FF0000A94F87A0053
:1026600020287AD105B116B90120BDE8F88F00BF46
:1026700094F87800012801D10220F6E7012084F8BF
:10268000780000BF0020683460612220A074FEF74B
:1026900007F8824626806680683C00BFA068B0F5D7
:1026A000805F0AD1206920B940F2FF10A4F86C00C5
:1026B0001CE0FF20A4F86C0018E0A06848B920696D
:1026C00018B9FF20A4F86C0010E07F20A4F86C007B
:1026D0000CE0A068B0F1805F08D1206918B97F20B4
:1026E000A4F86C0002E03F20A4F86C0000BFB4F82E
:1026F0006C8024E0B4F86A00401EA4F86A005346D7
:10270000002220212046CDF8009001F043F808B1C6
:102710000320AAE7A068B0F5805F09D1206938B925
:102720002F462068808C00EA08003880AD1C06E047
:102730002068808C08F0FF01084005F8010BB4F810
:102740006A000028D6D1202084F87A0000BF00203B
:1027500084F8780000BF88E7FFE7022085E72DE9CD
:10276000F84304460D4616461F464FF0000994F8FC
:102770007900202854D105B116B90120BDE8F883AD
:1027800000BF94F87800012801D10220F6E701206B
:1027900084F8780000BF00206034E061212060767A
:1027A000FDF77EFF814626806680603C21E0B4F81C
:1027B0006200401EA4F862004B46002280212046A1
:1027C000009700F0E7FF08B10320D7E7A068B0F555
:1027D000805F0AD1206940B9A846B8F80000C0F36C
:1027E000080021680885AD1C03E015F8010B21687D
:1027F0000885B4F862000028D9D14B460022402158
:102800002046009700F0C6FF08B10320B6E720205D
:1028100084F8790000BF002084F8780000BFADE79D
:102820000220ABE700BFFEE700BFFEE7704770473E
:1028300070B50446002500263A48006800F0030001
:10284000032801D1012070BD36482838006820F0E7
:102850008060344928390860FDF722FF054606E00C
:10286000FDF71EFF401B022801D90320EBE72D488E
:1028700028380068C0F3C0600028F1D100BF2948A3
:10288000006820F47C30216840EA01302549086066
:10289000A088401EC0F30800A168491E4FF47E4284
:1028A00002EA41210843A189491ED20102EA0141FD
:1028B0000843217C491E120202EA016108431949BA
:1028C0001031086000BF1748001D006820F0C000EC
:1028D000616908431349091D08600846006820F033
:1028E0002000A16908430F49091D08600D482838D8
:1028F000006840F080600B4928390860FDF7D0FE81
:10290000054606E0FDF7CCFE401B022801D9032056
:1029100099E7044828380068C0F3C0600028F1D067
:10292000304690E72844025870B50446002500263A
:102930003A48006800F00300032801D1012070BD6F
:1029400036482838006820F080503449283908601B
:10295000FDF7A6FE054606E0FDF7A2FE401B022895
:1029600001D90320EBE72D4828380068C0F34070F8
:102970000028F1D100BF2948006820F07C70218830
:1029800040EA015025490860A088401EC0F30800B5
:10299000A168491E4FF47E4202EA41210843A18901
:1029A000491ED20102EA01410843217C491E12025C
:1029B00002EA0161084319491831086000BF17484D
:1029C000001D006820F44060616908431349091D37
:1029D00008600846006820F40070A16908430F49A8
:1029E000091D08600D482838006840F080500B49E8
:1029F00028390860FDF754FE054606E0FDF750FE55
:102A0000401B022801D9032099E7044828380068B0
:102A1000C0F340700028F1D0304690E728440258B7
:102A200010B50023234C236000BF00BF00BFBFF3DD
:102A30004F8F00BF00BF00BF231F1868C0F34E3187
:102A400000BFC0F3C90200BF43F6E07303EA4113BD
:102A50004FF0404404EA82742343174C236000BFC4
:102A600000BF131EA2F10102EED10B1EA1F1010164
:102A7000E7D100BF00BF00BFBFF34F8F00BF00BF53
:102A800000BF0C4B703B1B6843F48033094C703C17
:102A9000236000BF00BF00BFBFF34F8F00BF00BF68
:102AA00000BF00BF00BF00BFBFF36F8F00BF00BFFC
:102AB00000BF10BD84ED00E060EF00E000BF00BF8C
:102AC00000BFBFF34F8F00BF00BF00BF00BF00BFFC
:102AD00000BFBFF36F8F00BF00BF00BF00201449CD
:102AE000086000BF00BF00BFBFF34F8F00BF00BF33
:102AF00000BF00BF00BF00BFBFF36F8F00BF00BFAC
:102B000000BF0C48006840F400300A49086000BF6C
:102B100000BF00BFBFF34F8F00BF00BF00BF00BFAB
:102B200000BF00BFBFF36F8F00BF00BF00BF704783
:102B300050EF00E014ED00E0704710B5FDF7B6FD72
:102B400010BD000010B59CB000242B48006820F098
:102B500004002949086000BF0020009026480C307E
:102B6000006840F4404024490C3108600846006881
:102B700000F44040009000BF00BF00BF1E480C3072
:102B8000006800F40050B0F5005FF7D1012001901B
:102B90004FF4A020029000200490089001200A9099
:102BA00003210B9105210C91A0210D9102210E9181
:102BB000109104210F91002112910821119101A877
:102BC000FFF73CF904460CB100BFFEE73F2014902C
:102BD00002201590002016901790189019901A90C6
:102BE0001B90042114A8FEF797FE04460CB100BF09
:102BF000FEE71CB010BD00000C48025820480068D9
:102C000040F470001E4908601E48006840F0010052
:102C10001C49086000201B491031086019480068F1
:102C20001949084017490860002016491831086002
:102C3000091D0860091D0860124928310860091D36
:102C40000860091D0860091D0860091D0860091D4C
:102C50000860091D0860091D08600A48006820F422
:102C60008020084908600020064960310860012082
:102C700006490860C00602498039086070470000B4
:102C800088ED00E0004402587FEDF6EA088100512B
:102C900090F8341001F0010139B10168496821F45C
:102CA0000031826B11430268516090F8341001F0DA
:102CB000020139B10168496821F48031C26B1143C6
:102CC0000268516090F8341001F0040139B10168D4
:102CD000496821F48021026C11430268516090F828
:102CE000341001F0080139B10168496821F400414C
:102CF000426C11430268516090F8341001F01001E9
:102D000039B10168896821F48051826C11430268ED
:102D1000916090F8341001F0200139B101688968A0
:102D200021F40051C26C11430268916090F8341094
:102D300001F0400199B10168496821F48011026DE8
:102D4000114302685160016DB1F5801F07D1016820
:102D5000496821F4C001426D11430268516090F846
:102D6000341001F0800139B10168496821F4002173
:102D7000826D114302685160704738B504460025E2
:102D80000020E067FDF78CFC05462068006800F035
:102D9000080008280CD16FF07E402B4600224FF42B
:102DA00000110090204600F0F5FC08B1032038BD6A
:102DB0002068006800F0040004280CD16FF07E4009
:102DC0002B4600224FF480010090204600F0E2FCE8
:102DD00008B10320EBE7202084F8790084F87A001A
:102DE00000BF002084F8780000BF00BFDFE70000CC
:102DF0002DE9F04F89B0044600254FF08008A94620
:102E0000AA4600200890FA492068884201D1012092
:102E100000E0002000B100E000BFA06AB0F1005F58
:102E200000D100BF2169A068084361690843E169D6
:102E300040EA0105A06A054320680068ED490840A2
:102E40002843216808602068406820F44050E16809
:102E5000084321684860A569E5492068884201D196
:102E6000012000E0002008B9206A0543A06AB0F103
:102E7000005F03D1D4E90B01084305432068806853
:102E8000DD4908402843216888602068C06A20F036
:102E90000F00616A08432168C86200BFD7492068F3
:102EA000884224D1D648006800F03800182814D091
:102EB00005DC48B108280AD0102817D10AE02028DC
:102EC0000ED0282812D10EE04FF001080EE04FF08E
:102ED00004080BE04FF0400808E04FF0080805E058
:102EE0004FF0100802E04FF0200800BF17E1C5497D
:102EF000206888421DD1C248006800F007000628FB
:102F000016D2DFE800F00306090C0F124FF000089C
:102F10000EE04FF004080BE04FF0400808E04FF0DF
:102F2000080805E04FF0100802E04FF0200800BF4D
:102F3000F5E0B549206888421DD1B148006800F02D
:102F40000700062816D2DFE800F00306090C0F126E
:102F50004FF000080EE04FF004080BE04FF040087F
:102F600008E04FF0080805E04FF0100802E04FF0CD
:102F7000200800BFD3E0A549206888421DD1A048A1
:102F8000006800F00700062816D2DFE800F003060C
:102F9000090C0F124FF000080EE04FF004080BE090
:102FA0004FF0400808E04FF0080805E04FF0100827
:102FB00002E04FF0200800BFB1E095492068884248
:102FC0001DD18F48006800F00700062816D2DFE800
:102FD00000F00306090C0F124FF000080EE04FF04E
:102FE00004080BE04FF0400808E04FF0080805E047
:102FF0004FF0100802E04FF0200800BF8FE0854935
:103000002068884224D17E48006800F038001828E3
:1030100014D005DC48B108280AD0102817D10AE0DE
:1030200020280ED0282812D10EE04FF001080EE023
:103030004FF004080BE04FF0400808E04FF008089C
:1030400005E04FF0100802E04FF0200800BF66E0F6
:103050007149206888421DD16948006800F0070066
:10306000062816D2DFE800F00306090C0F124FF015
:1030700000080EE04FF004080BE04FF0400808E0B5
:103080004FF0080805E04FF0100802E04FF020086C
:1030900000BF44E06149206888421DD1584800685B
:1030A00000F00700062816D2DFE800F00306090C3E
:1030B0000F124FF000080EE04FF004080BE04FF045
:1030C000400808E04FF0080805E04FF0100802E063
:1030D0004FF0200800BF22E04549206888421ED1F9
:1030E0004748001D006800F00700062816D2DFE8F8
:1030F00000F00306090C0F124FF002080EE04FF02B
:1031000004080BE04FF0400808E04FF0080805E025
:103110004FF0100802E04FF0200800BF00BF00BFD2
:1031200033492068884201D1012000E000200028B6
:103130005DD00025B8F1100F33D009DCB8F1020FD3
:1031400010D0B8F1040F11D0B8F1080F2ED117E04C
:10315000B8F1200F27D0B8F1400F0CD0B8F1800F94
:1031600024D124E0FDF752FB054623E005A8FDF736
:1031700063FB069D1EE002A8FDF774FC039D19E0A9
:103180001F4854380068C0F3401040B11C48543800
:103190000068C0F3C101224820FA01F500E0204D8B
:1031A00008E0204D06E04FF4004503E000BF012099
:1031B000089000BF00BF002D0AD0606800EB4000FF
:1031C000A84203D860680003A84202D201200890F8
:1031D000D4E2B8F1100F7CD026DCB8F1020F2DD06C
:1031E000B8F1040F52D0B8F1080F73D19EE03FE15F
:1031F000000C0058F369FFCFFFF4FF1100100140ED
:10320000544402580044004000480040004C004034
:10321000005000400014014000780040007C004055
:103220000090D00300093D00B8F1200F7DD0B8F127
:10323000400F54D0B8F1800FD7D109E1FDF7E6FA7D
:1032400000270646FB49606A31F810C062463B46DB
:1032500030463946FDF73CF84FF4807600220346AD
:10326000A3FB060701FB067103FB02136168490813
:10327000064671185A41CDE90012666832460023AD
:1032800008460199FDF724F80546E4E005A8FDF796
:10329000D3FADDF818C0E749606A31F810B05A4631
:1032A000002360461946FDF713F84FF4807C002296
:1032B000A0FB0C3B01FB0CB100FB0210616849084C
:1032C0005E1840EB0201D4F804C062460023304689
:1032D00001E079E0BBE0FCF7FBFF0546BBE002A89C
:1032E000FDF7C0FBDDF80CC0D249606A31F810B0C0
:1032F0005A46002360461946FCF7EAFF4FF4807CEB
:103300000022A0FB0C3B01FB0CB100FB021061682A
:1033100049085E1840EB0201D4F804C0624600235D
:103320003046FCF7D5FF054695E06EE0C2480068E0
:10333000C0F3401038B3C0480068C0F3C101BF48B3
:1033400020FA01FCBB49606A31F810B05A460023EC
:1033500060461946FCF7BCFF4FF4807C0022A0FBBE
:103360000C3B01FB0CB100FB0210616849085E18C0
:1033700040EB0201D4F804C0624600233046FCF75B
:10338000A7FF05461FE0AB49606A31F810C06246EE
:103390000023AA481946FCF79BFF4FF4807C0022CB
:1033A000A0FB0C3B01FB0CB100FB0210616849085B
:1033B0005E1840EB0201D4F804C062460023304698
:1033C000FCF786FF054646E09A49606A31F810C06E
:1033D000624600239A481946FCF77AFF4FF4807C36
:1033E0000022A0FB0C3B01FB0CB100FB021061684A
:1033F00049085E1840EB0201D4F804C0624600237D
:103400003046FCF765FF054625E08A49606A31F8D9
:1034100010C0624600234FF400401946FCF758FFE5
:103420004FF4807C0022A0FB0C3B01FB0CB100FBA5
:103430000210616849085E1840EB0201D4F804C02C
:10344000624600233046FCF743FF054603E000BF19
:103450000120089000BF00BFB5F5407F05D3B5F54A
:10346000801F02D22068C56088E10120089085E1B4
:10347000E069B0F5004F7CD1B8F1100F7AD00CDCC8
:10348000B8F1000F13D0B8F1010F21D0B8F1040F3B
:103490002FD0B8F1080F6ED151E0B8F1200F6BD0EA
:1034A000B8F1400F38D0B8F1800F64D197E0FEF743
:1034B00077FB604A616A32F81110B0FBF1F040000E
:1034C000616800EB5100B0FBF1F01FFA80FA89E06F
:1034D000FEF77CFB574A616A32F81110B0FBF1F03D
:1034E0004000616800EB5100B0FBF1F01FFA80FA78
:1034F00078E005A8FDF7A0F906994E4A606A32F80F
:103500001000B1FBF0F04000616800EB5100B0FB2F
:10351000F1F01FFA80FA65E002A8FDF7A3FA03991B
:10352000444A606A32F81000B1FBF0F04000616874
:1035300000EB5100B0FBF1F01FFA80FA52E03E4878
:103540000068C0F34010C0B13B480068C0F3C1013F
:103550003A48C840374A616A32F81110B0FBF1F0BE
:103560004000616800EB5100B0FBF1F01FFA80FAF7
:1035700012E044E011E031E01FE02E49606A31F8CA
:1035800010002E49B1FBF0F04000616800EB5100E3
:10359000B0FBF1F01FFA80FA24E02649606A31F8A6
:1035A00010002749B1FBF0F04000616800EB5100CA
:1035B000B0FBF1F01FFA80FA14E01E49606A31F89E
:1035C00010004FF40041B1FBF0F04000616800EBE7
:1035D0005100B0FBF1F01FFA80FA03E000BF0120B8
:1035E000089000BF00BF4FF6F0700AEA0009CAF366
:1035F000420049EA00092068C0F80C90BEE0B8F12A
:10360000100F7CD00CDCB8F1000F1BD0B8F1010F0B
:1036100029D0B8F1040F37D0B8F1080F70D159E0B4
:10362000B8F1200F6DD0B8F1400F40D0B8F1800F45
:1036300066D19FE0544F0008004402580090D00328
:1036400000093D00FEF7ACFA4E4A616A32F81110EB
:10365000B0FBF1F0616800EB5100B0FBF1F080B21B
:103660002168C86089E0FEF7B1FA464A616A32F81B
:103670001110B0FBF1F0616800EB5100B0FBF1F00C
:1036800080B22168C86078E005A8FDF7D5F80699F2
:103690003C4A606A32F81000B1FBF0F0616800EB60
:1036A0005100B0FBF1F080B22168C86065E002A86B
:1036B000FDF7D8F90399334A606A32F81000B1FB7C
:1036C000F0F0616800EB5100B0FBF1F080B22168CE
:1036D000C86052E02C480068C0F34010C0B12A48CE
:1036E0000068C0F3C1012948C840264A616A32F81F
:1036F0001110B0FBF1F0616800EB510002E017E03F
:1037000037E025E0B0FBF1F080B22168C8600EE040
:103710001C49606A31F810001C49B1FBF0F0616887
:1037200000EB5100B0FBF1F080B22168C86024E0EA
:103730001449606A31F810001549B1FBF0F0616876
:1037400000EB5100B0FBF1F080B22168C86014E0DA
:103750000C49606A31F810004FF40041B1FBF0F001
:10376000616800EB5100B0FBF1F080B22168C860E5
:1037700003E000BF0120089000BF00BF089809B017
:10378000BDE8F08F544F0008004402580090D00369
:1037900000093D002DE9F04104460D4617469846C4
:1037A000069E21E0701CF8B12EB1FCF779FFA0EB6A
:1037B0000800B04218D92068006820F4D070216851
:1037C00008602068806820F001002168886020205F
:1037D00084F8790084F87A0000BF002084F878002B
:1037E00000BF0320BDE8F0812068C0692840A842DE
:1037F00001D1012000E00020B842D3D00020F1E741
:1038000000BFFEE70FB4054B10B503A9044A0298A8
:1038100000F034F810BC5DF814FB0000DD3E000839
:103820003000002402480068C0F302207047000006
:103830000CED00E010B5002804DB0A07130E054A62
:10384000135406E00A07140E034A00F00F031B1F6F
:10385000D45410BD00E400E018ED00E002E008C818
:10386000121F08C1002AFAD170477047002001E0FA
:1038700001C1121F002AFBD1704700002DE9FF4F44
:103880008BB088460546002606E025280BD0DDE9EA
:103890000D1290476D1C761C28780028F5D10FB0CA
:1038A0003046BDE8F08F0024A146A2460122AE4971
:1038B00000E0044315F8013F203B02FA03F0084200
:1038C000F7D128782A2810D06FF02F022878A0F19D
:1038D0003001092915D809EB890102EB410144F0B7
:1038E000020400EB01096D1CF0E758F8041B5FEAC5
:1038F000010903D544F40054C9F1000944F002045D
:103900006D1C28782E2817D115F8010F44F00404F7
:103910002A280ED06FF02F022878A0F13001092953
:103920000AD80AEB8A0102EB410100EB010A6D1C87
:10393000F2E758F804AB6D1C28786C280FD006DC31
:103940004C2817D068280DD06A2814D104E07428B8
:1039500010D07A280FD10DE044F400140AE044F4AA
:10396000801401E044F440146978814202D104F5E6
:1039700080146D1C6D1C2878692865D006DC002831
:103980008DD0632827D0642806D15DE06E2808D04A
:1039900073282AD0752877D0DDE90D129047761C60
:1039A000E0E0C4F30250022809D003280DD0D8F873
:1039B000001004280DD00E6008F10408D2E0D8F8F9
:1039C0000010F217C1E90062F6E7D8F800100E8087
:1039D000F2E70E70F0E718F8041B8DF800100020D5
:1039E0008DF80100EB46012003E058F804BB4FF0CE
:1039F000FF3061074FF0000701D40AE07F1C5745F4
:103A00000DDA8742FADB1BF807100029F6D106E031
:103A10007F1C8742FCDB1BF807100029F8D1DDE989
:103A20000D23A9EB07008146214600F0B1F8304490
:103A3000C61904E0DDE90D121BF8010B90477F1E4B
:103A4000F8D22146484688E058F8040BC4F30251E6
:103A50004FF00A0B032900D100B2042900D140B273
:103A6000002802DA40422D2102E0210505D52B2154
:103A70008DF82410012104E006E0E10710D0202198
:103A8000F6E708AF089113E058F8040BC4F30251AD
:103A90004FF00A0B032900D180B2042900D1C0B233
:103AA0000021EEE75946FCF769FC303107F8011DAB
:103AB0000028F7D1ADEB070000F1200B600702D51D
:103AC00024F4803401E04FF0010ADA4502DDAAEB6C
:103AD0000B0000E00020824600EB0B010898014437
:103AE000A9EB01000A90E00306D4DDE90D2321468D
:103AF0000A9800F04DF806444FF0000908E009A9C3
:103B000011F80900DDE90D12904709F10109761C51
:103B100008998945F3DBE0030CD5DDE90D23214647
:103B20000A9800F035F8064404E0DDE90D12302073
:103B30009047761CBAF10001AAF1010AF5DC05E014
:103B4000DDE90D1217F8010B9047761CBBF100015F
:103B5000ABF1010BF4DC0A982146DDE90D2300F0FE
:103B600005F806446D1C97E6092801002DE9F0418F
:103B7000044600251E461746880404D405E039464D
:103B80002020B0476D1C641EF9D52846BDE8F081A1
:103B90002DE9F041044600251E469046C80301D594
:103BA000302700E02027880404D505E04146384648
:103BB000B0476D1C641EF9D52846BDE8F0810000B1
:103BC0002DE9F041894C8A4B002001210EE044F898
:103BD000201043F8210001F080060EB11B2600E002
:103BE000002686EA41064E40F1B2401CFF28EEDD79
:103BF000002001210CE07F4E46F8201001F08006E5
:103C00000EB11B2600E0002686EA4106F1B2401CF8
:103C10000A28F0DB6326784F3E700026774F87F83E
:103C20006360012021E053F82060C6F1FF0654F8DC
:103C300026100A46560046EAE216F2B251405600F5
:103C400046EAE216F2B25140560046EAE216F2B2F5
:103C50005140560046EAE216F2B282F06306714025
:103C6000654F3954654F7854401CFF28DBDD002038
:103C7000B7E0614E315C01F080060EB11B2600E01A
:103C8000002686EA4106F2B282EA0106F5B282EA2D
:103C9000012686EA014686EA0566594F47F8206004
:103CA0003E4656F820604FF0FF3707EA0626544F8D
:103CB00057F8207046EA1766524F47F820603E4694
:103CC00056F820604FF0FF3707EA06264D4F57F8A9
:103CD000207046EA17664C4F47F820603E4656F87B
:103CE00020604FF0FF3707EA0626474F57F820704D
:103CF00046EA1766454F47F82060404E315C59B19F
:103D000053F821709E6B3E44FF2796FBF7FC07FBA0
:103D10001C6654F8266000E0002661B153F821C00B
:103D20005F6A67444FF0FF0C97FBFCF80CFB1877B9
:103D300054F8277000E0002786EA072761B153F89E
:103D400021C05E6B66444FF0FF0C96FBFCF80CFB49
:103D5000186654F8266000E0002687EA064761B13D
:103D600053F821C0DE6A66444FF0FF0C96FBFCF866
:103D70000CFB186654F8266000E0002687EA066609
:103D8000234F47F820603E4656F820604FF0FF373B
:103D900007EA06261E4F57F8207046EA17661D4FA1
:103DA00047F820603E4656F820604FF0FF3707EA9C
:103DB0000626184F57F8207046EA17660B4F47F84B
:103DC00020603E4656F820604FF0FF3707EA06268F
:103DD000064F57F8207046EA1766054F47F82060EF
:103DE000401CFF287FF745AFBDE8F081CC1B0024C5
:103DF000CC1F0024CC230024CC010024CC120024AE
:103E0000CC020024CC060024CC0A0024CC0E0024D2
:103E1000CC130024CC17002410B5044623462246B8
:103E20000121024800F078F910BD0000B400002420
:103E300010B5024800F085F910BD0000B400002460
:103E400010B5044680222146014800F083F910BDD8
:103E5000B400002470B50446002535E0012291022B
:103E60001B48FCF717FC9620FCF7DAFA0122110335
:103E70001748FCF70FFC9620FCF7D2FA0122D10379
:103E80001348FCF707FC4FF49670FCF7C9FA0022C0
:103E90004FF480610E48FCF7FDFB9620FCF7C0FA5A
:103EA00000224FF480510A48FCF7F4FB9620FCF7FF
:103EB000B7FA00224FF400410548FCF7EBFB9620CF
:103EC000FCF7AEFA681CC5B2A542C7DB70BD0000A6
:103ED00000100258014600207047000013B50C4640
:103EE0004FF6FF73012269460248FEF738FC00983E
:103EF0001CBD00003400002410B504462046FFF726
:103F00009FFF002010BD10B5044600F0EFFF2046D3
:103F1000FFF782FF00F0F4FF22461021722000F02C
:103F2000C3FF002010BD000008B541F28833012214
:103F300069460348FEF78AFB9DF8000008BD0000B3
:103F40003400002400B587B049F2084002900120F7
:103F50000390002004900220059000BF14480068E0
:103F600040F01000124908600846006800F0100098
:103F7000019000BF00BF02A90E48FCF765FA0022BD
:103F800008210C48FCF786FB00224FF480610948A9
:103F9000FCF780FB00224FF480510648FCF77AFBC7
:103FA00000224FF400410348FCF774FB07B000BD4A
:103FB000E044025800100258F0B506460D460021B4
:103FC0003EE015F811304800401C2C5C302C05DB1D
:103FD000392C03DCA4F13000505411E0412C05DBF6
:103FE000462C03DCA4F13700505409E0612C05DBBA
:103FF000662C03DCA4F15700505401E00120F0BD11
:10400000302B06DB392B04DC575C47EA0310505495
:1040100015E0412B07DB462B05DC575CD81F47EA30
:10402000001050540BE0612B07DB662B05DC575C5E
:10403000D81F47EA0010505401E00120DFE7491C77
:10404000B142BEDB0020DAE71FB5FCF7E1F9FCF76F
:1040500039FBFEF777FDFFF775FF00F05BFF1CA350
:104060000FCB8DE80F00FFF7E3FE6846FFF7E8FE91
:10407000682000F07DFE652000F07AFE6C2000F0E4
:1040800077FE6C2000F074FE6F2000F071FE0A20B5
:1040900000F06EFE1248FFF7B5FB12A0FFF7B2FB6F
:1040A00000F0F8FE194A10216B2000F073FE184A48
:1040B0001021702000F06EFE164A0021782000F0DA
:1040C00069FE0320FFF7C6FE01E000F08FFEFCE76B
:1040D0002B7E151628AED2A6ABF7158809CF4F3C1C
:1040E000944F00082A2A20546573742066696E690B
:1040F00073686564207375636365737366756C6C50
:10410000792E202A2A200A0D00000000F93E00081E
:10411000073F00088D4D00082DE9F04107460C4689
:1041200015461E46012C06D132462946384600F077
:104130009DFBBDE8F08132462946384600F014F96F
:10414000F7E710B504464FF48C712046FCF70BF9E5
:1041500010BD00002DE9F04106460F4690467F480D
:10416000006820B9FFF72CFD01207C490860B8F1F8
:10417000800F06D0B8F1C00F06D0B8F5807F09D106
:1041800005E00A20306009E00C20306006E00E20D7
:10419000306003E06FF01F00BDE8F08100BF06F162
:1041A00008047460002516E017F82500012101EBD2
:1041B0008501795C40EA0120022101EB8501795CEF
:1041C00040EA0140032101EB8501795C40EA01608E
:1041D00044F825006D1CB5EB581FE5D330680A285C
:1041E00004D00C2830D00E282DD163E0002528E023
:1041F0005B4951F8251020684840A189C1F3072187
:10420000584A515C4840E168C1F30741515C80EA7B
:104210000121E068000E105C81EA0040217B515CC6
:1042200080EA0160206121696068484060616169DD
:10423000A0684840A061A169E0684840E0616D1C49
:1042400010340A2DD4D386E0002530E0444951F8DB
:10425000251020684840A18AC1F30721414A515CDA
:1042600048406169C1F30741515C80EA01216069FE
:10427000000E105C81EA0040217D515C80EA016003
:10428000A061A16960684840E061E169A0684840B8
:104290002062216AE06848406062616A20694840A3
:1042A000A062A16A60694840E0626D1C1834082D64
:1042B000CCD350E000254BE0294951F82510206867
:1042C0004840A18BC1F30721264A515C4840E1696F
:1042D000C1F30741515C80EA0121E069000E105CE6
:1042E00081EA0040217F515C80EA01602062216AFE
:1042F000606848406062616AA0684840A062A16A44
:10430000E0684840E06294F82C10515C2069484015
:10431000A18DC1F30721515C80EA0120E16AC1F35C
:104320000741515C80EA0141E06A000E105C81EABD
:1043300000602063216B606948406063616BA06925
:104340004840A063A16BE0694840E0636D1C2034E5
:10435000072DB1D300BF00BF00201DE714000024CB
:10436000CC230024CC0100242DE9F74F81B00B466B
:1043700001984168187893F801B040EA0B2093F84F
:1043800002B040EA0B4093F803B040EA0B6401C965
:104390004440187993F805B040EA0B2093F806B032
:1043A00040EA0B4093F807B040EA0B6501C945406D
:1043B000187A93F809B040EA0B2093F80AB040EA63
:1043C0000B4093F80BB040EA0B6601C94640187BDE
:1043D00093F80DB040EA0B2093F80EB040EA0B4082
:1043E00093F80FB040EA0B6701C947400198006895
:1043F0004FF0010BCBEB600000900AE101C904F023
:10440000FF0BDFF854E45EF82BB080EA0B00C7F333
:10441000072BDFF848E45EF82BB080EA0B00C6F308
:10442000074BDFF83CE45EF82BB080EA0B004FEA64
:10443000156BDFF830E45EF82BB080EA0B0A01C997
:1044400005F0FF0BDFF810E45EF82BB080EA0B00FC
:10445000C4F3072BDFF804E45EF82BB080EA0B000E
:10446000C7F3074BDFF8F8E35EF82BB080EA0B00E8
:104470004FEA166BDFF8ECE35EF82BB080EA0B082E
:1044800001C906F0FF0BDFF8D0E35EF82BB080EA3D
:104490000B00C5F3072BDFF8C4E35EF82BB080EA0E
:1044A0000B00C4F3074BDFF8B8E35EF82BB080EAEB
:1044B0000B004FEA176BDFF8ACE35EF82BB080EA35
:1044C0000B0C01C907F0FF0BDFF88CE35EF82BB093
:1044D00080EA0B00C6F3072BDFF880E35EF82BB011
:1044E00080EA0B00C5F3074BDFF874E35EF82BB0EE
:1044F00080EA0B004FEA146BDFF868E35EF82BB03C
:1045000080EA0B0901C90AF0FF0BDFF84CE35EF803
:104510002BB080EA0B00C9F3072BDFF840E35EF80D
:104520002BB080EA0B00CCF3074BDFF834E35EF8E6
:104530002BB080EA0B004FEA186BDFF828E35EF837
:104540002BB080EA0B0401C908F0FF0BDFF808E389
:104550005EF82BB080EA0B00CAF3072BDFF8FCE211
:104560005EF82BB080EA0B00C9F3074BDFF8F0E2EE
:104570005EF82BB080EA0B004FEA1C6BDFF8E4E238
:104580005EF82BB080EA0B0501C90CF0FF0BDFF8D9
:10459000C8E25EF82BB080EA0B00C8F3072BDFF807
:1045A000BCE25EF82BB080EA0B00CAF3074BDFF8E1
:1045B000B0E25EF82BB080EA0B004FEA196BDFF82F
:1045C000A4E25EF82BB080EA0B0601C909F0FF0BEC
:1045D000DFF884E25EF82BB080EA0B00CCF3072B07
:1045E000DFF878E25EF82BB080EA0B00C8F3074BE7
:1045F000DFF86CE25EF82BB080EA0B004FEA1A6B32
:10460000DFF860E25EF82BB080EA0B070098401EEE
:104610000090009800283FF7F1AE01C904F0FF0BAD
:10462000DFF834E25EF82BB080EA0B00C7F3072B0B
:10463000DFF828E25EF82BB080EA0B00C6F3074BE8
:10464000DFF81CE25EF82BB080EA0B004FEA156B36
:10465000DFF810E25EF82BB080EA0B0A01C905F022
:10466000FF0BDFF8F4E15EF82BB080EA0B00C4F337
:10467000072BDFF8E8E15EF82BB080EA0B00C7F308
:10468000074BDFF8DCE15EF82BB080EA0B004FEA65
:10469000166BDFF8D0E15EF82BB080EA0B0801C999
:1046A00006F0FF0BDFF8B0E15EF82BB080EA0B00FC
:1046B000C5F3072BDFF8A4E15EF82BB080EA0B000E
:1046C000C4F3074BDFF898E15EF82BB080EA0B00EB
:1046D0004FEA176BDFF88CE15EF82BB080EA0B0C29
:1046E00001C907F0FF0BDFF870E15EF82BB080EA3C
:1046F0000B00C6F3072BDFF864E15EF82BB080EA0D
:104700000B00C5F3074BDFF858E15EF82BB080EAE9
:104710000B004FEA146BDFF84CE15EF82BB080EA37
:104720000B0901C90AF0FF0BDFF83CE11EF80BB0E2
:1047300080EA0B00F346C9F3072E1BF80EB080EA9F
:104740000B20DFF824B1CCF3074E1BF80EB080EA43
:104750000B4B4FEA1860DFF810E11EF800008BEAFF
:10476000006401C908F0FF0B1EF80BB080EA0B00D3
:10477000F346CAF3072E1BF80EB080EA0B20DFF8D1
:10478000E8B0C9F3074E1BF80EB080EA0B4B4FEAB6
:104790001C60DFF8D4E01EF800008BEA006501C958
:1047A0000CF0FF0B1EF80BB080EA0B00F346C8F3C9
:1047B000072E1BF80EB080EA0B20DFF8ACB0CAF36E
:1047C000074E1BF80EB080EA0B4B4FEA1960DFF87A
:1047D00098E01EF800008BEA006601C909F0FF0BA3
:1047E0001EF80BB080EA0B00F346CCF3072E1BF843
:1047F0000EB080EA0B20DFF870B0C8F3074E1BF84C
:104800000EB080EA0B4B4FEA1A60DFF85CE01EF84E
:1048100000008BEA00671470200A5070200C907022
:10482000200ED0701571280A5071280C9071280E36
:10483000D0711672300A5072300C9072300ED072F5
:104840001773380A5073380C9073380ED0730020E9
:1048500004B0BDE8F08F0000CC130024CC17002476
:10486000CC1B0024CC1F0024CC1200242DE9F74FD0
:1048700090B00D461646FBF75DFDC117009000EBAA
:10488000917081100098A0EB8100C0B20A9002A83C
:104890000190002000900EE0FBF74CFDFF2190FB03
:1048A000F1F201FB1200C1B202AA00981154009863
:1048B000401CC0B2009000982028EDDB109844689E
:1048C00000201DE015F82010012202EB8002AA5CF6
:1048D00041EA0221022202EB8002AA5C41EA024183
:1048E000032202EB8002AA5C41EA02610B9101996A
:1048F00011F8012B01910B994A400B92411CC8B24F
:104900000A998842DEDB2878697840EA0120A97894
:1049100040EA0140E97840EA016701CC4740287944
:10492000697940EA0120A97940EA0140E97940EA41
:10493000016801CC80EA0808287A697A40EA0120F7
:10494000A97A40EA0140E97A40EA016901CC80EAAB
:104950000909287B697B40EA0120A97B40EA0140E4
:10496000E97B40EA016A01CC80EA0A0A00201DE0E6
:1049700015F82010012202EB8002AA5C41EA022114
:10498000022202EB8002AA5C41EA0241032202EB0E
:104990008002AA5C41EA02610B91019911F8012B96
:1049A00001910B994A400B92411CC8B20A99C1F17E
:1049B00004018142DCDC109800680121C1EB600039
:1049C0000F90D6E001CCF9B2E44A52F821104840E9
:1049D000C8F30721E24A52F821104840C9F30741C1
:1049E000E04A52F8211048404FEA1A61DE4A52F874
:1049F000211080EA010B01CC08F0FF01D74A52F8E0
:104A000021104840C9F30721D54A52F821104840E7
:104A1000CAF30741D34A52F821104840390ED24A0E
:104A200052F8211048400E9001CC09F0FF01CB4A0A
:104A300052F821104840CAF30721C94A52F8211000
:104A40004840C7F30741C74A52F8211048404FEA8F
:104A50001861C54A52F8211048400D9001CC0AF067
:104A6000FF01BE4A52F821104840C7F30721BC4A53
:104A700052F821104840C8F30741BA4A52F82110B1
:104A800048404FEA1961B84A52F8211048400C904A
:104A900001CC0BF0FF01B14A52F8211048400E99A9
:104AA000C1F30721AE4A52F8211048400D99C1F3D5
:104AB0000741AC4A52F8211048400C99090EAA4A05
:104AC00052F8211080EA010702CC0E98C0B2A34A26
:104AD00052F8200048400D99C1F30721A04A52F82E
:104AE000211048400C99C1F307419E4A52F8211009
:104AF00048404FEA1B619C4A52F8211080EA0108A5
:104B000002CC0D98C0B2954A52F8200048400C994A
:104B1000C1F30721924A52F821104840CBF30741D4
:104B2000904A52F8211048400E99090E8E4A52F8C8
:104B3000211080EA010902CC0C98C0B2874A52F8D1
:104B400020004840CBF30721854A52F82110484005
:104B50000E99C1F30741834A52F8211048400D993C
:104B6000090E814A52F8211080EA010A0F98401E6E
:104B70000F900F9800283FF725AF01CCF9B2774A84
:104B800052F821104840C8F30721754A52F8211005
:104B90004840C9F30741734A52F8211048404FEA90
:104BA0001A61714A52F8211080EA010B01CC08F019
:104BB000FF016A4A52F821104840C9F30721684AA8
:104BC00052F821104840CAF30741664A52F82110B2
:104BD0004840390E644A52F8211048400E9001CCEA
:104BE00009F0FF015D4A52F821104840CAF307213D
:104BF0005B4A52F821104840C7F30741594A52F81E
:104C0000211048404FEA1861574A52F82110484095
:104C10000D9001CC0AF0FF01504A52F82110484093
:104C2000C7F307214E4A52F821104840C8F3074104
:104C30004C4A52F8211048404FEA19614A4A52F84A
:104C4000211048400C9001CC0BF0FF01474A515C09
:104C500048400E99C1F30721515C80EA0122434983
:104C60000D98C0F30740085C82EA00410C98000EE2
:104C70003E4A105C81EA006701CC0E99C9B2515CD2
:104C800048400D99C1F30721515C80EA01210C983D
:104C9000C0F30740105C81EA00414FEA1B60105CE2
:104CA00081EA006801CC0D99C9B2515C48400C9969
:104CB000C1F30721515C80EA01201146CBF3074282
:104CC000895C80EA01410E98000E284A105C81EA56
:104CD000006901CC0C99C9B2515C48401146CBF334
:104CE0000722895C80EA012220490E98C0F3074020
:104CF000085C82EA00410D98000E1C4A105C81EAB3
:104D0000006A3770380A7070380CB070380EF07066
:104D100086F804804FEA182070714FEA1840B0718D
:104D20004FEA1860F07186F808904FEA1920707207
:104D30004FEA1940B0724FEA1960F07286F80CA081
:104D40004FEA1A2070734FEA1A40B0734FEA1A60A4
:104D5000F073002013B0BDE8F08F0000CC020024F7
:104D6000CC060024CC0A0024CC0E0024CC01002464
:104D700038B50446009441F288330122694602485E
:104D8000FDF7EDFC38BD0000340000240146002092
:104D90007047000010B50346124800680A2801DD7C
:104DA000012010BD402901D90120FAE70D48006813
:104DB00000EB40000C4C04F820300A48006800EB7F
:104DC000400004EB800041600648006800EB4000B2
:104DD00004EB8000826003480068401C014C2060A6
:104DE0000020DEE718000024F423002470B5B2B0E0
:104DF000FFF79AF80546002408E004EB4400234935
:104E000011F82000A84200D104E0641C204800688A
:104E10008442F2DB00BF1E480068844201D132B0F8
:104E200070BD00260AE0FFF77FF805460A2D01D085
:104E30000D2D00D1F3E712A88555761C04EB440034
:104E4000124901EB800040684000B042EBD8FFF708
:104E50006BF805460A2D02D00D2D00D0DFE704EBDC
:104E600044010A4A02EB810102AA486812A9FFF72D
:104E7000A3F800B1D3E704EB4400044A02EB80003E
:104E8000816802A88847019000BFC8E7F423002486
:104E90001800002400B5034A00217620FFF77AFFAE
:104EA00000BD0000D53E00082DE9F04107460E4642
:104EB00015463846FFF75CFF00240EE0295D0A4ADC
:104EC00002EB21110878FFF753FF295D01F00F0174
:104ED000054A505CFFF74CFF641CB442EEDB0A202D
:104EE000FFF746FFBDE8F0811C00002410B5012249
:104EF00008210248FBF7CEFB10BD0000001002584D
:104F000010B5002208210248FBF7C4FB10BD0000C9
:104F10000010025810B50C480C4908604FF41640B8
:104F20004860002109488160C160016181610C21F4
:104F300041610021C161FDF7FDFA20B10122D103D9
:104F40000348FBF7A7FB10BD007C004034000024A1
:104F500000100258010002000400060008000A00C8
:104F60000C00100020004000800000010100020041
:104F70000400060008000A000C0010002000400099
:104F8000800000010000000001020304010203048C
:104F9000060708090A0D2055415254205072696EC7
:104FA0007466204578616D706C653A207265746135
:104FB00072676574207468652043206C6962726151
:104FC0007279207072696E74662066756E6374699A
:104FD0006F6E20746F2074686520554152540A0D1D
:104FE000000000000450000800000024340000000D
:104FF0005C38000838500008340000243C280000C9
:105000006C380008000000001000000001000000E3
:105010000090D0030090D0030000000000000000CA
:1050200030313233343536373839414243444546DE
:08503000000000000000000078
:040000050800029954
:00000001FF
