:10000000FDC000001CC1000017C2000018C10000A4
:1000100016C1000014C100004BC4000071C40000F0
:1000200097C40000BDC400000AC1000008C1000060
:1000300006C1000004C1000014C500003FC5000057
:100040006AC5000095C50000C0C50000EBC50000F2
:1000500016C6000041C600006CC6000097C600002E
:10006000EEC00000ECC00000EAC00000E8C00000E4
:10007000E6C00000E4C00000E2C00000E0C00000F4
:10008000DEC00000DCC00000DAC00000D8C0000004
:10009000D6C00000D4C00000D2C00000D0C0000014
:1000A000CEC00000CCC00000CAC000000C94010CFF
:1000B000C6C00000C4C00000C2C000000C94B50857
:1000C0000C94E2080C940F090C943C090C946909F7
:1000D0000C9496090C94C3090C94F0090C941D0A15
:1000E0000C944A0AACC00000AAC00000A8C00000DE
:1000F000A6C00000A4C00000A2C00000A0C0000074
:100100009EC000009CC000009AC0000098C0000083
:1001100096C0000094C0000092C0000090C0000093
:100120008EC000008CC000008AC0000088C00000A3
:1001300086C0000058C6000083C60000AEC600009E
:10014000D9C6000004C700002FC700005AC700002E
:1001500085C70000B0C70000DBC7000070C000000A
:100160006EC000006CC000006AC0000068C00000E3
:1001700066C0000064C0000062C0000060C00000F3
:100180005EC000005CC000005AC0000058C0000003
:1001900056C0000054C0000052C0000050C0000013
:1001A0004EC000004CC000004AC0000048C0000023
:1001B0000C94770A0C94A40A0C94D10A0C94FE0AAD
:1001C0000C942B0B0C94580B3AC0000038C0000064
:1001D00036C0000034C0000032C0000030C0000053
:1001E0002EC000002CC000002AC0000028C0000063
:1001F00026C000000C9450170C94051811241FBE43
:10020000CFEFDFE5DEBFCDBF00E00CBF10E2A0E026
:10021000B0E2E0ECF2E300E00BBF02C007900D9209
:10022000A83BB107D9F72AE2A8EBB0E201C01D92C2
:10023000A437B207E1F70E94C30C0C945E19E0CE1C
:100240000F931F93CF93DF93CDB7DEB72B97CDBF1F
:10025000DEBF8E010F5F1F4F8BE0F80111928A9570
:10026000E9F780E094E08D839E838DE98B8380E1C4
:1002700092E08887998783E592E28A879B8780E16D
:100280008C8385E08983F8D261EB71E080E007D34D
:100290008A81807F85608A83B80180E0A9D38FB787
:1002A000F894E0E1F1E09081906890838FBF2B9605
:1002B000CDBFDEBFDF91CF911F910F910895CF93F6
:1002C000DF93CDB7DEB72B97CDBFDEBFBE016F5F2B
:1002D0007F4F80E092E012D28A819B819F789B833E
:1002E00091E09D83817E80618A831C82BE016F5F65
:1002F0007F4F80E092E0ADD1188619861A861B8662
:100300008FE0888781E28987AE01485F5F4F61E0B7
:1003100080E092E016D280E092E084D12B96CDBFAF
:10032000DEBFDF91CF910895CF93DF93CDB7DEB7D6
:100330002797CDBFDEBFBE016F5F7F4F80E092E0A9
:10034000DDD18A81877F8A831C82BE016F5F7F4FE8
:1003500080E092E07ED12796CDBFDEBFDF91CF91C6
:100360000895E2DF81E080935D2A0895CF93DF93C3
:10037000CDB7DEB72797CDBFDEBFBE016F5F7F4F22
:1003800080E092E0BBD18A8188608A83BE016F5F82
:100390007F4F80E092E05DD18FB7F894E0E0F2E02B
:1003A0009081946090838FBF2796CDBFDEBFDF9191
:1003B000CF91089543E050E061E080E496E00E9430
:1003C000E31880E098E00E94850BE0E0F8E081818E
:1003D000887F8160818385E090E086A397A382E097
:1003E00090E080A791A78181806181838081807F57
:1003F00081608083089540E050E062E080E496E010
:100400000E94E31882E08093B000E0E4F6E090E11F
:10041000908B9FB7F8942189287F218B21892160B7
:10042000218B9FBF9185936091878287E0EAF0E0FE
:1004300082818460828308951F920F920FB60F927B
:1004400011240BB60F928F93EF93FF9381E0E0EEB0
:10045000F7E08783FF91EF918F910F900BBE0F9084
:100460000FBE0F901F90189580E008953091662A76
:100470002091672A822F90E00397E1F431111CC08C
:1004800080916A2A90916B2A0497C1F484EC90E2DF
:1004900080936C2A90936D2A8DE792E08093702A66
:1004A0009093712A84E090E080936E2A90936F2A53
:1004B00081E0089580E0089580E0089580E0089547
:1004C00081E08093BA2008950F931F9309E912E009
:1004D00028E030E04CEB50E260E082E00E949A16A7
:1004E0001F910F91089526E332E040E050E269EB5E
:1004F00070E288EB90E20C94E80D80916E2A909166
:100500006F2A049721F484EC90E20C94050D089571
:100510000C94020D08951092B8201092B92081E039
:100520008093BA20D1DF882311F00C94FE0C80E078
:100530000895811108C06830710521F48CEB90E2B8
:100540000E949E0CC1CF08950F931F93CF932091CB
:10055000BA20222321F1CFB7F89420E4E8ECF0E2AE
:10056000DF011D922A95E9F720E4FC01A8ECB0E236
:1005700001900D922A95E1F700E612E020E430E0C8
:1005800048EC50E260E081E80E949A1691E08927E9
:100590008093BA20CFBF8091BA20892701C080E024
:1005A000CF911F910F910895811522E0920761F478
:1005B00080910821982F9F5F90930821811113C08B
:1005C00062E081E00C94850D8034924061F480916A
:1005D0000921982F9F5F90930921811104C062E047
:1005E00082E00C94850D0895811522E0920759F45C
:1005F00080910821815080930821811112C062E00E
:1006000081E00C94910D8034924059F4809109213D
:10061000815080930921811104C062E082E00C9432
:10062000910D08951F93CF93DF93EC011FB7F894BA
:10063000BBDF8881816088831FBF8FB7F894EFE5A7
:10064000FAE290819F5F90838FBFDF91CF911F91DE
:100650000895DF92EF92FF920F931F93CF93DF9352
:10066000EC018B01C11582E0D80779F461E270E0FA
:1006700082E00E94DE0DD82E60E270E082E00E94EF
:10068000DE0DFD2CE12CE82A13C0C034E2E0DE07C9
:1006900069F565E270E082E00E94DE0DF82E64E20A
:1006A00070E082E00E94DE0D3F2D20E07901E82A13
:1006B000DFB6F894CE0178DF288182E08883EC866B
:1006C000FD86F80185819681888F998F82818A8342
:1006D00084818C8383818B8381818983822F817044
:1006E0009081892B8883CE017FDFDFBEDF91CF91A0
:1006F0001F910F91FF90EF90DF900895FF920F935D
:100700001F93CF93DF93EC018B01FFB6F8944CDF7E
:100710008881807CF8018083888D998D858396837C
:100720008A8182838C8184838B8183838981818385
:10073000CE015ADFFFBEDF91CF911F910F91FF9045
:100740000895CF92DF92EF92FF920F931F93CF9372
:10075000DF937C01D62E8A01862F837029F4962F91
:100760009695969582E002C0962F80E090FF8F5F6D
:10077000E701A09698E0899FC00DD11D1124CFB646
:10078000F894C70111DFF8018081888382818A8310
:1007900081818983D0FE02C083818E83C70124DFDB
:1007A000CFBEDF91CF911F910F91FF90EF90DF901F
:1007B000CF900895CF93DF93282F30E0F901719601
:1007C000E295F295F07FFE27E07FFE27A0E0B1E002
:1007D00014969C9114971396AC91A9014C5F5F4FAE
:1007E00061E070E0EB01042E02C0CC0FDD1F0A9423
:1007F000E2F7082E02C0660F771F0A94E2F76C2B0F
:10080000A623B0E0ED01042E02C0D595C7950A9449
:10081000E2F7C0FD1BC0082E02C0B595A7950A944B
:10082000E2F7A0FD15C0692370E0DB0102C0B595B9
:10083000A7954A95E2F7A0FD0DC0AB0102C0559502
:1008400047958A95E2F7CA01817005C084E003C02C
:1008500083E001C082E0918190639183F901EE0F02
:10086000FF1FED5AF54D0190F081E02D309709F012
:100870001995DF91CF91089561E080E00E94850D88
:100880008FB7F894EFE5FAE290819F5F90838FBF76
:10089000E0E0F1E080E4808380E880830895E82F41
:1008A000F0E0EE0FFF1FED5AF54D60837183089560
:1008B0001F920F920FB60F9211240BB60F922F9327
:1008C0003F934F935F936F937F938F939F93AF93D8
:1008D000BF93EF93FF9380E06DDFFF91EF91BF91A6
:1008E000AF919F918F917F916F915F914F913F91C8
:1008F0002F910F900BBE0F900FBE0F901F90189569
:100900001F920F920FB60F9211240BB60F922F93D6
:100910003F934F935F936F937F938F939F93AF9387
:10092000BF93EF93FF9381E045DFFF91EF91BF917C
:10093000AF919F918F917F916F915F914F913F9177
:100940002F910F900BBE0F900FBE0F901F90189518
:100950001F920F920FB60F9211240BB60F922F9386
:100960003F934F935F936F937F938F939F93AF9337
:10097000BF93EF93FF9382E01DDFFF91EF91BF9153
:10098000AF919F918F917F916F915F914F913F9127
:100990002F910F900BBE0F900FBE0F901F901895C8
:1009A0001F920F920FB60F9211240BB60F922F9336
:1009B0003F934F935F936F937F938F939F93AF93E7
:1009C000BF93EF93FF9383E0F5DEFF91EF91BF912B
:1009D000AF919F918F917F916F915F914F913F91D7
:1009E0002F910F900BBE0F900FBE0F901F90189578
:1009F000DB01E82FF0E07196E295F295F07FFE279B
:100A0000E07FFE272FB7F89419968C911997848769
:100A10001A968C911A978587168617968C91179738
:100A2000808718968C9118978187128612968C91E0
:100A30001297828313968C911397838314968D91CA
:100A40009C9115978483958316968C91169786832F
:100A500011968C91119781838C918F7780832FBF12
:100A600008951F920F920FB60F9211240BB60F929A
:100A70002F933F934F935F936F937F938F939F93A6
:100A8000AF93BF93EF93FF93E0910A21F0910B2175
:100A9000309709F01995FF91EF91BF91AF919F9118
:100AA0008F917F916F915F914F913F912F910F9017
:100AB0000BBE0F900FBE0F901F9018951F920F92B4
:100AC0000FB60F9211240BB60F922F933F934F93B3
:100AD0005F936F937F938F939F93AF93BF93EF93A6
:100AE000FF93E0910C21F0910D21309709F01995B9
:100AF000FF91EF91BF91AF919F918F917F916F91F6
:100B00005F914F913F912F910F900BBE0F900FBEB1
:100B10000F901F9018951F920F920FB60F921124ED
:100B20000BB60F922F933F934F935F936F937F93E7
:100B30008F939F93AF93BF93EF93FF93E0910E2119
:100B4000F0910F21309709F01995FF91EF91BF9126
:100B5000AF919F918F917F916F915F914F913F9155
:100B60002F910F900BBE0F900FBE0F901F901895F6
:100B70001F920F920FB60F9211240BB60F922F9364
:100B80003F934F935F936F937F938F939F93AF9315
:100B9000BF93EF93FF93E0911021F09111213097D3
:100BA00009F01995FF91EF91BF91AF919F918F91AE
:100BB0007F916F915F914F913F912F910F900BBE5D
:100BC0000F900FBE0F901F9018951F920F920FB6A7
:100BD0000F9211240BB60F922F933F934F935F9375
:100BE0006F937F938F939F93AF93BF93EF93FF93F5
:100BF000E0911221F0911321309709F01995FF919E
:100C0000EF91BF91AF919F918F917F916F915F9184
:100C10004F913F912F910F900BBE0F900FBE0F90F1
:100C20001F9018951F920F920FB60F9211240BB6BA
:100C30000F922F933F934F935F936F937F938F9375
:100C40009F93AF93BF93EF93FF93E0911421F091A3
:100C50001521309709F01995FF91EF91BF91AF9150
:100C60009F918F917F916F915F914F913F912F91C4
:100C70000F900BBE0F900FBE0F901F9018951F92F4
:100C80000F920FB60F9211240BB60F922F933F9332
:100C90004F935F936F937F938F939F93AF93BF9384
:100CA000EF93FF93E0911621F0911721309709F00F
:100CB0001995FF91EF91BF91AF919F918F917F9186
:100CC0006F915F914F913F912F910F900BBE0F90BD
:100CD0000FBE0F901F9018951F920F920FB60F9294
:100CE00011240BB60F922F933F934F935F936F9303
:100CF0007F938F939F93AF93BF93EF93FF93E09175
:100D00001821F0911921309709F01995FF91EF9171
:100D1000BF91AF919F918F917F916F915F914F9113
:100D20003F912F910F900BBE0F900FBE0F901F9011
:100D300018951F920F920FB60F9211240BB60F92B7
:100D40002F933F934F935F936F937F938F939F93D3
:100D5000AF93BF93EF93FF93E0911A21F0911B2182
:100D6000309709F01995FF91EF91BF91AF919F9145
:100D70008F917F916F915F914F913F912F910F9044
:100D80000BBE0F900FBE0F901F9018951F920F92E1
:100D90000FB60F9211240BB60F922F933F934F93E0
:100DA0005F936F937F938F939F93AF93BF93EF93D3
:100DB000FF93E0911C21F0911D21309709F01995C6
:100DC000FF91EF91BF91AF919F918F917F916F9123
:100DD0005F914F913F912F910F900BBE0F900FBEDF
:100DE0000F901F9018951F920F920FB60F9211241B
:100DF0000BB60F922F933F934F935F936F937F9315
:100E00008F939F93AF93BF93EF93FF93E0911E2136
:100E1000F0911F21309709F01995FF91EF91BF9143
:100E2000AF919F918F917F916F915F914F913F9182
:100E30002F910F900BBE0F900FBE0F901F90189523
:100E40001F920F920FB60F9211240BB60F922F9391
:100E50003F934F935F936F937F938F939F93AF9342
:100E6000BF93EF93FF93E0912021F09121213097E0
:100E700009F01995FF91EF91BF91AF919F918F91DB
:100E80007F916F915F914F913F912F910F900BBE8A
:100E90000F900FBE0F901F9018951F920F920FB6D4
:100EA0000F9211240BB60F922F933F934F935F93A2
:100EB0006F937F938F939F93AF93BF93EF93FF9322
:100EC000E0912221F0912321309709F01995FF91AB
:100ED000EF91BF91AF919F918F917F916F915F91B2
:100EE0004F913F912F910F900BBE0F900FBE0F901F
:100EF0001F9018951F920F920FB60F9211240BB6E8
:100F00000F922F933F934F935F936F937F938F93A2
:100F10009F93AF93BF93EF93FF93E0912421F091C0
:100F20002521309709F01995FF91EF91BF91AF916D
:100F30009F918F917F916F915F914F913F912F91F1
:100F40000F900BBE0F900FBE0F901F9018951F9221
:100F50000F920FB60F9211240BB60F922F933F935F
:100F60004F935F936F937F938F939F93AF93BF93B1
:100F7000EF93FF93E0912621F0912721309709F01C
:100F80001995FF91EF91BF91AF919F918F917F91B3
:100F90006F915F914F913F912F910F900BBE0F90EA
:100FA0000FBE0F901F9018951F920F920FB60F92C1
:100FB00011240BB60F922F933F934F935F936F9330
:100FC0007F938F939F93AF93BF93EF93FF93E091A2
:100FD0002821F0912921309709F01995FF91EF917F
:100FE000BF91AF919F918F917F916F915F914F9141
:100FF0003F912F910F900BBE0F900FBE0F901F903F
:1010000018951F920F920FB60F9211240BB60F92E4
:101010002F933F934F935F936F937F938F939F9300
:10102000AF93BF93EF93FF93E0912A21F0912B218F
:10103000309709F01995FF91EF91BF91AF919F9172
:101040008F917F916F915F914F913F912F910F9071
:101050000BBE0F900FBE0F901F9018951F920F920E
:101060000FB60F9211240BB60F922F933F934F930D
:101070005F936F937F938F939F93AF93BF93EF9300
:10108000FF93E0912C21F0912D21309709F01995D3
:10109000FF91EF91BF91AF919F918F917F916F9150
:1010A0005F914F913F912F910F900BBE0F900FBE0C
:1010B0000F901F9018951F920F920FB60F92112448
:1010C0000BB60F922F933F934F935F936F937F9342
:1010D0008F939F93AF93BF93EF93FF93E0912E2154
:1010E000F0912F21309709F01995FF91EF91BF9161
:1010F000AF919F918F917F916F915F914F913F91B0
:101100002F910F900BBE0F900FBE0F901F90189550
:101110001F920F920FB60F9211240BB60F922F93BE
:101120003F934F935F936F937F938F939F93AF936F
:10113000BF93EF93FF93E0913021F09131213097ED
:1011400009F01995FF91EF91BF91AF919F918F9108
:101150007F916F915F914F913F912F910F900BBEB7
:101160000F900FBE0F901F9018951F920F920FB601
:101170000F9211240BB60F922F933F934F935F93CF
:101180006F937F938F939F93AF93BF93EF93FF934F
:10119000E0913221F0913321309709F01995FF91B8
:1011A000EF91BF91AF919F918F917F916F915F91DF
:1011B0004F913F912F910F900BBE0F900FBE0F904C
:1011C0001F9018951F920F920FB60F9211240BB615
:1011D0000F922F933F934F935F936F937F938F93D0
:1011E0009F93AF93BF93EF93FF93E0913421F091DE
:1011F0003521309709F01995FF91EF91BF91AF918B
:101200009F918F917F916F915F914F913F912F911E
:101210000F900BBE0F900FBE0F901F9018951F924E
:101220000F920FB60F9211240BB60F922F933F938C
:101230004F935F936F937F938F939F93AF93BF93DE
:10124000EF93FF93E0913621F0913721309709F029
:101250001995FF91EF91BF91AF919F918F917F91E0
:101260006F915F914F913F912F910F900BBE0F9017
:101270000FBE0F901F9018951F920F920FB60F92EE
:1012800011240BB60F922F933F934F935F936F935D
:101290007F938F939F93AF93BF93EF93FF93E091CF
:1012A0003821F0913921309709F01995FF91EF918C
:1012B000BF91AF919F918F917F916F915F914F916E
:1012C0003F912F910F900BBE0F900FBE0F901F906C
:1012D00018951F920F920FB60F9211240BB60F9212
:1012E0002F933F934F935F936F937F938F939F932E
:1012F000AF93BF93EF93FF93E0913A21F0913B219D
:10130000309709F01995FF91EF91BF91AF919F919F
:101310008F917F916F915F914F913F912F910F909E
:101320000BBE0F900FBE0F901F9018951F920F923B
:101330000FB60F9211240BB60F922F933F934F933A
:101340005F936F937F938F939F93AF93BF93EF932D
:10135000FF93E0913C21F0913D21309709F01995E0
:10136000FF91EF91BF91AF919F918F917F916F917D
:101370005F914F913F912F910F900BBE0F900FBE39
:101380000F901F9018951F920F920FB60F92112475
:101390000BB60F922F933F934F935F936F937F936F
:1013A0008F939F93AF93BF93EF93FF93E0913E2171
:1013B000F0913F21309709F01995FF91EF91BF917E
:1013C000AF919F918F917F916F915F914F913F91DD
:1013D0002F910F900BBE0F900FBE0F901F9018957E
:1013E0001F920F920FB60F9211240BB60F922F93EC
:1013F0003F934F935F936F937F938F939F93AF939D
:10140000BF93EF93FF93E0914021F09141213097FA
:1014100009F01995FF91EF91BF91AF919F918F9135
:101420007F916F915F914F913F912F910F900BBEE4
:101430000F900FBE0F901F9018951F920F920FB62E
:101440000F9211240BB60F922F933F934F935F93FC
:101450006F937F938F939F93AF93BF93EF93FF937C
:10146000E0914221F0914321309709F01995FF91C5
:10147000EF91BF91AF919F918F917F916F915F910C
:101480004F913F912F910F900BBE0F900FBE0F9079
:101490001F9018951F920F920FB60F9211240BB642
:1014A0000F922F933F934F935F936F937F938F93FD
:1014B0009F93AF93BF93EF93FF93E0914421F091FB
:1014C0004521309709F01995FF91EF91BF91AF91A8
:1014D0009F918F917F916F915F914F913F912F914C
:1014E0000F900BBE0F900FBE0F901F9018951F927C
:1014F0000F920FB60F9211240BB60F922F933F93BA
:101500004F935F936F937F938F939F93AF93BF930B
:10151000EF93FF93E0914621F0914721309709F036
:101520001995FF91EF91BF91AF919F918F917F910D
:101530006F915F914F913F912F910F900BBE0F9044
:101540000FBE0F901F9018951F920F920FB60F921B
:1015500011240BB60F922F933F934F935F936F938A
:101560007F938F939F93AF93BF93EF93FF93E091FC
:101570004821F0914921309709F01995FF91EF9199
:10158000BF91AF919F918F917F916F915F914F919B
:101590003F912F910F900BBE0F900FBE0F901F9099
:1015A00018951F920F920FB60F9211240BB60F923F
:1015B0002F933F934F935F936F937F938F939F935B
:1015C000AF93BF93EF93FF93E0914A21F0914B21AA
:1015D000309709F01995FF91EF91BF91AF919F91CD
:1015E0008F917F916F915F914F913F912F910F90CC
:1015F0000BBE0F900FBE0F901F9018951F920F9269
:101600000FB60F9211240BB60F922F933F934F9367
:101610005F936F937F938F939F93AF93BF93EF935A
:10162000FF93E0914C21F0914D21309709F01995ED
:10163000FF91EF91BF91AF919F918F917F916F91AA
:101640005F914F913F912F910F900BBE0F900FBE66
:101650000F901F9018951F920F920FB60F921124A2
:101660000BB60F922F933F934F935F936F937F939C
:101670008F939F93AF93BF93EF93FF93E0914E218E
:10168000F0914F21309709F01995FF91EF91BF919B
:10169000AF919F918F917F916F915F914F913F910A
:1016A0002F910F900BBE0F900FBE0F901F901895AB
:1016B0001F920F920FB60F9211240BB60F922F9319
:1016C0003F934F935F936F937F938F939F93AF93CA
:1016D000BF93EF93FF93E0915021F0915121309708
:1016E00009F01995FF91EF91BF91AF919F918F9163
:1016F0007F916F915F914F913F912F910F900BBE12
:101700000F900FBE0F901F901895CF93CFB7F894FE
:10171000811528E0920739F461E083E0F6D164E0B6
:1017200083E0F3D143C0803428E0920739F462E0CB
:1017300083E0EBD164E083E0E8D138C0811529E093
:10174000920739F461E084E0E0D164E084E0DDD127
:101750002DC0803429E0920739F462E084E0D5D1CD
:1017600064E084E0D2D122C081152AE0920739F4E6
:1017700061E085E0CAD164E085E0C7D117C080345C
:101780002AE0920739F462E085E0BFD164E085E0A9
:10179000BCD10CC081159B4039F461E086E0B5D125
:1017A00064E086E0B2D102C0CFBF09C08FB7F89421
:1017B000EFE5FAE290819F5F90838FBFCFBFCF911B
:1017C0000895E0EEF7E081E0858382E08583089567
:1017D000E0EEF7E081E0858382E08583089540E0D4
:1017E00058E160E280E896E00E94E318E0E8F6E065
:1017F0008FEF828781E081870895E0E8F6E0128626
:1018000008951F920F920FB60F9211240BB60F92EC
:101810002F933F934F935F936F937F938F939F93F8
:10182000AF93BF93EF93FF9381E0E0E8F6E0848706
:101830000E943916FF91EF91BF91AF919F918F91C7
:101840007F916F915F914F913F912F910F900BBEC0
:101850000F900FBE0F901F90189581E0E0EEF7E01B
:1018600086830895AC019C0136952795369527957A
:1018700036952795A5ECB0E20E9449199C01329556
:1018800022952F7023273F70232768EE73E0269F51
:10189000C001279F900D369F900D11249A01281B9F
:1018A000390B29F482E0E0EEF7E0868307C0243F9D
:1018B000314021F482E0E0EEF7E0858380915D2AFB
:1018C0008823C1F081E0E0EEF7E086838091522129
:1018D000909153218D5A9D4D0E94A402882351F06E
:1018E0008091522190915321805C9F4F809352218F
:1018F000909353218091522190915321803C9740A5
:1019000030F081E0E0EEF7E0858310925D2A80916F
:1019100054218F5F883218F48093542108951092D7
:101920005421E0E8F6E0808585FD07C01092522141
:101930001092532181E080935B2A0895FC0120815D
:10194000213381F48181823319F08333D9F405C0C6
:1019500080E1E0E6F6E08683089580E2E0E6F6E0E6
:1019600086830895FC018181823319F0833351F419
:1019700005C080E1E0E6F6E08583089580E2E0E6D8
:10198000F6E08583089551D087E0E0EAF0E08283B5
:10199000789410925E2A10925F2A1092602A109218
:1019A000612A1092622A81E08093632A0E940B19B7
:1019B00008DF0EDFA4D20E945F010E9420010E9476
:1019C000DA010E94FB0180915B2A8823E1F30E94E7
:1019D00020010E94B60110925B2AF5CFF9CE08953E
:1019E0003CCF089580915521882319F00E9432162A
:1019F00039CF0895F4CE089500CF089581E0809303
:101A000055210895109255210895FC0120812A3A0C
:101A100059F42181253541F422812A3A29F4838120
:101A2000853511F497D2D4CE08950F931F93CF9399
:101A3000DF9300D01F92CDB7DEB78FEF8093700099
:101A40008093710080937200809373008093740080
:101A5000809375008093760065E081E490E0A8D0E3
:101A60006CE170E082E0AAD08A836DE170E082E0F0
:101A7000A5D0898389819A81019621F480E493E23B
:101A800089839A8389819A818B839C83E0E6F0E045
:101A900082838C8183838FB7F894E0E5F0E09081B6
:101AA000926090838FBF818181FFFDCF8FB7F894C3
:101AB00000E510E0D80116969C911697997F16962E
:101AC0009C931697E0E6F0E090E895839BEB968375
:101AD00016969C911697946016969C9390819160AF
:101AE00090838FBF61E080E490E062D08FB7F8947C
:101AF000F80190819E7F90838FBF2496CDBFDEBF7B
:101B0000DF91CF911F910F9108959FB7F894E82F1F
:101B1000F0E0E059FF4F60958081682360839FBFAC
:101B200008959FB7F894E82FF0E0E059FF4F8081C7
:101B3000682B60839FBF0895863011F468E101C06F
:101B400060E0E0E5F0E0818181FD24C08FB7F8948A
:101B50009081926090838FBF818181FFFDCF8FB78D
:101B6000F894A0E5B0E016969C911697997F16968A
:101B70009C931697E0E6F0E090E895839BEB9683C4
:101B800016969C911697946016969C9390819160FE
:101B900090838FBF636084E490E00AD060E480E0CB
:101BA000B4CF60E480E0BDDF60E084E490E000C09A
:101BB0001BBEFC0128ED24BF608308954091CA013B
:101BC000E62FF72F8093CA0184914093CA010895AC
:101BD000CF93DF93EA014091642A44230CF065C05F
:101BE000407609F040C02091652A2630E1F582D187
:101BF000FC012285213299F52091672A2132B9F41E
:101C00009C01275F3F4F20936C2A30936D2A4091AF
:101C10006A2A50916B2A218530E04217530708F455
:101C20009A0120936E2A30936F2A81E069C0FC01EB
:101C30003785231316C0C0936C2AD0936D2A208950
:101C4000318980916A2A90916B2A2817390708F404
:101C5000C90180936E2A90936F2A81E051C080E081
:101C60004FC080E04DC0403209F041C02091652A4C
:101C7000223019F02330E9F50CC080936C2A909340
:101C80006D2A81E090E080936E2A90936F2A81E024
:101C900037C060936C2A70936D2A81E090E0809346
:101CA0006E2A90936F2A81E02BC04076403219F55E
:101CB0004091652A493031F000F14A3031F04B3023
:101CC000E1F409C0F90119951BC02091672AFC01B4
:101CD000208381E015C080916A2A90916B2A892B1C
:101CE00071F48091662AFB01808381E009C080E065
:101CF00007C080E005C080E003C080E001C080E054
:101D0000DF91CF910895E0915921F0915A210190EE
:101D1000F081E02D228133812E0F3F1F822F932FE0
:101D200008951F93CF93DF93EC01162FECDF2881EA
:101D3000FE01E20FF11DE817F907A0F4218124301C
:101D4000A1F0211306C016C02181243089F021178B
:101D500089F02081E20FF11DE817F907A8F3E0E010
:101D6000F0E008C0E0E0F0E005C0E0E0F0E002C034
:101D7000E0E0F0E08E2F9F2FDF91CF911F9108952B
:101D80000F931F93CF93DF93182F062F8091582125
:101D9000882369F1E0915921F0915A21C081D181C4
:101DA0008C81181730F5C0935621D0935721ABDFA3
:101DB0009C01C817D907F8F49981943061F49A818D
:101DC000911309C08B81801306C0C0935621D09314
:101DD000572181E011C09881C90FD11DC217D307C7
:101DE00058F3C0935621D093572180E005C080E07E
:101DF00003C080E001C080E0DF91CF911F910F917F
:101E000008958091662A8F7727C71F93CF93DF931A
:101E1000182FB6DF882341F1C0915621D091572168
:101E200065E0CE017EDFEC01009741F04C815D81E1
:101E30006B818A8136D78111F3CF17C0A0915921C8
:101E4000B0915A21812F90E0880F991F1296ED9141
:101E5000FC911397E80FF91F0190F081E02D01909C
:101E6000F081E02D199501C080E0DF91CF911F91A5
:101E700008950F931F93CF93DF93C82F60E080DF07
:101E8000882381F1A0915921B0915A21EC2FF0E0E3
:101E9000EE0FFF1F12962D913C911397E20FF31F47
:101EA00000811181D8011696ED91FC911797199533
:101EB000682F8C2F65DF8823B9F0C0915621D0910F
:101EC000572165E0CE012DDFEC01009719F08A81E2
:101ED000DED7F7CFD8011296ED91FC9113971995A3
:101EE00081E003C080E001C080E0DF91CF911F91CD
:101EF0000F9108958091562190915721089538C6E9
:101F00000895CF93809158218823C1F0E091592101
:101F1000F0915A210190F081E02D8481882371F0A5
:101F2000C0E08C2FA6DFCF5FE0915921F0915A21BC
:101F30000190F081E02D8481C81798F31092582108
:101F400080915B2181FD58DD10925B2110925C2114
:101F5000CF910895D1D5D5CFCF93809158218823A3
:101F600041F1E0915921F0915A21A081B18114965B
:101F70008C918823F1F0C0E08C2F90E0880F991F9E
:101F80000280F381E02DE80FF91F0190F081E02D30
:101F90000084F185E02D309709F01995CF5FE0912D
:101FA0005921F0915A21A081B18114968C91C817C2
:101FB00018F3CF910895FF920F931F93CF93DF9360
:101FC00010926E2A10926F2A1092702A1092712A23
:101FD0001092722A1092732A2091642A22230CF004
:101FE0008DC280916A2A90916B2A009709F08BC26A
:101FF0007DC22F7109F09DC03091652A363081F085
:10200000383009F48BC0311194C0029739F462E082
:1020100070E08BE591E23CD681E0F1C180E0EFC158
:102020002091662A3091672A832F99278230910563
:1020300079F08330910569F1019709F067C08091CB
:102040003F2090914020DC016C9170E021D64DC082
:10205000E0913F20F09140208189281708F058C076
:10206000C9019927880F991F880F991FE091412076
:10207000F0914220E80FF91F80819181FC0162817B
:10208000738106D6E0916C2AF0916D2A82E08183FB
:102090002CC033272130310559F020F02230310592
:1020A000C9F50AC064E070E086E890E2F1D51DC091
:1020B0008AE890E229E003C084E990E22BE0382F1F
:1020C000E2EAF0E2A82FB92F8D9180831182329637
:1020D0008A2F831B8217C0F3220F622F6E5F6093DB
:1020E000A02070E080EA90E2D3D580916A2A909196
:1020F0006B2A20916E2A30916F2A8217930760F421
:1021000080936E2A90936F2A81E079C180E077C135
:1021100080E075C180E073C181E071C1019739F43D
:1021200061E070E088E591E2B3D581E068C180E0CC
:1021300066C1213009F040C03091652A3A30E1F59E
:10214000019791F580915821882381F1C091682AE7
:10215000D091692A8C2F0091592110915A21D801D0
:10216000ED91FC919481C91718F560E009DE882390
:1021700009F1CE019927880F991FD8011296ED9188
:10218000FC911397E80FF91F0190F081E02D8681F3
:102190009781FC01199580935D2161E070E08DE5E8
:1021A00091E276D581E02BC180E029C180E027C192
:1021B00080E025C180E023C1223009F022C12091B6
:1021C000652A211119C1029771F48091682A92D56C
:1021D00080935E2110925F2162E070E08EE591E2D3
:1021E00057D581E00CC180E00AC12F7109F0AEC063
:1021F0008091652A8330B9F120F4813009F0A6C0BE
:1022000016C0853021F0893009F0A0C048C0809107
:102210006A2A90916B2A892B41F481E09FE0809398
:10222000702A9093712A81E0EAC080E0E8C0809132
:102230006A2A90916B2A892B91F48091662A909159
:10224000672A019771F480915B2190915C218D7FC9
:1022500080935B2190935C21CFDB81E0D0C080E054
:10226000CEC080E0CCC080916A2A90916B2A892BE5
:1022700091F48091662A9091672A019771F4809178
:102280005B2190915C21826080935B2190935C2123
:10229000B1DB81E0B4C080E0B2C080E0B0C080912A
:1022A0006A2A90916B2A892B09F044C0D8D48823DC
:1022B00009F442C02091662A3091672A3327E091C1
:1022C0003F20F0914020818990E082179307B0F180
:1022D00018DE8091662A9091672A8093582188237E
:1022E00079F199270197880F991F880F991FE0911D
:1022F0004120F0914220E80FF91FE0935921F0931B
:102300005A210190F081E02D84818823D9F0C0E02A
:1023100060E08C2F7ADD8823B9F0CF5FE0915921FE
:10232000F0915A210190F081E02D8481C81780F34B
:1023300081E065C080E063C080E061C080E05FC094
:1023400081E05DC081E05BC080E059C0213001F5D3
:102350008091652A8B30E1F480916A2A90916B2AF2
:10236000892B81F480915821882371F0C091682ACB
:10237000D091662A8C2F7DDD882341F06D2F8C2F24
:1023800044DD3DC080E03BC080E039C080E037C024
:102390002230B9F58091652A813019F0833071F5CA
:1023A00014C080916A2A90916B2A892B51F48091F4
:1023B000662A9091672A892B31F48091682AA1D4EA
:1023C0001EC080E01CC080E01AC080916A2A9091F3
:1023D0006B2A892B69F48091662A9091672A892B50
:1023E00049F4C8E6DAE288811BD5888140D507C068
:1023F00080E005C080E003C080E001C080E0811182
:1024000077C08091642A8F71813071F58091582155
:10241000882351F10091682A1091692AF02EC09109
:102420005921D0915A21E881F98184810817E0F47B
:1024300060E0802FA5DC8823B9F011279801220FD6
:10244000331FEA81FB81E20FF31FC081D181EE814E
:10245000FF811995682F8F2D93DC882329F0EC815B
:10246000FD811995811146C08091642A8F71823057
:1024700009F042C080915821882381F1E0915921CF
:10248000F0915A21A081B18114968C91882341F159
:1024900010E0212F30E0220F331F0280F381E02D66
:1024A000E20FF31FC081D181EE81FF811995682F62
:1024B000812F66DC8823B1F0EC81FD8119958111B3
:1024C00013C01F5FE0915921F0915A21A081B18181
:1024D00014968C911817E8F280E01AC080E018C0BA
:1024E00080E016C080E014C081E012C080E010C01F
:1024F00081E00EC081E00CC080E00AC0822F8076AF
:1025000009F07FCF72CE322F307609F07ACF71CDBD
:10251000DF91CF911F910F91FF900895811118C005
:102520009091C421992389F09FB7F894EFE5FAE2DE
:102530002081215020839FBF08C09FB7F894EFE50A
:10254000FAE220812F5F20839FBF8093C4210895EA
:102550009091C421992389F3F8CF282F2F7030E070
:10256000220F331F992787FD90958827990F881F81
:102570009927280F391F220F331F220F331F220FD5
:10258000331F24593E4D822F932F0895CF93DF930D
:102590006370613011F028F002C0D0EC03C0D0E8C5
:1025A00001C0D0E440385105E1F050F4403251050B
:1025B000A1F04034510599F04031510561F419C042
:1025C000411592E0590789F04F3F93E0590779F0A0
:1025D0004115514041F0C0E00DC0C2E00BC0C3E066
:1025E00009C0C4E007C0C5E005C0C6E003C0C7E03D
:1025F00001C0C1E0B2DFFC01118286E08083CD2BF7
:10260000C183DF91CF9108950F93E8ECF4E08081CE
:102610008F7D808380818F7D8083E4E7F1E202E01B
:102620000593109276211092772100E2069300E440
:102630000693ECE6F1E200E2069300E406931092C2
:10264000702A1092712A1092722A1092732A109294
:102650006E2A10926F2A10924D220F9108950F93B7
:1026600085E080934D22E5E7F1E204E00593EDE695
:10267000F1E204E005930F9108950F9383E08093B6
:102680004D221092762110927721E4E7F1E202E0E8
:1026900006930F9108950F9384E080934D22ECE60A
:1026A000F1E202E006930F910895E091702AF09113
:1026B000712A309709F0199508950F93CF93DF93FE
:1026C00080914D22833019F4F0DF9EDF5AC0809153
:1026D000502290915122C0916E2AD0916F2AC81B2E
:1026E000D90B41F520914E2230914F22820F931F3A
:1026F00080934E2290934F2220916A2A30916B2A28
:102700008217930721F080915222882311F0C3DFB2
:1027100038C0E091722AF091732A309799F0199598
:10272000882381F01092502210925122C0916E2A7B
:10273000D0916F2AC830D10528F010925222C8E0FB
:10274000D0E003C081E080935222C0937621D093E1
:102750007721809150229091512220916C2A3091C2
:102760006D2A280F391F2093782130937921C80FC3
:10277000D91FC0935022D0935122E4E7F1E202E046
:102780000693DF91CF910F910895FC0181818770AD
:102790008430A9F030F4823061F070F4813031F48B
:1027A0001AC0863091F070F0873091F028E030E068
:1027B00014C020E230E011C020E430E00EC020E878
:1027C00030E00BC020E031E008C020E032E005C07E
:1027D0002FEF33E002C020E130E0822F932F0895E5
:1027E000282F2F7030E0220F331F992787FD9095F7
:1027F0008827990F881F9927280F391F22503109E0
:10280000C901880F991F880F991F880F991F280FDA
:10281000391F20563E4D822F932F08950F9380919C
:10282000CC0480FF63C081E08093CC04ECE6F1E24D
:1028300000E80693E4E7F1E200E806938093CA0417
:10284000ECE6F1E200E1069380914D22882329F025
:102850008350823008F429DFD7DE80916E21909179
:102860006F21089709F044C088E0E5E4F2E2A4E6AD
:10287000BAE201900D928A95E1F7E8ECF4E08081EC
:102880008062808380818062808395DB811103C0B8
:10289000E6DE81E02EC08091642A882374F41092D1
:1028A0004E2210924F22109250221092512282E01A
:1028B00080934D2202DF81E01CC080916A2A9091B2
:1028C0006B2A892B19F4D9DE81E013C010924E22B5
:1028D00010924F22109250221092512281E0809348
:1028E0004D22ECE6F1E202E0069303C080E001C075
:1028F00081E00F910895BF92CF92DF92EF92FF9205
:102900000F931F93CF93DF93B82E6ADFEC018B2DCB
:1029100024DE7C013ADF6C01BB200CF05DC0D701E6
:1029200016962D913C9117978D819E81280F391F06
:102930002D833E838B819C812817390709F43AC087
:10294000FC01E21BF30B9F012115F4E03F0738F077
:102950002FEF33E0C901B60188D4281B390B8881D9
:1029600081FF0BC0C901B60180D441E050E0892B42
:1029700011F040E050E0CA0102C080E090E0988190
:1029800080FB91F99883D70116961D921C92179798
:1029900012962D933C93139729813A818D819E81C4
:1029A000820F931F14968D939C931597F70102E065
:1029B000069398C0888181FF87C08D7F8883D70167
:1029C00016961D921C92179712961D921C921397A1
:1029D000F70102E0069386C0D70112960D911C9173
:1029E0001397888182FF17C029813A818D819E814A
:1029F000280F391F8B819C81B60137D4B0E4BB9E70
:102A0000F0011124EB57FE4D482F592F6E2F7F2FC9
:102A1000822F932F4AD42D813E81200F311F2D8389
:102A20003E83EB81FC81E217F30710F4ED83FE8314
:102A3000D70116962D913C9117972017310709F071
:102A400043C08D819E81E817F90709F43DC0E81B5A
:102A5000F90BE115B4E0FB0740F0EFEFF3E0CF0135
:102A6000B60103D4E81BF90B05C0CF01B601FDD3B5
:102A7000E81BF90BD70112961D921C921397EC15C7
:102A8000FD0578F4888184608883B0E4BB9EC00132
:102A900011248B579E4DF70184839583C682D7827C
:102AA0000FC029813A818D819E81820F931FD701AA
:102AB00014968D939C9315971696ED93FC93179708
:102AC000F70102E006930EC0888180FF0BC08E7F65
:102AD0008883EF81F885309729F06D817E814B2DB9
:102AE00080E01995DF91CF911F910F91FF90EF90AA
:102AF000DF90CF90BF900895CF93CFB7F894E1ECDB
:102B0000F4E080818E7F80831092C004108249D8C7
:102B100080E004DD8FB7F894E3E6FAE2908191500B
:102B200090838FBFCFBFCF910895CF93CFB7F89445
:102B300081E0F4DCEAECF4E080E4808380E28083EE
:102B4000E1ECF4E0808181608083A9ECB4E08C91B9
:102B500082608C93E8ECF4E08081806480838C91C7
:102B600081608C93808180688083CFBFCF910895EE
:102B7000CF93DF93C0E6D0E0188280E30E949C0DE3
:102B8000E0ECF4E080818064808381E08883CFB7CB
:102B9000F89410926D211092752110927D2110925F
:102BA000852110928D2110929521E0EAF1E2808139
:102BB0008E7F8083E9EAF1E280818E7F8083E2EB81
:102BC000F1E280818E7F8083EBEBF1E280818E7F6A
:102BD00080836AE170E082E00E94DE0D8F3F19F091
:102BE0008093FA0403C08FE18093FA046BE170E0F4
:102BF00082E00E94DE0D8F3F19F08093FB0403C03A
:102C00008FE18093FB04E0ECF4E0808182608083BC
:102C10008081806880838081806180838CE691E2FE
:102C2000868397838081806280838FEF8093C50441
:102C3000E8ECF4E08081816080831092C4218FB73A
:102C4000F894E3E6FAE290819F5F90838FBF6DDF97
:102C5000CFBFDF91CF9108958093C30408958091F1
:102C6000C304089520919C2130919D21822F932FA0
:102C700008958091C42181110AC081E04FDCE1EC0C
:102C8000F4E080818B7F80838081846080830895DD
:102C900080936C2A90936D2A60936E2A70936F2AAA
:102CA0000895EF92FF920F931F93CF93DF93F82E27
:102CB000E62E8A0152DCEC018981807C89F4A8012E
:102CC0006E2D8F2D63DC8981807C803C21F489818D
:102CD0008770873039F089818062898381E003C001
:102CE00080E001C081E0DF91CF911F910F91FF90B3
:102CF000EF90089532DCFC01818182FB882780F906
:102D00000895CF93C82F29DCFC01818182FF0FC079
:102D100081818B7F81838C2F63DDFC01808180FF2B
:102D200006C08E7F80830780F085E02D199581E0B5
:102D3000CF9108958F929F92AF92BF92CF92DF92E0
:102D4000EF92FF920F931F93CF93DF93982E862ECF
:102D50005A01690145DD7C01892DFFDBEC01898188
:102D6000807C09F44DC08981807C803C19F0898188
:102D700082FD48C08FB7F894F701908190FF03C09F
:102D80008FBF80E040C0F7019081916090838FBF3A
:102D9000A182B282C382D4821582168207831087F1
:102DA000811008C021E030E0C114D10429F020E0F6
:102DB00030E002C021E030E0F701808120FB81F9A2
:102DC0008B7F808399201CF41E821F8215C089810D
:102DD000807C803C69F4CE01D8DCBC01C60145D2C0
:102DE000892B31F0F70180818E7F808380E00BC0DA
:102DF0001A821B821E821F82892D7DDD81E003C025
:102E000080E001C080E0DF91CF911F910F91FF9092
:102E1000EF90DF90CF90BF90AF909F908F900895EC
:102E20000F931F93CF93DF93182F97DBEC01812F24
:102E3000D7DCDC01FE0102E005938C9180FF12C01B
:102E40008E7F8C931796ED91FC911897309751F0E7
:102E500011231CF46E817F8102C06A817B81412F26
:102E600081E01995DF91CF911F910F9108950F93F4
:102E7000CF93C82F72DBFC0181818460818301E0E4
:102E800006938C2FCDDF81E0CF910F910895CF93E2
:102E9000C82FC6DF8C2F61DBFC011182CF91089512
:102EA0001F920F920FB60F9211240BB60F920F9331
:102EB0002F933F934F935F936F937F938F939F9342
:102EC000AF93BF93EF93FF938091CB0488233CF49F
:102ED00080E88093CA0440D80E94F20C82C080919E
:102EE000CB0482FF20C084E08093CA0480917421C7
:102EF00086FF77C08091CC0481FD73C08FDC811187
:102F000070C080914D22813011F4B7DB6AC08430EB
:102F100009F067C0E5E7F1E204E00593EDE6F1E2D0
:102F200004E005935EC08091CB0481FF55C082E030
:102F30008093CA0480916C2186FF53C08091CC0499
:102F400081FD4FC06BDC81114CC080914D228230DD
:102F500011F4A1DB46C0833009F043C0E5E7F1E29C
:102F600004E00593EDE6F1E204E005933AC080E168
:102F70008093CA0481E054DF81E852DF0E94810F10
:102F80001092C30448E050E060E080E0FFDA48E0DF
:102F900050E060E080E8FADA85E492E28093702104
:102FA0009093712131DB1DC08091CB0486FF08C056
:102FB00080E48093CA0480E0B1DA0E94EE0C11C074
:102FC0008091CB0485FF0DC080E28093CA0481E02C
:102FD000A5DA0E94F00C05C08091CB0484FDC7CF18
:102FE000E3CFFF91EF91BF91AF919F918F917F912F
:102FF0006F915F914F913F912F910F910F900BBE69
:103000000F900FBE0F901F9018951F920F920FB642
:103010000F9211240BB60F920F931F932F933F9390
:103020004F935F936F937F938F939F93AF93BF93D0
:10303000CF93DF93EF93FF938091CC0481FD03C086
:10304000EDDB8111A9C082E08093CC048091C5049E
:103050008195880FECE6F1E2E81BF10920813181CE
:103060002C563142369527953695279536952795D6
:10307000822F869520FF02C0C0E801C0C0E0C80FC3
:103080008C2F6BDAFC01808185FF86C000E20693FD
:10309000C1117CC080914D22843019F406DBB4DA72
:1030A0007BC0C0916E21D0916F2180916E2A90914A
:1030B0006F2A009150221091512298012C0F3D1F30
:1030C0008217930718F4EC01C01BD10B20916C2AD6
:1030D00030916D2A200F311F85E492E24C2F5D2F35
:1030E000682F792F822F932FE0D00C0F1D1F009394
:1030F000502210935122289769F480914E2290918A
:103100004F22800F911F20916A2A30916B2A8217DB
:10311000930788F000936E2A10936F2AE091722A29
:10312000F091732A309729F01995811102C097DA2E
:1031300033C0A3DA31C080916E2A90916F2A0817AC
:103140001907F9F4E091722AF091732A309711F47B
:1031500086DA22C01995811102C081DA1DC0209142
:103160004E2230914F228091502290915122820F15
:10317000931F80934E2290934F22109250221092D0
:103180005122ECE6F1E202E0069306C0C03811F4E9
:1031900094DA02C08C2FAFDBFF91EF91DF91CF91DA
:1031A000BF91AF919F918F917F916F915F914F915F
:1031B0003F912F911F910F910F900BBE0F900FBE5B
:1031C0000F901F901895CF93DF93FC01709620E02D
:1031D00030E0C62FD0E0DE01022E02C0B595A795E3
:1031E0000A94E2F7A0FD50832F5F3F4F31962830BD
:1031F000310589F740FF0AC041FF03C0FC01658328
:1032000002C0FC016683FC01618302C0FC01628391
:10321000DF91CF91089543E050E061E080EE97E0C8
:10322000D2DF43E050E062E080EE97E0CCDF43E0A5
:1032300050E060E180E696E0C6DF41E050E460E205
:1032400080E696E0C0DF40E05BE160E280E896E087
:10325000BADF40E05BE162E080EA96E0B4DF40E0A4
:103260005BE164E080EA96E0AECFAA1BBB1B51E1B4
:1032700007C0AA1FBB1FA617B70710F0A61BB70BE6
:10328000881F991F5A95A9F780959095BC01CD018B
:103290000895A29FB001B39FC001A39F01D0B29F28
:1032A000700D811D1124911D0895FB01DC0102C0E8
:1032B00001900D9241505040D8F70895F894FFCFF7
:1032C00006FFFF0901A10109020903150026FF00FD
:1032D00075089540810209040905150026FF00754F
:1032E000089508910209060907150026FF007508D0
:1032F0009504B102C08B028802730234020000748C
:103300002043204A204720352000090229000101DE
:1033100000A032090400000203000000092111018D
:103320000001223500070581034000140705020350
:10333000400014001201000200000008EB03022408
:103340000001010200010403090441544D454C20D1
:10335000415346004849442047656E6572696300E1
:10336000000300000000000000000000000000005A
:08337000000000000000000055
:00000001FF
