:020000040040BA
:1000000058C801202D314000293140002106400010
:100010002931400029314000293140000000000012
:100020000000000000000000000000002931400036
:1000300029314000000000002931400029314000F2
:100040002931400029314000293140002931400048
:100050002931400029314000293140002931400038
:10006000293140002931400000000000AD28400047
:10007000BD284000000000002931400091174000D9
:10008000000000000000000029314000293140003C
:1000900029314000293140002931400029314000F8
:1000A000293140002931400000000000000000001C
:1000B0000000000029314000293140002931400072
:1000C00029314000293140007536400010B5054CFB
:1000D000237833B9044B13B10448AFF300800123F4
:1000E000237010BDA807002000000000185A40002F
:1000F00008B5034B1BB103490348AFF3008008BDAB
:1001000000000000AC070020185A4000D0F8603111
:100110001B0700D4704710B5082182B00D4B9847DB
:100120000D4B012118680D4B984701A90C4B0D4848
:10013000984707200C4B984709200C4B9847012201
:100140000B4B0C4C22201A70A0472320A04702B072
:1001500010BD00BF19314000C8070020F94F400012
:10016000F9304000000E0E40052F4000212F4000C6
:10017000C40700202D2A40000B2800D07047B1F59D
:10018000803FFBD100B5072083B0064B0191984713
:1001900001990548054B98472320054B03B05DF8AE
:1001A00004EB1847212F4000000E0E40DD2E4000CA
:1001B000752A400010B5064C0648074B9847204664
:1001C000064B002198472046BDE81040044B1847D5
:1001D000000E0E400D014000A1284000D530400027
:1001E000E130400070B52220314B82B09847402664
:1001F0004FF4006200202F4B2F4DC3F88020C3F82E
:10020000802183F80B631A602C492B682C4C8B429D
:1002100020702C4A2C4C3FD90B462C4E2960226072
:100220004FF6FF702A49A3F57F4311602949FF3B30
:100230004B60294B31600B605060284B2848984731
:10024000284D32682168284B28609847012128688A
:10025000264B9847264B224898471020254B984715
:1002600025484FF48032009070230B21234D1C4809
:10027000A8474FF480311A48214B98470821214B59
:1002800017489847204C0720A0470920A0471F4B3C
:1002900002B0BDE8704018474FF6FE710B4E8B421E
:1002A00022603060BCD80A49C2E90013C5E700BF2C
:1002B000752A400000E100E0A4000020A0860100B3
:1002C000C4070020CC070020D4070020E00700204E
:1002D000E4070020D8070020E30701202131400077
:1002E000000E0E40C8070020D54F4000ED4F4000E3
:1002F000E12E4000B930400079014000192840004B
:10030000D92E40000D314000052F40004D03400024
:10031000014B1878704700BFC407002010B11420AB
:10032000024B18471420024B184700BF052F40000E
:10033000212F400010B11320024B18471320024B0D
:10034000184700BF052F4000212F400030B50C4C4E
:1003500083B020460B4B984702200B4B98470B4825
:100360000222009070230B212046094DA84702214C
:100370002046084B98470122074B1A6003B030BD56
:10038000000E0E40E12E4000B9304000E504400070
:1003900019284000D92E4000848E01204FF0405192
:1003A0000020014B184700BF612F40000B4BF0B4F9
:1003B000A3FB01C2A3FB00C3094F0A4E52085B080E
:1003C000094D0A4C3A60336002EB420203EB4303EF
:1003D0008A1AC31A2A602360F0BC7047ABAAAAAA83
:1003E000948E01208C8E0120908E0120888E012019
:1003F000384B1A68384B1B68134319D072B660B477
:100400004FF0804545F4602545F460650126334B87
:100410001B68012B0DD0022B4FD0002B41D02D4B50
:100420001B68012B16D0022B2ED00BB360BC62B61A
:100430007047BFF36F8F6E63294B1B680BB1013B95
:10044000FDD1BFF34F8F6E63BFF36F8F214B1B68DE
:10045000012BE8D1BFF36F8F2E631F4B1B680BB1CD
:10046000013BFDD1BFF34F8F6E63BFF36F8FDDE7AD
:10047000BFF36F8F2E63184B1B680BB1013BFDD18F
:100480006E63BFF36F8FD1E7BFF36F8F2E63124B95
:100490001B680BB1013BFDD12E636E63BFF36F8F01
:1004A000C4E7BFF36F8F6E630D4B1B680BB1013B4D
:1004B000FDD16E63BFF36F8FB1E7BFF36F8F6E63D4
:1004C000074B1B680BB1013BFDD16E636E63BFF33D
:1004D0006F8FA4E7908E0120948E0120888E0120DA
:1004E0008C8E01200B2800D070470229FCD1074BCD
:1004F00010B507489847074B1B6833B1064C236873
:100500001BB1064B98470023236010BDDD2E400031
:10051000000E0E40B48E0120848E0120F1034000B5
:100520002DE9F04385B010211C4B684698471C4BC1
:1005300098471C4B9847DFF870901C4B98471C4B12
:1005400098476C464D461B4F1B4E0DF1100854F852
:10055000042B28463146B847444505F10805F6D135
:100560000022202089F82020144B9847144B9847EC
:10057000144B98470122144B1A70BFF35F8F62B679
:10058000124B9847124B9847124B9847124B98477B
:10059000124D134CA847A047FCE700BF412640007E
:1005A000112B4000A5474000A80000209D034000FB
:1005B000E90A40007950400084594000752A400003
:1005C0005D204000B501400018070020E10C40000C
:1005D000B91A4000190B4000A9154000491D400000
:1005E000CD154000704700BF704700BF4FF47A72CE
:1005F000084BA3FB00139B0902FB130080B230B130
:10060000B0F5FA7F00D070472020034B1847202018
:10061000024B1847D34D62102D2A4000752A400026
:100620001EF0040F0CBFEFF30880EFF3098081691F
:10063000004A10473906400088B0D0E90041D0E9AF
:100640000223009401910292D0E90441039304949F
:10065000D0E90623059106920793FEE7064BDA8858
:100660009B89934201D3042A00D07047034A044B6C
:1006700012681A60704700BFEC960120BC90012000
:10068000A4000020704700BF054B064A1B680649BE
:10069000934228BF13460548054A08601360704717
:1006A000BC900120A0860100A48E0120E407002058
:1006B000A88E01201D4A5378103B1D2B10D8DFE86F
:1006C00003F0150F190F0F0F0F0F0F0F0F0F0F0F55
:1006D0000F0F0F0F0F0F0F1D0F2125292D0F311198
:1006E00000207047124B012013617047114B01200D
:1006F00013617047104B0120136170470F4B0120AD
:10070000136170470E4B0120136170470D4B0120A0
:10071000136170470C4B0120136170470B4B012094
:10072000136170470A4B012013617047EC9601205A
:10073000F1034000550740008906400029094000A8
:1007400095084000D90740007D0740005D06400045
:1007500095074000044A054B11680548994228BF97
:100760001946044A044B1847BC900120A08601009A
:10077000E407002085064000112E4000034B5B88F3
:10078000012B00D07047024B184700BFEC960120A8
:10079000E50140000A4BDA889B899A4200D97047EC
:1007A00070B5084B084C1968084D5A68084B216011
:1007B0002A60984729682068064BBDE870401847B2
:1007C000EC960120BC900120B08E0120B48E012057
:1007D0009D034000AD034000254BD9889A89914282
:1007E0002DD870B59A68234DD17813781279224CA0
:1007F0002A60224A21601360A3B1013B1F2B1FD83E
:10080000DFE803F032341E301E1E1E2E1E1E1E1E7A
:100810001E1E1E2C1E1E1E1E1E1E1E1E1E1E1E1EEA
:100820001E1E1E2A4FF040511120154B9847286874
:10083000144B98472068144BBDE870401847704728
:100840006222124B01205A64114B98474FF080519D
:100850000B4B11209847EAE75222F2E74222F0E7D9
:100860003222EEE72222ECE70222EAE71222E8E750
:10087000EC960120988E01209C8E0120A08E0120F4
:10088000612F4000350340001D03400000040E406E
:10089000552D40001F4BD9889A8991421FD89B68DB
:1008A0001D4A1B781360ABB1013B10B51F2B17D845
:1008B000DFE803F02B2D1629161616271616161626
:1008C00016161625161616161616161616161616B9
:1008D000161616234FF020511220104B1847704760
:1008E00062210F4A02200F4B91649847BDE81040E7
:1008F0004FF080511220094B18475221F1E7422155
:10090000EFE73221EDE72221EBE70221E9E71221AF
:10091000E7E700BFEC960120AC8E0120612F40007C
:1009200000040E40552D40002DE9F843234DAB89BE
:10093000EA889A421CD8DBB1214C224EDFF888802D
:10094000224F04F16009AA68236812781A420CD079
:10095000AB78013B052B08D8DFE803F027201A14F9
:100960000C034FF080516068B0470C344C45EAD11D
:10097000BDE8F88360684FF000610C34B0474C4527
:10098000E1D1F5E760680C34C0474C45DBD1EFE7B7
:1009900060680C34B8474C45D5D1E9E7D4E901018A
:1009A0000C34B0474C45CED1E2E760684FF040517F
:1009B0000C34B0474C45C6D1DAE700BFEC960120B5
:1009C000CC000020612F4000052F4000212F400067
:1009D00038B5324CE388402B13D86378123B1A2B7E
:1009E0000FD8DFE803F0510E0E0E0E0E0E0E0E0E97
:1009F0000E0E0E0E0E0E0E0E100E10121E30393F81
:100A00004500002038BD012038BD002203212448C4
:100A1000244B00685A7018709A700120A360A1815D
:100A200038BD0022052120481E4B00681F4DD8709C
:100A30001F482D6800681D7018715A709A70012047
:100A4000A360A18138BD1B4B98470123154AA381A0
:100A50001070A260184638BD0423174A0120A26016
:100A6000A38138BD0423154A0120A260A38138BDAB
:100A70000822134813490B4B00680968A360C3E9B7
:100A80000001A281012038BD00220F4B0F491868D8
:100A900009681A60A081A160012038BDEC96012090
:100AA000AC8E0120809501209C8E0120A08E01201B
:100AB000988E012011034000A40000202C0100208A
:100AC000B08E0120B48E0120A88E0120A48E0120BA
:100AD0004FF48061014A0248024B1847D10A400096
:100AE000FC900120312E400070B5094C094E04F1F4
:100AF000600502E00C34AC4208D02368002BF9D02A
:100B0000D4E901010C34B047AC42F6D170BD00BF4E
:100B1000CC000020612F400010B5044B04489847DA
:100B2000BDE810400348044B184700BFB51D400006
:100B3000D1094000B5064000DD1D400000234360A0
:100B400003608360704700BF10B404680134C82C90
:100B500028BF002400E042B14368A342FBD00368F1
:100B600003441973046010BC7047836810BC0133E0
:100B70008360704743680168024699421844007BCD
:100B800005D00133C82B28BF002353607047FF20D6
:100B9000704700BF03684068C01A18BF0120704743
:100BA00003684068181A48BFC8307047044B5A7829
:100BB000222A03BF034A01201A610020704700BFA8
:100BC000EC960120C90B400010B5204B9B78013BEF
:100BD0000F2B09D8DFE803F02D28160808080808AD
:100BE000080808080808080910BD194B9847194A51
:100BF00053689B03FCD4136843F0254343F005037B
:100C00001360FEE701220C21134B14489847104B48
:100C10009847104A53689903FCD4136843F025435E
:100C200043F005031360FEE71020BDE810400C4BB5
:100C300018473E2100200B4B98470B4CA04700283B
:100C4000FCD0BDE810401020084B1847EC9601205E
:100C50006941400000140E40512E4000000A0E4031
:100C6000D52B4000312C4000812C4000792B4000D6
:100C700038B5154C6378172B1BD0402B17D14FF08C
:100C8000200C124D124B372293E8030085F808C060
:100C900085E803000F4B104905F1090098472846E5
:100CA0000E4BA560984703460120A38138BD002064
:100CB00038BD4FF4785500210322044B01201D80DC
:100CC0009970A360A28138BDEC9601208095012027
:100CD00098594000C95040008C594000B95040001C
:100CE00010B5044B04489847BDE810400348044B36
:100CF000184700BFB51D4000710C4000AD0B40000F
:100D0000DD1D4000394B5A78222A15D098880128D9
:100D100010D1A02A25D0A12A598817D0A22A1FD1E4
:100D20004FF4807C324AA3F80CC00A4422F003023C
:100D30009A607047002070479A78422A4CD0988871
:100D4000A0F10100B0FA80F0400970474FF4807CB8
:100D5000284AA3F80CC00A4422F003029A607047A4
:100D6000704700B52449234A91F800E0B1F901C069
:100D700082F800E04FF00B0E5FFA8CFC82F801C0A5
:100D8000B1F903C05FFA8CFC82F802C0B1F905C06A
:100D90009A605FFA8CFC82F803C0B1F907C05FFA71
:100DA0008CFC82F804C091F80AC082F805C0D1F822
:100DB0000BC0A3F80CE05FFA8CF39371497ACCF383
:100DC0000723D371CCF307434FEA1C6C137282F8EC
:100DD00009C091725DF804FB012207480749807C35
:100DE000996008709A811046704700BFEC96012008
:100DF00098C8012058C801203001002080950120AA
:100E000070B52C4A82B09378422B0CD09388013B6A
:100E10009BB2012B04D85578A5B1012002B070BD5A
:100E2000002002B070BD5378222BEFD10124224B59
:100E30009847224B9847224B224A9C749C729047B9
:100E40002046EBE7204C294640222048A04729466F
:100E500040221F48A047402229461E48A0471E4C5A
:100E60000720A0478620A04701241C4E4FF02051A8
:100E70000C20B0474FF040510D20B0474FF040518B
:100E80000E20B0474FF040510B20B0470C4A144998
:100E90004023009107202946D57215735573957329
:100EA0001574947494720F4D094AA847204602B0F5
:100EB00070BD00BFEC960120652040002526400053
:100EC000300100205D2040006950400058C80120DA
:100ED00098C80120E8C8012049464000612F400021
:100EE000E90E40000545400070B5254C82B0E37B1B
:100EF00038BBEBB1002939D0B4F903C0B4F90130E3
:100F0000204DACEB030C1FFA8CFE0FFA8CFC2B1857
:100F100093F8902000EB0C03013080B2D2B22B4446
:100F2000814283F84020F2D87144A4F8031001E014
:100F3000A4F803100023E3736370A370A37202B0DC
:100F400070BD114E53B9114D40230021104A009637
:100F50000720A8470123A37202B070BD40230021DF
:100F60000C4A0A4D00960720A847EDE7B4F903E0C4
:100F7000B4F90130AEEB030E1FFA8EFED4E700BFCA
:100F80003001002058C80120E90E4000054540000E
:100F900098C80120E8C8012030B583B048BB184D7F
:100FA000B5F90540B4EB010E0CD00346154A0B44CD
:100FB000D35C00F1010CDBB213541FFA8CF07045C6
:100FC0000346F4D3611A0BB2A5F8051043B9022108
:100FD0000C4AAB711370AB725370697103B030BDC2
:100FE000002109480090074A084C8620A04703B01A
:100FF00030BD034B00210448B3F90530F2E700BFD0
:101000003001002058C80120990F400005454000DC
:10101000014B987C704700BF3001002030B50F4B6A
:1010200083B05B7A00F0010493B90D209CB90C4B9E
:10103000984700230E200B4D8DF80730A8470C2051
:10104000094B984704460E20003C18BF0124A847CE
:10105000204603B030BD054B9847EAE73001002039
:10106000212F40003D2F4000E92E4000052F400079
:1010700030B5124C83B0637CD4F81F5043B98DF85F
:10108000073028460E4B9847041E18BF01240DE078
:1010900010F0010F14BF0B4B0B4B28469847002351
:1010A000627C8DF807301C46002AEAD0074D0E20DE
:1010B000A8470E20A847204603B030BD30010020CD
:1010C000E92E4000052F4000212F40003D2F400019
:1010D0002DE9F84F002944D04E1EF6B28146072470
:1010E0000025DFF888A0DFF88880224FC6F10606C9
:1010F00010E0C4F107009AF8102049FA00F0034606
:1011000000F00100FAB1B8474BEAC015EDB2013C5E
:10111000A64215D09AF800304FEA550B1B07E8D4C9
:101120009AF8103049FA04F000F0010049FA04F28C
:1011300083B1B847A040013C0543A642EDB2E9D1D6
:101140002846BDE8F88F03F00100C0474BEAC01500
:10115000EDB2DCE702F00100C047A0400543EDB26C
:10116000D5E70D462846BDE8F88F00BF30010020C6
:101170001D1040007110400030B510F0010F83B019
:1011800014BF0B4B0B4B0B20984700230A4C0B2032
:101190008DF80730094DA0470E20A8470C20A04726
:1011A00004460E20A847201E18BF012003B030BD02
:1011B000052F4000212F4000E92E40003D2F400028
:1011C0002DE9F8430D46A5F10704B4FA84F4C309E8
:1011D00014BF1E4B1E4B804664090D209847A54244
:1011E0002FD9013D2D1BC4F10603EDB24FF00009CC
:1011F000184F194EC4F107045D1B08E0B047A0402A
:10120000013C40EA5903AC425FFA83F916D03B78BF
:10121000C4F1070048FA00F01B0700F0010048FA8B
:1012200004F2EBD402F00100B04700FA04F3013CF1
:1012300043EA0903AC425FFA83F9E8D14846BDE8C6
:10124000F8834FF000094846BDE8F883052F4000B9
:10125000212F4000300100207911400030B5574C5B
:1012600083B0B4F90730B4F901105BBBB4F80330B4
:101270008AB2981A00B2012809B21FDD504D501CE5
:10128000A4F801000FFA80FC2944207891F840105E
:1012900010F0020FC9B249D105EB0C0090F84000E4
:1012A000023241EA00210131A4F8071091B25B1A21
:1012B0001BB2002BA4F8012012B20BDC0123E37354
:1012C00003B030BDB4F803300AB289B25B1A1BB266
:1012D000002BF3DD207810F010001CD10821394BD1
:1012E000984723789B060BD5B4F90510344A4B1C5C
:1012F000A4F80530C3F140031BB2002B50543DDD70
:10130000B4F90730013B1AB2A4F807300AB9002338
:10131000237003B030BD2A484B1C0244082192F8C8
:101320004000284AA4F801309047DAE7013143062B
:10133000A4F8071037D410F010002BD1214BC9B2FC
:10134000984700212378E1719A062172DFD5B4F91C
:101350000530E8540133C3F14002A4F8053013B25C
:101360008B42D4DC4FF0010C174A40230092174DFA
:10137000134A862084F80AC0A847C8E74FF0010C3A
:10138000114940230091114D0021862084F80AC0A4
:10139000A847B5E705EB0C0090F840000232A4F82E
:1013A0000120C0B2CAE705EB0C000232084BC9B2FB
:1013B000A4F8012090F840009847C2E730010020CF
:1013C00058C80120D1104000990F40000545400049
:1013D000C11140002DE9F0476D4C82B02378803B6D
:1013E000072B00F2BC80DFE803F0137E8F56676E98
:1013F000740400210126674A86200092B4F9053062
:10140000654A664D2170A672A84702B0BDE8F08714
:10141000B4F90120B4F9031093B2C91A09B2012931
:1014200012B240F3A3805C49981C01331BB20A44FA
:101430000B4492F8408093F8407001260025DFF8B5
:101440006091DFF860A15FFA88F8A4F80100FFB2AC
:1014500010E0D30703D4237C002B40F083804FF0AF
:101460006051C847002D00F08680082E77D00136E5
:101470000135F6B22B1D04EB8303D3F8030048FAC1
:1014800005F247FA05F30028EFD0D907E1D44FF071
:101490002051C847E9E70125002103233E4A3D4882
:1014A0003E4E00909570862021706371A572A171E7
:1014B000B04702B0BDE8F0870122002362722370BA
:1014C00002B0BDE8F08700236372237002B0BDE86C
:1014D000F0870022B4F9013022700233A4F8013001
:1014E00002B0BDE8F0870021032301262A4A2948DB
:1014F0002A4D0090917086202170A6726371A171AF
:10150000A84702B0BDE8F087B4F90130B4F9032070
:1015100099B2521A12B2012A1BB227DD00251E4AC7
:10152000481C134493F8403000B2024492F8402023
:101530000231DAB213F00103A4F80110257018D0BB
:10154000012312F00205237419D04FF06051D4F832
:101550001F00134A637402B0BDE8F0471047002330
:10156000237052E74FF04051C8477EE70123E373F1
:101570004BE7237449E7D4F81300D04777E74FF0DF
:101580002051D4F81F00064B984765743DE700BF13
:1015900030010020990F400058C801200545400047
:1015A000612F40003D2F400010B5044B0448984780
:1015B000BDE810400348044B184700BFDD1D400044
:1015C000010E4000050D4000B51D400030B5304C07
:1015D00083B0A37C002B4DD0A37A002B4AD1E17BB2
:1015E00009BBB4F90120B4F9033090B21B1A1BB245
:1015F000002B12B240DD23786BB9264BD4F80B10C8
:101600001A4492F840300130DBB24A1CA4F80100C1
:101610002370C4F80B201B064CBF1F4B1F4B03B09D
:10162000BDE830401847B4F901E0B4F903C0ACEBB1
:101630000E0C0FFA8CFCBCF1000F0FDD1A4615489A
:101640000EEB0201014491F8401001339BB20244B9
:10165000C9B2634582F840101A46F1DB4FF0010C25
:101660000F4940230091072000210E4A0E4D84F8B7
:101670000AC0A84703B030BD4FF0010C084A402310
:101680000092094D094A072084F80AC0A847F1E7EB
:101690003001002058C80120D51340005D124000E1
:1016A000E90E4000E8C801200545400098C8012027
:1016B0000A4A53781B2B05D0312B0BD01A2B05D09F
:1016C00000207047064B012013617047054B012035
:1016D00013617047044B012013617047EC960120A1
:1016E000191A40007D1A4000ED164000044B0549D0
:1016F00093F89C22498861F3C30283F89C227047C7
:1017000074010020EC9601202DE9F0411A4B0446AB
:1017100000689847C107054603D4AB0715D4BDE858
:10172000F081204650F81C3B00229E69134FF6B210
:101730003146B84794F89C325A07EED5002231461C
:1017400004F5E270B847AB07E9D504F1F005284687
:101750000B4B984748B128460A4B246898470A4BD8
:1017600001462046BDE8F041184720680221BDE847
:10177000F041064B184700BF8D274000490B400041
:10178000950B4000750B40009127400085274000D5
:101790000148024B184700BF7401002009174000A0
:1017A000134A5088030A01D000207047142810B54E
:1017B0000CD0182805D0A0F11000B0FA80F0400934
:1017C00010BDD18803290FD8184610BDD188032930
:1017D000FAD90421074C0848084B94609181984736
:1017E00003460120236010BD0421024C0448F3E7A6
:1017F000EC9601208095012090010020A10B400073
:101800006402002038B5012A04469DF8105041605A
:101810000ED0022A08D000220261013B032B63D8BC
:10182000DFE803F03355580A4FF400520261F4E741
:101830004FF480520261F0E74FF48063E360062DBD
:1018400028D0072D4DD0052D48D0C023A3600022FD
:10185000D4F898326261012B24D094F89C32244D44
:1018600043F0020384F89C3204F1F000A84704F12D
:101870001C00A84704F5E270A84721461D4A1E4BEC
:1018800051F8040B9847012038BD4FF40073062D22
:10189000E360D6D140230022A360D4F8983262617D
:1018A000012BDAD1154B0F209847154D15491520FE
:1018B000A8474FF000611620A8474FF4004230219E
:1018C000114BC3F8802183F80F131A60C5E700237A
:1018D000E360B4E74FF4C063E360B0E70023A360C4
:1018E000B5E78023A360B2E74FF40063E360A6E7A7
:1018F0003D0B4000000E2707E9264000CD2C40009C
:10190000612F40000100000800E100E070B5354C97
:1019100082B063881A0A01D002B070BD112B24D0A6
:10192000122B14D0102BF7D1E388072BF4D12E4BB8
:10193000A168D3F898320D68012B3DD088794B7996
:101940000A792A4C009029462748A047E4E7264C0C
:10195000274B206898472068264B9847032120682A
:10196000254B02B0BDE8704018471F4CD4F89832A0
:10197000012B0CD02068214B98472068204B9847BA
:10198000012120681F4B02B0BDE8704018471E4B74
:101990000F2098471D4D1E491520A8474FF00061A4
:1019A0001620A8474FF4004230211A4BC3F880217B
:1019B00083F80F131A60DDE7134B0F209847134E7F
:1019C00013491520B0474FF000611620B0474FF47F
:1019D000004230200F4BA168C3F8802183F80F0329
:1019E0001A60ABE7EC960120740100200518400056
:1019F0007927400069274000852740007127400073
:101A00006127400081274000CD2C4000612F40001D
:101A10000100000800E100E0004B18470D194000EC
:101A200070B5044600F1F005002228460D4B98479A
:101A300020680D4B9847820700D570BD0B4B20687E
:101A40009847830705D420680221BDE87040084B01
:101A500018472846074B25689847074B01462846F4
:101A60009847F0E7490B4000892740008D27400048
:101A700081274000750B400091274000F8B50B4DC1
:101A80006C88240A00D0F8BDEB88AA899A42FAD360
:101A9000002BF8D0064F074EAB683046195DB847AB
:101AA000EB880134A342F7DCF8BD00BFEC960120BF
:101AB000211A4000740100202DE9F0410124164D47
:101AC000164F174E012C09D0042C0BD1154B16487C
:101AD0009847BDE8F0411548154B1847D5F898329E
:101AE000012B02D00134E4B2ECE70F20B847DFF855
:101AF000448031461520C0474FF000611620C04792
:101B00004FF4004230210C4B0134C3F88021E4B281
:101B100083F80F131A60D5E774010020CD2C400024
:101B200001000008B51D4000751B4000B1164000C3
:101B3000DD1D4000612F400000E100E00A4A4FF047
:101B4000000CD188094B042928BF042193F89C027A
:101B5000074BC0F3C00018709360012083F801C0E8
:101B6000A3F802C091817047EC9601207401002017
:101B7000809501202DE9F047164D6B781B2B06D080
:101B8000312B23D01A2B06D00020BDE8F087124B52
:101B9000BDE8F04718476C88230AF5D1EC88DFF8D8
:101BA0003C806CB11C464646DFF834900D4F3846F9
:101BB000C847EB8801349C4206F8010BF7D3A4B266
:101BC0000120C5F80880AC81BDE8F087064BBDE870
:101BD000F0471847EC960120A1174000809501209E
:101BE000750B4000900100203D1B400040B9084AA1
:101BF000012092F89C3243F0040382F89C32704733
:101C0000002292F89C3262F3820382F89C32FFDE5B
:101C10007401002048B9094B094993F89C220870C7
:101C200060F3820283F89C227047002292F89C3273
:101C300062F3820382F89C32FFDE00BF7401002051
:101C4000B88E012080BB01212DE9F047DFF86880C4
:101C50001A4A98F89C32117003F00603062B01D043
:101C6000BDE8F087DFF85890C84705460028F7D050
:101C7000DFF850A0144E154FB5F5007F28BF4FF484
:101C80000075002031462A460446D047315D0134B4
:101C90004046A4B2B847AC42F8D30020C847054636
:101CA0000028E9D1BDE8F08701210023034A117023
:101CB00093F89C32FFDE00BF74010020B88E012033
:101CC000194D4000714D4000BC8E0120211A40008A
:101CD000002828D130B5164C83B094F89C225207C6
:101CE00002D54A79042A01D903B030BD03468A7966
:101CF000104D501F8001C0B21A460968009020465E
:101D0000A8470D4B20689847C307EDD420680B4BBC
:101D1000984720680A4B984701212068094B03B077
:101D2000BDE830401847002393F89C32FFDE00BF27
:101D300074010020051840008927400071274000E9
:101D400061274000812740002DE9F0470124134D11
:101D5000DFF84C80134F144E012C03D0042C07D114
:101D6000BDE8F08795F89C3203F00603062B02D0FD
:101D70000134E4B2F0E70020C0470028F8D0DFF8D3
:101D80002CA0DFF82C9004E04846B847014600201C
:101D9000B0474846D0470028F6D1E9E77401002053
:101DA000B14E4000750B40002D4F4000950B400098
:101DB0003803002007490A780F2A01D9002070470C
:101DC000034610B4501C044C087044F82230012023
:101DD00010BC70473C950120FC94012007490A780B
:101DE0000F2A01D900207047034610B4501C044C40
:101DF000087044F82230012010BC70473D95012046
:101E000040950120004B1847E5054000004B18475E
:101E1000E9054000054B1B7803B9704710B5044B2A
:101E20009847BDE81040034B184700BF140400203A
:101E3000D5414000ED05400038B50124044D4FF474
:101E40008061044A044B05482C709847204638BDF1
:101E500014040020D10A4000312E4000FC900120E3
:101E60000022014B1A7070471404002038B50F4B44
:101E70000F4AD9880F48402928BF4021127898601E
:101E800099818AB10C4C551EEDB2531B251F05EBF1
:101E9000830504EB820401E0AC4205D054F8043D14
:101EA00098470028F8D038BD002038BDEC960120B6
:101EB0003D950120BC9001204095012038B50B4B89
:101EC0001A788AB10A4C551EEDB2531B251F05EB3B
:101ED000830504EB820401E0AC4205D054F8043DD4
:101EE00098470028F8D038BD002038BD3C95012027
:101EF000FC940120024A034B508800F07F001847F1
:101F0000EC96012085414000154B1B681B681A792F
:101F1000824222D930B4134C2360B3F802C09C44EF
:101F2000634517D2002504E01A78012513449C4527
:101F30000CD95A78042AF7D19A788242F4D1DA7807
:101F40008A42F1D105B12360012001E00020236025
:101F500030BC7047002030BC70470020704700BF85
:101F6000C8950120CC9501202DE9F0411C4C237827
:101F70007BB300211B4E0546B04750B3DFF86880A5
:101F8000D8F800305B6853F82570FB6898472378D1
:101F90000146F3B12846B0470546D0B1134B144E65
:101FA0001C68D8F80020237812681C4453881A440F
:101FB000A24206D808E0052B0FD023781C44A24289
:101FC00002D96378042BF6D17B6898472846BDE890
:101FD000F08100252846BDE8F081A078B047E0E711
:101FE000C5950120091F4000C8950120CC9501200E
:101FF000E94240002DE9F0410746124B124D1C68A2
:10200000124E296823780A681C4453881A44A24255
:1020100006D808E0052B0DD023781C44A24202D933
:102020006378042BF6D14B6853F82730BDE8F041B4
:102030001B681847A288E178A078B0470028E0D153
:10204000BDE8F081CC950120C8950120F541400004
:10205000014B1868704700BFCC950120004B184712
:10206000E1404000F8B50D4F0D4B98473B787BB1F0
:102070000C4D2B681B681B7953B1002420460A4E77
:10208000B0472B6801341B68E0B21B798342F7D854
:102090000023064A3B701380F8BD00BFC5950120A0
:1020A00029404000C8950120691F4000C0950120CB
:1020B000F8B50C4F3B787BB10B4D2B681B681B7937
:1020C00053B100242046094EB0472B6801341B68E9
:1020D000E0B21B798342F7D80023054A3B70138096
:1020E000F8BD00BFC5950120C8950120691F4000BB
:1020F000C095012038B50C4B1B789BB10B4D2B685C
:102100001A68127972B1002422465B68013453F8D0
:1021100022301B6903B198472B68E2B2196809792C
:102120009142F2D838BD00BFC5950120C895012065
:1021300000232DE9F047834C2288C4E90433B2F52B
:10214000E07FA38100F0C78094F900202378002A63
:102150004CDB13F0600F7AD013F01E0F1AD1A38856
:10216000794D022B04BF0123A3802B786BB1774EEE
:1021700094F8048037683B681B799845C0F08480E8
:10218000227802F01F02022A10D000252846BDE85E
:10219000F087237803F01F03022BF6D16A4D2B78CA
:1021A000002BF2D0694E37683B681B79002BECD0CE
:1021B0000024A046DFF898917B68013453F828701A
:1021C000FB6898472B780146002BDED040465FFA2B
:1021D00084F8C8470028D8D0BB68984700286ED13B
:1021E00037683B681B794345E6D8CEE7E588002D84
:1021F000CBD013F0600FAFD113F01F0200F021819C
:10220000012A40F08C8062780A2A5FD1012D5DD1CD
:102210004D4A1278002A59D04C4A267917683A68F4
:102220001279B24252D900213046494B98470546AF
:10223000002800F0EE807B6853F82630DB68984772
:10224000024644480121444B027098479EE713F030
:102250001F0736D16278013A082A37D801A151F810
:1022600022F000BF27244000CD2240005921400029
:10227000CD22400017244000CD224000CD22400056
:10228000CD2240006D23400000214046304EB04733
:1022900000283FF47EAF7B6853F82870FB689847AE
:1022A0002B780146002B3FF470AF4046B047002822
:1022B0003FF46FAFBB68984700283FF46AAF012531
:1022C00064E7012F00F0CE80022F16D013F01E0F0E
:1022D0003FF445AF59E7214B98470246002A0CBF0F
:1022E0004D22572201251E484FF4A57180F8B620D3
:1022F000194B98472846BDE8F0876278012A00F01C
:10230000D580032A06D1E28861880A4392B2002A66
:1023100000F0578113F01E0F7FF440AF1FE7022A31
:10232000D4D16278002AF5D1022DF3D120790D4B5A
:10233000984702460C482946074B012502809847DA
:1023400024E700BFEC960120C5950120C895012027
:10235000091F4000C4950120E941400011104000D0
:102360003C04002041434000C2950120B4F806809F
:10237000B8F1000FAAD1984B9847002849D0DFF850
:102380005C92A378D9F80020527C9A4241D3944DB4
:102390002A7892B1934E3268126812796AB1404637
:1023A000DFF844A2D047336808F101081B685FFAE0
:1023B00088F01B798342F5D8A37800218B4A2B70D3
:1023C0001180002B3FF47BAFD9F8042003F10053B8
:1023D000013B52F83310834E02EBC3030A7933609A
:1023E000002A3FF46CAFDFF80882DFF80892002182
:1023F0003846C04768B13846C8470137FFB240B1D8
:1024000033681B681B79BB427FF659AF2B78002BD2
:10241000EDD12378A0E6E288002A7FF457AF764B0F
:1024200001252361B2E6E288002A7FF44FAF658878
:10243000012D7FF44BAF6D4A138823F00203138004
:10244000A4E66278062A47D0082A3DD0002A7FF405
:102450003DAF022D7FF43AAF29466448674B984759
:10246000012593E662780B2A7FF430AFE288002AD8
:102470007FF42CAF5A4D2A78002A3FF427AF2679F3
:10248000594B3046678898470028C2D02B78002BDC
:10249000BFD03046564BF9B298470028B9D03046E5
:1024A000544B984700287FF40AAFB2E7E28861886E
:1024B0000A4392B2002A7FF42DAF2079504B9847FF
:1024C00000287FF4FCAEA4E7012D7FF4FFAE29467F
:1024D00043484A4B984759E661880A0A013A0E2A4E
:1024E0003FF63AAE01A050F822F000BF732540003D
:1024F000512540004125400059214000592140000C
:1025000059214000592140005921400059214000E3
:1025100059214000592140005921400059214000D3
:10252000592140002925400021213648334B984746
:10253000E388A2899A427FF6C2AE0125A38125E6EF
:10254000C9B203293FF608AEDFE801F03633301E8A
:10255000224AC9B21068407C88427FF6B7AE526802
:10256000264B52F83100418898470222A3685A70DE
:10257000DEE710200221194B204D1A689070D170AF
:1025800018680178A847D3E720201F4B1F4E1D185D
:10259000324613F8011B9D4222F8021FF9D1410077
:1025A00002311A48154B31709847C1E71220184B79
:1025B000ECE71520174BE9E7042117480F4B984724
:1025C000B6E72079154B98472079154B9847002896
:1025D0007FF475AE1DE700BFBD414000040600203A
:1025E000C5950120C8950120691F4000C0950120B4
:1025F000091F4000F51F4000F51E4000E941400062
:102600004544400018040020A80000208805002050
:10261000E8050020D0050020CC05002049464000F8
:1026200081434000034B04485968044A08605B68D2
:102630005A607047040600207C060020FC0500203C
:10264000F0B5042687B004460D460F220E210C4833
:102650000C4F02AB0096B84770B9042D26462A46A7
:10266000044628BF042225B13046074B02A9920038
:102670009847204607B0F0BD1024204607B0F0BDB3
:10268000000A0E40010000204D504000B2EB011F37
:1026900084464FEA011012D3430803EBC202B2FB97
:1026A000F0F24FF6FE71D308581E884213D8120478
:1026B00002F4E0221A430020CCF820207047C90021
:1026C0004B0803EBC202B2FBF1F24FF6FE71D308E6
:1026D000581E884201D901207047DCF8041041F4EB
:1026E0000021CCF80410E2E72DE9F04700234FF079
:1026F00088094FF024084FF4807E4FF4002C4FF4EB
:102700000037DFF850A0144EC0F8E4A033604360F7
:1027100043628362C0F80090C0F80080C0F800E017
:10272000C0F800C0076091B10D460C4B0968044623
:10273000984760B9D5E9013213432A691343EA681F
:1027400013436268336013436360BDE8F087012080
:10275000BDE8F08700415355D09501208D264000FB
:1027600040230360704700BF80230360704700BFB1
:1027700010230360704700BF20230360704700BF31
:1027800081607047C1607047006970474069704759
:1027900043699B07FCD5C1F30801C1610020704764
:1027A0002DE9F041174B07460E469847164B054654
:1027B00038469847054019D0144C04F16008236846
:1027C000B34205D0444511D023691034B342F9D146
:1027D00061682942F6D0E36830469847636844450B
:1027E00025EA030502D01034002DE8D1084B1B6800
:1027F00033B1084B1B681BB13846BDE8F0411847A0
:10280000BDE8F081E12E4000E52E4000D495012086
:1028100050960120489601202DE9F8431D4F3E684F
:10282000062E28D80D4611461A461B4B4FF0000EB7
:102830009C4606F1010804E076450CF1100C1DD011
:10284000A646DCF800900EF10104A945F4D1DCF8AD
:1028500004908945F0D1089E03EB0E14C4E90112DF
:10286000E660F0454FEA0E141D510FD00B4B984710
:102870000020BDE8F8830120BDE8F88303EB0614CF
:1028800036019D51C4E90112089BE360C7F800803E
:10289000ECE700BF44960120D4950120B12E400002
:1028A000014B1860704700BF489601200B2101487A
:1028B000014B1847000E0E40A12740000C21014893
:1028C000014B184700100E40A12740002D4A136B02
:1028D00003F00303012B41D0023B012B34D8136AD0
:1028E000D9010AD4126A02F07002102A46D0264B8F
:1028F0002649202A18BF0B4600E0234B214A116BC2
:1029000001F0030102290ABF916AD16A926AC1F3F8
:102910000A4101FB033318BFD26AD2B2B3FBF2F310
:1029200018490A6B02F07002702A06D00A6BC2F3D3
:102930000212D340164A13607047164AA2FB0323C3
:10294000134A5B0813607047134B5B6A13F0800FE8
:102950000CBF4FF4FA434FF40043E1E7136ADB0185
:102960000AD4126A02F07002102A09D0064B0749F5
:10297000202A18BF0B46D3E7034BD1E7074BBDE72F
:10298000064BCDE700040E40001BB70000093D00D8
:1029900000070020ABAAAAAA00140E4000127A0079
:1029A000174B984206D84FF080631649164A0B60C1
:1029B00013607047154B984205D2154B1149124AC6
:1029C0000B6013607047134B984208D3124B984228
:1029D0000BD8124B0B490C4A0B6013607047104B1D
:1029E0000849094A0B60136070470E4B054998422D
:1029F00094BF4FF004230C4B034A0B6013607047E5
:102A0000FF2C3101000A0E40000C0E40005A6202F9
:102A10000001000400879303FFB3C4040003000413
:102A200000020004FFE0F505000500042DE9F04177
:102A3000202305460C4CAB420C4FDFF8348004F1E8
:102A4000180605D0B4420AD054F8083FAB42F9D179
:102A500063682846012B04D0B847B442F4D1BDE8DE
:102A6000F081C047EEE700BFA4594000052F4000A9
:102A7000212F40002DE9F041202305460C4CAB42AC
:102A80000C4FDFF8348004F1180605D0B4420AD0A8
:102A900054F8083FAB42F9D163682846012B04D0B3
:102AA000B847B442F4D1BDE8F081C047EEE700BFBB
:102AB000A4594000212F4000052F400010B53E21B1
:102AC00000200B4B98470B4CA0470028FCD00A4B2A
:102AD00098470A4B0A4A0B4CDA62A0470028FCD000
:102AE000094B01209847BDE81040084B184700BF2C
:102AF000312C4000812C4000B12C400000040E40DD
:102B0000023F0F00BD2C4000652D4000792D400094
:102B100070B50F480F4DA8473E2100200E4B984737
:102B20000E4CA0470028FCD00D4B98470D4B0E4A89
:102B30000E4C9A62A0470028FCD00D4B10209847FD
:102B40000C4B98472B46BDE870400148184700BF22
:102B5000000E2707A1294000312C4000812C4000A5
:102B6000912C400000040E40013F1320A12C400096
:102B7000D52B4000CD28400015490B6B23F00303F3
:102B800043F001030B638B6E1B0758BF4FF40063C8
:102B900002D504E0013B16D08A6E1207FAD50C4923
:102BA0000B6B23F0700303430B63886E10F0080077
:102BB00008BF4FF4006302D007E0013B03D08A6EE8
:102BC0001207FAD57047012070470020704700BFF8
:102BD00000040E4015490B6B23F0700303430B6395
:102BE0008B6E1B0758BF4FF4006302D504E0013B16
:102BF00017D08A6E1007FAD50C490B6B23F003032C
:102C000043F002030B63886E10F0080008BF4FF416
:102C1000006302D007E0013B03D08A6E1207FAD5A9
:102C20007047012070470020704700BF00040E402D
:102C300038B11049104A086A104B024013430B6226
:102C400070470C4A0902106A8BB220F45C1121F023
:102C500003010B4343F45C1343F001031362936ECF
:102C6000DB07FCD5136A43F09B7343F48033136294
:102C7000704700BF00040E40FCFFC8FE0200370191
:102C8000024B986E00F48030704700BF00040E4085
:102C90004FF00052014B9A62704700BF00040E4093
:102CA000024B986E00F00200704700BF00040E4017
:102CB0000022014BDA62704700040E40024B986E0E
:102CC00000F00400704700BF00040E40222819D80D
:102CD0001F284FF001030D4A08D89169834033EA59
:102CE00001014FF0000010D0136170472038D2F876
:102CF0000811834033EA01014FF0000004D0C2F80C
:102D000000317047012070477047704700040E4043
:102D1000222816D81F284FF001030D4A07D89169C1
:102D2000834033EA01014FF000000FD07047203894
:102D3000D2F80811834033EA01014FF0000002D0BD
:102D4000704701207047C2F80431704753617047E3
:102D500000040E404FF48073014A834013607047B3
:102D600000040E400002034B00F4706040F00100CC
:102D70009863704700040E408022014B1A60704730
:102D800000040E40034BC0F312001A6F1043186783
:102D9000704700BF00040E40014B1878704700BF19
:102DA0004C960120024B1B7803B17047014B18472A
:102DB0004C960120611E4000084B93F900201B78BF
:102DC000002A03F0600303DB402B05D0002070478E
:102DD000402BFBD1024B1847024B1847EC960120C1
:102DE000BD1E40006D1E4000064B10B59847064AB8
:102DF000C37813700BB1012010BD044BBDE8104027
:102E0000184700BF512040004C960120391E400059
:102E100030B58446154683B00B4662460021034C0C
:102E200000958120A04703B030BD00BF054540009C
:102E300030B58446154683B00B4662460021034CEC
:102E400000950220A04703B030BD00BF05454000FB
:102E5000A1F10E03012B21D910B582B0EFF310833D
:102E6000B3FA83F35B09019372B6BFF35F8F4FF040
:102E7000000C0C4B0C4C03EA0222C9B284F800C0CF
:102E80001143019A094B41F0B441984722B1012303
:102E90002370BFF35F8F62B602B010BD4FF0FF30FA
:102EA000704700BF00FFFF00180700208D000020C2
:102EB000D3060ED59306C0F8B0104CBFC0F8D4109E
:102EC000C0F8D01053064CBFC0F8C010C0F8C410F2
:102ED0007047C0F8B4107047016470474164704790
:102EE000C06C7047806C7047430903F5001303F210
:102EF00007735B02DB6B00F01F0023FA00F000F0A9
:102F0000010070470122430903F5001303F2077320
:102F100000F01F005B0202FA00F01863704700BF68
:102F20000122430903F5001303F2077300F01F00A9
:102F30005B0202FA00F05863704700BF01224309A8
:102F400003F5001303F207735B02996B00F01F0097
:102F500002FA00F0014214BF58631863704700BFC3
:102F6000430903F5001301F0F04203F20773B2F1D5
:102F7000005F4FEA43237DD010B41ED8B2F1805FCA
:102F800000F08D80B2F1C05F38D14FF0010C00F03D
:102F90001F020CFA02F25A64186F1C6F204020EADC
:102FA00002001867586F1043586711EA0C005A6006
:102FB0003ED11A66604610BC704701F0E04CBCF18F
:102FC000405F3ED0B2F1205F35D1012200F01F00FA
:102FD0008240C8075A644CBF5A661A6611F00A0F3D
:102FE00014BF1A625A628C0728D4080748BFC3F876
:102FF00084205A611A60012010BC7047B2F1006F42
:1030000019D14FF0010C00F01F020CFA02F25A64C1
:10301000186F1C6F204020EA02001867586F5C6F21
:10302000204020EA0200586711EA0C005A60C0D024
:103030005A6610BC7047002010BC7047C3F880204F
:10304000D7E7012200F01F00824001F0605CC1F36D
:103050008004C9075A644CBF5A661A664CB31A6595
:10306000BCF1605F0CBF1A635A631A611A600120D9
:1030700010BC70474FF0010C00F01F020CFA02F276
:103080005A64186F10431867586F1043586711EA55
:103090000C005A6012BF5A6660461A6670474FF0BD
:1030A000010C00F01F020CFA02F25A64186F104370
:1030B000B3E75A65D4E700BF0122430903F50013C3
:1030C00003F2077300F01F005B0202FA00F01864BD
:1030D000704700BF21F00101C0F85011704700BFD8
:1030E0000122044B1A60D0F850311343C0F850311C
:1030F000704700BF50960120D0F86031DB0743BF16
:10310000D0F8643100200B6001207047D0F86031A6
:10311000C0F85411704700BFC0F85811704700BF85
:1031200000487047680F0E40FEE700BF1A491B4871
:1031300008B581421ED91A4A904206D2013A121AA3
:1031400022F00302174B0432984700BF1648174A73
:10315000904207D2013A121A22F003020021144BC6
:10316000043298471349144A144B91609847144B02
:103170009847FEE7E9D20A4A0B1F101A0344043AA3
:103180000028E2D0C1F104011846043B0068CB429C
:1031900042F80409F8D1D8E7185A4000000000208E
:1031A000A80700204D504000A80700205898012093
:1031B000695040000000400000ED00E00550400074
:1031C000210540000C4A034610680C4930B1034405
:1031D0008B42CCBF4FF0FF301360704710B4084CE7
:1031E00023448B421460D8BF13602046C8BF4FF001
:1031F000FF3010BC704700BF54960120FC7F0220B6
:1032000028C9012030B5820002F1402202F5403287
:10321000146B83B014F0020F136B304C00F1FF31CC
:1032200048D1012501EB810304EB830393F811E0FE
:103230004FEA810C65F3830E83F811E00CEB010378
:1032400004EB83035B7C13F00C0F136B1AD1009318
:10325000009B43F04F030093009B23F00203009375
:10326000009B1363136B9B07FCD448B1032807D062
:103270000122614404EB8104637C62F38303637481
:1032800003B030BD0193019B43F04F030193019BB9
:1032900023F040030193019B1363136B13F040036E
:1032A000FBD1614404EB8104627C63F383026274AA
:1032B00003B030BD13F0400302D04FEA810CBDE7EC
:1032C00001EB810C04EB8C0C9CF811E063F3830E92
:1032D0008CF811E04FEA810CB0E700BF6096012046
:1032E0002DE9F04700F1FF3E5F4E0EEB8E0306EB3B
:1032F00083035B7C8A4682B04FEA8E08C3F3810366
:10330000002800F0A18003280CBF01220222934272
:1033100080F2968008EB0E0306EB8303D3E90221CB
:10332000914204D35B7C13F0400300F0988008EBDB
:103330000E0406EB8404238A551AC3F309039D4245
:1033400028BF1D46646828BFCA1808EB0E0304EBAB
:10335000010C06EB83032CBF00210121072DDA604D
:1033600030D9A5F10809820029F0070302F14022B3
:103370000CF110071F4402F540324FEAD9090CF155
:10338000080313F8084C0833146513F80F4C146540
:1033900013F80E4C146513F80D4C146513F80C4C0F
:1033A000146513F80B4C146513F80A4C146513F8E4
:1033B000094CBB421465E4D109F101090CEBC90CBD
:1033C00005F007054DB1294C654400F114021CF8C5
:1033D000013B654544F82230F9D108EB0E0206EBBB
:1033E0008202537C1C46C3F38103013363F38304DD
:1033F0005474BAF1000F13D0800000F1402000F5A2
:103400004030036B0193019B43F04F030193019BF9
:1034100043F010030193019B0363036BDB06FCD5B0
:1034200039B108EB0E0306EB83035A7C6FF3861267
:103430005A74C64406EB8E06D6E902329A4205D289
:10344000012002B0BDE8F087012260E7707C10F037
:103450004000F5D1737C43F080037374F1E71846A4
:1034600002B0BDE8F08700BF609601200040034035
:10347000437C13F0100F17D010B404686FF30413DB
:1034800043747CB18C46094B02F10C0153F8213096
:1034900081685B0548BF42F0800223465FFA8CF0EA
:1034A00010BC184710BC7047704700BF0040034075
:1034B0002DE9F043DFF8A08187B098F80030032BA6
:1034C00072D0664D664E2A88B489A41AA4B2002C24
:1034D00053D01146634F3F2C86BF00234024012365
:1034E000B2683B70EFF31083B3FA83F35B09059383
:1034F00072B6BFF35F8F00235B4EDFF870C133708D
:10350000059FDCF8303013F002036AD10A4444B15D
:103510000133D9B212F8010BA1420B46CCF850008E
:10352000F6D32B88514A1C442C80136B0393039BC6
:1035300043F04F030393039B43F010030393039B58
:103540001363136BD906FCD5136B48490493049B92
:1035500043F04F030493049B23F001030493049B63
:1035600013630B6BDB07FCD427B101233370BFF36C
:103570005F8F62B607B0BDE8F0833D49F0880B88E5
:1035800013449BB298420B804BD0364F97F8009073
:10359000B9F1000F45D17369002B3FD0984700283F
:1035A00055D1012329889BE7304A136B0093009B78
:1035B00043F04F030093009B23F001030093009B13
:1035C0001363136BDD07FCD4254E336903B19847B1
:1035D0000023C6E90433B38188F8003007B0BDE8A2
:1035E000F083AFB90423214A88F80030136B0293AB
:1035F000029B43F04F030293029B23F001030293CB
:10360000029B1363136BD807FCD407B0BDE8F083AB
:1036100001233370BFF35F8F62B6E3E711460123E6
:103620005EE70423114A88F80030136B0193019B75
:1036300043F04F030193019B23F001030193019B8E
:103640001363136BDC07FCD407B0BDE8F0832C8058
:103650004946B4893FE700BF5E9601205A96012093
:10366000EC960120589601201807002000400340E6
:103670005C9601202DE9F04F7F4B2220A5B09847A2
:103680007E4B9A69140503D5DA69100500F1B580FF
:103690007A4BDA69D1070ED51A6B520768D41A6BC8
:1036A000D10700F1B4801A6B920700F1B5801A6B54
:1036B000140700F192800123714F1846B8463D4629
:1036C0006E4A91699C0000FA03F604F140243142ED
:1036D0005FFA83FA03F1FF3904F5403403F1010383
:1036E0000CD0216B11F0420F40F07981216BC9079A
:1036F00000F1A281216B090700F1E981082B05F196
:103700001405DED15D4B9A69920402D5DB699B04F6
:103710001DD45A4B9A69960516D4584B9A6954058C
:1037200002D5DB69580512D4544B9A69D10503D5EB
:10373000DA69D20500F1CE82504DEB69DB0400F16D
:10374000F18125B0BDE8F08FDB699D05E5D54FF42B
:1037500018534A4C4B4A2362636190474FF480737D
:103760004FF4006223622361226125B0BDE8F08F2F
:10377000454D2B7843B1454E336903B1984700233B
:10378000C6E90433B3812B703C4C236BC3F30A436B
:10379000082B00F08380236B0393039B43F04F03BC
:1037A0000393039B23F004030393039B2363236B83
:1037B0005B07FCD405232B70236B304A0893089BCE
:1037C00043F04F030893089B43F020030893089BA2
:1037D0002363136B9F06FCD5B3E71A6B0292029A20
:1037E00042F04F020292029A22F008020292029ADA
:1037F0001A631A6B1007FCD4A3E74FF40061244A44
:1038000019629047234B25B0BDE8F04F1847224B73
:1038100025B0BDE8F04F18471B4D2A78012A6BD020
:10382000022A00F0FD81042A00F0FA811A6B11923D
:10383000119A42F04F021192119A42F02002119215
:10384000119A1A631A6B9706FCD5104E0B4A136B2C
:103850000B930B9B43F04F030B930B9B23F0020343
:103860000B930B9B1363136B13F00203FBD1C6E99D
:103870000433B3812B7064E7CD2C4000004003403B
:10388000609601200D1E40005E960120EC960120FE
:10389000F5204000151E4000B1344000984B03F164
:1038A0000801226D03F8012F8B42FAD1954B9847FE
:1038B000002871D0944E954A96F90030002B236B66
:1038C000C0F21A820793079B43F04F030793079BAD
:1038D00023F004030793079B2363136B13F0040384
:1038E000FBD1F188002900F0018301228848894931
:1038F00003800B802A7024E7864C186B824E238845
:10390000B6F80CC0C0F30A401A189445ACBF1FFAB1
:1039100082FCACEB0300B268B8BF80B21A44002846
:1039200000F00C830023794F396D013302F8011B3D
:10393000D9B281420B46F7D34028A4F800C000F06A
:1039400025827369A6F80CC01BB19847002800F0C7
:103950005B826E4A136B0D930D9B43F04F030D93E7
:103960000D9B23F002030D930D9B1363136B9C07B8
:10397000FCD403232B70136B64491393139B43F004
:103980004F031393139B43F010031393139B136381
:103990000B6BD806FCD5D4E6236B5C4A0493049BDE
:1039A00043F04F030493049B23F004030493049B0C
:1039B0002363136B5E07FCD405232B70136B5349F1
:1039C0000993099B43F04F030993099B43F020039C
:1039D0000993099B13630B6B9D06FCD5B1E609EBBC
:1039E0008903226B08EB8303B3F810B0C2F30A42D9
:1039F000CBF3090B4FEA8907002A40F018815046A3
:103A0000454B00929847009A93457FF69AAE216BFA
:103A100011F020017FF495AE524628463B4B4F44AF
:103A200008EB87085E61D8F80C30C8F808303B4BCB
:103A300025B0BDE8F04F184709EB890008EB80007E
:103A4000437C00F1100C1946C3F38103033363F385
:103A500083018CF80110437C4FEA890713F02001A1
:103A600040F071811B0600F1338207EB090108EB7E
:103A70008101D1E902329A42C0F0FA804B7C13F006
:103A80004C0340F0F580EFF31082B2FA82F2520953
:103A90001A9272B6BFF35F8F214A1C4913701A9BAA
:103AA0004E6123B101231370BFF35F8F62B6236BA6
:103AB0001B931B9B43F04F031B931B9B23F00103A2
:103AC0001B931B9B2363236BDE07FCD439E6236B1C
:103AD0002093209B43F04F032093209B23F0080367
:103AE0002093209B2363236B1A07FCD4236B03F4DE
:103AF000E063B3F5807F3FF424AE236B21E600BF83
:103B0000EB96012031214000EC960120004003405B
:103B10005C9601205A960120053240007134400025
:103B2000180700204FF4805301242B62631E03EB1F
:103B3000830308EB8303597CE2B2CE0604F10C0048
:103B400004F101040DD56FF3041159743B6843B1BE
:103B500055F8201001204E0548BF42F08002B96898
:103B60009847082C07F11407E0D19B4B98479B4BD3
:103B70005A6822F001025A605A6822F002025A6022
:103B80009A6842F480729A609A6822F07F029A6082
:103B90001A6B2292229A42F04F022292229A22F427
:103BA000074222F080022292229A42F4004222929C
:103BB000229A1A631A6B1004FCD5196B874A239159
:103BC000239941F04F012391239941F4004123911E
:103BD00023991963136B1904FCD5EFF31083B3FA1F
:103BE00083F35B09219372B6BFF35F8F002001213D
:103BF0007B4B18702198116118B11970BFF35F8F5A
:103C000062B600234FF480744FF40060754A734924
:103C1000754D2B700C61C2E904339381086190E506
:103C2000704E3369002B3FF411AE98470EE6D3E98E
:103C3000021EA1EB0E0C9445586800F2C580D960B5
:103C4000BCF1000F00F09C8101230093002370441D
:103C5000216D0133634500F8011BF9D3634B5046D6
:103C600001929847DDE90032002B7FF4D0AECBE61D
:103C7000BAF1030F00F04D814F4408EB870898F824
:103C8000113013F00C0F00F0E280236B1C931C9B8F
:103C900043F04F031C931C9B43F010031C931C9B8D
:103CA0002363236BDD06FCD5236B1D931D9B43F023
:103CB0004F031D931D9B23F001031D931D9B236345
:103CC000216B11F00101FBD15046494B25B0BDE8F5
:103CD000F04F18474FF480724FF400564FF40075C0
:103CE0004FF480641A6222205A6142491E611D61AC
:103CF0001C618847404B86E50593059B43F04F03C5
:103D00000593059B43F080030593059B2363136B89
:103D10001C06FCD5136B31490693069B43F04F03F9
:103D20000693069B23F004030693069B13630B6B19
:103D300013F00403FBD102223048314903800B8089
:103D40002A70304B64E513F00C0F236B00F0998060
:103D50001693169B43F04F031693169B43F01003E4
:103D60001693169B2363236BDD06FCD5236B1793F9
:103D7000179B43F04F031793179B23F001031793EF
:103D8000179B2363236BD807FCD4DAE4DFF86C803D
:103D9000F288B8F8003063449A427FF7D2ADB38915
:103DA000634500F0DF800D4A136B1093109B43F0C6
:103DB0004F031093109B23F002031093109B136387
:103DC000136B9D07FCD4BCE40EEB0201D960002309
:103DD000944600933AE700BFB12040000040034002
:103DE00018070020EC9601205E9601200532400065
:103DF000E1324000112D4000051E40005C9601207C
:103E00005A960120B13440000523834A2B70136B6E
:103E10001293129B43F04F031293129B43F0200323
:103E20001293129B1363136B9E06FCD5136B7A4996
:103E30000C930C9B43F04F030C930C9B23F0020359
:103E40000C930C9B13630B6B9D07FCD479E401214D
:103E50005046724FB8470146002872D0236B1E931C
:103E60001E9B43F04F031E931E9B23F001031E93E2
:103E70001E9B2363216B11F00101FBD150463B4691
:103E800024E71893189B43F04F031893189B23F0D3
:103E900001031893189B2363236BD907FCD4236B6E
:103EA0001993199B43F04F031993199B43F0200377
:103EB0001993199B2363236B9A06FCD54F4408EB97
:103EC000870898F811306FF3451388F8113038E4FB
:103ED0009CF8013061F3C7138CF80130C36883602C
:103EE0005661284652464E4B9847BEE503232B7039
:103EF000136B49490A930A9B43F04F030A930A9BA9
:103F000043F010030A930A9B13630B6BD806FCD58E
:103F100017E4424B0121504698473F4AD36B1F9309
:103F20001F9B43F04F031F931F9B23F001031F931D
:103F30001F9BD363D36BD807FCD402E4A4F800C062
:103F4000FFE498F81130284661F3C71388F8113060
:103F5000D8F80C305246C8F808302F4B5E61304B11
:103F600098477BE77369002B32D0984760B10022F5
:103F7000B8F80030218822800B44A8F8003012E7FE
:103F80005046284B984742E505222A703A6B224B4F
:103F90001592159A42F04F021592159A42F020029E
:103FA0001592159A3A631A6B9706FCD51A6B1A4943
:103FB0000F920F9A42F04F020F920F9A22F00202D4
:103FC0000F920F9A1A630B6B9E07FCD4FFF7B9BBD5
:103FD00005222A703A6B104B1492149A42F04F0249
:103FE0001492149A42F020021492149A3A631A6BB3
:103FF0009206FCD51A6B08490E920E9A42F04F02B7
:104000000E920E9A22F002020E920E9A1A630B6B17
:104010009B07FCD4FFF795BB00400340E132400012
:10402000713440000532400082B0EFF31083B3FAE0
:1040300083F35B09019372B6BFF35F8F00220A49D5
:104040000A4B0A7001985A6F42F480725A675A6F8D
:1040500022F400725A6720B101230B70BFF35F8F07
:1040600062B602B0704700BF18070020004003404E
:10407000F0B583B0EFF31083B3FA83F35B090193D8
:1040800072B6BFF35F8F0022124C4FF4007622709D
:10409000114B22204FF40057019D98474FF4807C2C
:1040A0004FF480604FF400610C4B5A6F22F4807221
:1040B0005A675A6F32435A67C3F810C01F611E61B6
:1040C0001861196125B101232370BFF35F8F62B6B8
:1040D00003B0F0BD18070020CD2C40000040034085
:1040E00070B582B0EFF31083B3FA83F35B090193E9
:1040F00072B6BFF35F8F0024144D154B2C70222035
:10410000019E9847134B9847502004212346124A9A
:1041100082F822031148516003EB830200EB820214
:10412000517C013301F00301072B5174F4D10C4B86
:104130004FF4802098470B4B984726B101232B70F2
:10414000BFF35F8F62B602B070BD00BF18070020DA
:10415000CD2C4000BD2A400000E100E06096012027
:10416000852D400071404000044B5A6F42F480722C
:104170005A675A6F22F400725A6770470040034032
:10418000002070470C4B5A6822F001025A609A686E
:1041900022F480729A6070B19A6800F07F0022F079
:1041A0007F02104398609A6842F480729A605A685D
:1041B00042F001025A60704700400340044B5868C7
:1041C00010F001001CBF986800F07F00704700BF2E
:1041D00000400340024B1868C0F30A00704700BF5C
:1041E0000040034000207047014B98609981704760
:1041F000EC96012010B510F0080E82B065D100F0E9
:104200000F034FEA830C0CF1402C0CF5403CDCF81A
:10421000304014F4004458D101F0030EBEF1010FF8
:1042200050D01C1F012C94BF4FF400744024A242B4
:104230004BDC2B4C03F1FF3E0EEB8E0E04EB8E0E8F
:10424000BEF81040C2F3090240B204F4B84422435D
:104250000028AEF810203BDB4FF0010E214C0EFA87
:1042600003FEA36A43EA0E03A362A26A1EEA020FD8
:10427000FBD0A36A002823EA0E03A362DCF83030E7
:104280000193019B43F04F030193019B23F40743E8
:1042900023F0800301934FEA0123019A03F4407352
:1042A000B4BF43F4044343F400431A430192019A18
:1042B000CCF83020DCF8302033EA0202FAD10120B9
:1042C00002B010BD0BB1032BABD1002002B010BD6A
:1042D0009EF811206FF383028EF81120BCE700BF17
:1042E0006096012000400340020723D410B400F080
:1042F0000F02910001F1402101F540310B6B83B0B9
:104300000193019B43F04F030193019B23F400436E
:104310000193019B0B630B6B1B04FCD4064C531ED7
:10432000064803EB830300EB83000121234603B01F
:1043300010BC1847704700BF7134400060960120E0
:10434000020716D400F00F000B4A431E03EB830351
:1043500002EB83035B7C9B0601D501207047074B72
:104360000C3053F8203013F0280F14BF0120002028
:1043700070470020704700BF609601200040034056
:1043800010F008024DD130B400F00F0182B0EFF30D
:104390001083B3FA83F35B09019372B6BFF35F8FA7
:1043A000254C22700206019D1DD48A0002F1402294
:1043B00002F54032136B0093009B43F04F030093D0
:1043C000009B43F020030093009B1363136B9B0639
:1043D000FCD50120194B00FA01F119611DBB012028
:1043E00002B030BC7047154B01F10C0253F822307B
:1043F0004A1E13F0100F124B1CD102EB820003EB8C
:10440000800090F811C09000CCF3810CBCF1010F3A
:10441000CBD9024403EB82035A7C42F020025A7447
:10442000D7E7002070472070BFF35F8F62B602B0FD
:1044300030BC70479000ECE71807002000400340B4
:104440006096012010F0080156D110B500F00F0061
:1044500000F1FF3C294C0CEB8C0304EB83035A7CEA
:1044600082B061F345125A74820002F1402202F5D3
:104470004032136B4FEA8C0E99063AD5136B0093BA
:10448000009B43F04F030093009B23F02003009315
:10449000009B1363136B9B06FCD40123184903FA9A
:1044A00000F08B6A03438B628B6A1842FCD08B6AE4
:1044B00023EA00008862136B0193019B43F04F03D2
:1044C0000193019B23F008030193019B1363136B7A
:1044D00013F00803FBD1F44404EB8C02517C4FEA47
:1044E0008C0CC80605D563F3041154F80C00517404
:1044F0008047012002B010BD002070476096012067
:104500000040034010F0080F7ED12DE9F04F00F07D
:104510000F064FEA860C0CF1402C0CF5403CDCF801
:10452000304083B024046BD5741E434D04EB840EDD
:1045300005EB8E0E9EF811704FEA8408BF065FD41B
:10454000DCF8307017F020095AD1EFF31087B7FA72
:1045500087F77F09009772B6BFF35F8F374F87F8F1
:1045600000909EF811B0DDF800A01BF0100F44D1B0
:104570009EF8119049F010098EF81190BAF1000FD1
:1045800006D04FF0010E87F800E0BFF35F8F62B6F0
:104590004FF00009DDF830A008EB040E45F82EA01E
:1045A00005EB8E0ECEE90123CEF80C9011B9B3FACB
:1045B00083F14909444405EB84056B7C03F03F0318
:1045C00043EA81116974EFF31083B3FA83F35B0953
:1045D000019372B6BFF35F8F00220121184B3A702E
:1045E00001FA06F2019C1A6103060FD4012044B1BE
:1045F0003870BFF35F8F62B603E0BAF1000F14D1D9
:10460000002003B0BDE8F08F00207047DCF8305088
:1046100015F01105EAD13046DFF82880C0470028A0
:10462000E4D029463046C047E0E701233B70BFF3A2
:104630005F8F62B64846E4E76096012018070020C5
:1046400000400340E132400010F0080240F09F803B
:10465000F0B500F00F0587B0EFF31083B3FA83F3E2
:104660005B09059372B6BFF35F8F0121484B494E3A
:104670001A70059A01FA05F474611AB11970BFF342
:104680005F8F62B6020628D4AE0006F1402606F51A
:104690004036336B13F0420F06D03F4F2846B847E1
:1046A000336B13F0420FF9D16E1E3C48B20039490A
:1046B0008B6A23438B628B6A1C42FCD08B6A324428
:1046C00000EB82002A46364D23EA04048C622B4616
:1046D000012107B0BDE8F0401847A90001F14021D1
:1046E00001F540310B6BDB0635D52DB3032D23D0FF
:1046F0000B6B0193019B43F04F030193019B23F04C
:1047000010030193019B0B630B6BDF06FCD40B6B57
:10471000DE06FCD40B6B0293029B43F04F03029323
:10472000029B43F010030293029B0B630B6BD806B2
:10473000FCD50B6BDA06FCD50B6B0393039B43F0A4
:104740004F030393039B23F010030393039B0B631B
:104750000B6BDB06FCD40B6B0493049B43F04F0301
:104760000493049B23F001030493049B0B630B6BE2
:1047700013F00103FBD16E1E084806EB860200EB26
:104780008202517C63F383015174B2008FE770475A
:1047900018070020004003400532400060960120C9
:1047A000713440004FF400421D4B70B50B205A6528
:1047B0001C4EB0470C20B0471B4C4FF040512020FE
:1047C000A0474FF040512120A0474FF040512220F8
:1047D000A047164D4FF040512320A047A847C0B135
:1047E0004FF060510A20A0474FF040511320A047DE
:1047F0004FF040511420A0474FF060510720A047D0
:104800004FF060510920A047BDE870400A20084BD6
:1048100018473E21074B9847A8470028FCD0DFE700
:1048200000140E40CD2C4000612F4000812C400030
:10483000052F4000312C4000024A1378013BDBB2C7
:10484000137070470F9701200020704700207047B9
:1048500000200149014B184708970120D11C400056
:1048600008B5064A06491378013BDBB2137010788D
:1048700088470022034B1A7008BD00BF1097012023
:10488000151C400006970120164A92F90010137873
:10489000002903F0600303DB202B0ED000207047BB
:1048A000202BFBD15378212BF8D1D388072BF5D1BE
:1048B0000D4901209160938170475078202805D0E0
:1048C000A0F12200B0FA80F040097047D388072B8E
:1048D000E4D110B40449054C916014619381012026
:1048E00010BC7047EC960120089701205148400009
:1048F000082270B500244FF4E13042F2A1060C49C1
:104900000C4D8A710C4A0D4B2C7014800C4A1E60A1
:1049100008601C8120465A608C800A4B98472046CC
:10492000094B984718B12B780133DBB22B7070BD5F
:10493000089701200F970120A49701203C9801209F
:1049400001000200D11C4000ED1B40002DE9F04F9A
:1049500085B0EFF31083B3FA83F35B09039372B668
:10496000BFF35F8F0023DFF8DC80DFF8DC9088F88E
:104970000030DDF80CA099F80040344FE4B237F86D
:1049800014302646324D002B39D000232B80314B7A
:104990001B7853B3B4FA84F6760901232E4A1370B8
:1049A000BAF1000F04D088F80030BFF35F8F62B611
:1049B00037F81630402B14BF012400241BD0274B9E
:1049C0009847002836D0264B9847264A37F81630A5
:1049D00010802548254A21460090254C862002EB70
:1049E0008612A04705B0BDE8F08FB4FA84F46409DC
:1049F00089F80040D1E700211A4A1180E9E72B88A5
:104A0000DFF858B001332B80D84710B92B88632BBF
:104A100006D9D8470028B8D02B88B3F5487FB4D240
:104A2000BAF1000FDED0012388F80030BFF35F8FAA
:104A300062B6D7E70F4B98470A4A37F8163010800E
:104A4000C7E700BF18070020309801202C980120EC
:104A500004970120A8970120389801208141400047
:104A6000E541400034980120C14A4000AC97012044
:104A700005454000D54140000B4B1B7803B1704702
:104A800010B50A4B98470A4A40B10A4B1488984718
:104A9000844208D0BDE81040074B1847074B1488E4
:104AA00098478442F6D110BD3898012081414000DA
:104AB00034980120E54140004D494000D541400077
:104AC00000B1704710B4074B074C1B78074AB3FA84
:104AD00083F307495B09207021F81300107010BCA4
:104AE000044A104730980120A897012038980120E7
:104AF0002C980120794A40000B4B1B7803B170477A
:104B000010B50A4B98470A4A40B10A4B1488984797
:104B1000844208D0BDE81040074B1847074B148863
:104B200098478442F6D110BD389801208141400059
:104B300034980120E54140004D494000D5414000F6
:104B4000F0B585B0EFF31083B3FA83F35B090293FA
:104B500072B6BFF35F8F00222D4B2E492E4D1A7077
:104B600002980C782A78002A44D12C4E2C4FE4B2BB
:104B7000B6F800C002F0FF0E37F814201FFA8CFCC4
:104B800092B2944536D3B4FA84F24FF0010C520934
:104B9000A6F800E00A7085F800C020B183F800C0D4
:104BA000BFF35F8F62B6EFF31082B2FA82F252095E
:104BB000039272B6BFF35F8F00221A70039D328892
:104BC000087891B2C2B237F8122092B225B1012012
:104BD0001870BFF35F8F62B6914215D11148124A27
:104BE000009002EB84124023012107200F4CA047C4
:104BF00005B0F0BD0028FBD001221A70BFF35F8F13
:104C000062B6002005B0F0BD0020094B9847E5E7EB
:104C10001807002098970120A09701209C97012059
:104C200094970120B94C400014970120054540009D
:104C3000451C400038B50024124A134D13492C700E
:104C4000134B14701348144A1C701480134B0C70CF
:104C5000046098471249134B0C70134A134914709F
:104C60001C80134A5C800C80904748B12B7801333C
:104C7000DBB22B702B78012BDAB204BF0D4B1A700C
:104C800038BD00BF389801201097012030980120CE
:104C9000A89701202C98012034980120794A4000DF
:104CA000A097012094970120989701209C970120BC
:104CB000414B400006970120F0B903460F4890F899
:104CC00000C0BCFA8CFC4FEA5C1C39B10C4A0D48A0
:104CD00089B222F81C100C4A0370104710B50B491A
:104CE0000B4C82B00094402310460A4C01EB8C120E
:104CF0000121A04702B010BD704700BF9897012066
:104D000094970120A0970120414B40001497012067
:104D1000B94C40000545400030B482B0EFF3108339
:104D2000B3FA83F35B09019372B6BFF35F8F002080
:104D30000B490C4A0C4B0870019C10881A780B4DDB
:104D4000D2B283B235F8120080B2C01A24B1012366
:104D50000B70BFF35F8F62B602B030BC704700BF0C
:104D6000180700209C970120989701209497012014
:104D70002DE9F04F88461646254D264CDFF89890D1
:104D8000264FDFF89CB083B0EFF31083B3FA83F3C0
:104D90005B09019372B6BFF35F8F00232B70019AFA
:104DA000208899F8001080B2C9B237F811309BB250
:104DB00022B101222A70BFF35F8F62B68342194A83
:104DC00006D81378002BDFD1304603B0BDE8F08F52
:104DD00037F811A000EB81111FFA8AFAAAEB000A3A
:104DE000B24528BFB24640460F4B524659449847F9
:104DF0002388A6EB0A0653449BB223800B4BD04476
:104E00009847002EC0D1304603B0BDE8F08F00BFF8
:104E1000180700209C970120989701209497012063
:104E200014970120069701204D504000414B40004F
:104E300070B483B0EFF31083B3FA83F35B0901938B
:104E400072B6BFF35F8F0021144A154C11701548DC
:104E5000019D237830F8130040280AD0C0F14000AB
:104E600025B101231370BFF35F8F62B603B070BC2E
:104E700070470D4E367806F0FF0C56B90B490E7888
:104E80004EB9DBB2B3FA83F301265B090E702370CF
:104E9000E6E70846E4E76046E2E700BF18070020BF
:104EA000309801202C98012038980120A8970120E3
:104EB00070B483B0EFF31083B3FA83F35B0901930B
:104EC00072B6BFF35F8F0021134A144C117014485F
:104ED000019D237830F81300402809D0012025B126
:104EE00001231370BFF35F8F62B603B070BC7047CD
:104EF0000C48067806F0FF005EB90B490E78002ECC
:104F0000EDD1DBB2B3FA83F301205B0908702370A3
:104F1000E5E70846E3E700BF1807002030980120C6
:104F20002C98012038980120A89701202DE9F04302
:104F3000214B0C469D79214FA5F10905B5FA85F560
:104F4000DFF87C80DFF87C901F4E83B06D09002075
:104F5000B8471E4B38B91B7803F0FF00002BF6D181
:104F600003B0BDE8F083EFF31083B3FA83F35B097A
:104F7000019372B6BFF35F8F002388F80030019869
:104F800099F80030124A36F81310DBB201F1010C27
:104F900002EB8312545426F813C028B1012388F879
:104FA0000030BFF35F8F62B615B100252412CEE743
:104FB000012003B0BDE8F08308970120314E400086
:104FC00018070020309801202C9801200697012016
:104FD000AC97012019B10B6803604B6843601AB1AC
:104FE0001368036153684361704700BF40F20113C7
:104FF00019400162704700BF40F20223194001626C
:10500000704700BF70B500260C4D0D4C641BA410FA
:10501000A64209D100F0F0FC00260A4D0A4C641BA0
:10502000A410A64205D170BD55F8043B984701363F
:10503000EEE755F8043B98470136F2E7045A400082
:10504000045A4000045A4000085A40000A44914261
:1050500000F1FF3300D1704710B511F8014B9142B8
:1050600003F8014FF9D110BD03460244934200D129
:10507000704703F8011BF9E70EB46FF0004100B56B
:105080009CB01DAB02900690079104910848094915
:1050900053F8042B0591006802A9019300F082F8EF
:1050A0000022029B1A701CB05DF804EB03B070473D
:1050B000440700200802FFFF034613F8012B002AD3
:1050C000FBD1181A01387047034610B5013932B1C7
:1050D00011F8014F013A03F8014B002CF7D10021E0
:1050E0001A44934200D110BD03F8011BF9E72DE9E2
:1050F000F0478E6882469E420C4690461F4638D83E
:105100008A8912F4906F32D0256809690133A5EBC2
:10511000010965694B4405EB450505EBD5756D1037
:105120009D4238BF1D46530531D5294600F060FB2E
:10513000064650B90C234FF0FF30CAF80030A3895F
:1051400043F04003A381BDE8F0874A462169FFF799
:105150007DFFA38923F4906343F08003A38126613C
:105160004E4426603E466561A5EB0905A560BE423A
:1051700000D93E4632464146206800F0B7FAA3689F
:1051800000209B1BA360236833442360DBE72A468F
:1051900000F0A2FB06460028E1D15046216900F04C
:1051A000BFFAC7E72DE9F04F98468B8907461B06E3
:1051B0000D4614469DB00ED50B6963B9402100F031
:1051C00017FB2860286120B90C233B604FF0FF30AB
:1051D000D1E040236B610023099320238DF829300F
:1051E00030234FF00109CDF80C80DFF8A4818DF851
:1051F0002A3023469A4613F8012B0AB1252AF9D101
:10520000BAEB040B0BD05B46224629463846FFF723
:105210006EFF013000F0AA80099A5A4409929AF868
:105220000030002B00F0A28000234FF0FF32CDE9C8
:1052300005230AF1010A049307938DF853301A935A
:105240005446052214F8011B514800F041FA049A13
:10525000D8B9D00644BF20238DF85330110744BF7E
:105260002B238DF853309AF800302A2B15D0544652
:1052700000204FF00A0C079A214611F8013B303B01
:10528000092B4ED9B0B1079214E0A0EB080309FA3C
:1052900003F31343A2460493D2E7039B191D1B6833
:1052A0000391002BBBBF5B4242F0020207930793BE
:1052B000B8BF049223782E2B0CD163782A2B35D1DA
:1052C000039B02341A1D1B680392002BB8BF4FF0DA
:1052D000FF330593DFF8BCA003225046217800F08D
:1052E000F7F940B14023A0EB0A0003FA00F0049B59
:1052F00001340343049314F8011B062226488DF859
:10530000281000F0E5F9002838D0244B1BBB039B84
:10531000073323F0070308330393099B33440993AE
:1053200067E70C4601200CFB0232A5E700234FF093
:105330000A0C194601340593204610F8012B303A27
:10534000092A03D9002BC5D00591C3E704460123E0
:105350000CFB0121F0E703AB00932A463846104BC3
:1053600004A9AFF30080421C0646D6D1AB895B0688
:105370003FF52CAF09981DB0BDE8F08F03AB00934B
:105380002A463846064B04A900F07CF8EBE700BF3C
:10539000C4594000CA594000CE59400000000000E6
:1053A000EF5040002DE9F047164699468A680B6990
:1053B00007469342B8BF1346336091F843200C462A
:1053C000DDF820800AB1013333602368990642BFBB
:1053D000336802333360256815F0060506D104F101
:1053E000190AE36832689B1AAB4228DC94F8432020
:1053F000131E226818BF012392062DD44946384651
:1054000004F14302C047013020D02368E56803F06F
:105410000603042B18BF002532684FF00006A3686E
:1054200008BFAD1A226908BF25EAE5759342C4BFDB
:105430009B1AED181A34B5421AD1002008E0012356
:10544000524649463846C047013003D14FF0FF303D
:10545000BDE8F0870135C4E73020E11881F843004A
:105460005A1C94F845102244023382F84310C5E7D1
:105470000123224649463846C0470130E6D001366E
:10548000D9E700002DE9FF470F7E9146782F80462F
:105490000C469A460C9D01F1430207D8622F0AD8A8
:1054A000002F00F0D980582F00F0A48004F14205AD
:1054B00084F842703AE0A7F16303152BF6D801A1F6
:1054C00051F823F01D55400031554000AD544000C7
:1054D000AD544000AD544000AD5440003155400043
:1054E000AD544000AD544000AD544000AD544000B8
:1054F0003F5640006155400021564000AD544000E9
:10550000AD54400061564000AD544000615540002C
:10551000AD544000AD544000295640002B681A1D80
:105520001B682A6004F1420584F842300123A4E09C
:1055300020682968060601F104030AD50E682B606D
:10554000002E03DA2D23764284F843300A235E4886
:1055500019E00E6810F0400F2B6018BF36B2EFE76D
:105560002B682068191D2960010601D51E6802E01C
:105570004606FBD51E886F2F0CBF08230A2352480E
:10558000002184F843106568002DA8BF2168A5603C
:10559000A4BF21F0040121600EB9002D4DD01546A5
:1055A000B6FBF3F103FB1167C75D05F8017D3746D4
:1055B000BB420E46F4D9082B0BD12368DE0708D571
:1055C000236961689942DEBF302305F8013C05F18B
:1055D000FF35521B22614B4621464046CDF800A0C4
:1055E00003AAFFF7DFFE01304CD14FF0FF3004B0CB
:1055F000BDE8F087344881F845702968236851F880
:10560000046B29601D0614D5DF0744BF43F0200357
:1056100023601EB9236823F0200323601023AFE723
:10562000236843F0200323607823284884F845301A
:10563000E3E7590648BFB6B2E6E71546BBE72B6875
:105640002668181D6169286035061B6801D5196038
:1056500002E07006FBD51980002315462361BAE7E6
:105660002B6800211A1D2A601D686268284600F018
:105670002FF808B1401B606063682361002384F841
:105680004330A8E72A46494640462369D0470130BF
:10569000ABD023689B0713D4E068039B9842B8BF44
:1056A0001846A4E70123324649464046D047013018
:1056B0009BD00135E36803995B1AAB42F2DCEBE760
:1056C000002504F11906F5E7D5594000E6594000D8
:1056D000034610B5C9B202449342184601D10020D6
:1056E00003E0047801338C42F6D110BD884210B536
:1056F00001EB020402D98442234607D8431EA1428B
:1057000008D011F8012B03F8012FF8E701460244F5
:105710008A4200D110BD13F8014D02F8014DF7E7A0
:1057200038B50546002940D051F8043C0C1F002B29
:10573000B8BFE41800F010F91C4A136833B963606D
:1057400014602846BDE8384000F00CB9A34208D9DF
:10575000206821188B4201BF19685B680918216015
:10576000EDE71A465B680BB1A342FAD911685018ED
:10577000A0420BD120680144501883421160E0D14F
:1057800018685B68014411605360DAE702D90C23A2
:105790002B60D6E7206821188B4201BF19685B682F
:1057A0000918216063605460CBE738BD4898012038
:1057B00070B50E4E0C463168054611B900F0BCF8C4
:1057C00030602146284600F0B7F8431C0AD0C41CBC
:1057D00024F00304A04207D0211A284600F0ACF8B8
:1057E000013001D14FF0FF34204670BD4C980120AC
:1057F0002DE9F041CD1C25F0030508350C2D38BFEF
:105800000C25002D074601DBA94205D90C230026F3
:105810003B603046BDE8F0812E4E00F09DF83368C5
:105820001C4634BB29463846FFF7C2FF431C0446DA
:105830004DD134682646002E40D123683146384683
:1058400004EB030800F078F880453AD1216803356D
:105850006D1A25F0030508350C2D38BF0C25384688
:105860002946FFF7A5FF01302BD023682B44236086
:105870000EE02268521B1ED40B2A16D96119A342CE
:10588000256018BF5960636808BF316062514B6082
:10589000384604F10B0600F065F826F00706231DD4
:1058A000F21AB6D09B1BA350B3E76268A3420CBFA9
:1058B00032605A60ECE723466468B2E734467668A3
:1058C000B9E70C2338463B6000F04CF8A1E72560AF
:1058D000DEE700BF489801202DE9F04180461446DC
:1058E0000E4621B91146BDE8F041FFF781BF2AB944
:1058F000FFF716FF25462846BDE8F08100F038F88E
:105900008442074602D8B4EB500F12D821464046D5
:10591000FFF76EFF05460028EDD0BC422246314617
:1059200028BF3A46FFF792FB31464046FFF7F8FEA4
:10593000E1E73546DFE7000038B50023054D0446B2
:1059400008462B60FDF73EFC431C02D12B6803B1D7
:10595000236038BD50980120014800F011B800BF05
:1059600054980120014800F00CB800BF5498012061
:1059700051F8043C181F002BBCBF0B58C0187047CF
:105980007047704725303878000000004A756C2059
:10599000313620323032320031323A35383A313015
:1059A00000000000200000000100000021000000B5
:1059B00001000000220000000100000023000000A0
:1059C00001000000232D302B2000686C4C00656620
:1059D0006745464700303132333435363738394140
:1059E0004243444546003031323334353637383956
:1059F0006162636465660000F8B500BFF8BC08BC6E
:105A00009E467047F1004000F8B500BFF8BC08BCE6
:085A10009E467047CD004000E6
:105A180030B5204C83B0A0420CBF4FF4800C4FF43B
:105A2800900C069D93B386460068C9B241F0B44114
:105A380040F48030CEF80000CEF80410DEF80810EC
:105A48000191019810F00100F8D165B10CEB8505C2
:105A5800ACF10401043BA5F1040C51F8044F614575
:105A680043F8044FF9D1D2B242F0B442CEF8042040
:105A7800DEF808300193019BDB07F9D5DEF800302A
:105A880023F48033CEF8003003B030BD022003B0D9
:105A980030BD00BF000A0E400160704782B041600F
:105AA80083680193019BDB07FAD5019800F00E008B
:105AB80002B07047A08601003030303030303030CE
:105AC80030303030444541444245454600000000EE
