:03000000020006F5
:03005F0002000399
:030003000200B543
:20006200AF82C28E740F55894420F5894387808F8B8F8DD28E75985222AF82209F0D209E9E
:200082000A7582FFC007120062D007BF0A0810990280FB75990D10990280FB8F9922209F0B
:2000A20009209E067582FF12006210980280FB859982227582F81200625390FE75820A12C9
:2000C200007BE5B0C4235407FF24FA4024EF2F9000D573800A800B800C800D800E800F12F8
:1600E2000D73120C96120B72121AD01200F81219A51200A080FE3F
:2000F800C008E581F5082423F581E5082414FFA80808A607087600087640E5082404FBFA31
:200118007D007E40C007C0037410C0E0C0E0A80808E6C0E008E6C0E008E6C0E08A828D83C8
:200138008EF0121087AD82AE83E58124FBF581D003D007ED4E60B3439001A80808A60708EC
:2001580076000876408B048C027C007F40C003A80808E6C0E008E6C0E008E6C0E08A828C46
:20017800838FF0120A1A158115811581D0035390FE7F007E407410C0E08B828F838EF012A9
:0D01980011A81581020102850881D00822FE
:2001A500E582FF25E0FEEF23540175F01BA46EF58222C008E581F5082405F581A8080808B5
:2001C500A68208A68308A6F0E5082405F87600A8080808E5082405F9E726FAE40836FB08A4
:2001E50086078A828B838FF0A80808121CA1F6E50824FBF8E5082405F9E726FCE40836FD1C
:200205000886068C828D838EF0121CA1FCA80808E662048A828B838FF0EC121B7DE508249A
:2002250005F806E5082405F8B6100040A2850881D00822AD82AE83AFF07C00EC2DF9E43E49
:20024500FA8F0389828A838BF0121CA1901CC193F889828A838BF0121B7D0CBC100040DB83
:2002650022C008858108C082C083C0F0E5812404F581A80808740126FAE40836FB0886044C
:200285008A828B838CF0E5082407F8121CA1F6A80808E5082404F9740526F7E4083609F770
:2002A5000809E6F7E5082404F886820886830886F0121CA18A828B838CF0121B7DA80808E0
:2002C500740926FDE40836FE0886078D828E838FF0121CA1FCE5082404F88682088683082C
:2002E50086F0EC121B7DA80808E5082404F9740D26F7E4083609F70809E6F7E5082404F86C
:2003050086820886830886F0121CA18D828E838FF0121B7DE5082404F88682088683088675
:20032500F0E5082407F9E7121B7DA80808740226FDE40836FE0886078D828E838FF0E50894
:200345002407F8121CA1F6A80808E5082404F9740A26F7E4083609F70809E6F7E50824042A
:20036500F886820886830886F0121CA18D828E838FF0121B7DE5082404F8868208868308A3
:2003850086F0E5082407F9E7121B7DA80808740626FDE40836FE0886078D828E838FF0E5B2
:2003A500082407F8121CA1F6A80808E5082404F9740E26F7E4083609F70809E6F7E50824C2
:2003C50004F886820886830886F0121CA18D828E838FF0121B7DE5082404F8868208868347
:2003E5000886F0E5082407F9E7121B7DA80808740326FDE40836FE0886078D828E838FF032
:20040500E5082407F8121CA1F6A80808E5082404F9740F26F7E4083609F70809E6F7E5089F
:200425002404F886820886830886F0121CA18D828E838FF0121B7DA80808740B26FDE408A2
:2004450036FE0886078D828E838FF0121CA1FCE5082404F886820886830886F0EC121B7D2A
:20046500A80808E5082404F9740726F7E4083609F70809E6F7E5082404F8868208868308DB
:2004850086F0121CA18D828E838FF0121B7DE5082404F886820886830886F0E5082407F914
:2004A500E7121B7D850881D00822C008858108C082C083C0F0E5812411F581E5082412F867
:2004C5007600E5082412F8E5082409F9E675F004A4F709A7F0A80808E5082409F9E726C051
:2004E500E009E70836C0E008E6C0E0E5082407F8D0E0F618D0E0F618D0E0F6E5082405F87B
:2005050086820886830886F0E5082404F9121CA1F7E5082409F8740126FDE40836FFA808F0
:2005250008E508240BF9ED26F7EF083609F70809E6F7E508240BF886820886830886F012B7
:200545001CA1FCE5082404F8E5082408F9EC66F7E5082409F8740226FBE40836FCA80808F6
:20056500EB26FBEC0836FC0886028B828C838AF0121CA1FFE5082408F8E508240EF9EF66D2
:20058500F7E5082409F8740326FDE40836FEA80808E508240FF9ED26F7EE083609F708097B
:2005A500E6F7E508240FF886820886830886F0121CA1FFE508240EF8E66207E5082413F85A
:2005C500A607E5082404F88606E5082414F8A606E5082408F886058D82C004C003C0021201
:2005E50001A5AE82D002D003D0048E05E5082405F886820886830886F0121CA1FEE5082491
:2006050013F8E66D6206E5082405F886820886830886F0EE121B7DE508240BF88682088628
:20062500830886F0121CA1FF8B828C838AF0121CA162078F058D82C004C003C0021201A574
:20064500AF82D002D003D0048F05E508240BF886820886830886F0121CA1FFE5082413F8C2
:20066500E66D6207E508240BF886820886830886F0EF121B7D8B828C838AF0121CA1FFE52C
:2006850008240FF886820886830886F0121CA162078F058D82C004C003C0021201A5AF827E
:2006A500D002D003D0048F058B828C838AF0121CA1FFE5082413F8E66D62078B828C838A46
:2006C500F0EF121B7DE508240FF886820886830886F0121CA1FFE5082414F8E662078F050F
:2006E5008D821201A5AF828F05E508240FF886820886830886F0121CA1FFE5082413F8E6EA
:200705006205ED6207E508240FF886820886830886F0EF121B7DE5082412F806E50824128B
:20072500F8B6040050030204C7850881D00822C008858108C082C083C0F0E5812413F581BC
:20074500A80808740D26FAE40836FB088604E50824FDF8E5082404F9E624C1F7E4341D0978
:20076500F7A80808E5082406F9740E26F7E4083609F70809E6F7A80808E5082409F9740FB8
:2007850026F7E4083609F70809E6F7A80808E508240CF9740C26F7E4083609F70809E6F7AC
:2007A500E5082412F904F8C000E508240FF8740229F6E5082410F8740329F6E5082416F8E1
:2007C5007600D000C000E5082416F8E6D00060030208538A828B838CF0121CA1901CC19314
:2007E500FEC000E5082404F88682088683E493FD6EF7E5082406F886820886830886F0127F
:200805001CA1FED000EE901CC193F6C000E5082409F886820886830886F0121CA1901CC1BF
:2008250093FEE508240FF88600A606E508240CF886820886830886F0121CA1901CC193FE5F
:20084500E5082410F88600A606D000020908C002C003C004C000E5082416F886057E00D064
:20086500001DBDFF011EEECD25E0CD33CD25E0CD33FEC000A80808ED26FAEE0836FB0886B1
:20088500048A828B838CF0121CA1F774012DFBE43EFCA80808EB26FBEC0836FC088602D0EE
:2008A500008B828C838AF0121CA1F674022DFBE43EFCC000A80808EB26FBEC0836FC0886E4
:2008C500028B828C838AF0121CA1FBE508240FF88600A60374032DFDE43EFEA80808ED26DE
:2008E500FDEE0836FE0886048D828E838CF0121CA1FDE5082410F88600A605D000D004D014
:2009050003D002C002C003C004C000E5082416F8E675F004A4FDAEF0A80808ED26FAEE088C
:2009250036FB0886048A828B838CF0E5082411F8121CA1F68707E5082411F8E662078A8277
:200945008B838CF0EF121B7D74012DFCE43EFFA80808EC26FCEF0836FF0886038C828F830D
:200965008BF0E5082411F8121CA1F6D0008602C000E5082411F8E662028C828F838BF0EA17
:20098500121B7D74022DFCE43EFFA80808EC26FCEF0836FF0886038C828F838BF0E50824B9
:2009A50011F8121CA1F6E508240FF886008602E5082411F8E662028C828F838BF0EA121B28
:2009C5007D74032DFDE43EFEA80808ED26FDEE0836FE0886078D828E838FF0121CA1FCE5FE
:2009E500082410F88600E6FB62048D828E838FF0EC121B7DE5082416F806E5082416F8B6C2
:200A05000400D000D004D003D00250030207C9850881D00822C008858108C082C083C0F04C
:200A2500E5812410F581E5082404FC7B00EB2CF9E50824FBF8EB26FAE40836FE0886078AB7
:200A4500828E838FF0121CA1FAF70BBB100040DD8C038B027B007F40C004C002C003C00766
:200A6500A8080886820886830886F01201B7158115811581D0048C078C067D01C004A808AB
:200A85000886820886830886F0C007C006C005C004120238A8080886820886830886F012EF
:200AA5000266A8080886820886830886F01204AFD004D005D006D0078F027B007C40C007D0
:200AC500C006C005C004C0058A828B838CF01207341581D004D005D0068E027B007C40C07E
:200AE50006C005C004C002C003C004A8080886820886830886F01201B7158115811581D06E
:200B050004D005D006D0070DBD0A00D0045003020A81A8080886820886830886F0C005C0EE
:200B250004120238A8080886820886830886F0120266D004D0058C077E007B40C004C00599
:200B45008F828E838BF012073415817F007E40C007C006A8080886820886830886F01201E4
:0D0B6500B7158115811581850881D0082202
:201CC100637C777BF26B6FC53001672BFED7AB76CA82C97DFA5947F0ADD4A2AF9CA472C088
:201CE100B7FD9326363FF7CC34A5E5F171D8311504C723C31896059A071280E2EB27B2754E
:201D010009832C1A1B6E5AA0523BD6B329E32F8453D100ED20FCB15B6ACBBE394A4C58CF76
:201D2100D0EFAAFB434D338545F9027F503C9FA851A3408F929D38F5BCB6DA2110FFF3D204
:201D4100CD0C13EC5F974417C4A77E3D645D197360814FDC222A908846EEB814DE5E0BDB54
:201D6100E0323A0A4906245CC2D3AC629195E479E7C8376D8DD54EA96C56F4EA657AAE0836
:201D8100BA78252E1CA6B4C6E8DD741F4BBD8B8A703EB5664803F60E613557B986C11D9E4C
:201DA100E1F8981169D98E949B1E87E9CE5528DF8CA1890DBFE6426841992D0FB054BB16EC
:0B1DC1000001020408102040801B36C7
:200B7200C008E581F5082404F5817F007E007D004390017B007C00E5082403F876C808768D
:200B920000A80808A60608A605A8080806B600020806E5082403F8E624FFFD08E634FFFE77
:200BB200E5082403F8A60508A606ED4E70DBA8080886060886050BBB00010CC3EB94C8EC92
:200BD200940040B35390FE0F8F057E00C007A80808E6C0E008E6C0E074C8C0E0E4C0E0C0C7
:200BF20003C004C005C00674CCC0E0741DC0E0121B98E58124F6F581D007020B7E85088155
:030C1200D00822E5
:0E1DCC0025753A2025752025752025750A00FD
:200C1500C008858108058105810581AD82AE83AFF07B007C00A80808EB2DF6EC3E08F6086B
:200C3500A607C005C006C007C006C005C004C0031200A0AF82D003D004D005D006A80808A1
:200C550086820886830886F0EF121B7DBF0D028008D007D006D0058017D007D006D005A8B6
:200C7500080886820886830886F0E4121B7D80070BBB00A10C809E8B828C83850881D00810
:200C950022C008E581F5082420F58174E6C0E0741DC0E0121B9815811581740FC0E0741E67
:200CB500C0E0121B9815811581AF080F8F047D007E408C828D838EF0C007120C15D007434A
:200CD50090017D017E007B007C00EB24DAF582EC341DF583E493FA602CC005C006EB2FF9CB
:200CF500E7FEB50206D006D005800AD006D0057D007E0080100BBB00010CC3EB9420EC644D
:200D150080948040C55390FEED4E60267434C0E0741EC0E0121B98158115817447C0E07449
:200D35001EC0E0121B981581158143A02053A0EF8024745BC0E0741EC0E0121B9815811555
:1E0D5500817472C0E0741EC0E0121B981581158153A0DF43A01080FE850881D008220B
:201DDA00547230756234646F7226330057656C636F6D6520746F20796F7572203837433585
:201DFA0031206C6F67696E2C205B757365726E616D655D0A00506C6561736520656E7465CB
:201E1A007220686967682D656E74726F70792070617373776F72643A0A0050617373776FE4
:201E3A00726420636865636B204F4B0A004C617374206C6F67696E3A205B74696D655D0A38
:201E5A000050617373776F726420636865636B204641494C45440A005265706F7274696ED5
:191E7A006720696E636964656E7420746F20706F6C6963652E2E2E0A0047
:200D73007E007F00C007C006C006C0077493C0E0741EC0E0121B98E58124FCF581D006D009
:080D9300070EBE00DF0F80DC3B
:0C1E930054657374696E672025640A00B2
:200D9B00C008858108C082C083C0F0058105810581A8080886820886830886F07472121B39
:200DBB007DE5082404F8E4F608F6E50824FAF886027F00E5082404F8C3E69A08E664808FFB
:200DDB00F063F08095F04003020E7AE50824FBF8E5082404F9E726FA09E70836FB0886040F
:200DFB008A828B838CF0121CA1FAC4540FFDE5082406F8740F5AF6E5082404F8860208E6F0
:200E1B00CA25E0CA33FB74012AFCE43BFFA80808EC26FCEF0836FF088606ED901E9F93FDE7
:200E3B008C828F838EF0121B7D74022AFAE43BFBA80808EA26FAEB0836FB088607E508240F
:200E5B0006F8E6901E9F93FE8A828B838FF0121B7DE5082404F806B600020806020DC5E5E0
:200E7B000824FAF8E675F002A42401FEE435F0FFA80808EE26FEEF0836FF0886058E828FF5
:200E9B00838DF0740A121B7D850881D00822C008858108C082C083C0F0058105817B007CF9
:200EBB0000E50824FAF886027F00C3EB9AEC64808FF063F08095F040030210818B02ECCA05
:200EDB0025E0CA33FF74012AFDE43FFEC003C004A80808ED26FDEE0836FC0886068D828C93
:200EFB00838EF0E5082404F8121CA1F674022AFAE43FFFA80808EA26FAEF0836FF088606C6
:200F1B008A828F838EF0E5082405F8121CA1F6E5082405F8C3743996D004D0034023E5083C
:200F3B0024FBF8EB26FDEC0836FE088607E5082405F8E624D0FA8D828E838FF0121B7D8009
:200F5B0052E5082405F8E624B94025E50824FBF8EB26FDEC0836FE088607E5082405F8868B
:200F7B000274C92AFA8D828E838FF0121B7D8023E50824FBF8EB26FDEC0836FE088607E553
:200F9B00082405F8860274A92AFA8D828E838FF0121B7DE5082404F8E624C6403DE5082490
:200FBB00FBF8EB26FDEC0836FE0886078D828E838FF0121CA1FAC003C004E5082404F8E676
:200FDB0024D0C454F0FCEA42048D828E838FF0EC121B7DD004D003021079E5082404F8E674
:200FFB0024B9403EE50824FBF8EB26FDEC0836FE0886078D828E838FF0121CA1FAC003C0C1
:20101B0004E5082404F8860474C92CC454F0FCEA42048D828E838FF0EC121B7DD004D003A1
:20103B00803CE50824FBF8EB26FDEC0836FE0886078D828E838FF0121CA1FAC003C004E536
:20105B00082404F8860474A92CC454F0FCEA42048D828E838FF0EC121B7DD004D0030BBBA4
:20107B0000010C020EBC850881D00822C008858108C082C083C0F0E5812422F581E4FCFB6C
:20109B00E5082404FAEC2AF9C004C003C002C0011200A0E582D001D002D003D004F7EB7058
:2010BB00198707BF6B057B020C80DA8707BF7002800302119F7B010C80CBBB0103EB80016A
:2010DB00E4FD6009E50824FAF886078007E50824F9F88607EF2FFE04FFC3EC9F5032EC2A00
:2010FB00F98706BE30004005EE24C6501FEC2AF98706BE41004005EE24B95010BE6100505B
:20111B000302119FEE2499500302119F0C0210A0ECB50770EC2AF98707BF0A028003BF0DC2
:20113B0063ED60308A077E007D40E50824FAF8E6C0E0A80808E6C0E008E6C0E008E6C0E005
:20115B008F828E838DF0120EA9E58124FCF58190000180337F007E40E50824F9F8E6C0E007
:20117B00E50824FBF8E6C0E008E6C0E008E6C0E08A828F838EF0120EA9E58124FCF58190BD
:20119B0000008003900000850881D00822C008858108C082C083C0F0E5812422F581E508FF
:2011BB0024FDF8E625E0FC0C0CE5082404FBFA7E007F40C004C003E50824FDF8E6C0E0A8FA
:2011DB000808E6C0E008E6C0E008E6C0E08A828E838FF0120D9BE58124FCF581D003D00449
:2011FB007F00C3EF9C5017EF2BF98782C007C004C00312007BD003D004D0070F80E485082B
:04121B0081D0082254
:101E9F003031323334353637383941424344454691
:20121F00C008858108C082C083C0F0E5812442F581E5082416F9E5082432F8E4F608F60827
:20123F00F608F6E5082432F8E625E0FA08E633FB08E633FC08E633FFEA2AFAEB33FBEC33DC
:20125F00FCEF33FFEA29F87600087600087600087600E5082404F8A60208A60308A6040837
:20127F00A607E5082436F8E4F608F608F608F6E5082404F8E629F8C0018602088603088613
:20129F0004088607181818C000E5082408F8080808A60418A60318A602187600E508240497
:2012BF00F8C001E5082436F9E726FC09E70836FD09E7083609E70836D001A80808EC26FCEF
:2012DF00ED0836FD0886068C828D838EF0121CA1FCE4FFFEFDE5082408F8E6420408E64281
:2012FF000708E6420608E64205D000A60408A60708A60608A605181818E5082436F806B684
:20131F00000C0806B600070806B600020806E5082436F8C3E6940408E6940008E694000877
:20133F00E69400D001500302128EE5082432F806B6000C0806B600070806B600020806E5C7
:20135F00082432F8C3E6940208E6940008E6940008E694005003021242E508241EF8C000C3
:20137F00E5082432F8E4F608F608F608F6D000C001C000E5082432F8E625E0FA08E633FBB2
:20139F0008E633FE08E633FFEA2AFAEB33FBEE33FEEF33FFD000EA28C000F87600087600FA
:2013BF00087600087600E5082408F8A60208A60308A60608A607E5082436F8E4F608F60820
:2013DF00F608F6D000D001C001C001E5082408F9E728FFD001C000A80786030886040886CE
:2013FF0005088606E5082404F8080808A60518A60418A603187600E5082408F8C001E50895
:20141F002436F9E726FA09E70836FC09E7083609E70836D001E50824FBF8EA26FAEC0836C4
:20143F00FC0886058A828C838DF0121CA1FAE4FEFDFCE5082404F8E6420208E6420608E667
:20145F00420508E64204A807A60208A60608A60508A604E5082436F806B6000C0806B600B7
:20147F00070806B600020806E5082436F8C3E6940408E6940008E6940008E69400D000D0CC
:20149F000150030213E6C000E5082432F806B6000C0806B600070806B600020806E508246B
:2014BF0032F8C3E6940408E6940008E6940008E69400D000500302138EC001E508240CF97F
:2014DF00740428F7E5082404F9740828F7E5082408F9740C28F7D001C000E508242EF8E450
:2014FF00F608F608F608F6E5082432F87620E408F608F608F6D000C000E508242EF874B93A
:20151F0026F674790836F674370836F6749E0836F6E508240DF8740429F6E508240DF8C0C7
:20153F0001E508240EF98600E6F708E609F708E609F708E609F7181818E508240EF8E508FA
:20155F002412F90808E60909F708E6C454F0C7C4C767C754F0C76709F71818E6C4540F1900
:20157F0047F718E61919F708E6C454F0C7C4C767C754F0C76709F7D001D000860208860345
:20159F00088606088607181818C000E5082412F8EA26FAEB0836FBEE0836FEEF0836FFE577
:2015BF0008243AF8A60208A60308A60608A607E508240EF8C001E508242EF9E726FC09E7E3
:2015DF000836FD09E70836FE09E70836FFD001D000C000C000E508243EF8A60408A605088B
:2015FF00A60608A607E508240EF8C001E5082412F9E6F708E6C403C7C403540767C7540773
:20161F00C767C709F708E6C40354F847F7E609F708E6C403C7C403540767C75407C767C775
:20163F0009F7D001E508240CF886008604088605088606088607181818E5082412F8EC2664
:20165F00FCED0836FDEE0836FEEF0836FFE5082442F8A60408A60508A60608A607E50824CF
:20167F0012F8E7F609E708F609E708F609E708F6191919E508243AF8C001E508243EF9E71C
:20169F0066FC09E70866FD09E70866FE09E70866FFD001E5082442F8E6620408E6620508F0
:2016BF00E6620608E66207E5082412F8EC26F6ED0836F6EE0836F6EF0836F6E5082412F8C2
:2016DF00E6F70908E6F70908E6F70908E6F7191919E5082412F8C001E508240EF90808E60F
:2016FF000909F708E6C454F0C7C4C767C754F0C76709F71818E6C4540F1947F718E6191916
:20171F00F708E6C454F0C7C4C767C754F0C76709F7E5082404F88600860408860508860687
:20173F00088607181818E508240EF8EC26FCED0836FDEE0836FEEF0836FFE508243AF8A621
:20175F000408A60508A60608A607E5082412F8E508242EF9E726FC09E70836FD09E7083695
:20177F00FE09E70836FFE508243EF8A60408A60508A60608A607E5082412F808E618C4032A
:20179F00C6C403540766C65407C666C608F608E6C40354F81846F60808E618C403C6C40314
:2017BF00540766C65407C666C608F6E5082408F88600860208860308860608860718181817
:2017DF00E5082412F8EA26FAEB0836FBEE0836FEEF0836FFE5082442F8A60208A60308A6F9
:2017FF000608A607E508240DF8E5082412F98600E6F708E609F708E609F708E609F7181880
:20181F0018E508243AF8E508243EF9E766FA09E70866FB09E70866FE09E70866FFD001E5F7
:20183F00082442F8E6620208E6620308E6620608E66207E5082412F8EA26FAEB0836FBEEA2
:20185F000836FEEF0836FFE508240DF88600A60208A60308A60608A607181818E508243218
:20187F00F816B6FF0C0816B6FF070816B6FF020816D000E5082432F8E6084608460846D002
:20189F00006003021516E5082432F8E4F608F608F608F6E5082432F8740356FAE4EAC403F3
:2018BF0054F8FAE508243AF87418C39AF6A80808C001E5082432F9E726C0E009E70836C051
:2018DF00E008E6C0E0E5082414F8D0E0F618D0E0F618D0E0F6D001E5082432F8080808E632
:2018FF00C313FF18E613FC18E613FB18E613FAEFC313FFEC13FCEB13FBEA1325E0FAEB33FE
:20191F00FBEC33FCEF33FFEA2AFAEB33FBEC33EF33EA29FFA8078604088605088606088609
:20193F0007E508243AF886F005F0800DC3EF13FFEE13FEED13FDEC13FCD5F0F0E4FDFEFFF8
:20195F00E5082412F886820886830886F0EC121B7DE5082432F806B6000C0806B60007084A
:20197F0006B600020806E5082432F8C3E6940808E6940008E6940008E6940050030218B257
:20199F00850881D00822C008E581F508241BF581E508240CFFA80808A60708760008764083
:2019BF00E5082404FBFA7D007E40C007C0037410C0E003C0E0A80808E6C0E008E6C0E0089E
:2019DF00E6C0E08A828D838EF0121087AD82AE83E58124FBF581D003D007ED4E60B24390FA
:2019FF0001A80808A6070876000876408B048C027C007F40C003A80808E6C0E008E6C0E03F
:201A1F0008E6C0E08A828C838FF012121F158115811581D0035390FE7F007E407408C0E06D
:141A3F008B828F838EF01211A815810219AF850881D00822C3
:201A5300C008858108C082C083C0F005810581E5082405F87600A80808E5082405F9E72604
:201A7300FAE40836FB0886078A828B838FF0E5082404F8121CA1F6E50824FBF8E508240522
:201A9300F9E726FCE40836FD0886068C828D838EF0121CA1FCE5082404F8E662048A828B27
:201AB300838FF0EC121B7DE5082405F806E5082405F8B61000409F850881D00822C008E5FF
:201AD30081F5082423F581E5082414FFA80808A607087600087640E5082404FBFA7D007EEE
:201AF30040C007C0037410C0E0C0E0A80808E6C0E008E6C0E008E6C0E08A828D838EF0123F
:201B13001087AD82AE83E58124FBF581D003D007ED4E60B3439001A80808A6070876000809
:201B330076408B048C027C007F40C003A80808E6C0E008E6C0E008E6C0E08A828C838FF0CD
:201B5300121A53158115811581D0035390FE7F007E407410C0E08B828F838EF01211A8159F
:0A1B730081021ADA850881D00822E9
:06003500E4787FF6D8FD1F
:200013007900E94400601B7A00901EAF780175A000E493F2A308B8000205A0D9F4DAF275C6
:02003300A0FF2C
:1B1B7D0020F71130F6138883A88220F509F6A8837583002280FEF280F5F02267
:201B9800C008858108E50824FDF8868318868218E493A324DB600C24256005121C8680F0B9
:201BB800021C9ED2D5E493A3C083C082B4731486F018868318868218121CA16054A3121CAD
:201BD8008680F5B4630818E618121C868043B46417E630E74618E6F42401F608E6F43400B1
:201BF800F6742D121C868033B4782D868318868218E4121C77E583121C76E583121C77E5AE
:201C180082121C76E582121C7730D5057430121C86D082D083021BA8B475F6E6FA18E6F9B8
:201C3800187C107D27121C61FF7CE87D03121C61C4F5837C647D00121C614283E975F00AFE
:201C580084C445F0F582EF80A97B000BC3E99CF9EA9DFA50F61BE92CF9EA3DFAEB22C45463
:201C78000F700320D51FC2D52490D43440D4C083C082C0F0F582E8C0E012007BD0E0F8D016
:091C9800F0D082D08322D0082292
:20003B007800E84400600A790175A000E4F309D8FC7800E84400600C7900900001E4F0A3C3
:04005B00D8FCD9FAFA
:0D000600758108121CBDE582600302000335
:1C1CA10020F71430F6148883A88220F507E6A88375830022E280F7E49322E02252
:041CBD00758200220A
:00000001FF
