:020000040040BA
:10000000A8110020F1144000ED144000ED14400050
:10001000ED144000ED144000ED144000000000001D
:10002000000000000000000000000000ED1440008F
:10003000ED14400000000000ED144000ED144000FD
:10004000ED144000ED144000ED144000ED144000AC
:10005000ED144000ED144000ED14400000000000DD
:10006000ED144000ED14400000000000ED144000CD
:10007000ED14400000000000ED144000ED144000BD
:100080000000000000000000ED144000ED144000EE
:10009000ED144000ED144000ED144000ED1440005C
:1000A000ED144000ED1440000000000000000000CE
:1000B00000000000ED144000ED144000ED1440007D
:1000C000ED144000ED144000ED1440000348044BD3
:1000D000834202D0034B03B118477047901D400084
:1000E000901D400000000000054806490B1AD90F7A
:1000F00001EBA301491002D0034B03B1184770472D
:10010000901D4000901D40000000000010B5064CFE
:10011000237843B9FFF7DAFF044B13B10448AFF378
:1001200000800123237010BD0400002000000000A7
:10013000901D400008B5044B1BB104490448AFF3BF
:100140000080BDE80840CFE7000000000800002064
:10015000901D400010B5013A52B2130601D500209F
:1001600010BD50F8224051F822309C4205D802F1CF
:10017000FF32F2D24FF0FF30F2E70120F0E700004B
:1001800000230B4AF0B51F4642F80479C61818211F
:1001900016F8014B04FA01F5546808392C4311F1A3
:1001A000080F5460F4D10433202BEDD10020F0BDB2
:1001B0008001002000230B4AF0B51F4642F8047965
:1001C000C618182116F8014B04FA01F554680839CD
:1001D0002C4311F1080F5460F4D10433202BEDD1DE
:1001E0000020F0BDA00100200020704738B5024675
:1001F0000A480021551818230468DC40083B13F115
:10020000080F05F8014BF7D104312029A0F10400B3
:10021000F0D1034B72209847002038BD40010020E8
:100220004913400038B502460A48002155181823E2
:100230000468DC40083B13F1080F05F8014BF7D1C7
:1002400004312029A0F10400F0D1034B722098471B
:10025000002038BD600100204913400030B503463E
:10026000002010C920CA641910C310C920CA6C41EB
:1002700010C310C920CA6C4110C310C920CA6C41F8
:1002800010C310C920CA6C4110C310C920CA6C41E8
:1002900010C310C920CA6C4110C310C920CA6C41D8
:1002A00010C3404130BD30B5002310C920CA641BC3
:1002B00010C010C920CAAC4110C010C920CAAC413E
:1002C00010C010C920CAAC4110C010C920CAAC412E
:1002D00010C010C920CAAC4110C010C920CAAC411E
:1002E00010C010C920CAAC4110C05B41B3FA83F002
:1002F000400930BD082B2DE9F04F40F00281F0CAD3
:1003000051F804EBA4FB0E8940F8048B4FF0000A6F
:10031000E5FB6E9A4FF0000BE6FB6EAB4FF0000C66
:10032000E7FB6EBC51F804EB4FF00008E4FB6E896C
:1003300040F8048BE5FB6E9AE6FB6EABE7FB6EBC08
:1003400051F804EB4FF00008E4FB6E8940F8048B91
:10035000E5FB6E9AE6FB6EABE7FB6EBC51F804EB77
:100360004FF00008E4FB6E8940F8048BE5FB6E9AC1
:10037000E6FB6EABE7FB6EBC51F804EB4FF00008F8
:10038000E4FB6E8940F8048BE5FB6E9AE6FB6EABEE
:10039000E7FB6EBC51F804EB4FF00008E4FB6E89FC
:1003A00040F8048BE5FB6E9AE6FB6EABE7FB6EBC98
:1003B00051F804EB4FF00008E4FB6E8940F8048B21
:1003C000E5FB6E9AE6FB6EABE7FB6EBC51F804EB07
:1003D0004FF00008E4FB6E8940F8048BE5FB6E9A51
:1003E000E6FB6EABE7FB6EBC40F8049B40F804AB49
:1003F00040F804BB40F804CBA0F12000A1F120019B
:10040000F0CA51F804EBD0F800804FF00009E4FB8B
:100410006E8940F8048B4FF0000AE5FB6E9A4FF0AE
:10042000000BE6FB6EAB4FF0000CE7FB6EBC51F827
:1004300004EBD0F80080E4FB6E8940F8048BE5FB08
:100440006E9AE6FB6EABE7FB6EBC51F804EBD0F89E
:100450000080E4FB6E8940F8048BE5FB6E9AE6FBB6
:100460006EABE7FB6EBC51F804EBD0F80080E4FB08
:100470006E8940F8048BE5FB6E9AE6FB6EABE7FBFA
:100480006EBC51F804EBD0F80080E4FB6E8940F8B4
:10049000048BE5FB6E9AE6FB6EABE7FB6EBC51F896
:1004A00004EBD0F80080E4FB6E8940F8048BE5FB98
:1004B0006E9AE6FB6EABE7FB6EBC51F804EBD0F82E
:1004C0000080E4FB6E8940F8048BE5FB6E9AE6FB46
:1004D0006EABE7FB6EBC51F804EBD0F80080E4FB98
:1004E0006E8940F8048BE5FB6E9AE6FB6EABE7FB8A
:1004F0006EBC40F8049B40F804AB40F804BB40F8E5
:1005000004CBBDE8F08F002310B51C465AB29142CF
:1005100000DC10BD40F823400133F7E710B500239D
:100520001A465CB2A14203DCB2FA82F0400910BD67
:1005300050F8234001332243F3E74A11012350F8D6
:10054000220001F01F0103FA01F10840704700008A
:100550002DE9F047B3F902A0DFF850901AF11F0619
:1005600048BF0AF13E060F4603F1240546F347163D
:100570000146904633462A463846C847044688B95D
:10058000BAEB461F06DA084B514638469847041E18
:1005900018BF012433462A4639464046C8472046FC
:1005A000BDE8F0870124F5E73B0540005D0240000F
:1005B000013910B5024649B2041D0806CBB204D475
:1005C000013954F821000028F7D0013358B250B156
:1005D00000F18043013B52F82320002322B9013867
:1005E00003EB401000B210BD52080133F6E710B51E
:1005F00000235CB2A24200DC10BD51F8234040F859
:1006000023400133F5E700002DE9F043684B694FC3
:10061000DFF8A88189B008220C4606469847CB6AC5
:1006200003930B6B04934B6B05938B6B0693CB6B14
:1006300007934FF0000908236A4669466846CDE9EA
:100640000199CDF80090B847082305466A4631461F
:100650003046B847236B0393636B0493A36B0593F6
:10066000E36B0544CDE906396A46082369466846C6
:10067000B847082305446A4631463046B847236ADE
:100680000093636A0193A36A0293A36B0693E36BDF
:100690000793054408236A4631463046CDE904995C
:1006A000CDF80C90B847636A0093A36AA26B0193DC
:1006B000E36A02930492636BE26B0393CDE9052333
:1006C000236A0793054408236A4631463046B847F3
:1006D000E36A0093236B0193636B0293236A06938F
:1006E000A36A0793054408236A4631463046CDE99C
:1006F0000499CDF80C90C047236B0093636B019372
:10070000A36B0293E36B0393636A0693E36A079315
:100710002D1A08236A4631463046CDE90499C04770
:10072000636B0093A36B0193E36B0293236A0393C0
:10073000636A0493A36ACDE90539236B07932D1AE5
:1007400008236A4631463046C047A36B0093E36BEB
:10075000CDE90139636A0393A36A0493E36ACDE99F
:100760000539636B07932D1A08236A4631463046D4
:10077000C0472C1A454610D40F4FDFF844802CB9DF
:10078000082231463846C04701280ED008233A4691
:1007900031463046A847241AF1E7074D08232A4678
:1007A00031463046B8472418F8D409B0BDE8F08384
:1007B000EF0540005D024000B01C4000A702400071
:1007C0005501400000EB81010023884200D37047AF
:1007D00051F8042D43EA52030B60D307F5E70000FC
:1007E00070B5036813F001060546144605D00A4E9D
:1007F00013460A460146B0470646084B214628469E
:10080000984746B104F18042013A55F8223043F04E
:10081000004345F8223070BD5D024000C50740002E
:100820002DE9F0419DF918600B4F1D4633460446F3
:10083000B84730B9094B3246214628469847012827
:1008400008D021462046064C33462A46A446BDE839
:10085000F0416047BDE8F0815D0240005501400075
:10086000A70240002DE9F0419DF91860084F1D4690
:1008700033460446B84740B121462046054C33462E
:100880002A46A446BDE8F0416047BDE8F08100BFBC
:10089000A70240005D02400070B51C4690B00546BE
:1008A00093F90030044E6846B047D4F8B03069463A
:1008B0002846984710B070BDF502400010B4034CB4
:1008C0001346A4460A4610BC604700BF9908400082
:1008D0002DE9F0438BB0044615460E46144BDFF865
:1008E00060901C22002103A89847032395F90080FB
:1008F00002932A46314620462F1D0E4B98473B4611
:1009000002AA21462046CDF80080C8472B46324631
:1009100021462046084EB04721462046CDF80080AB
:10092000064C3B4605F18402A0470BB0BDE8F083BE
:10093000AD1B4000BD084000990840002108400060
:10094000650840002DE9F04790B01E4FDFF8848025
:10095000DFF88490DFF884A00D461C2200210646B3
:1009600001A8B84701241C22002109A80094B84717
:100970002946089411F9047B134C3B466A466846A5
:10098000A047124B394668469847441E24B2012CB2
:1009900007DC0F4B3A4608A93046984710B0BDE82F
:1009A000F08708A908462A46C04721466846C84736
:1009B00020B108A92B4632460846D047013C24B254
:1009C000E5E700BFAD1B40005D024000B1054000FF
:1009D000EF054000BD0840003B054000990840007D
:1009E0002DE9F04F93F9006095B004468B469A4686
:1009F00031464D4B104615469847002840F08D80F3
:100A0000DFF83481494FDFF834915246594604A843
:100A1000C047534604AA21460CA8B84704A9084673
:100A20005246C04753462A4659465846B84752464A
:100A300029462846C0470AF104032A462146204693
:100A400000960393C847039B00962A4629462846EA
:100A5000C847374F039B00962A4621462846B84789
:100A6000324F53462A4621462046B847039B0096FC
:100A7000224621462846C847039B00962A4621461F
:100A80002046C847236813F0010F4746DFF8B080BF
:100A900046D03346039ADFF8AC9021462046C8473B
:100AA000314681462046C04706F18043013B54F859
:100AB000230040EAC97044F82300214652462846E4
:100AC000B847DFF86C80039B00960CAA294628469D
:100AD000C047039B00960CAA29462846C0470CA98C
:100AE0000846039B00962A46C047DFF840902146FF
:100AF000204653460CAAC84704AA039B00962146E9
:100B00001046C047204632460A4C2946A04759465F
:100B10002846A04704A95846A04715B0BDE8F08F65
:100B200031462046C047C8E71D05400099084000EF
:100B300065084000EF054000BD0840002108400066
:100B4000C50740005D0240002DE9F04F9DB01646FC
:100B5000DDF898A0DFF8088103905446994614F90F
:100B6000045B00958B4623460246314604A8C047E5
:100B700004A952460846364FB8470399354F5346A5
:100B800004AA0846B847534604AA31463046B84737
:100B900023465A46494604A82F4F0095B847234696
:100BA0005A46494648460095C047039A0095234651
:100BB00031460CA8C047274F53460CAA5946584601
:100BC000B84723460399244F009532460CA8B847EE
:100BD0001F4F524649463046B84723460CAA314675
:100BE00030460095C047039900952346324614A825
:100BF000C047184E534614AA49464846B0472346B4
:100C00005A46494648460095C047524604A914A88A
:100C1000B84714A923460CAA08460095C047039A72
:100C20000095234614A90CA8C0470CA9534604AA52
:100C30000846B04723465A460CA958460095C04777
:100C40000398064B2A4614A998471DB0BDE8F08FBB
:100C5000BD0840009908400021084000EF05400011
:100C6000650840002DE9F04F8DB01446DDF858A01E
:100C7000DFF8BC9003935546804615F9046B009647
:100C80008B462B460246214604A8C84704A9524673
:100C90000846244B244F9847534604AA41464046F1
:100CA000B847534604AA21462046B8470399009600
:100CB0002B465A460846C84703991A4B524604A881
:100CC000984704A92B46424608460096C84704A9FF
:100CD0002B46224608460096C8472B4642462146E8
:100CE00020460096C8475346224659465846B847BC
:100CF0002B4604AA414620460096C847039953460E
:100D000022460846B847039900962B465A4608469D
:100D1000C847064B324604A9204698470DB0BDE8A7
:100D2000F08F00BFBD08400099084000EF0540006B
:100D300065084000F0B5154689B01C4606460F46CA
:100D40001A46294668460A4B984723466A46314662
:100D50003046084EB04723462A4669466846B047A3
:100D600023466A4639463846B04709B0F0BD00BF51
:100D7000BD084000990840002DE9F04F0E46A1B093
:100D8000194607461C4630463D4BDFF8FC801546A9
:100D9000984720B13846C04721B0BDE8F08F2246C1
:100DA00031466846374EDFF8E4A0DFF8E490B047FC
:100DB000294608A8B047214610A8C047012318A813
:100DC0001093C047DFF8CC80224608A96846D04778
:100DD00020B9224610A93846B047DDE7009BDA0764
:100DE00007D421466846C0472246294610A8C8476E
:100DF000EAE7089BDB0706D4214608A8C04722463D
:100E0000294618A8F3E70028DFF88CB023461BDD3D
:100E100008AA69466846D84721466846C047224620
:100E200018A910A8D047002806DA10A9DFF86CB07E
:100E300023462A460846D84710A9DFF85CB0234667
:100E400018AA0846D847CFE708A96A460846D847EF
:100E5000214608A8C047224610A918A8D047002854
:100E600006DA18A9DFF834B023462A460846D847E0
:100E700018A9DFF824B0234610AA0846D847BEE7D1
:100E80001D054000EF0540000705400055014000EA
:100E9000E1074000C5074000A70240005D02400096
:100EA0002DE9F04FB1B0CDE904013B9C654F94F9B9
:100EB000006018A8914632461D46B847B300069315
:100EC000059B03EB8603194628A80393B84794F9BA
:100ED0000080002D00F083804246294608A8B847CC
:100EE000584D594FDFF878B1424618A910A8A847C5
:100EF00028A920A8A847234608AA28A918A8B847BF
:100F0000D4F8A450234608AA28A918A8A84723461D
:100F100008AA20A910A8B847BDF9E850023D2DB293
:100F2000002D63DCD9F80050DFF83481009405F01F
:100F3000010710AB03EB4719ED4320AB03EB471759
:100F400005F0010510AB03EB451A20AB03EB45158B
:100F500004F1040B2B46524639464846C0475B46CF
:100F600010AA18A908A8DFF8FC800096C04708A9B5
:100F7000DFF8F48023463A460846C04708A9059A98
:100F800023460846C04708A933465A460846DFF8B4
:100F9000DCB0D84708A9039A23460846C04708A9E9
:100FA00023464A460846C04700943B464A462946DF
:100FB0005046264DA847234608AA20A910A8224C2F
:100FC000A04704981F4C324610A9A047049B069DD9
:100FD0002B4420A91846A04731B0BDE8F08F1C4B28
:100FE000414608A898470123089379E7194B984789
:100FF0002946194B48469847B0FA80F84FEA5818E6
:10100000C8F1010110AB03EB411A20AB03EB411116
:1010100010AB03EB481720AB03EB48183A464346A6
:10102000504600940791D8470C4B98470799009475
:101030000B4638465246054F4146013DB8472DB252
:101040006EE700BFEF054000350D4000650C400025
:1010500007054000DD1640003B054000BD1640007E
:10106000490B40006508400099084000790D400098
:10107000F0B595B004460D460D4F04A910460CAAD4
:101080001E4602910392B847B0FA80F214AB52099F
:1010900003EB82027388019601331BB20093204652
:1010A00052F8482C034C00232946A04715B0F0BD48
:1010B00051054000A10E4000F0B5002389B007A9FA
:1010C0001F4641F80479C6181822002416F8015B5F
:1010D0009540083A12F1080F44EA0504F6D10433AA
:1010E000202B4C60EDD10549054B0648064C6A465D
:1010F000A047064B9847002009B0F0BD64010020CE
:10110000AC1C40002401002071104000BD164000BE
:10111000F0B5002389B007A91F4641F80479C61825
:101120001822002416F8015B9540083A12F1080FC6
:1011300044EA0504F6D10433202B4C60EDD1064B74
:101140000648074C03F144016A46A047054B9847FF
:10115000002009B0F0BD00BFAC1C400024010020FD
:1011600071104000BD16400038B5044D441E14F8FF
:10117000010F00B938BDA847F9E700BF5D16400070
:1011800010B50748074CA0470748A0470748A047A5
:101190000748A0470748A0470748A047002010BDC0
:1011A0004C1C4000691140007E1C40008A1C40001D
:1011B0008D1C4000961C4000A71C400008B5164B33
:1011C000164C9847164B9847164B9847164B98471E
:1011D000164A20216B20A047154A20216620A047EF
:1011E000144A20216120A047134A20216220A047F1
:1011F000124A20217020A047114A20217120A047C7
:10120000104A00217820A0470F4A00216920A047FA
:101210000E4CA047FDE700BF6D15400005134000D0
:10122000F91540009D16400015134000B91040000C
:101230001111400081014000B5014000ED01400066
:1012400025024000E90140008111400015144000D2
:1012500001207047F0B500234F1C834201DB0020C2
:1012600020E017F8135011F81340A5F13006F6B23C
:10127000092E0BD8D654A4F13005EEB2092E14D89D
:10128000D45C44EA0514D4540133E6E7A5F14106E1
:10129000052E02D8373DD554EDE7A5F16106052EA0
:1012A00001D90120F0BD573DF5E7A4F14105052D19
:1012B00002D8A4F13705E3E7A4F16105052DF0D8C4
:1012C000D55C573C45EA0414DDE70000F0B50B4E51
:1012D00034680F2C0FDCFF290DD8094F07EB0415DC
:1012E0004FEA041CC5E90112013407F80C002B7306
:1012F00034600020F0BD0120FCE700BF2001002089
:101300002000002010B4024C0023A44610BC60470B
:10131000CD12400010B5084A084C00217620A047A5
:10132000074A00217720A0472346064ABDE810401F
:1013300000217920184700BF5112400005134000DA
:10134000B9134000911340002DE9F0410E4CDFF835
:101350003C8015460F46A0476E1EC5F10105AB192E
:101360009F4204DC23460A20BDE8F041184716F8E6
:10137000013F1B0918F80300A047337803F00F035F
:1013800018F80300A047EAE75D164000601D400022
:1013900007B5074B1B688DF807300DF10702054BA9
:1013A000012172209847002003B05DF804FB00BFC4
:1013B000200100204913400070B5134B134C1968ED
:1013C0008CB0CDB20020C3B2AB4200F1010009DB0A
:1013D00001EB41010E4B6A46C9B2722098470020CA
:1013E0000CB070BD03EB43020CAE32441E0104EBA3
:1013F0000313A65D02F8306C5E681B7B02F82F6C4D
:1014000002F82E3CDFE700BF200100202000002072
:10141000491340002DE9F0432F4EADF5437DB04711
:101420002E4B2F491A68C0B200239A4204DC07D120
:101430000DF5437DBDE8F0831C01645C84423ED120
:10144000274D05EB03141F01237BDB0712D5002377
:101450008DF80830B0478DF80801B047214B8DF862
:10146000090102AA42A9012098470028E0D19DF86D
:1014700008306360002405EB07080DF58479D8F87F
:101480000430B4EB430F1CD3B047C0B20A2801D0DC
:101490000D28CDD13D44134B6C6802AA42A92046C9
:1014A00098470028C4D1AB68E1B202A898470E4B18
:1014B0008DF8040001AA01217A209847B8E701338A
:1014C000B3E7B047C0B20A28B2D00D28B0D004F8B4
:1014D00009000134D3E700BF791640002001002045
:1014E000200000205512400049134000FEE7000094
:1014F00008B5154A154B9A4215D915498B420DD39B
:1015000000BF144B144A002193421AD3134B144AC0
:101510009A60144B9847144B9847FEE752F8040B17
:1015200043F8040BEAE7EBD20949101FCB1A034436
:10153000C2F10402D342E3D053F8040941F8040D88
:10154000F8E743F8041BDFE7901D4000000000208F
:101550000400002004000020A401002000ED00E0B1
:1015600000004000651B4000BD114000164B4FF4C9
:10157000004270B500205A60144C154D154EA0471E
:101580000120A0470520A047134B0020984713488F
:10159000A847134B00209847124B3E210120984743
:1015A000B0470028FCD0104B002098470F4B9847BD
:1015B0000F48A8470B20A047BDE870400D4B4FF0E7
:1015C00060510F20184700BF50140E40091B400007
:1015D000C5194000F91A4000491B4000000E2707BA
:1015E000291A4000AD1A4000691A4000F91840005D
:1015F000107570004D1840001FB5104B104C4FF483
:101600001642CDE901324FF40063039308200D4BDD
:10161000984701A90C4B2046984720460B4B98470A
:101620000B4B204698470B4C0B490920A0474FF025
:1016300000610A20A04704B010BD00BF90AD71004A
:1016400000060E40091B4000FD1640003717400001
:10165000311740004D1840000100000870B5044EDD
:10166000044D044621463046A8470028FAD170BDF3
:1016700000060E403D17400037B5064D064C0DF1F3
:1016800007012846A0470028F9D19DF8070003B0BC
:1016900030BD00BF00060E404B17400010B5054B93
:1016A0000B209847BDE81040034B4FF040510720F6
:1016B000184700BF091B40004D18400010B5054BEE
:1016C00007209847BDE81040034B4FF040510720DA
:1016D000184700BF331840004D18400010B5054BA7
:1016E00007209847BDE81040034B4FF0605107209A
:1016F000184700BF191840004D184000AC2310B522
:101700000360D1E90032B3FBF2F31B095C1E4FF614
:10171000FE7294420AD803628B68436040F202234F
:10172000C0F8203150230360002010BD0120FCE7E9
:1017300040230360704710230360704743699B0791
:1017400046BFC1610020012070474369DB0743BFEA
:1017500083690B70002001207047B1F1C05F4264C3
:1017600026D007D8B1F1006F12D0B1F1805F1CD044
:1017700061B97047B1F1005F23D007D3B1F1405F89
:1017800005D021F08051B1F1205F00D04260704758
:10179000016F036F0B4023EA02030367416F436F3E
:1017A0000B4023EA02034367F0E7036F1343F4E7B8
:1017B000016F036F0B4023EA02030367436F134378
:1017C000F1E7036F1343F8E7D30741644CBF416669
:1017D000016612F00A0F14BF01624162930704D53B
:1017E000C0F88010416101607047130748BFC0F81E
:1017F0008410F7E710B5029C41643CB141663BB1EF
:1018000001653AB101630161016010BD0166F6E74F
:101810004165F6E74163F6E7430903F5001303F278
:1018200007735B0200F01F00012202FA00F0186348
:101830007047430903F5001303F207735B0200F0DE
:101840001F00012202FA00F05863704773B5044686
:1018500040090D4600F5001001F0F04100F207705C
:10186000B1F1005F4FEA40201ED00CD8B1F1805F8B
:101870001AD0B1F1C05F17D0B1F1006F14D00026BB
:10188000304602B070BD05F0E043B3F1405F19D0BF
:10189000B1F1205FF3D104F01F040126134B2A4657
:1018A00006FA04F19847EBE704F01F02012404FA5A
:1018B00002F20F4B984715EA040612BF4266026611
:1018C0002646DDE705F06052012602F1484105EAAF
:1018D00006034A4204F01F0400934A41C5F3800303
:1018E00006FA04F1034CA047CAE700BFC91740003D
:1018F0005B174000F517400010B52C4A2C4B116BBC
:1019000001F0030101292AD0023901291DD8116AE9
:10191000CC0148D427491960116A01F070011029DF
:101920003ED020293FD0106B196800F00300022838
:101930000BBF946AD46A906AD06AC4F30A4404FB69
:101940000111C0B2B1FBF0F107E01B49496908067B
:101950004CBF4FF400414FF4FA4119600DE0116A99
:10196000C90101D51549F8E712491960116A01F05A
:101970007001102912D02029F4D0106B196800F0E2
:10198000700070281BBF126BC2F30212032221FAEF
:1019900002F208BFB1FBF2F21A6010BD0849DCE7A1
:1019A00007491960BFE70549FBE700BF00040E4087
:1019B0000000002000093D0010140E40001BB7007D
:1019C00000127A000E4B98420E4B03D84FF0806203
:1019D0001A6070470C4A904201D20C4AF8E70C4A50
:1019E000904201D20B4AF3E70B4A904201D80B4ACE
:1019F000EEE70B4A90428CBF0A4A4FF00422E7E719
:101A0000FF2C3101000A0E40005A6202000100045E
:101A10000087930300020004FFB3C4040003000422
:101A2000FFE0F505000500040E4B1A6B22F00302DF
:101A30001A6340F60102996E09070BD51A6B22F062
:101A400070021043186340F60102996E090705D52C
:101A500000207047013AEED101207047013AF4D1DD
:101A6000FAE700BF00040E400F4B1A6B22F003028E
:101A700042F001021A6340F60102996E09070BD584
:101A80001A6B22F070021043186340F60102996E3F
:101A9000090705D500207047013AEED101207047B3
:101AA000013AF4D1FAE700BF00040E400F4A30B10A
:101AB000136A0F4919400F4B0B4313627047106AAA
:101AC0000B0220F45C119BB221F003010B4343F4A1
:101AD0005C1343F001031362936EDB07FCD5136ABA
:101AE00043F09B7343F48033E7E700BF00040E40EC
:101AF000FCFFC8FE02003701024B986E00F48030F4
:101B0000704700BF00040E40222818D81F280D4A35
:101B10004FF0010308D8916903FA00F030EA01039D
:101B200000D0106100207047D2F80811203803FA65
:101B300000F030EA0103F5D0C2F80001F2E701201D
:101B4000704700BF00040E40034B18B1034AC3F8AE
:101B5000E4207047024AFAE700040E4001434D506A
:101B600000434D5070B50D4E0D4D761BB61006D08E
:101B70000024013455F8043B9847A642F9D1094E98
:101B8000094D761B00F0F4F8B61006D0002401349D
:101B900055F8043B9847A642F9D170BD7C1D400022
:101BA0007C1D4000801D40007C1D4000F0B4860775
:101BB00046D0541E002A3CD0CAB2034602E014F1BB
:101BC000FF3436D303F8012B9D07F8D1032C29D914
:101BD000CDB245EA05250F2C45EA054533D9A4F1D8
:101BE0001006360903F1200707EB061703F1100270
:101BF00042E9045542E902551032BA42F8D1721C4A
:101C000014F00C0F03EB021204F00F0613D0331F75
:101C100023F003030433134442F8045B9342FBD1E3
:101C200006F003042CB1C9B21C4403F8011B9C420A
:101C3000FBD1F0BC704734461346002CF3D1F8E7D3
:101C400014460346C2E71A462646E0E74368697031
:101C50005768697370657265722073696D706C6521
:101C600073657269616C2D6563632D6E6F7472614B
:101C700063652C20636F6D70696C6564200041752D
:101C8000672020392032303233002C200031363AA0
:101C900033323A333800207769746820465720740D
:101CA000726967676572000A000000000820000181
:101CB000FFFFFFFFFFFFFFFFFFFFFFFF0000000030
:101CC000000000000000000001000000FFFFFFFF17
:101CD000512563FCC2CAB9F3849E17A7ADFAE6BCCE
:101CE000FFFFFFFFFFFFFFFF00000000FFFFFFFF00
:101CF00096C298D84539A1F4A033EB2D817D0377A6
:101D0000F240A463E5E6BCF847422CE1F2D1176B40
:101D1000F551BF376840B6CBCE5E316B5733CE2B13
:101D2000169E0F7C4AEBE78E9B7F1AFEE242E34F42
:101D30004B60D2273E3CCE3BF6B053CCB0061D657F
:101D4000BC86987655BDEBB3E7933AAAD835C65A08
:101D5000E109400045094000D10840000906400063
:101D600030313233343536373839414243444546D1
:101D7000F8B500BFF8BC08BC9E467047350140006E
:101D8000F8B500BFF8BC08BC9E4670470D01400086
:041D900000093D0009
:04000005004014F1B2
:00000001FF
