:0200000280007C
:1000000000200820696F0800676F0800676F08000C
:10001000676F0800676F0800676F08000000000046
:10002000000000000000000000000000676F0800F2
:10003000676F080000000000676F0800676F080026
:10004000676F0800676F0800676F0800676F080038
:10005000676F0800676F0800676F0800676F080028
:10006000676F0800676F0800DD530800F153080050
:10007000676F0800D53A0800F53A0800153B0800FC
:10008000676F0800676F0800676F0800676F0800F8
:10009000676F0800676F080009360800676F08007F
:1000A000676F0800676F0800676F0800676F0800D8
:1000B000676F0800A55B0800676F080010B5054C66
:1000C000237833B9044B13B10448AFF30080012304
:1000D000237010BDC8100020000000009CEA08003A
:1000E00008B5034B1BB103490348AFF3008008BDBB
:1000F00000000000CC1000209CEA0800024A13789F
:10010000013BDBB213707047EF10002000207047F6
:10011000002070471E4A137892F90020002A05DB60
:1001200003F06003202B1AD00020704703F0600317
:10013000202B01D000207047154B5B78212B01D07C
:1001400000207047124BDB88072B01D0002070473E
:100150000F4B104A9A6007229A81012070470C4B7E
:100160005878202804D0222814BF0020012070478E
:10017000074BDB88072B01D000207047044B064A51
:100180001A61044A9A6007229A810120704700BFD1
:10019000F42D0020E8100020B103080010B5002461
:1001A000114B1C70114B1C80114BA1221A70202284
:1001B0005A705C8001229A800222DA801C810D49EB
:1001C0004FF4E1330B600C714C7108238B712046A6
:1001D000094B98472046094B984720B1024A1378AB
:1001E0000133DBB2137010BDEF10002004150020A6
:1001F0001C190020E81000202D3408008D33080061
:10020000424B1B7803B1704770B582B0404B9847A2
:10021000002845D03F4B1C883F4B984784423DD037
:10022000EFF3108572B6BFF35F8F3C4B00221A705C
:100230003B4B1B78DCB23B4A32F81330002B36D0F4
:10024000394B00221A80394B1B78002B4CD1B4FA61
:1002500084F35B09324A13702C4B01221A7025B9C2
:100260002E4B1A70BFF35F8F62B626462D4B33F8C4
:100270001430B3F5007F14BF0125002538D1254B7C
:1002800000221A802A4B0093264B33F81630294A55
:1002900002EB442229468520274CA04702B070BDBE
:1002A0001C4B1C88254B98478442B9D1F6E71E4A5F
:1002B000138801331380164B984718B91A4B1B88C3
:1002C000632B08D9124B98470028B9D0164B1B88CE
:1002D000B3F5487FB4D2002DE0D1104B01221A7043
:1002E000BFF35F8F62B6D9E7B4FA84F46409B3E769
:1002F000074B984720B1084B9847064B1880C1E739
:100300000E4B9847034B1880BCE700BF181900201C
:100310004963080014190020A1630800EE060020BC
:10032000101900200C190020E410002008150020EE
:10033000410308000C1500200566080091630800C1
:1003400000B1704708B5074B1B78B3FA83F35B091C
:10035000054A22F81300054B1870054B1870054B21
:10036000984708BD101900200C190020081500201E
:10037000181900200102080008B50020014B984719
:1003800008BD00BF0102080008B5064A1378013B0A
:10039000DBB213701078044B9847044B00221A709C
:1003A00008BD00BFF01000209D330800E6100020BB
:1003B00008B502490020024B984708BDE81000200C
:1003C0002D340800EFF3108172B6BFF35F8F0B4B33
:1003D00000221A700A4B188883B20A4A1278D2B2E5
:1003E000094830F8120080B2C01A29B9034B012223
:1003F0001A70BFF35F8F62B6704700BFEE06002031
:10040000FC140020F8140020F414002008B5034B5D
:100410009847003818BF012008BD00BFC503080079
:1004200010B582B0EFF3108172B6BFF35F8F214B2E
:1004300000221A70204B1C78204B1B785BBBE4B267
:100440001F4B1A8892B21F4B33F814309BB29A425A
:1004500021D31B4B00221A80B4FA84F35B09164A9D
:100460001370164B01221A7021B9124B1A70BFF388
:100470005F8F62B60020144B9847A8B9134B0093C6
:100480004FF40073124A02EB442201210620114C62
:10049000A04702B010BD59B9064B01221A70BFF334
:1004A0005F8F62B60020F4E700200B4B9847E5E72A
:1004B0000020EEE7EE060020F814002000150020D2
:1004C000FC140020F41400200D0408006D05080041
:1004D000F410002005660800A933080010B50024B8
:1004E000154B1C70154B1C70154B1C70154B1C705C
:1004F000154B1C805C80154B1C802046144B984784
:10050000144B1C70144B1C70144B1C805C80144BDF
:100510001C802046134B984740B1074A137801339B
:10052000DBB213701378DBB2012B00D010BD0E4B81
:1005300001221A70FAE700BFF010002018190020FD
:1005400008150020101900200C1900201419002093
:100550000102080000150020F8140020F414002007
:10056000FC14002021040800E6100020F8B930B582
:1005700083B015460E4B1C78B4FA84F4640951B16B
:1005800089B20C4B23F8141000200B4B18700B4B46
:10059000984703B030BD0A4B00934FF40073094AEB
:1005A00002EB442201212846074CA047F1E770479F
:1005B000F8140020F4140020001500202104080085
:1005C0006D050800F4100020056608002DE9F84FBD
:1005D00088461746214E4FF0000BDA46204DDFF8D3
:1005E00098900AE001203070BFF35F8F62B68A42B4
:1005F00016D81C4B1B78002B2DD0EFF3108072B651
:10060000BFF35F8F86F800A0298889B299F800307F
:10061000DBB2154A32F8132092B20028E7D1E1E7A5
:10062000114A32F81340A4B2641ABC4228BF3C46B7
:1006300001EB432122460D4B194440460C4B984791
:100640002B8823449BB22B80A0443F1B5846094B68
:100650009847002FD1D13846BDE8F88FEE0600202C
:10066000FC140020E6100020F4140020F4100020F8
:10067000E978080021040800F814002010B4EFF312
:10068000108272B6BFF35F8F144B00211970144BA8
:100690001B78144931F81300B0F5007F0AD0C0F57B
:1006A00000702AB90D4B01221A70BFF35F8F62B63A
:1006B00010BC7047DCB20C4B1B78002BEFD10B4BFE
:1006C0001B78002BEBD1094B01211970B4FA84F48B
:1006D0006409034B1C700020E1E700BFEE06002018
:1006E000101900200C1900201819002008150020EE
:1006F00008B5034B9847003818BF012008BD00BF5C
:100700007D0608002DE9F0410C461A4B9D79092D14
:1007100014BF00250125184E184FDFF870801DE02A
:10072000EFF3108072B6BFF35F8F00233B7098F831
:100730000020D1B2124B33F8122002F1010C23F841
:1007400011C0104B03EB41239C5420B901233B7093
:10075000BFF35F8F62B65DB1241200250020B04761
:100760000028DDD1084B1B78002BF7D1BDE8F081C4
:100770000120FBE7E8100020F1060800EE0600204B
:100780000C1900200C150020E61000201019002084
:1007900010B50446024600210220024B984720462D
:1007A00010BD00BF5D0E080008B5024640211020B4
:1007B000014B984708BD00BF8D0D080010B50446D9
:1007C00002460C210E20024B9847204610BD00BF68
:1007D0005D0E080010B504460246B021B220024B5F
:1007E0009847204610BD00BF5D0E080008B50246C0
:1007F00010214FF4B060014B984708BD8D0D0800E3
:1008000010B504460246B221B420024B9847204658
:1008100010BD00BF5D0E080008B5024610214FF460
:10082000B260014B984708BD8D0D080008B5002047
:10083000014B984708BD00BFA50B080008B5022072
:10084000014B984708BD00BFA50B080008B5012063
:10085000014B984708BD00BFA50B080010B582B03A
:100860000DF106000B4CA047BDF80630DB43ADF898
:10087000043001A8084B98470DF10600A047BDF8C9
:100880000400BDF8063098424FF0FF3018BF00203A
:1008900002B010BD010808001908080010B5044690
:1008A0000388028892B2C3F3072343EA02239BB270
:1008B0000380024610215020054B98472388228848
:1008C00092B2C3F3072343EA02239BB2238010BDF5
:1008D0008D0D080000B583B04FF2F003ADF806307F
:1008E0004FF6FF73ADF8043001AA012140F2A15088
:1008F000044B98470DF10600034B984703B05DF891
:1009000004FB00BF8D0D08009D08080010B582B0E3
:100910008023ADF8043001AA1021B020044CA04778
:1009200001AA10214FF43870A04702B010BD00BFDB
:100930008D0D080010B586B04FF2F003ADF802300F
:10094000134B984700B3134B98470DF10200124B1D
:10095000984701AC114B93E8030084E8030020465C
:100960000F4B98474DF60763ADF8043020460D4B0A
:1009700098470D4B98470D4B98470D4B98470D4B9B
:100980009847002006B010BD4FF0FF30FAE700BFD7
:100990005D080800D50808009D080800E8E3080085
:1009A000A9070800190808000D0908002D0808000B
:1009B0004D0808003D08080000B583B001A8094BA8
:1009C00098479DF804100423002041FA03F212F026
:1009D000010F1CBF0130C0B20133082BF5D103B0A9
:1009E0005DF804FBBD07080008B50E20014B9847D1
:1009F00008BD00BF8900002008B50248024B984797
:100A000008BD00BF259A0D008900002070B5044D77
:100A10004FF000762E63034CA0476E63A04770BD75
:100A2000000C0E40E909080070B5044D4FF0007647
:100A30006E63034CA0472E63A04770BD000C0E40B0
:100A4000E909080010B5044B20225A6308225A63B2
:100A5000024CA047A04710BD000C0E40E909080059
:100A600008B5044B08221A6320225A63024B9847A8
:100A700008BD00BF000C0E40E909080070B504462F
:100A8000114B20221A63114B9847BCB10E4B4FF407
:100A900080021A630D4CA0470B4D4FF000762E6379
:100AA000A04720236B6346F62530094B98476E63B9
:100AB000A0474FF480036B63A04770BD024B4FF417
:100AC00080025A63E6E700BF000C0E40E909080007
:100AD0008900002030B585B0124B0093C0230193EC
:100AE0000023039302930F200F4B98470F4C104A9B
:100AF000694620460F4B98474FF0006116200E4D77
:100B0000A8474FF000611720A8474FF080511920E7
:100B1000A8472046094B98472046094B984705B0FF
:100B200030BD00BF48E8010065550800008009405D
:100B300000D8B8050D6D080021520800816E08002C
:100B4000716E080010B5104C2046104B9847204697
:100B50000F4B98474FF0405116200E4CA0474FF0D6
:100B600020511720A0474FF040511920A0470A4BB1
:100B70004FF000725A634FF480025A63074B984754
:100B8000074B984710BD00BF00800940876E0800E2
:100B9000776E080021520800000C0E40E909080099
:100BA000450A080070B530B102281DD001281ED0BA
:100BB000104B98470DE040F2B4540E4B9847013C5F
:100BC000A4B20D4E4FF6FF75B047013CA4B2AC4243
:100BD000FAD10A4B08221A630120094B9847094BA6
:100BE0009847094B984770BD4FF4C364E5E740F25E
:100BF000F954E2E7450B08000D0A0800000C0E400E
:100C00007D0A0800610A0800D50A08002DE9F047AE
:100C100007460E46544B98475024544DA847013C74
:100C2000A4B2002CFAD1524B10221A63514B9847B0
:100C30000F25DFF83CA1DFF83C91DFF8308147FA5F
:100C400005F313F0010F4FF4800314BFCAF83430DA
:100C5000CAF83030C847C047013DB5F1FF3FEED17B
:100C6000434F4FF000737B63424DA847A8474FF4B2
:100C700080037B63A847A847012E02D03D463E4F24
:100C800051E045203D4B9847394B10225A633C4B6D
:100C900098473C4B9847202560E0354C202525633C
:100CA000344EB0474FF480032363B0474FF00073D6
:100CB0002363B04710236363314B9847314B984708
:100CC0004CE0032E0FD000202F4B9847284BDB6BB6
:100CD00013F4000F10D1ECB1012C1DD0022C0CBF6D
:100CE0002125202509E0224B10225A63244B9847E6
:100CF000244B9847202531E024251F4B9847042C8E
:100D000008BF20251A4B10225A631D4B98471D4BD4
:100D1000984723E02325F0E72225EEE7B847013482
:100D2000A4B2042C1DD0EB6B13F4000FF6D0022EEE
:100D3000B3D00120144B984720230D49CA6B12F4FD
:100D4000000FBED0013B9BB2002BF7D1084B102205
:100D50005A630B4B98470B4B984725252846BDE80F
:100D6000F0872025CEE700BF450B0800290A0800C0
:100D7000000C0E40E90908000D0A08008900002057
:100D8000610A0800D50A08007D0A08002DE9F84F1D
:100D900006460F4690462B4B9847B6F5387F08D24B
:100DA0001EB30024284DA8470134A4B2A642FAD1AC
:100DB0001BE040F2DF24244DA847013CA4B2002CE4
:100DC000FAD1224D4FF48009C5F830901E4B984758
:100DD000C5F83490A6F53875002D06DDDFF868906B
:100DE000C8470134A4B2AC42FADB27B3013FBFB21B
:100DF0000025AB46DFF860A0DFF84C9010E05846C5
:100E0000D047E40818F80430EA4302F0070213411F
:100E100013F0010F0CD0C8476B1CBD420BD01D4610
:100E2000ACB2A31913F00F0FE9D0002CE9D1E6E71B
:100E30000120D047EFE7064B9847064B9847BDE89F
:100E4000F88F00BF450B08000D0A0800000C0E408B
:100E5000610A0800D50A08007D0A08002DE9F04F54
:100E600083B0074688469346114B9847CFB15E46FC
:100E70000025104CDFF844A0DFF844900021204604
:100E8000D047636913F0020FFBD001A92046C84781
:100E9000A8459CBF019B06F8013B0135EDB2AF426E
:100EA000ECD1054B9847584603B0BDE8F08F00BF22
:100EB000450A080000800940610A0800D16E080058
:100EC000FB6E080010B582B04FF040510420274C53
:100ED000A0474FF040510520A0474FF0605103203C
:100EE000A047234B20225A6308221A63214B9847BC
:100EF000214B984701A8214B9847BDF804201302C5
:100F000043EA12231BB240F60F72934202D0012033
:100F100002B010BD0DF10200194CA047BDF802301F
:100F20000533ADF802300DF10200164B984701A8C9
:100F3000A0470288BDF802309A4201D00220E7E7BC
:100F4000114B984704280CD8DFE800F00907050387
:100F50000D001320DCE71220DAE71120D8E710207B
:100F6000D6E71020D4E71420D2E700BF21520800B2
:100F7000000C0E40D50A0800F90908009107080086
:100F8000D5070800ED070800B909080010B5124B95
:100F900020225A634FF020510420104CA0474FF0FC
:100FA00020510520A0474FF020510320A0474FF0CB
:100FB00020511620A0474FF020511720A0474FF096
:100FC00020511920A047064C2046064B9847204642
:100FD000054B984710BD00BF000C0E402152080081
:100FE00000800940876E0800776E080008B5044944
:100FF0000220044B9847044B9847044B984708BD80
:1010000001000028215208008D0F0800610A080025
:10101000F8B505460F46184B98474F350024174E34
:10102000B0470134A4B2AC42FADD154B10221A636A
:10103000144B9847DFB1124B4FF480025A63114CA6
:10104000A0470E4B98470E4D08232B634FF00073BB
:101050006B63A047A0474FF480036B63A047A04792
:1010600010236B63084B9847084B9847F8BD044B17
:101070004FF480021A63E2E7450B0800290A0800D2
:10108000000C0E40E9090800610A0800D50A0800B2
:1010900010B40002082341F2210481EA000212F494
:1010A000004F4FEA410189B218BF6140400080B251
:1010B000013B13F0FF03F0D1084610BC704700005D
:1010C00008B5024B1868024B984708BDF42300206E
:1010D000055208002DE9F04383B0054689461D4BB3
:1010E0001B7843B91C4C2846A04710F4007FFAD067
:1010F0000122184B1A700024174EDFF86C80174F2E
:101100002846B04710F0010F0DD1611CD8F800300F
:10111000A7FB03239B0C42F6E06202FB03F39C4215
:1011200013D80C46ECE701A928460D4B9847019BC4
:1011300089F800302846084B984742F2E0540440B2
:1011400004D02846074B984700E0FF24204603B010
:10115000BDE8F083F0020020996E080083DE1B4397
:10116000E36E08009D6E0800F023002070B5044671
:101170000E46144B1B78012B13D0134D2046A84765
:1011800010F0020FFAD031462046104B9847204607
:101190000D4B984742F2E05310EA03050DD1284663
:1011A00070BD0B4B984720460A4B984720460A4B88
:1011B00098470022034B1A70DFE72046044B9847FC
:1011C000EDE700BFF0020020996E0800BD6E080038
:1011D0009D6E0800A56E0800AD6E08002DE9F04F69
:1011E00087B007460190894692461C4609786E4EA4
:1011F000B047054699F801103846B047054399F8BD
:1012000002103846B047054399F803103846B047F6
:10121000054399F804103846B0470543042C2CD0F8
:10122000052C10D0062C16D0072C19D099F80440A4
:1012300094BB99F8053099F8064004EB0324A4B256
:101240004FF003081CE099F80440FCB94FF0020885
:101250004FF4807414E099F804404FF003080FE055
:1012600099F80440ACB999F8053099F8064004EBB8
:101270000324A4B24FF0020802E04FF0010800245A
:101280000023029303930527484E56E04FF00208CF
:10129000F6E74FF00308F3E74FF00308F0E7B8F183
:1012A000020F26D0DFF800B17E1CB6B219F8071085
:1012B0000198D8470543013CA4B23746002CF3D12E
:1012C000029B002B65D0039A541CA4B29DF81730E2
:1012D0000AF802300AEB04010198344B984745EABA
:1012E00000013348334B9847601C80B207B0BDE81B
:1012F000F08F03992646DFF8B4904F1CBFB25144DB
:101300000198C8470543013EB6B23946002EF4D1D4
:10131000039B1C44A3B20393D2E7039A02F1010B8F
:101320001FFA8BFB0AEB02010198B0470543CDF889
:101330000CB0013CA4B2002CC2D00DF117010198F1
:10134000B04705439DF81730602BF4D003F0F0024E
:10135000602A18D0902A19D099F8012093429ED083
:10136000DB43DBB29342ABD1B8F1020FD5D007F12A
:10137000010B1FFA8BFB19F8071001980A4B9847CD
:1013800005435F46D5E701230293D4E70123029387
:10139000D1E7039B5C1CA4B20AEB03010198034B49
:1013A0009847054396E700BF6D110800D510080067
:1013B00058E40800C17808002DE9F84F002B00F030
:1013C000A48090460D468346724B1E7806F0010AB3
:1013D00046F30006B6B291F8029009F10309002421
:1013E0006D4F06E03146B84706460134E4B24C453D
:1013F00006DA285DBAF1000FF4D14640B6B2F4E740
:101400000024664F295D5846B8470134E4B2AB78F2
:1014100003339C42F6DBF1B25846604B98475D4B74
:101420001B7813F0010F4FD1414658465C4B98474B
:10143000FF286DD008F101015846594B9847FF2805
:1014400069D008F102015846554B9847FF2865D0EE
:1014500098F80240651C4F4B1B7813F0010338D0FD
:1014600005F101092E1D032E88BF4D4640F28280F2
:1014700003210C46DFF8289141445846C847FF280D
:101480004FD00134E4B22146B442F5D3414B1B782E
:1014900013F0010F48D198F8012098F800305A4015
:1014A00098F802305A4003210B4618F801104A40C0
:1014B0000133DBB21946B342F7D341444B78934230
:1014C0001FD00320BDE8F88F00215846334B9847C2
:1014D000AAE7EE1C032ECBD8002B4AD198F80020A7
:1014E00098F801305A4098F802305A400321E4E756
:1014F000A84418F8013CC0B2834202D00320BDE8E2
:10150000F88FE81C80B2BDE8F88F1846BDE8F88F68
:101510000020BDE8F88F0120BDE8F88F0220BDE86B
:10152000F88F0320BDE8F88F4FF6FF7198F80000A0
:10153000194CA047014698F80100A047014698F8C9
:101540000200A04703231C46134F014618F803006E
:10155000B8470134E4B22346B442F6D308EB05039E
:1015600013F8022CC0F30F239A42C1D00320BDE828
:10157000F88FA9464FF6FF7198F80000064DA8476E
:10158000014698F80100A84701462046A8474D4665
:10159000E4E700BF27190020911008006D11080032
:1015A000D51008002DE9F04707460E469046002367
:1015B0001370554A1370554A1370554A1370554CA1
:1015C000A047711C3846A047747804F0F00914F065
:1015D000100F1DD1022514F0200F22D114F0400F5E
:1015E00027D119F0800F2BD1737813F00F030BD094
:1015F000741905EB03094E44464D21463846A84769
:101600000134B442F9D14D4688F80050BDE8F08766
:10161000B11C38463F4B9847B2783B4B1A700325B4
:10162000D9E705F1010A711938463A4B98475546F2
:10163000D4E76C1C71193846364B98472546D0E7DD
:1016400071193846334B984716F805902F4B83F89D
:1016500000906C1C19F0F00A0BD019F0100F0AD191
:1016600019F0200F0ED119F0400F12D11AF0800F8F
:1016700016D12546B8E7023531193846254B98472B
:101680002C46EDE7651C31193846224B98472C460D
:10169000E9E7651C311938461E4B98472C46E5E7AB
:1016A000311938461B4B9847651C16F8049019F001
:1016B000F00A99D019F0100F0ED119F0200F12D1A5
:1016C00019F0400F16D11AF0800F8DD071193846DD
:1016D000104B9847013587E70234711938460D4B96
:1016E00098472546E9E76C1C71193846094B98471D
:1016F0002546E5E76C1C71193846064B9847725D24
:10170000034B1A702546DEE7261900202819002011
:1017100027190020D510080010B582B00446164BDA
:101720009847164B1B68164AA2FB03239B0CC3EB7E
:101730000313DB000CD0002210481149013203686A
:10174000A1FB03E39B0CC3EB0313B2EBC30FF5D375
:1017500001A920460B4B984720460B4B9847204643
:101760000A4B984720460A4B98470A4B18680A4B81
:10177000984702B010BD00BFC1100800F023002040
:1017800083DE1B43E36E08009D6E0800A56E080013
:10179000AD6E0800F4230020EB5108002DE9F04164
:1017A0009CB086468846654E0CAC35460FCD0FC4BE
:1017B0000FCD0FC40FCD0FC495E80F0084E80F00C4
:1017C00002AD06F140040FCC0FC50FCC0FC594E855
:1017D000030085E803000023019398F8011011F03D
:1017E000100F18D001F0F003022204E018F80230C4
:1017F00003F0F003013273B113F0100F18BF013280
:1018000013F0200F18BF013213F0400F18BF013240
:1018100013F0800FEAD111F00F0203D0002301333F
:101820009A42FCD1464B187810F0100F40F081809E
:10183000444B1B787BB113F00F0244D01B091CA949
:1018400001EB830301EB820253F8406C52F8683CD1
:10185000B6FBF3F600E0002610F00F006AD17446E4
:10186000FF217046384DA84710212046A847354F24
:1018700039782046A847397881F0EF012046A847FB
:1018800001A92046314DA8470DF105012046A84782
:101890000DF106012046A8470DF107012046A84793
:1018A0009DF80430FF2B03D19DF80530102B0CD090
:1018B0002046274B98470DF1030241462046254B11
:1018C0009847002036E00026C6E79DF806201D4B0D
:1018D0001B78934213D09DF8073082F0EF029342B9
:1018E0001CD11A091CA901EB820203F00F0301EBC2
:1018F000830352F8406C53F8683CB6FBF3F620467D
:10190000154B98472046154B984726642046144BA4
:1019100098472046134B984700200BE020460C4B7D
:1019200098470DF10302414620460A4B9847002094
:1019300000E000201CB0BDE8F08100BFF0E308002B
:1019400028190020261900206D110800D510080064
:1019500019170800A5150800876E0800776E0800A3
:10196000816E0800716E080070B504460D4616467B
:101970000D4A136018460D4B98470D4B1E601A68B0
:10198000294620460B4B98474FF0FF3120460A4B23
:10199000984705212046094B98472046084B984711
:1019A0002046084B984770BDF423002005520800DC
:1019B000F0230020396C0800916E08007D6E08004D
:1019C000816E0800716E08000C4B59880B0A0C4A96
:1019D0001288B2EB112F0DD3D8B2D31A9BB2C9B271
:1019E0008B4228BF0B460549064A02448A608B8118
:1019F0000120704700231846F5E700BFF42D0020B2
:101A0000F8240020FC2400200E4B9B78012B04D0EE
:101A1000022B0AD07BB1002070470A4B0A4A9A6019
:101A20000A4A12789A8101207047064B084A9A6048
:101A3000012098817047034B064A9A6001209881E3
:101A4000704700BFF42D002000260020FC25002058
:101A500038260020F1020020054B5B88022B01D0C4
:101A600000207047024B034A9A600120988170471A
:101A7000F42D002037260020114BD8889B89834203
:101A80001DD3E0B1F0B50E4B5C88D3F808E0661CBE
:101A9000B6B200221346DFF830C00A4F04E0531CF0
:101AA000DAB21346904209D91119FF29F7DC1EF862
:101AB00002500CF8015033443B80F0E7F0BD704712
:101AC000F42D00203A260020F823002008B52D4AE6
:101AD000D38892899A4203D32A4A9278032A00D063
:101AE00008BD294A00211170002BF9D0013B9BB29F
:101AF000244AD38090680278023A062AF0D8DFE8B8
:101B000002F0040B151E262F3800204B9847204B5F
:101B100098471D4B1870E3E7012BE1D90021B0F87D
:101B200001001C4B9847184B1870D9E7012BD7D9E7
:101B30000130194B9847144B01221A70D0E7174B0C
:101B400098470028CCD1104B01221A70C8E7022B0D
:101B5000C6D9417840880F4B98470B4B1870BFE7A8
:101B60000F4B9847084A1070064B9A6001229A81E1
:101B7000B6E701210F200B4B9847034B01221A7047
:101B8000AEE700BFF42D002037260020ED0F08003F
:101B9000C50E08000D0C08009D0808003509080056
:101BA000B9090800111008002DE9F04188B0314B47
:101BB00000934FF4BA7301930023029303930493A9
:101BC00003250595069307930F202B4B98474FF05D
:101BD00000611620294CA0474FF080511920A047E2
:101BE0004FF040512846A047254C2B46254A6946D0
:101BF0002046254DA8472046244B9847244D254E86
:101C00002A4631462046244B984731462046234BEE
:101C10009847234B187029782248234B98472B78F4
:101C20006BB135460024DFF894801F4F184E15F82D
:101C3000011B4046B84701343378A342F7D81B480C
:101C4000194B9847164B1B78012B02D008B0BDE802
:101C5000F081079300230593094C0A4A6946204600
:101C6000134B98472046134B98472046124B9847F2
:101C7000ECE700BF007E36006555080021520800E1
:101C80000080094000D8B805691908001917080034
:101C9000FC25002000260020A51508009D1708003F
:101CA000382600205CE40800C178080050E50800F0
:101CB000396C0800816E0800716E08006CE4080041
:101CC000154BDA889B899A4224D810B5124B9B7821
:101CD000012B02D0052B03D010BD104B9847FBE71A
:101CE0000F4B00221A800F4B1B784BB10E4B1B88F9
:101CF0000E4A0F490F48104CA047094B1880EBE7DC
:101D0000094B1B88094A0A490A480C4CA047044B56
:101D10001880E1E7704700BFF42D0020A91B0800E0
:101D2000F8240020382600203A260020FC24002039
:101D3000F823002000800940B9130800DD110800D5
:101D400010B50446064B9847064B1B7833B9054B34
:101D50001C700124044B9847204610BD0024F9E76D
:101D60000D4F080029190020494F0800014B00229F
:101D70001A70704729190020014B1878704700BF6E
:101D80002919002008B501460448054B984735201D
:101D9000044B98473520044B984708BD000E0E4071
:101DA000C351080005520800EB51080010B50B4C58
:101DB0004FF4807200212046094B9847094A0021C0
:101DC0002046094B9847094A00212046084B98476E
:101DD000032200212046074B984710BD00000E400B
:101DE000F55008000101040401510800020005003B
:101DF0000D5108001951080038B5A1F10E03012B4F
:101E000002D84FF0FF3038BDEFF3108472B6BFF345
:101E10005F8F00250A4B1D70120222F07F4222F0D4
:101E2000FF0242F0B442C9B21143064B9847002C5E
:101E3000E9D10122024B1A70BFF35F8F62B638BD41
:101E4000EE0600206D00002010B489014318022422
:101E500044504FF0FF319962196A5A6010BC7047C4
:101E6000890105234350704789010223435070477D
:101E700000EB8111CA61704700EB81114A62704723
:101E800000EB8111086A704770B586B004460E46B3
:101E90000423009302AB0F220E210D480D4DA847DD
:101EA00018B11025284606B070BD0546042E28BF7F
:101EB000042656B102AA234604EB860152F8040B0D
:101EC00043F8040B8B42F9D1ECE73546EAE700BF53
:101ED00000080E400100002000234360036083607F
:101EE0007047000010B472B6BFF35F8F114B00242F
:101EF0001C7004680134C82C28BF00244368A34226
:101F00000BD1002AFAD1836801338360094B012287
:101F10001A70BFF35F8F62B609E003680344197358
:101F20000460044B01221A70BFF35F8F62B610BCCD
:101F3000704700BFEE060020024672B6BFF35F8F07
:101F40000E4B002119704368C118087B1168994233
:101F50000BD00133C82B28BF00235360074B01224D
:101F60001A70BFF35F8F62B67047044B01221A707C
:101F7000BFF35F8F62B6FF20704700BFEE06002000
:101F800003684068C01A18BF0120704772B6BFF3DB
:101F90005F8F074B00221A7003684068181A48BF09
:101FA000C830034B01221A70BFF35F8F62B67047CF
:101FB000EE0600202DE9F04F8DB00391924B9989E8
:101FC000092905D09148924B98470DB0BDE8F08F94
:101FD00083468D4B9A6809AB1068516803C3128918
:101FE0001A80BDF824300593B3F5807F13D8BBF178
:101FF000130F0CBF9DF82B309DF82C300693854BAA
:102000001B680793059B002B43D0002404942746AC
:10201000CDF808B0A6E0804B83F800B0C0225A701B
:102020007E4B02221A80D0E77D4B98477D4B1F7074
:10203000A3E09DF82A3043F008038DF82A30754B51
:102040001B8818F0010F00F0D4800493714A1368C4
:1020500001331360029A132A7FD19BB2002B7CD1EB
:102060000123704A137078E0049361E004936DE0FB
:10207000DDF808B000239DF826509DF92640002C7D
:102080000EDB654A82F800B05370644B02221A805E
:102090009BE7059B04930023EDE7DDF808B0EAE732
:1020A000614F00231A469DF8291038465F4EB0470D
:1020B00000231A460799C1F307213846B047002389
:1020C0001A469DF81C103846B04700231A46194698
:1020D0003846B04715F0200F07D0049B2BB924F0E9
:1020E000300343F010038DF826309DF82A3000931A
:1020F0009DF82730069A04999DF826004C4CA0477D
:102100000346BBF1130FBCD1424A1288002AB8D152
:10211000444A01211170B4E73E4A13680133136049
:102120001BE018F0010F67D010E018F0010F0DD17F
:102130009DF82A3000939DF82730069A049940466E
:102140003B4DA84703460028A7D1049714F0010F80
:102150007FF47CAF029B152BDED00134A4B2059B2B
:10216000A34285D0039B13F801BB03939DF82680FF
:102170002C4B1B78002B7FF457AF9DF828902A4EEC
:102180003B463A4649463046284DA847DFF884A0EA
:102190003B463A469AF801103046A8473B463A4635
:1021A0009AF800103046A8473B463A465946304612
:1021B000A847029B132B04BF89F008098DF82890CB
:1021C000049B002BB1D1069B5B45AAD014F0010FF4
:1021D00003D0029B132B3FF42CAF9DF82A3023F041
:1021E00008038DF82A300B4B1B8818F0010F7FF481
:1021F0003DAF002B7FF438AF18F0080F98D128F0CE
:10220000060848F0020893E7F42D0020CCE408000B
:10221000C178080060260020402600203E260020CD
:10222000952808003C2600200080004053560800F6
:10223000D52808002DE9F04F85B00090454B9B89CB
:10224000032B18D1434B9B681B680393424A0098A9
:102250001070C0205070414A022010809BB2019340
:10226000B3F5807F72D8002B6AD001F1FF380027C8
:102270003E463B4C26E019463A483B4B984765E0C2
:102280003A4B98473A4B1E7022E089F008098DF8C6
:102290000E901BF0010F10D0364A13680133136003
:1022A00006E0344A136801331360009A162A04D0FA
:1022B0009BB213B901232E4A13700137BBB2019AA6
:1022C0009A423DD91FFA87FB294B1B78002BD7D1A7
:1022D0009DF80E903346324649462046264DA84783
:1022E000DFF890A0334632469AF801102046A847FE
:1022F000334632469AF800102046A8473346324605
:1023000031462046A847236913F4007FFBD00DF126
:1023100009020DF10A012046184B98479DF80A3032
:1023200008F8013F009B142BAFD01BF0010FB8D170
:10233000009B162BC1D10F4A136801331360BCE711
:10234000054B00225A70054B02221A8005B0BDE8E9
:10235000F08F00BFF42D0020402600203E260020F4
:102360000080004074E40800C17808009528080047
:102370003C26002060260020535608002556080001
:102380002DE9F04F85B0214B9989052939D10746B0
:102390001E4B9B68186802901A798DF80C2093F8F0
:1023A00000B00DF1090601AD0DF1080A184CDFF877
:1023B0007490DFF8748000231A4616F8011B20463B
:1023C000C847236913F4007FFBD00DF101020DF122
:1023D00002012046C0479DF8023005F8013B5545F3
:1023E000E9D10C4B1F7000225A7004A98B441BF8D2
:1023F0000D1C9970DA70084B04221A8005B0BDE8F4
:10240000F08F0648064B9847F8E700BFF42D0020F0
:1024100000800040402600203E260020CCE408003A
:10242000C178080053560800255608002DE9F043EE
:1024300083B0134B998904291DD10546104B9B6825
:102440001B68019301AC0DF10809DFF84C800027EF
:102450000C4E3B463A4614F8011B4046B0474C45EB
:10246000F7D1094B1D7000225A70084B02221A80C6
:1024700003B0BDE8F0830648064B9847F8E700BF75
:10248000F42D002053560800402600203E26002050
:10249000CCE40800C17808000080004070470000CC
:1024A00000B9704738B5014643F2B06200230648D0
:1024B00043F2AF640025E0FB014520462946034C6A
:1024C000A047034B984738BD00D8B8058175080070
:1024D000890000202DE9F04F8BB0424B99890B29E0
:1024E00003D04148414B984774E03E4B9B6807AA94
:1024F0001868596803C21889997A108091705E78BB
:1025000003969878DC7893F804B05A7902929B7914
:102510000193374B00221A60364DA847364B984737
:102520000120364B98473046A84704F1FF385FFA40
:1025300088F814B12F46324C1CE0C0243FE0019BC8
:10254000002B3BD00AAAD31813F8113C029A9342ED
:1025500034D00020294DA847039E3046B8470120BB
:10256000A8473046B84708F1FF385FFA88F8B8F155
:10257000FF0F34D0234B1B687BB30DF1230606AD50
:102580000DF11C0ADFF890905846B84700231A4610
:1025900016F8011B2046C847236913F4007FFBD0BF
:1025A0000DF115020DF116012046174B98479DF8C5
:1025B000163005F8013B5545E6D1C0E70024214619
:1025C00012480A4B9847124B10221A705C70114B3C
:1025D00002221A800BB0BDE8F08FC024EFE7C024C0
:1025E000EDE700BFF42D0020CCE40800C17808001E
:1025F00060260020A124080015270800D527080020
:102600000080004064260020255608009CE4080055
:10261000402600203E2600205356080038B50F4BB8
:102620009989022903D00E480E4B984738BD0B4BB1
:102630009B681D88E8B20C4CA04700200B4B9847C4
:102640000B4B9847280AA0470A4B11221A70002208
:102650005A70094B02221A80E8E700BFF42D0020CF
:10266000CCE40800C1780800A1240800D5270800A0
:10267000BD270800402600203E2600202DE9F04717
:1026800082B01B4B998906292AD1194B9B6818687F
:1026900000909A88ADF8042093F800A093F8019078
:1026A0000DF102040DF10608124F0026124D3346BB
:1026B000324614F8011B3846A8474445F7D1B9F112
:1026C000000F11D150460D4B98470D4B12221A7036
:1026D00083F801900B4B02221A8002B0BDE8F0870C
:1026E00009480A4B9847F8E7094B98478146ECE7B9
:1026F000F42D00200080004053560800A12408005B
:10270000402600203E260020BCE40800C1780800D6
:102710001928080038B598201E4B98471E4B53F8CF
:1027200020501E4C20461E4B984780232360636830
:1027300043F001036360636843F010036360636800
:1027400023F08003636017492846174B9847041EFF
:10275000B8BFFF24114D002211462846134B98475D
:10276000012200212846124B9847E2B20021284658
:10277000104B984701232B604FF000610E200E4C48
:10278000A0474FF000610D20A0474FF000610F20DF
:10279000A04738BD512C0800F802002000800040FE
:1027A0000556080000D8B805C3560800875608002B
:1027B000A5560800D95608002152080008B503485C
:1027C00002230360024B984708BD00BF0080004011
:1027D0001556080008B580B14FF0605111200A4B22
:1027E00098479E20094B984718B91120084B9847E5
:1027F00008E01120074B984704E04FF020511120CA
:10280000014B984708BD00BF21520800512C080019
:10281000EB5108000552080070B582B0194C002633
:10282000194D33463246F0212046A84733463246FA
:1028300031462046A8473346324631462046A8470F
:102840003346324631462046A847236913F4007FB9
:10285000FBD00DF105020DF1060120460B4B984708
:102860009DF8060010F0010005D0094B1B68002BF5
:10287000D7D1812004E0064B1B68002B08BF8120C4
:1028800002B070BD00800040535608002556080075
:102890006426002038B50C4D00231A464D212846E9
:1028A0000A4CA04700231A4619462846A047002391
:1028B0001A46074989782846A04700231A46194630
:1028C0002846A04738BD00BF00800040535608008E
:1028D000602600202DE9F04782B09DF8288000F0A6
:1028E0007E04202C18DC0E461746012C5BDD023CD2
:1028F0001E2C5AD8DFE804F019591E595959545959
:102900005959595959591959595959595959595977
:102910005959595959591E00402C41D00020244B77
:1029200064221A6002B0BDE8F0871846214B984730
:102930000020F4E74FEA112A1F4C4FF000091F4D09
:102940004B464A4641462046A8474B464A465146D2
:102950002046A8474B464A46F1B22046A8474B4678
:102960004A4649462046A847236913F4007FFBD016
:102970000DF105020DF106012046114B98479DF817
:1029800006309F4205D10A4B1B68002BD8D180200E
:10299000C5E7074B1B68002B14BF00208020BEE753
:1029A000084B9847BBE70020B9E70020B7E700BF16
:1029B00064260020A124080000800040535608002F
:1029C000255608001928080038B57E4B9C787E4BA8
:1029D0001C707E4B9847631E212B00F2E880DFE8D5
:1029E00013F0220037003700E600E6006C00E60036
:1029F000E600E6008B00E600E600E600E600E60002
:102A000093009700A7009B00A1009B00A100B000CD
:102A1000AB00B000AB00AB00AB00B500E600E600D9
:102A2000B900D300C300684B00225A700D229A707F
:102A3000674C07CCC3F80300C3F80710C3F80B209A
:102A40002278DA735F4A936010239381012038BDA6
:102A50005C4B9B681D78022C0CD05E4B02221A80C6
:102A600028465D4B9847032C17D05C4BC0225A7008
:102A70000120ECE75C78574B02221A802846564B1F
:102A8000984710F0020FF0D0544B00225A702146A4
:102A90002846534B98470120D9E710F0010FE4D0A6
:102AA0004E4C0023637028464E4B9847A070494A0D
:102AB0001388013313800120C9E7424B9B68DA7801
:102AC0009978090441EA02611A7811435B7841EA76
:102AD0000321454B196000290ADB4448444B9847C1
:102AE0003E4B00225A703B4B02221A800120AEE777
:102AF000404B01221A70F0E7384B00225A70354BD8
:102B000002221A800120A2E73B4B984701209EE752
:102B10003A4B984701209AE739492046394B984764
:102B2000012094E736492046374B984701208EE72D
:102B3000364B984701208AE72046354B98470120BD
:102B400085E72046334B9847012080E7324B984772
:102B500001207CE71B4A214B93601E4B1988918111
:102B600000221A80012072E7164A5388180AD28878
:102B700002EB1323B3F5807F21DC1249204B034481
:102B80008B608A81012062E70E4A5388180AD28836
:102B900002EB1323B3F5807F01DD002057E7094BDB
:102BA0009968174B18441D4B984701204FE70B4B72
:102BB000C9225A70074B02221A80012047E70020E1
:102BC00045E700BFF42D00202C1A0020AD35080089
:102BD000E8E408003E2600203D2C080040260020A6
:102BE000652C0800512C080060260020F8E408003D
:102BF000C17808003C260020D52408001D260800C6
:102C00002C190020B51F0800352208007D26080079
:102C1000812308002D2408009D240800E97808007D
:102C20000246054800F11E010378934203D00330A9
:102C30008842F9D1002070478805002008B5034B71
:102C4000984708B1407808BD0020FCE7212C080017
:102C500008B5034B984708B1807808BD0020FCE711
:102C6000212C080010B50C46024B984700B1847027
:102C700010BD00BF212C0800084B5B8813F0010F2A
:102C8000074A14BF01210021117013F0020F044BF9
:102C900014BF012200225A70704700BFF42D00209B
:102CA000A8050020F8B50A4B1E685F68094B9847D5
:102CB0000525094C2846A0470028FBD03846074B7D
:102CC0009847074B4FF0C0421A60064B1E60F8BD94
:102CD000501A00206D1D0800411D0800851D0800C8
:102CE000901A0020941A0020F8B50E4B1C685F68FB
:102CF0000D4B984701260D4D3046A8470028FBD0C4
:102D000038460B4B98474CB10A4A00230A4D2968B4
:102D100012F8010FC85401339C42F8D1024B984776
:102D2000F8BD00BF501A00206D1D0800411D0800AD
:102D3000851D0800571A0020F402002070B5074BCB
:102D40005E68074B98470425064C2846A047002894
:102D5000FBD03046044B984770BD00BF501A00208E
:102D60006D1D0800411D0800851D0800F8B50A4BBF
:102D70001E685F68094B98470225094C2846A04702
:102D80000028FBD03846074B9847074A31464FF09A
:102D9000C040064B9847F8BD501A00206D1D080032
:102DA000411D0800851D0800FD2E0800DD460800B5
:102DB00008B5014B984708BD393F080008B5014BDD
:102DC000984708BDC929080010B584B01E4B9B78F0
:102DD0001BB1012B12D004B010BD1C4C20461C4B63
:102DE000984720461B4B9847002120461A4B98478E
:102DF0001A4B4FF40042C3F88020ECE70F20184B29
:102E00009847002303930293C02301930F4C694614
:102E10002046144B98472046134B98470F4B4FF4CE
:102E200000421A60012120460B4B98474FF0006189
:102E300017200E4CA0474FF080513620A0474FF08E
:102E400080511920A047C6E7F42D002000800940DA
:102E5000876E0800776E08008D6E080000E100E0C4
:102E600065550800C96D0800816E080021520800F0
:102E7000F8B50A4BDA889B8993420DD362B10024DE
:102E8000064D074F074EAB681A5D00213846B04724
:102E90000134EB88A342F6DCF8BD00BFF42D00201E
:102EA000000009408939080008B500210148024B9B
:102EB000984708BD000009402D36080008B50B4BA7
:102EC0005B88A12B07D0A22B0BD0A02B00D008BD74
:102ED000074B9847FBE7074B9847074B0A221A70A6
:102EE000F5E7054B00221A70F1E700BFF42D002032
:102EF00085710800197208004D1A002008B5084BAA
:102F00009847022804D0064B9847032803D008BDF1
:102F1000044B9847FBE7044B9847024B9847F6E76A
:102F2000791D08006D1D0800AD1D080070B5B8B909
:102F3000174B1B78F3B941B1164A174D286812F8A0
:102F4000014BC45401339942F8D1144B98470428DB
:102F50000DD0134A4FF480610E48124B984770BD54
:102F60000F4A4FF480610B480E4B9847F7E70E4B22
:102F70009847EEE70A2BECD10029EAD0054D4C1911
:102F80000A4E15F8010BB047A542FAD1E1E700BFA0
:102F90004D1A00209C1A0020F4020020791D080020
:102FA0002D2F0800F94608006D1D08002972080041
:102FB00010B5244B9B78013B102B14D8DFE803F0AD
:102FC0000914181313131313131313131313132FB9
:102FD0003E003E201C4B98471C4CA0470028FCD0CC
:102FE00010201B4B984710BD10201A4B9847FAE74A
:102FF0001D20194B984701220C211848184B98475F
:10300000184B9847184B5A6812F4003FFBD1164AE8
:10301000136843F0254343F005031360FEE7114BAB
:103020009847114B5A6812F4003FFBD10E4A1368BF
:1030300043F0254343F005031360FEE70B4B98472D
:10304000D1E700BFF42D0020CD540800F55408004E
:1030500005540800695408000552080000080E4095
:10306000F91D08001163080000120E406D1D0800D4
:1030700008B5034B00221A70024B984708BD00BFE9
:103080004C1A00203545080008B5014B984708BD8B
:103090005145080008B5044B1B7803B908BD034B24
:1030A0009847034B9847F9E7AA0500209163080069
:1030B0006945080010B50124054B1C70054B1C70B8
:1030C000054A4FF480610548054B9847204610BDDE
:1030D000AA0500204C1A00202D2F08009C1A002061
:1030E000F9460800014B00221A707047AA0500201B
:1030F00008B5434B434A9A60DA88402A28BF4022E9
:103100009A81414A002111705B78103B212B75D8C0
:10311000DFE803F011271C3274745B747474423D51
:103120004C47515660656A74747474747474747422
:1031300074747474746F0620344B984708B9002077
:103140005DE02F4B324A1A61012058E006202F4BD8
:10315000984708B9002052E0294B2E4A1A610120F5
:103160004DE00620294B984708B9002047E0244B42
:10317000294A1A61012042E00620244B984708B9E9
:1031800000203CE01E4B254A1A61012037E01C4B11
:10319000234A1A61012032E0194B224A1A610120A8
:1031A0002DE0174B204A1A61012028E0144B1F4ADA
:1031B0001A61012023E0124B1D4A1A6101201EE012
:1031C0000F4B1C4A1A61012019E00D4B1A4A1A6173
:1031D000012014E00A4B194A1A6101200FE0084B44
:1031E000174A1A6101200AE0054B164A1A610120AC
:1031F00005E0034B144A1A61012000E0002008BDDD
:10320000F42D0020501A00204D1A0020411D080006
:103210006D2D0800A52C08003D2D0800E92C0800A4
:10322000A92E0800712E0800C11C0800791A080098
:10323000CD1A0800C92D0800BD2E0800B12D0800C8
:10324000BD2D0800B12F0800792C0800404BDA880A
:10325000C82A78D82DE9F0415B78123B1F2B74D82F
:10326000DFE803F02673733373507373104B5F5CA6
:103270006273454873737373737373737373737388
:103280007373736500246AB1324D0024DFF8E48063
:10329000314F2F4E4046B84705F8010B0134F388F3
:1032A000A342F7D82A4B2B4A9A609C8101204DE01B
:1032B000274A2A4B1B689360294B19689181002289
:1032C0001A60284B9847012040E00A20264B984777
:1032D000204B003818BF0120187000225A709A70D5
:1032E000DA701B4A93600423938101202EE01F4B68
:1032F00098472BE01E4B984728E001211D481E4BA4
:10330000984723E0134B00221A701E2159709A70BF
:103310000F4A936003239381012017E0174B9847CE
:1033200014E0174B984711E0164B98470EE0164AE9
:103330001178084B197052785A70054A936002232D
:103340009381012002E0002070470020BDE8F08159
:10335000F42D00209C1E00201D3A0800901A002029
:10336000941A00206D1D0800CF510800393F080055
:10337000C9290800000009402D360800091A080074
:10338000C9190800591A0800A805002003460120A1
:10339000014AD054704700BF981A0020014B002208
:1033A0001A547047981A002028B9194B1B7813B18A
:1033B000184B1B7803B970472DE9F047164B984717
:1033C000044618B3154F0025DFF854A004E0284642
:1033D000114B98470446C8B12646B4F5007F28BF74
:1033E0004FF40076324639462846D047002CEED0BE
:1033F0002C46DFF83090DFF830803A5D29464846A9
:10340000C0470134A4B2B442F7D3E0E7BDE8F08787
:10341000981A002078210020C5030800641F0020AE
:10342000CD0508000000094089390800002863D153
:10343000324B1B78002B5FD0314B1B78002B5BD0BD
:10344000304B01221A708B79042B55D90A79022A44
:1034500052D810B586B0086800900020049012037E
:103460000392053B9B0101934B79042B33D8DFE892
:1034700003F00334383B3F004FF4006302930D2008
:10348000214B98472148224CA0472248A047224878
:10349000A047224C224A69462046224B98472046A4
:1034A000214B98472046214B984701212046204B2D
:1034B00098474FF0006113201E4CA0474FF0006169
:1034C0001220A0471C4B4FF40052C3F8802150211A
:1034D00083F80D131A6006B010BD4FF40073029309
:1034E000CDE700230293CAE74FF4C0630293C6E717
:1034F0004FF480630293C2E7704700BF981A002020
:10350000A80500207821002065550800B829002072
:10351000D91E0800082D00203C270020000009408B
:1035200000D8B8057D6B0800816E0800716E080038
:103530008D6E08002152080000E100E0014B186088
:10354000704700BFAC05002038B51620104B9847D7
:10355000104B4FF48002C3F88021102583F81653D6
:103560001A600D4C4CF20102002120460B4B98478B
:103570004FF4965200212046094B98472A460021D5
:103580002046084B9847084B01221A7038BD00BFEF
:103590006555080000E100E000000840491E0800F1
:1035A000711E0800791E08006421002010B50A4B26
:1035B0001B786BB1094C00212046094B9847094BF9
:1035C0001A68094B1A6000212046084B984710BD25
:1035D000074B9847EEE700BF642100200000084039
:1035E000691E0800AC05002064260020611E08004A
:1035F0004935080008B500210148024B984708BD2D
:1036000000000840691E080008B5054B1B6813B18F
:10361000013B034A136000210248034B984708BD51
:103620006426002000000840811E080070B586B0A6
:1036300005460C46964B9B78103B082B00F28A817E
:10364000DFE813F009009C00DD008801EA00880132
:10365000880188011D0134B18D4BDC88042C14BF16
:103660000020012077E18A4BDB88072B40F0818026
:10367000874B9B681A6800921A79012A0ED0022A99
:1036800010D012B10022039200E003925A79042A6A
:1036900028D8DFE802F00B181C1F23004FF48052DB
:1036A0000392F3E74FF400520392EFE74FF4006206
:1036B00002929B79062B2DD0072B2ED0052B15D0EF
:1036C000C023019314E04FF400720292F1E700224C
:1036D0000292EEE74FF4C0620292EAE74FF4806292
:1036E0000292E6E74FF400620292E2E700230193C0
:1036F00000230493674B9D4212D0674B9D4220D01C
:10370000664B9D4229D0664A69462846654B9847D4
:10371000204620E140230193EAE780230193E7E775
:103720000D20614B98476148614EB0476148B047F2
:103730006148B047614B01221A706148614B98475C
:10374000E1E70E20584B98475F48594EB0475F4815
:10375000B0475A4B01225A70D5E70F20524B984779
:103760005B48534EB0475B48B047544B01229A70B8
:10377000C9E75948534B98472046ECE00CB100206C
:10378000E9E0564B98472846554B98470121284673
:10379000544B98473F4B9D4207D03F4B9D4218D01A
:1037A0003E4B9D4220D02046D5E04FF000611320D3
:1037B0004D4DA8474FF000611220A8474B4B4FF4E6
:1037C0000052C3F88021502183F80D131A6020465F
:1037D000C1E0464B4FF48042C3F88021502183F86A
:1037E0000E131A602046B6E0404B4FF40042C3F877
:1037F0008021502183F80F131A602046ABE00CB1F2
:103800000020A8E03A4EB0472846B047032128469A
:10381000384B984720469EE0002C00F09E801C4BC1
:10382000DB88042B01D0002095E0194B32499960C8
:1038300004219981174B984212D0174B984214D00B
:10384000164B984216D02C4B1A70C2F307215970B0
:10385000C2F307419970C2F30760D87020467AE03E
:103860001548264B98470246EDE71848234B9847E2
:103870000246E8E71748214B98470246E3E7002C49
:103880006DD0034BDB88042B3AD0002063E000BFEF
:10389000F42D00200000094000400940008009404C
:1038A00000D8B8057D6B080065550800B8290020D0
:1038B000D91E0800082D00203C2700207821002078
:1038C00014E50800C1780800E4280020342C00200A
:1038D00068260020602B002028E50800816E080083
:1038E000716E08008D6E08002152080000E100E0B2
:1038F000876E0800916E0800682100208D1F080067
:10390000184B1949996004219981184B984212D09B
:10391000174B984214D0174B984216D0124B1A707E
:10392000C2F307215970C2F307419970C2F30760CF
:10393000D87020460FE01048104B98470246EDE73C
:103940000F480E4B98470246E8E70E480B4B984746
:103950000246E3E7002006B070BD2046FBE72046A4
:10396000F9E700BFF42D0020682100200000094085
:103970000040094000800940082D00208D1F0800EC
:10398000E42800206826002038B5044613460D467A
:1039900059B1002219462846164B98472046164B27
:1039A000984710F0020F11D038BD144A904209D048
:1039B00002F58042904207D002F580429042F3D156
:1039C0000F4DE6E70F4DE4E70F4DE2E720460F4BC2
:1039D000984710F0020F04D1022120460C4B984763
:1039E000E2E728460B4B9847014620460A4B98478A
:1039F000F2E700BFE51E0800956E080000000940D0
:103A000068260020082D0020E4280020996E080078
:103A10008D6E0800391F0800D16E080008B50A4BEA
:103A200098420BD003F58043984209D003F58043B8
:103A3000984207D10548064B984708BD0548FAE764
:103A40000548F8E7FF20F8E700000940602B002058
:103A5000391F08003C270020342C00202DE9F041BC
:103A600007460E461546144B9847044610F0010FC2
:103A700004D114F0020F0ED1BDE8F081BB695FFAEA
:103A800083F80022414630460C4EB04700224146A2
:103A90000B48B047EDE728460A4B984738B128460F
:103AA000094B984701463846084B9847E4E70221FE
:103AB0003846074B9847DFE7996E0800E51E080077
:103AC000B8290020811F0800391F0800D16E0800A6
:103AD000916E080008B5034A03490448044B98470F
:103AE00008BD00BF082D00203C2700200000094031
:103AF0005D3A080008B5034A03490448044B984757
:103B000008BD00BFE4280020342C002000400940FC
:103B10005D3A080008B5034A03490448044B984736
:103B200008BD00BF68260020602B002000800940EF
:103B30005D3A080038B50446C0B2054DA847C4F345
:103B40000720A847C4F30740A847200EA84738BD60
:103B5000C143080008B5034B1B681843024B984744
:103B600008BD00BFB4050020353B080070B5074E06
:103B7000074D084C8020B047A847236823B110F0B8
:103B8000020FF7D0012000E0002070BDC143080003
:103B9000ED4308006426002070B56B20094B984760
:103BA0000F20094B9847074E084D094C2020B0477D
:103BB000A847236823B110F0800FF7D1012000E05F
:103BC000002070BDC1430800553B0800ED430800CC
:103BD000642600202DE9F04383B01A4B9847C1209A
:103BE000194CA0475920A047C220A0470220A04757
:103BF000E020A0470DF10704E9464FF0120889279D
:103C0000114E8DF800808DF80170AB238DF80230D5
:103C100045238DF80330CD238DF80430D8238DF85B
:103C2000053088238DF80630FF238DF80730207883
:103C3000B0474C4504F1FF34E3D1044B984703B03F
:103C4000BDE8F0838D440800C14308006D3B0800C7
:103C500070B5094B9847094C094D0A4EC120A04741
:103C60000020A0478120A047A84710B13368002B4F
:103C7000F4D1054B984770BD6D3B0800C143080067
:103C8000ED4308006426002065430800F8B50646A9
:103C90000C4615461C4B9847034608B91846F8BD14
:103CA0004C201A4FB8470A20194B98474320B84771
:103CB000012D19D96B20B8473046164B9847A020E4
:103CC000B847681EC0B2B8472420B847013DADB21E
:103CD00001352544104E114F336873B1B84704F8CD
:103CE000010BAC42F8D108E00C20084B9847304655
:103CF000084B9847094B98472070074B1B68003BBF
:103D000018BF0123CAE700BF993B0800C143080060
:103D1000553B0800353B080064260020ED430800B1
:103D20002DE9F0410746884616460B4B9847054655
:103D300010B92846BDE8F0814C20084CA0470A2065
:103D4000074B98473846A0474C20A0474046054BB4
:103D500098473046A047ECE7993B0800C14308006C
:103D6000553B0800353B08002DE9F84F81461746C2
:103D70001C460B9DBDF8306013F0010F08D1F6B959
:103D800014F0020F3FD14FF0010A5046BDE8F88F02
:103D90008846274B984782460028F6D04C20DFF80B
:103DA0009CA0D0470A20DFF88CB0D8474046D047C7
:103DB0004C20D0470B20D8470120D047DFE71C4BD1
:103DC000984782460028E0D04C20DFF87080C0473A
:103DD0000A20184B98474846C0476B20C0470A98AE
:103DE000154B9847A020C047701EC0B2C047642042
:103DF000C047013EB6B201362E4415F8010BC0474C
:103E0000B542FAD1BCE70A4B984782460028BCD09D
:103E10004C200A4CA0470A20064B98473846A0473A
:103E20004C20A0470A98044B98470020A047ACE7D5
:103E3000993B0800553B0800353B0800C14308008A
:103E4000F8B504460D46364B98470346A8B1402CBA
:103E500015D0302C22D04C20324EB0470A20324BA5
:103E600098472046B0474C20B04728462F4B9847EC
:103E70000020B0472E4B984703461846F8BD4C200B
:103E8000284CA0470A20284DA8474020A0474C2096
:103E9000A0470B20A8470120A047EBE74C20214C6E
:103EA000A0470A20204EB0473620A0474C20A0470C
:103EB0000B20B0470120A047194B98470346002824
:103EC000DBD04C20A0470A20B0473320A0476B200E
:103ED000A0472846154B9847A020A047154D2878A5
:103EE0000138C0B2A0476420A0472B884BB1002402
:103EF00027460C4E3846B047631CDCB22A88A242E3
:103F0000F8D84C20074CA0470A20074DA84730207E
:103F1000A0474C20A0470B20A8470120A047A9E7B5
:103F2000993B0800C1430800553B0800353B080099
:103F30006D3B0800B005002070B584B08F4B5988E8
:103F4000CBB28F4A1370013B212B2BD8DFE813F043
:103F500022002F0037007300C200E600E9002A00AB
:103F60002A002A002A002A002A002A002A002A0001
:103F70002A002A002A002A002A002A002A002A00F1
:103F80002A002A002A002A002A002A002A007C018E
:103F90005C016B017B4B98477B4B984780F001009D
:103FA0007A4B18707A4B9847002004B070BD754B5F
:103FB0009847784B9847754B00221A70F2E7714B7F
:103FC0009847724B00221A706C4B9B89042B15D9B1
:103FD0006A4B9B681A79D978090441EA02615A78D8
:103FE00011439A7841EA02211B78013B072B1ED826
:103FF000DFE803F01F0811131517191B634B01228B
:104000001A70CFE72020644B98470028CAD15F4B35
:1040100003221A70C6E76820F5E73020F3E7222074
:10402000F1E72A20EFE73220EDE71820EBE7002048
:10403000E9E74020E7E7534B9847544B00221A70BA
:104040004E4BDB88072B02D8504B01221A704B4B8A
:104050009B685A791979090441EA02619A781143F7
:10406000DA7841EA02211A78013A052A2ED8DFE8E7
:1040700012F0FD000E0001010501060029000820D4
:10408000464B1A78464B984700288BD116E02625D8
:1040900023202C22DE799C7944EA06245B78B4F54F
:1040A000807F28BF4FF4807402943C4C01940091AF
:1040B00029463C4CA04700287FF474AF334B0322C1
:1040C0001A706FE7262523201A22E3E72E222625E1
:1040D0002320DFE72B4B98472C4B00221A70274BED
:1040E00099688B794A7942EA03220879CB781B04D4
:1040F00043EA0063487803438878B2F5807F28BF9D
:104100004FF48072254943EA0020274B9847002846
:104110007FF448AF1D4B03221A7043E7194B9847B1
:1041200040E7184B9847194B00221A70134B998996
:1041300001290BD9114B9A681378013B072B5FD8E3
:10414000DFE803F0083643475E5E5E4B0F4B01220B
:104150001A7027E704290CD91179D3781B0443EA94
:10416000016351780B43927843EA02230F4A1360AC
:1041700018E7064B01221A7014E700BFF42D002047
:104180007C210020AD350800D53B0800DC2D002047
:10419000F5350800513C0800413E08008021002010
:1041A000213D0800693D08008D3C0800B405002051
:1041B000022906D99178537843EA0123304A1380C3
:1041C000F0E6304B01221A70ECE652782E4B1A7052
:1041D000E8E652782D4B1A70E4E6042903D8294BFF
:1041E00001221A70DEE61179D3781B0443EA0163D9
:1041F00051780B43907843EA0020254B9847D1E64D
:10420000204B01221A70CDE6080A224BDB8803EB13
:104210001121B1F5807F27DC1E491F4A02448A60C4
:104220008B810120C1E6080A1A4BDA8802EB1121C2
:10423000B1F5807F01DD0020B7E69968164B184480
:10424000164B98470120B0E6154A0E4B1B78537069
:10425000144B1B68B3FA83F35B0993700D4B9A60A0
:1042600003229A810120A0E600209EE62625232035
:1042700024220FE73625332035220BE74C20FFE6BA
:10428000B0050020DC2D0020B8050020B905002075
:104290003D350800F42D002080210020E978080039
:1042A0007C2100206426002038B50B4D0B4C28469D
:1042B000A0470028FBD0084C2046094B98472046D1
:1042C000084B98474FF020511420074B9847074B55
:1042D00000221A7038BD00BF00400940B56E0800CA
:1042E000776E0800816E08002152080080220020AD
:1042F00070B51825144C154E2846A04710B13368E8
:10430000002BF9D11825104C104E2846A04710B9A3
:104310003368002BF9D118250B4C0C4E2846A047CA
:1043200010B13368002BF9D1094C2046094B98474E
:104330002046094B98474FF000611420074B9847DF
:10434000074B01221A7070BDCF510800642600206F
:1043500000400940876E0800716E08002152080075
:104360008022002010B50F4B1B78BBB90E4C2046A5
:104370000E4B984720460E4B98474FF0205118207F
:104380000C4CA0474FF020511520A0474FF0205172
:104390001420A0470E20084B984710BD074B9847A4
:1043A000E4E700BF8022002000400940876E08003B
:1043B000776E08002152080099550800A9420800AC
:1043C00010B50446054B1B7823B121460448054B24
:1043D000984710BD044B9847F7E700BF80220020A4
:1043E00000400940D16E0800F142080070B582B06B
:1043F0000A4B1B7873B90A4D0A4C0B4E01A928468B
:10440000A047012802D13368002BF7D19DF80400A2
:1044100002B070BD054B9847EDE700BF8022002039
:1044200000400940E36E080064260020A94208000D
:10443000F8B5124B1B7823B10C271825104C114EE0
:1044400006E0114B9847F7E7013F17F0FF0713D03D
:104450002846A04710B13368002BF9D12846A04761
:1044600010B93368002BF9D12846A0470028EBD0BB
:104470003368002BF8D1E7E7F8BD00BF80220020A9
:10448000CF51080064260020F142080070B586B0C4
:104490000025194B1D700E20184B98474FF04051C6
:1044A0001420174CA0474FF020511520A0474FF083
:1044B00040511820A04740F25710124EB047142028
:1044C000114B98474520B0470295049505950F4B31
:1044D0000093C02301934FF4005303930C4A6946A1
:1044E0000C480D4B98474FF080511820A0470B4CBB
:1044F000A047A04706B070BD802200206555080087
:104500002152080089000020EB51080020A107007B
:1045100000B0710B00400940D16B08003144080025
:1045200010B50620024CA0470720A04710BD00BFD1
:10453000AD50080010B50620034CA0470720A04747
:104540001D20024B984710BDAD50080005520800D1
:1045500008B50620024B98471D20024B984708BD1E
:10456000D1500800EB51080008B50B4BA3FB00230A
:104570009B094FF47A7202FB130080B218B1B0F5B8
:10458000FA7F04D008BD0620044B9847FAE70620BE
:10459000034B9847F6E700BFD34D6210D150080097
:1045A000AD50080010B53E20074B9847074CA04778
:1045B0000028FCD04FF47102054BDA61054CA0478E
:1045C0000028FCD010BD00BFCD540800F5540800F1
:1045D00000040E405555080010B51248124B98477C
:1045E0003E20124B9847124CA0470028FCD04FF0B9
:1045F0008070104B9847104CA0470028FCD00F4B00
:1046000098470F4A0F4B9A620F4CA0470028FCD0E6
:1046100010200E4B98470E4B98470248024B984784
:1046200010BD00BF00D8B8053D010020CD540800E2
:10463000F5540800155508000555080035550800C3
:10464000013F0F2000040E40455508006954080042
:1046500001700800014B1878704700BF81220020CC
:1046600008B5054B9847C378044A13700BB1012075
:1046700008BD034B9847FBE79548080081220020BE
:10468000B530080008B5034B1B7803B108BD024BD9
:104690009847FBE781220020E530080008B50C4A66
:1046A000137892F90020002A06DB03F06003402B08
:1046B00018BF002009D008BD03F06003402B18BFCD
:1046C0000020F8D1034B9847F5E7034B9847F2E7F2
:1046D000F42D00204D320800F130080010B582B0F2
:1046E0000B460092024600218120024CA04702B0F6
:1046F00010BD00BF0566080010B582B00B460092E1
:10470000024600210220024CA04702B010BD00BFAB
:10471000056608000B4B1B681A6853881A44037817
:10472000184490420AD24378042B09D08B4208D017
:10473000037818449042F6D3002070470020704759
:10474000002070478822002008B5034B987800F0BD
:104750007F00024B984708BDF42D002059630800E4
:10476000184B1B783BB3184B1B681B681A798242A5
:1047700023D970B4154A13605C881C44A3421ED22E
:104780000025012604E01A7813443546A3420DD2D1
:104790005A78042AF7D19A788242F4D1DA788A4298
:1047A000F1D10DB1094A1360012002E0074A1360FC
:1047B000002070BC70470020704700207047002028
:1047C000F7E700BF87220020882200208C220020EB
:1047D0002DE9F84304460021124B98478046F0B17A
:1047E000114B1B685B6853F82490D9F80C3098473C
:1047F000014620460B4B9847804680B10B4B1C6806
:1048000005260B4D0B4F01E08078B8473146204616
:10481000A84704460028F7D1D9F804309847404605
:10482000BDE8F88361470800882200208C22002020
:1048300015470800BD6308002DE9F0418046104B84
:1048400098470346C8B10F4B1C6805260E4D0F4F05
:1048500031462046A847044638B18288C17880781E
:10486000B84703460028F3D107E0094B1B685B6893
:1048700053F828301B68984703461846BDE8F08176
:10488000614708008C2200201547080001670800D6
:1048900088220020014B1868704700BF8C2200203E
:1048A00008B5014B984708BD3D62080070B50D4B37
:1048B0001B7883B10C4B1B681B681B795BB1002410
:1048C0000A4E094DE0B2B04701342B681B681A79D3
:1048D000E3B29A42F6D80023024A1370044A1380C6
:1048E00070BD00BF8722002088220020D147080029
:1048F0008222002038B50E4B1B78BBB10D4B1A68D5
:1049000013681B7993B100240A4D06E02A6801342C
:1049100013681979E3B2994208D9E3B2526852F8A0
:1049200023301B69002BF1D09847EFE738BD00BF5B
:1049300087220020882200202DE9F041914B00229F
:104940009A811A615A611B88B3F5E07F1BD08D4BA9
:104950001A7893F90030002B1BDB12F0600F00F087
:104960004781884B1B7803F01F03012B00F0458221
:10497000844B1B7803F01F03022B00F0918200236D
:104980001846BDE8F081AE217F48804B984701234F
:10499000F6E77C4BDB88002B00F0AE8212F0600F54
:1049A000DFD112F01F0240F0C180764A5278062A09
:1049B0000BD0082A00F0B280002AD2D1022BD0D12D
:1049C00002217348714B98472FE16E4B5A88D4B23D
:1049D000130A013B0E2B00F20982DFE813F00F00EF
:1049E00023007A0007020702440052000702070270
:1049F000070207020702070207027500654B984786
:104A000028B9654B98680178604B984730E0624B55
:104A10001A68102191700221D170186801785B4BDF
:104A2000984725E05B4B984780B15B4B9B685B7C6C
:104A3000A34296D9584B1B6953F834004188534B15
:104A40009847504B9B6802225A7011E0524B1B68EA
:104A50005B7CA34285D9504B5B6853F83400418896
:104A60004A4B9847EDE74C4BD8680178474B98473D
:104A7000444BDA889B89934240F2D780414B9A811C
:104A8000D3E0444B984788B9434B9B685B7CA34277
:104A90007FF667AF404B1B6953F8340041883B4BAE
:104AA0009847384B9B6807225A70E1E73A4B1B68DE
:104AB0005B7CA3427FF655AF374B5B6853F83400FD
:104AC0004188324B9847ECE7212134482F4B9847D7
:104AD000CEE7D2B2032A3FF644AFDFE802F0141962
:104AE0001C0220202E4A13462E49024413F8014B83
:104AF00021F8024F9A42F9D1410002312948017050
:104B0000224B9847B4E704212748204B9847AFE74A
:104B10001520264AE7E71220254AE4E7012B7FF417
:104B200020AF01212348194B98477EE0012A49D143
:104B3000144A52780A2A7FF414AF012B7FF411AF84
:104B40001C4B1B78002B3FF40CAF0E4B1C791A4BFF
:104B50001D682B681B79A3427FF603AF0021204616
:104B6000164B984700283FF4FCAE6B6853F824308E
:104B7000DB689847124B187001211846034B984781
:104B800053E000BFF42D002044060020B16308006C
:104B90008222002049630800D401002054E5080067
:104BA000F4060020D005002014060020180600207E
:104BB000300600208722002088220020614708005C
:104BC00086220020022A7FF4CCAE934A5278002A33
:104BD0007FF4C7AE022B7FF4C4AE8F4B18798F4B96
:104BE00098478F4B1880022118468E4B98471CE03F
:104BF00012F01F0240F0B180874B5B78013B082B1D
:104C000000F2AB80DFE813F01300A9002300A90035
:104C10000900A900A900A90054007F4BDB88002BE4
:104C20007FF49FAE7C4B804A1A610123A8E67A4B41
:104C3000DB88002B7FF495AE774B5B88012B7FF4EC
:104C400090AE7A4A138823F002031380EDE7724B8B
:104C5000DB88002B7FF485AE6F4B5B88022B7FF4E3
:104C600080AE734B984700283FF47BAE6A4B1B79AC
:104C7000002B7FF476AE6F4B9847674B9B881B0ADF
:104C8000013B032B00F2B780DFE803F002060A0EB7
:104C9000614B694A1A61C8E75F4B684A1A61C4E709
:104CA0005D4B674A1A61C0E75B4B664A1A61BCE715
:104CB000594BDB88002B7FF454AE634B9847002898
:104CC0003FF44FAE5A4B9847002834D05F4B9B6857
:104CD0005A7C514B9B789A42FFF443AE554B984710
:104CE0004D4B9B785A4A1370002B9ED0504B9847DF
:104CF000002828D0564B1B7803F10052013A534B41
:104D00001B6903EBC203534A13601B681B79002B1A
:104D10008BD000242646504D4E4F3146E0B2A84776
:104D200000283FF41EAE01343B681B681A79E3B2D9
:104D30009A42F2D879E7454B1B685A7C364B9B78F0
:104D40009A42CBD20DE6424B1B7803F10052013A56
:104D50003E4B5B6803EBC203D5E7012A1AD0022A57
:104D60007FF4FFAD2C4B5B78012B31D0032B7FF40C
:104D7000F8AD294AD388528813439BB2002B7FF4A5
:104D8000F0AD254C2079354B98472079344B984726
:104D900003462CE0204B5B780B2B7FF4E2AD1E4BDF
:104DA000DB88002B7FF4DDAD294B1B78002B3FF413
:104DB000D8AD194B1C795D8820462A4B98470028AE
:104DC0003FF4CFADE9B22046234B984703460EE0AF
:104DD000114AD388528813439BB2002B7FF4C1AD94
:104DE0000D4B1879204B9847034600E00023002B19
:104DF0007FF4C6ADB5E50023F9E7154B1B78002B12
:104E00007CD0054B1C79134B1D682B681B79A34282
:104E10002CD80023B4E500BFF42D00201564080051
:104E200084220020B1630800494708008222002044
:104E300049630800AD480800FD690800216A0800C0
:104E4000456A08005D6A080081630800D4010020FB
:104E5000872200208822002039480800896908003C
:104E600049640800D14708000D650800002120466C
:104E7000234B984700283FF47BAD6B6853F82450D0
:104E8000EB689847014620461D4B984700283FF4A1
:104E90006FADAB689847034600287FF471AD67E5B6
:104EA000184B1B7823B3184B1A6813681B790BB384
:104EB0000025134E144FECB2536853F82480D8F8F1
:104EC0000C30984701462046B047034600283FF47F
:104ED00057ADD8F808309847034600287FF450AD06
:104EE0003A68013511680879E9B28842E3D847E5A4
:104EF000002345E5002343E5002341E500233FE58A
:104F00006147080087220020882200200B4B1B6885
:104F10002BB9EFF310833BB10022094B1A70074AFB
:104F2000136801331360704772B6BFF35F8F0022BE
:104F3000044B1A700122024B1A70F0E790220020F5
:104F400094220020EE060020074B1A68013A1A60EE
:104F50001B6843B9054B1B782BB10122044B1A7017
:104F6000BFF35F8F62B6704790220020942200202A
:104F7000EE0600202DE9F04180B90C469046002A4B
:104F80000FDD8F18084E094D306821462B68984771
:104F90000134BC42F8D14046BDE8F0814FF0FF3803
:104FA000F9E78046F7E700BFF02D0020E82D00204C
:104FB0000138022815D82DE9F0410E4614469AB161
:104FC0000D46DFF838800C4FD8F8000015F8011BAB
:104FD0003B68984700280ADBA81B013CF4D1BDE8D8
:104FE000F0814FF0FF3070471046BDE8F0814FF080
:104FF000FF30BDE8F08100BFEC2D0020F02D002037
:10500000F8B54FF060510620174CA0474FF06051A3
:105010000720A0474FF040511D20A0471D20134BF3
:1050200098474FF060510820A0470820104EB04725
:10503000104F4FF04052FF2138460F4DA847FF2137
:1050400038460E4B98474FF060513520A047352029
:10505000B0474FF000624FF4C0510948A8474FF0E5
:1050600080511B20A047F8BD2152080005520800BE
:10507000EB510800000E0E40F1520800BD5108002F
:10508000000C0E4010B54FF40042054B5A600A2048
:10509000044CA0470B20A047034B984710BD00BF0E
:1050A00050120E40655508000150080010B5044626
:1050B000062802D0072C04D010BD0620034B9847C9
:1050C000F8E70720014B9847F6E700BF05520800B4
:1050D00010B50446062802D0072C04D010BD0620C7
:1050E000034B9847F8E70720014B9847F6E700BFC6
:1050F000EB51080001EB810100EB81010A67704769
:1051000001EB810100EB81014A67704701EB8101EE
:1051100000EB81018A67704701EB810100EB81019F
:10512000C1F8802070474264B1F1805F16D00BD87F
:1051300049B1B1F1006F05D1036F016F0B4023EA54
:105140000203036742607047B1F1405FFBD0B1F1E9
:10515000605FF8D0B1F1205FF4D17047036F134363
:105160000367EFE7416412F0010F14BF4166016667
:1051700012F00A0F14BF0162416212F0020F07D150
:1051800012F0080F18BFC0F8841041610160704729
:10519000C0F88010F9E710B4019C416444B901667D
:1051A00043B1016542B941630161016010BC7047C0
:1051B0004166F5E74165F5E70163F5E7C0F8A01042
:1051C000704781637047C06C7047806C70474309BB
:1051D00003F5001303F206735B02DB6B00F01F00A4
:1051E00023FA00F000F001007047430903F50013B3
:1051F00003F206735B0200F01F00012202FA00F0C6
:1052000018637047430903F5001303F206735B024A
:1052100000F01F00012202FA00F0586370470000FE
:1052200070B582B00D46430903F5001303F206730F
:105230005C0201F0F043B3F1205F31D016D8B3F136
:10524000006F1BD0B3F1805F16D100F01F00012664
:10525000864032464FF080512046224B984715F049
:10526000010F14BF66662666012017E0B3F1405FA8
:1052700021D0B3F1605F1ED000200FE000F01F00CE
:105280000126864032464FF000612046154B984774
:1052900015F0010F14BF66662666012002B070BDCE
:1052A00000F01F0101262A4606FA01F120460E4BA6
:1052B00098473046F2E705F0605200F01F010126E2
:1052C00005EA06030093C5F38003B2F1605F14BFE3
:1052D0000022012206FA01F12046044CA047304684
:1052E000DCE700BF2751080065510800975108000E
:1052F00070B582B005460E46144602F0F043B3F195
:10530000205F27D011D8B3F1006F16D0B3F1805FC2
:1053100011D10A464FF08051194B984714F0010FF4
:1053200014BF6E662E66012012E0B3F1405F15D007
:10533000B3F1605F12D000200AE00A464FF000612E
:105340000F4B984714F0010F14BF6E662E660120B4
:1053500002B070BD0B4B98470120F9E704F0605292
:1053600004F001030093C4F38003B2F1605F14BF43
:105370000022012231462846034CA0470120E7E7DE
:105380002751080065510800975108002DE9F041A8
:10539000044688460E4B9847054620460D4B9847D5
:1053A000054013D00C4C04F1600603E0B4420DD06C
:1053B00010345DB120684045F8D161682942F5D0CC
:1053C000E3689847636825EA0305EFE7BDE8F081E5
:1053D000C7510800CB5108009822002008B50A21C7
:1053E0000148024B984708BD000C0E408D53080041
:1053F00008B50B210148024B984708BD000E0E402E
:105400008D530800174A136B23F0030343F0010385
:105410001363936E13F0080F0AD14FF40063114920
:105420008A6E12F0080F03D1013BF9D101207047B9
:105430000C4A136B23F0700318431063936E13F040
:10544000080F0AD14FF4006306498A6E12F0080F64
:1054500005D1013BF9D101207047002070470020A1
:10546000704700BF00040E40174A136B23F070030F
:1054700018431063936E13F0080F0AD14FF40063C2
:1054800011498A6E12F0080F03D1013BF9D10120B6
:1054900070470D4A136B23F0030343F002031363B9
:1054A000936E13F0080F0AD14FF4006306498A6E19
:1054B00012F0080F05D1013BF9D1012070470020FF
:1054C00070470020704700BF00040E40084A136A6E
:1054D00023F0030343F45C1343F00103000280B2A2
:1054E00003431362936E13F0010FFBD0704700BFAC
:1054F00000040E40024B986E00F00100704700BFA0
:1055000000040E40024B986E00F48030704700BFDC
:1055100000040E40064B1B6A30B923F0807343F43D
:105520005C13034A1362704743F08073F7E700BFD0
:1055300000040E404FF00052014B9A62704700BFCA
:1055400000040E40024B986E00F00200704700BF4E
:1055500000040E40024B986E00F04000704700BF00
:1055600000040E401D280ED81F280ED8094B9A693A
:105570000123834093430AD0012303FA00F0054B33
:1055800018610020704701207047002070470020FC
:10559000704700BF00040E401D2810D81F2810D8E7
:1055A000094B9A6901238340934301D0002070473F
:1055B000012303FA00F0044B5861002070470120DA
:1055C00070470020704700BF00040E404FF4807306
:1055D00003FA00F0014B1860704700BF00040E4052
:1055E000034B1A6FC0F3120010431867704700BFD7
:1055F00000040E40024B187880F00100704700BF95
:105600000823002008B51420014B984708BD00BFAF
:105610006555080008B51420014B984708BD00BF28
:105620009955080010B443F69923046914F0010F4A
:1056300003D1013BF9D1012009E08368406810F0F3
:10564000020F1CBFC3F3034010700B80002010BC7E
:10565000704730B443F69924056915F0020F03D161
:10566000013CF9D101200CE0446814F0020F06D08F
:10567000120402F4702211430BB141F08071C16039
:10568000002030BC704732B900EB8100036B23F07F
:1056900001030363704700EB8100036B43F00103D8
:1056A0000363704732B900EB8100036B23F0020300
:1056B0000363704700EB8100036B43F00203036355
:1056C0007047431E1944B1FBF0F0431EFE2B94BFFC
:1056D00000B24FF0FF30704700EB81010B6B23F4F9
:1056E0007F430B630B6B43EA02220A63704700009F
:1056F0000346C0B9184A127892B1EFF3108072B61F
:10570000BFF35F8F154A0021117015498A78013A5D
:105710008A7028B9114A01211170BFF35F8F62B6F8
:105720000D4A137070470C4A1278002AF8D1EFF333
:10573000108072B6BFF35F8F084A002111700849CC
:105740008A7801328A700028EAD1044A0121117056
:10575000BFF35F8F62B6E3E70A230020EE06002066
:10576000E02D0020EFF3108372B6BFF35F8F0E4A77
:10577000002111700D4A4FF48061C2F808112BB955
:10578000094B01221A70BFF35F8F62B6074B4FF4CB
:105790000072C3F81821064A0023136153619381F4
:1057A000044A1370704700BFEE06002000400A4014
:1057B000F42D002010230020034B05221A70034B08
:1057C0002022C3F8142170471023002000400A4013
:1057D000114B03221A70EFF3108172B6BFF35F8F83
:1057E0000E4B00221A700E4B4FF48062C3F8182142
:1057F0004FF40060C3F81401C3F804214FF40042D1
:10580000C3F81821C3F8042129B9044B01221A70E6
:10581000BFF35F8F62B6704710230020EE060020B2
:1058200000400A4008B5024B1B6903B1984708BD08
:10583000F42D002038B5EFF3108372B6BFF35F8FFD
:105840004C4A002111704C4A4FF48061C2F8081193
:105850002BB9484B01221A70BFF35F8F62B6474BDA
:105860001B78032B5AD0464B1B88464A9489E41A6E
:10587000A4B2C4B9444A11880B449BB21380414A74
:10588000D2889A424FD0414B1B78002B4BD13D4BD5
:105890005B69002B6CD09847002869D0384B0022F8
:1058A0001A80384B9C893F2C92BF01220022402451
:1058B000364B1A70334B9A68314B1888EFF31085CA
:1058C00072B6BFF35F8F2B4B002119702A4BD3F8B0
:1058D0001C3113F4007F40D14CB102442C4B1946CB
:1058E000013312F8010B0870D9B2A142F7D3244A50
:1058F00013881C441480204B4FF48062C3F8182195
:105900004FF40061C3F81411C3F804217DBB194B97
:1059100001221A70BFF35F8F62B628E01D4B9847D3
:105920001D4B984723E0154B04221A70EFF31081AA
:1059300072B6BFF35F8F0F4B00221A700E4B4FF4FD
:105940008042C3F81821C3F8042181B9094B012210
:105950001A70BFF35F8F62B609E02DB9054B0122C3
:105960001A70BFF35F8F62B6044B04221A7038BD01
:1059700001229DE7EE06002000400A40102300208F
:105980000C230020F42D00200E23002009230020EA
:1059900000001820255808006557080038B5034650
:1059A0000846197D11F0010F11D0197D6FF3000128
:1059B00019751C685CB102F108014901044D695870
:1059C00011F0080F18BF42F080029968A04738BD57
:1059D00000400A40F8B50246431E03EB43006C4901
:1059E00001EBC001097D11F0010F00F0CA800146F2
:1059F000674800EBC101CD688868854200F0A68049
:105A0000401BB0F5803F63D80404510101F14021EF
:105A100001F52021D1F8006116F0080F14D0D1F85B
:105A2000006106F007060821B1400139014268D043
:105A300044F0080403EB4301554E06EBC1010E7D13
:105A40006FF341060E755CE0510101F1402101F553
:105A50002021D1F80061C6F30116012E4FD1D1F8F3
:105A6000006106F007060821B140814247D248E0B4
:105A700044F021048C6003EB4301454A02EBC10270
:105A8000D1680144D1601061424A11694FF0007041
:105A900000FA03F30B431361002D72D13E4B012238
:105AA0001A70BFF35F8F62B66BE04FF40063C1F80A
:105AB0000431384B19694FF4807000FA02F20A433E
:105AC0001A615EE0D1F800114FF48030002418E034
:105AD000510101F1402101F52021D1F8004114F0DC
