S014000053414D33555F4357313137332E73726563E2
S214080000D0150820316208002F6208002F62080009
S2140800102F6208002F6208002F6208000000000008
S2140800200000000000000000000000002F6208002A
S2140800302F620800000000002F6208002F620800E8
S2140800402F6208002F6208002F6208002F6208003F
S2140800502F6208002F6208002F6208002F6208002F
S2140800602F6208002F620800E1480800F5480800DB
S2140800702F620800992408002F6208002F620800E3
S2140800802F6208002F6208002F6208002F620800FF
S2140800902F6208002F620800ED4008002F62080053
S2140800A02F6208002F6208002F6208002F620800DF
S2140800B02F620800595008002F62080010B5054C3A
S2140800C0237833B9044B13B10448AFF300800123F7
S2140800D0237010BD381500200000000064CF08000B
S2140800E00C4B43B10C4810B50C49AFF300800C48D4
S2140800F0036823B910BD0A48036833B97047094B2B
S214080100002BF7D0BDE810401847064B002BF5D05B
S214080110184700BF0000000064CF08003C15002008
S21408012064CF080000000000024A1378013BDBB2E7
S214080130137070475F150020002070470020704736
S2140801401D4B1B7813F0800F05D103F06003202B9E
S21408015018D00020704703F06003202B01D0002041
S2140801607047154B5B78212B24D1134BDB88072B64
S21408017001D000207047104B104A9A6007229A81D7
S214080180012070470C4B5878202804D0222814BF2A
S214080190002001207047084BDB88072B01D0002081
S2140801A07047054B064A1A61044A9A6007229A81E4
S2140801B001207047002070477C2800205815002032
S2140801C0DD03080010B50024124B1C70124B1C806F
S2140801D0124BA1221A7020225A705C8001229A8043
S2140801E00222DA801C810E494FF4E1330B600C7151
S2140801F04C7108238B7120460A4B984720460A4BB9
S2140802009847024620B103490B780133DBB20B70DE
S214080210104610BD5F150020741900208C1D0020A4
S21408022058150020B129080005290800424B1B78FC
S21408023003B1704770B582B0404B984700283DD050
S2140802403F4B1C883F4B9847844272D0EFF310858B
S21408025072B6BFF35F8F00223B4B1A703B4B1C787D
S214080260E4B23B4B33F81430002B2ED00022394B27
S2140802701A80394B1B78002B43D1B4FA84F35B09F8
S214080280324A137001222C4B1A7025B92E4B1A705D
S214080290BFF35F8F62B626462D4B33F81430B3F59E
S2140802A0007F14BF0125002534D0244B984700282A
S2140802B02BD0244B9847224B18802EE0204B1C88C6
S2140802C0264B98478442C1D133E0224A138801332B
S2140802D013801A4B984718B91E4B1B88632B08D9EE
S2140802E0164B98470028C1D01A4B1B88B3F5487F91
S2140802F0BCD2F5B90122144B1A70BFF35F8F62B6F1
S21408030017E0B4FA84F46409BCE7144B98470C4B1E
S214080310188002E000220A4B1A800D4B33F816307C
S2140803200F4A00920F4A02EB4422294685200E4CBB
S214080330A04702B070BD00BF881D00209D58080069
S214080340841D0020F5580800600B0020801D002042
S2140803507C1D00205415002078190020E558080058
S2140803606D0308007C190020595B080000B170472F
S21408037008B5074B1B78B3FA83F35B09054A22F8DE
S2140803801300054B1870054B1870054B984708BDA9
S214080390801D00207C1D002078190020881D002064
S2140803A02D02080008B50020014B984708BD00BF7D
S2140803B02D02080008B5064A1378013BDBB2137015
S2140803C01078044B98470022034B1A7008BD00BFEC
S2140803D060150020212908005615002008B5024996
S2140803E00020024B984708BD58150020B129080080
S2140803F0EFF3108372B6BFF35F8F00210A4A1170BD
S2140804000A4A108882B20A490978C9B2094830F8F7
S214080410110080B2801A2BB90122034B1A70BFF361
S2140804205F8F62B6704700BF600B00206C19002013
S214080430681900206419002008B5034B9847003057
S21408044018BF012008BD00BFF103080010B582B030
S214080450EFF3108372B6BFF35F8F0021214A117045
S214080460214A1478214A12784AB9E4B2204A1188F7
S21408047089B2204A32F8142092B291420AD2002B4E
S2140804802DD10122174B1A70BFF35F8F62B600207A
S21408049002B010BD0021164A1180B4FA84F252093F
S2140804A011490A700121114A117023B90D4B1970B0
S2140804B0BFF35F8F62B600200F4B984758B90F4BB3
S2140804C000934FF400730E4A02EB442201210620E3
S2140804D00C4CA047DCE700200B4B9847EFE70020C2
S2140804E0D6E700BF600B00206819002070190020AE
S2140804F06C1900206419002039040800A1050800BA
S21408050064150020595B08003929080010B5002436
S214080510164B1C70164B1C70164B1C70164B1C701A
S214080520164B1C805C80164B1C802046154B984743
S214080530154B1C70154B1C70154B1C805C80154B9E
S2140805401C802046144B9847014640B1074A13784A
S2140805500133DBB213701378DBB2012B01D00846E7
S21408056010BD01220D4B1A70F9E700BF6015002078
S214080570881D002078190020801D00207C1D002082
S214080580841D00202D02080070190020681900201C
S214080590641900206C1900204D0408005615002028
S2140805A0F0B910B582B010460E4B1C78B4FA84F435
S2140805B0640951B189B20C4B23F8141000200B4B78
S2140805C018700B4B984702B010BD0A4B00934FF4B7
S2140805D00073094A02EB44220121084CA047F2E7BF
S2140805E0704700BF681900206419002070190020A1
S2140805F04D040800A105080064150020595B080092
S2140806002DE9F84F15468846204F4FF0000BDA467E
S2140806101F4EDFF8949019E01E4A32F81340A4B231
S214080620641AAC4228BF2C4601EB432122461A4BDB
S21408063019444046194B9847338823449BB2338065
S214080640A0442D1B5846164B9847DDB1EFF3108093
S21408065072B6BFF35F8F87F800A0318889B299F821
S2140806600030DBB20B4A32F8132092B220B90120D0
S2140806703870BFF35F8F62B69142CDD3094B1B78B3
S214080680002BE3D12846BDE8F88F00BF600B00209A
S2140806906C1900206419002064150020E16A08001F
S2140806A04D0408005615002068190020EFF3108244
S2140806B072B6BFF35F8F0021134B1970134B1B786C
S2140806C0DBB2134931F81300B0F5007F09D0C0F546
S2140806D000702AB901220C4B1A70BFF35F8F62B6FE
S2140806E070470C4909780029F1D10B490978002987
S2140806F0EDD1012008490870B3FA83F35B09034972
S2140807000B700020E3E700BF600B0020801D002070
S2140807107C1D0020881D00207819002008B5034B92
S2140807209847003018BF012008BD00BFAD06080076
S2140807302DE9F0410C461B4B9D79092D14BF002569
S2140807400125194E194FDFF874801DE0EFF310826B
S21408075072B6BFF35F8F00233B7098F80030DBB2A9
S214080760134931F8130000F1010E21F813E011497E
S21408077001EB43231C5422B901233B70BFF35F8F60
S21408078062B65DB1241200250020B0470028DDD1EE
S214080790094B1B78002BF7D1BDE8F0810120BDE896
S2140807A0F08100BF581500201D070800600B0020C8
S2140807B07C1D00207C19002056150020801D002076
S2140807C00023436003608360704710B404680134F4
S2140807D0C82C28BF00244368A34205D1002AFAD1B2
S2140807E083680133836003E0036803441973046075
S2140807F010BC70470246436801688B4207D0591CF4
S214080800C82928BF00210344187B51607047FF2081
S214080810704702684068101A18BF012070470368BE
S2140808204068181A48BFC8307047000038B50546F3
S214080830184C2046184B984780232360636843F07B
S21408084001036360636843F010036360636823F022
S21408085080036360002211462046104B9847012209
S214080860002120460E4B98470E4928460E4B9847BF
S214080870C2B2002120460D4B9847012323604FF053
S21408088000610E200A4CA0474FF000610F20A047D9
S21408089038BD00BF00800040094B08008B4B08009D
S2140808A0A94B080000D8B805C74B0800DD4B080060
S2140808B02547080010B500231A4601460148024C91
S2140808C0A04710BD00800040574B080038B50546C5
S2140808D00820194B9847194C2046194B98478023EF
S2140808E02360636843F001036360636843F01003A2
S2140808F06360636823F08003636000221146204625
S214080900104B98470122002120460F4B98470F4965
S21408091028460F4B9847C2B2002120460D4B9847F1
S214080920012323604FF000610E200B4CA0474FF0C8
S21408093000610F20A04738BDE94608000080004047
S214080940094B08008B4B0800A94B080000D8B805CF
S214080950C74B0800DD4B08002547080008B50820E7
S214080960014B984708BD00BFCF46080010B50023C6
S2140809701A4601460148024CA04710BD00800040B8
S214080980574B0800914B9B89092B00D070472DE9DF
S214080990F04F8DB002460C468C4B9D6809AB286814
S2140809A0696803C329891980BDF824300393B3F511
S2140809B0807F09D9864B1A70C0225A700222854B4E
S2140809C01A800DB0BDE8F08F132A0CBF9DF82B30A7
S2140809D09DF82C300493059415467F4B1B680793A7
S2140809E0039B002B3ED0013B9BB20133E3180693D2
S2140809F0274600230393AB4692E0784B9847784BFC
S214080A004FF000021A7099E09DF82A3043F0080368
S214080A108DF82A30704B1B8819F0010F00F0C6803D
S214080A2003936D4A136801331360BBF1130F74D137
S214080A309BB2002B71D10123694A13706DE00393B2
S214080A4056E0039363E05D4600239DF826804FFA40
S214080A5088F4002C0ADB5E4A1570537002225D4B40
S214080A601A80AEE70023F0E75D46EEE75D4F002309
S214080A701A469DF8291038465B4EB04700231A469A
S214080A800799C1F307213846B04700231A469DF850
S214080A901C103846B04700231A4619463846B04751
S214080AA018F0200F07D0039B2BB924F0300343F02F
S214080AB010038DF826309DF827309DF826009DF8FF
S214080AC02A200092049A0399484CA0470346132DFF
S214080AD0C1D1414A1288002ABDD10121404A11706D
S214080AE0B9E719F0010F64D011E019F0010F0ED123
S214080AF09DF827309DF82A200092049A03994846C4
S214080B003A4CA04703460028AED10023039318F0BA
S214080B10010F86D1BBF1150F53D0069B9F4292D08A
S214080B20059BA7EB03081FFA88F817F8016B9DF8D2
S214080B3026902B4B1B78002B7FF45FAF9DF828A0E0
S214080B4000231A4651462748274CA047224D002323
S214080B501A4669782348A04700231A462978214868
S214080B60A04700231A4631461E48A047BBF1130F7C
S214080B7004BF8AF0080A8DF828A0039B002BB4D17E
S214080B80049BB342ADD018F0010F03D0BBF1130F8E
S214080B903FF43AAF9DF82A3023F008038DF82A3040
S214080BA00D4B1B8819F0010F7FF44BAF002B7FF419
S214080BB046AF19F0080F9BD129F0060949F002093B
S214080BC096E7054A136801331360A6E77C280020D9
S214080BD03C2800203A2800205C280020051208003F
S214080BE03828002000800040574B080045120800AF
S214080BF0434B9B89032B00D070472DE9F04F85B0F7
S214080C003F4B9B681B6803933E4A1070C024547081
S214080C1002243D4A14809BB20193B3F5807F6CD8BA
S214080C20002B64D082464F1E0026384CB94623E077
S214080C30374B9847374B4FF000021A7022E088F07F
S214080C4008088DF80E801BF0010F10D0324A136882
S214080C500133136006E0304A136801331360BAF1B3
S214080C60160F04D09BB213B901232A4A1370013613
S214080C70B3B2019A9A423AD91FFA86FB254B1B78DB
S214080C80002BD5D19DF80E8000231A4641462046F3
S214080C90224DA847204F00231A4679782046A847B1
S214080CA000231A4639782046A84700231A461946CC
S214080CB02046A847236913F4007FFBD00DF10902EC
S214080CC00DF10A012046164B98479DF80A3009F898
S214080CD0013FBAF1140FB2D01BF0010FBBD1BAF125
S214080CE0160FC4D10C4A136801331360BFE70022FD
S214080CF0044B5A700222044B1A8005B0BDE8F08FE8
S214080D007C2800203C2800203A280020008000404C
S214080D1005120800382800205C280020574B0800D9
S214080D20294B0800204B9B89052B00D070472DE9DE
S214080D30F04F85B007461C4B9B68186802901A79D6
S214080D408DF80C2093F800B00DF1090601AD0DF1F1
S214080D50080A164CDFF86090DFF8608000231A4611
S214080D6016F8011B2046C847236913F4007FFBD0FA
S214080D700DF101020DF102012046C0479DF8023030
S214080D8005F8013B5545E9D1094B1F7000225A70FA
S214080D9004A98B441BF80D1C9970DA700422054BC5
S214080DA01A8005B0BDE8F08F7C280020008000403F
S214080DB03C2800203A280020574B0800294B0800FA
S214080DC0134B9B89042B00D070472DE9F04383B062
S214080DD081460F4B9B681B6802AC44F8043D0DF136
S214080DE008080C4F00260C4D3346324614F8011BF3
S214080DF03846A8474445F7D1084B83F800900022A8
S214080E005A700222064B1A8003B0BDE8F08300BF72
S214080E107C28002000800040574B08003C28002013
S214080E203A2800207047000000B9704738B50146D8
S214080E3043F2B062002343F2AF6400250448E0FBA7
S214080E40014520462946034CA047034B984738BD22
S214080E5000D8B8055967080089000020434B9B89CD
S214080E600B2B00D070472DE9F04F8BB03F4B9B689B
S214080E7007AA1868596803C21889997A1080917069
S214080E805A78164603929878DC781A7901925A7935
S214080E90029293F806B00022354B1A60354DA847E3
S214080EA0354B98470120354B98473046A84704F1FC
S214080EB0FF395FFA89F9002C51D0314B1B6823B1F2
S214080EC02C4F304CDFF8CCA01FE0C0233DE0BBF130
S214080ED0000F39D00AAB5B4413F8113C029A9342D0
S214080EE032D00020254DA847039E3046B84701203B
S214080EF0A8473046B84709F1FF395FFA89F9B9F1CA
S214080F00FF0F2ED01E4B1B686BB30DF1230606ADE4
S214080F100DF11C080198B84700231A4616F8011B5D
S214080F202046D047236913F4007FFBD00DF1150245
S214080F300DF116012046144B98479DF8163005F813
S214080F40013B4545E6D1C2E70023104A102111703F
S214080F50537002220E4B1A800BB0BDE8F08FC023E8
S214080F60F3E7C023F1E7C023EFE700BF7C280020A3
S214080F705C280020290E080081100800411108008E
S214080F806428002000800040294B08003C280020E8
S214080F903A280020574B0800104B9B89022B00D09C
S214080FA0704710B582B00D4B9B681888ADF80400E2
S214080FB0C0B20B4CA04700200A4B98470A4B9847EC
S214080FC09DF80500A047094B11221A7000225A7096
S214080FD00222074B1A8002B010BD00BF7C280020F2
S214080FE0290E080041110800291108003C28002095
S214080FF03A2800201B4B9B89062B00D070472DE90A
S214081000F04782B0174B9B68186800909A88ADF82E
S214081010042093F800A093F801900DF102040DF156
S2140810200608114F0026114D3346324614F8011BA8
S2140810303846A8474445F7D1B9F1000F0DD15046B8
S2140810400B4B98470B4B12221A7083F8019002221A
S214081050094B1A8002B0BDE8F087084B98478146CE
S214081060F0E700BF7C28002000800040574B0800AF
S214081070290E08003C2800203A2800208511080080
S21408108038B598201E4B98471E4B53F820501E4CD8
S21408109020461E4B984780232360636843F001036D
S2140810A06360636843F010036360636823F080033B
S2140810B0636017492846174B9847051EB8BFFF2593
S2140810C0002211462046144B98470122002120464C
S2140810D0124B9847EAB200212046114B9847012345
S2140810E023604FF000610E200E4CA0474FF00061C1
S2140810F00D20A0474FF000610F20A04738BD00BF65
S21408110005360800D401002000800040094B08007E
S21408111000D8B805C74B08008B4B0800A94B080039
S214081120DD4B08002547080008B50348022303607E
S214081130024B984708BD00BF00800040194B0800C6
S21408114008B580B14FF0605111200A4B98479E2091
S214081150094B984718B91120084B984708BD112025
S214081160074B984708BD4FF020511120014B984770
S21408117008BD00BF2547080005360800CF4608000A
S214081180E946080070B582B01A4C00261A4D334658
S2140811903246F0212046A847334632463146204696
S2140811A0A8473346324631462046A8473346324695
S2140811B031462046A847236913F4007FFBD00DF17B
S2140811C005020DF1060120460C4B98479DF806309F
S2140811D013F0010F05D00A4B1B68002BD7D18120CE
S2140811E005E0074B1B68002B14BF0020812002B0C7
S2140811F070BD00BF00800040574B0800294B080010
S2140812006428002038B50C4D00231A464D21284680
S2140812100A4CA04700231A4619462846A04700232A
S2140812201A46074989782846A04700231A461946C9
S2140812302846A04738BD00BF00800040574B08002E
S2140812405C2800202DE9F04782B09DF8289000F031
S2140812507E0008284DD00F46904607DD202809D086
S214081260402846D0102833D0002035E002282FD05A
S2140812700428F9D14FEA172A1F4C00261F4D33467B
S214081280324649462046A847334632465146204607
S214081290A84733463246F9B22046A8473346324670
S2140812A031462046A847236913F4007FFBD00DF18A
S2140812B005020DF106012046114B98479DF80630A9
S2140812C098450FD10F4B1B68002BD8D1802003E020
S2140812D018460D4B9847002064220A4B1A6002B045
S2140812E0BDE8F087074B1B68002B14BF0020802042
S2140812F0F2E7064B9847EFE700800040574B080098
S214081300294B080064280020290E080085110800CB
S214081310064B1B780F2B07D8591C044A1170044A31
S21408132042F823000120704700207047D81D00208F
S214081330981D0020064B1B780F2B07D8591C044A0B
S2140813401170044A42F823000120704700207047B5
S214081350D91D0020DC1D002008B5014B984708BDA4
S2140813600542080008B5014B984708BD2142080009
S21408137008B5044B1B7803B908BD034B9847034BC5
S2140813809847F9E764040020E55808003942080041
S21408139010B50124044B1C70044A4FF480610448BD
S2140813A0044B9847204610BD64040020FD21080021
S2140813B038240020D54308000022014B1A707047D5
S2140813C06404002038B5104B104A9A60DA88402A20
S2140813D028BF40229A810E4B1B789BB10D4D03F116
S2140813E08042013A05EB8304013BDBB2D31A05EBD6
S2140813F0830554F8043D9847034608B9AC42F8D12B
S214081400184638BD0023FBE77C280020F823002078
S214081410D91D0020DC1D002038B50C4B1B789BB16D
S2140814200B4D03F18042013A05EB8304013BDBB226
S214081430D31A05EB830554F8043D9847034608B9C4
S214081440AC42F8D1184638BD0023FBE7D81D00206B
S214081450981D0020054B5B78222B04D1044A034BC9
S2140814601A61012070470020704700BF7C280020C2
S2140814707514080010B5224B9B78013B102B3ED8FC
S214081480DFE803F00914183D3D3D3D3D3D3D3D3D3B
S2140814903D3D3D2C3B003E201A4B98471A4CA04732
S2140814A00028FCD01020194B984710BD1020184B68
S2140814B0984710BD01220C211648174B9847174B22
S2140814C09847174B5A6812F4003FFBD1144A136822
S2140814D043F0254343F005031360FEE70F4B984798
S2140814E00F4B5A6812F4003FFBD10D4A136843F0BD
S2140814F0254343F005031360FEE70A4B984710BDE3
S2140815007C280020D1490800F94908000949080044
S2140815106D49080000080E4011410800655808008B
S21408152000120E403D330800054B00221A703C217D
S21408153059709A70034A9360032393810120704779
S214081540B82300207C28002038B50A4C40220A49D7
S21408155020460A4DA847202323723722084904F15B
S2140815600900A847074DAC602046074B9847A88156
S214081570012038BDB823002094CB0800B16E0800BF
S21408158088CB08007C280020556E080008B5074B55
S2140815905B78172B03D0402B04D0002008BD044BE3
S2140815A0984708BD034B984708BD00BF7C28002015
S2140815B0291508004915080008B50348034B98473D
S2140815C00348044B984708BD8D15080011130800FA
S2140815D05514080035130800034BB3F90300B3F994
S2140815E00130C01A00B2704768040020284B9B8858
S2140815F0012B01D000207047254B5B78A02B10D01C
S214081600234A5288A12B36D0A22B3FD1214B134414
S2140816101F4A23F0030393604FF4807393810120DD
S21408162070471D4A11781D4B1970B2F90110C9B2DE
S2140816305970B2F90310C9B29970B2F90510C9B257
S214081640D970B2F90710C9B21971917A5971D2F8DE
S2140816500B10C8B29871C1F30720D871C1F30740C0
S2140816601872090E5972527A9A72094A93600B23B5
S214081670938101207047094B1344054A23F003035E
S21408168093604FF480739381012070470120704760
S2140816907C2800204000082068040020000008205D
S2140816A0F0B583B02D4B9B78422B08D02B4B9B88EC
S2140816B0013B9BB2012B12D9002003B0F0BD274B8B
S2140816C05B78222BF2D1264B9847264B9847264B19
S2140816D001249C749C72254B98472046EDE71F4BC7
S2140816E05B780BB10120E8E7214E40252A46002109
S2140816F03046204CA04777192A4600213846A0478E
S2140817002A46002106F19000A04706201A4CA0475A
S2140817108520A0474FF020510D20184CA0474FF0C9
S21408172040510E20A0474FF040510F20A0474FF0E1
S21408173040511420A0470C4B01249C749C72002135
S214081740D97219735973997319740D4B00932B46F4
S2140817503A4606200B4DA8472046AEE77C280020D0
S214081760812C0800E5320800680400202D2C0800AB
S21408177000000820CD6B0800CD5E0800254708004D
S21408178089170800595B0800F0B583B0C0B11F4B35
S214081790DB7B63B91E4B009340231E4A00210620BC
S2140817A01D4CA0470122194B9A7203B0F0BD184B86
S2140817B000934023194A00210620174CA047E9E762
S2140817C00E46124BDB7BEBB179B10024144F154D56
S2140817D0B84720442B1993F89030DBB2284480F899
S2140817E040300134A4B2B442F2D30D4B984730448B
S2140817F0064BA3F80300054B0022DA735A709A705A
S2140818009A72D2E7014BA3F80310F4E768040020A5
S2140818108917080040000820595B08009000082037
S214081820D91508000000082030B583B008BB1A4B4D
S214081830B3F905506C1A0BD00022134617480A4411
S214081840825CD2B2C25401339BB21A46A342F6D384
S214081850691A0BB2104AA2F80530ABB90E4A002333
S2140818600221517193710D490B704B70937203B03E
S21408187030BD094BB3F90530094A0092074A0021E2
S2140818808520084CA047F2E7054A0092034A002143
S2140818908520044CA047EAE76804002000000820DA
S2140818A029180800595B0800014B987C704700BF50
S2140818B06804002030B583B000F001040D4B5B7A55
S2140818C08BB99CB10E200C4B984700238DF8073037
S2140818D00F200A4DA8470D20094B9847041C18BF2F
S2140818E001240F20A847204603B030BD0E20054B24
S2140818F09847EAE768040020CF4608000347080030
S214081900B3460800E946080030B583B0104B5B7C48
S2140819103BB110F0010F4FF0140014BF0D4B0E4BE7
S214081920984700238DF80730094B5B7C43B10025A8
S2140819300F200A4CA0470F20A047284603B030BD0A
S2140819401420074B9847051C18BF0125F0E700BF71
S21408195068040020CF460800E94608000347080048
S214081960B34608002DE9F84F0C46002940D08046BB
S21408197001F1FF395FFA89F909F1010907260025FF
S2140819802C461D4FDFF874B0DFF874A00BE048FA59
S21408199005F000F00100D84744EAC014E4B2013567
S2140819A0013E4D4524D03B7813F0080F0CD0640850
S2140819B03B7C002BEBD048FA05F000F00100D0473E
S2140819C044EAC014E4B2EAE73B7C43B148FA06F0BE
S2140819D000F00100D047B0402043C4B2DFE748FA21
S2140819E006F000F00100D847B0402043C4B2D6E75E
S2140819F02046BDE8F88F00BF68040020B518080028
S214081A000919080008B50821014B984708BD00BF0A
S214081A106519080030B583B010F0010F4FF01400B8
S214081A2014BF0B4B0B4B984700238DF80730142038
S214081A30094DA8470F20094CA0470D20A847054682
S214081A400F20A047281C18BF012003B030BD00BFD8
S214081A50CF460800E9460800B346080003470800D2
S214081A602DE9F04707460E46072908D091B300240B
S214081A704FF0000ADFF86C90DFF86C8018E0C309B6
S214081A804FF00E0014BF154B154B98470124EFE78F
S214081A90C4F1070547FA05F000F00100C047A84062
S214081AA040EA0A005FFA80FA0134E4B2A64212D984
S214081AB099F8003013F0080FEAD047FA04F000F05F
S214081AC00100C047C4F10703984040EA0A005FFADD
S214081AD080FAE9E78A465046BDE8F087CF46080010
S214081AE0E946080068040020151A080030B583B0D7
S214081AF0604BB3F907302BBB5F4B9847012857DD7F
S214081B005C4BB3F9011008B28CB2651C2DB2A3F871
S214081B1001505A4A024492F84010C9B20AB2A3F8D1
S214081B200720187810F0020F46D11846A31CA0F814
S214081B300130524B1D4495F8403042EA03220132E8
S214081B40A0F807204C4B984700287EDD494B1B78A9
S214081B5013F0100F7DD0474BB3F90120511CA3F8A2
S214081B600110464B134493F84000454B9847414BA9
S214081B701B7813F0200F0ED03E4AB2F905301946EE
S214081B8001339BB2A2F805303C4A5054C3F14003D7
S214081B901BB2002B61DD374AB2F90730013B1BB296
S214081BA0A2F8073013B90022324B1A7003B030BDC2
S214081BB00122304BDA73F9E701312E4BA3F80710F0
S214081BC010F0400F29D110F0100008D0A31C294AA5
S214081BD0A2F80130294B1D4495F84000C0B2C9B29E
S214081BE0284B9847234B0022DA711A721B7813F099
S214081BF0200F0ED01F4AB2F90530194601339BB2A2
S214081C00A2F805301D4A5054C3F140031BB2002BFE
S214081C100FDD0022174B1A70C8E7A31C154AA2F856
S214081C200130164B1D4495F84000C9B2164B98472C
S214081C30D8E701220F4B9A72144B009340230F4AA1
S214081C4000218520124CA047E3E70122094BDA73EE
S214081C50ACE700200A4B984789E70122054B9A72A1
S214081C600A4B00934023054A00218520084CA047CC
S214081C7091E700BF68040020D91508000000082076
S214081C80051A080065190800611A080029180800CE
S214081C90595B08002DE9F04782B0774B1B78803BEC
S214081CA00A2B00F2E480DFE813F00B0098005E00D1
S214081CB0AB00BC00C200D500C700E200E200DE00B0
S214081CC06E4B984701281BDD6B48B0F9013019B2F6
S214081CD09BB26B4A114491F840805FFA88F8991CC9
S214081CE0A0F8011001331BB2134493F84070FFB2FA
S214081CF0012500240646DFF88C91DFF894A10EE053
S214081D0001225D4BDA7378E04FF06051C84714F053
S214081D10FF0F1CD0072D22D801340135EDB2231D44
S214081D2006EB8303D3F803000028F3D047FA04F33E
S214081D3013F0010F0FD048FA04F212F0010FE3D1A6
S214081D40337C002BE0D04FF04051C847E2E7D6F886
S214081D501300D047E0E74FF02051C847DAE70022E3
S214081D60454B1A7049E0454B9847012823DD424801
S214081D7000230370B0F9013019B29BB2404A1144EF
S214081D8091F84010C9B29C1CA0F8014001331BB260
S214081D90134493F8403011F0010F1AD00122027450
S214081DA011F0020F0BD042744FF06051D0F81F00AC
S214081DB0344B984721E001222F4BDA731DE02E4C56
S214081DC04FF02051D4F81F002E4B98470023637419
S214081DD013E00022284B1A740FE0274B00211970D5
S214081DE0274A917003205871997101209872264BE2
S214081DF0009303238520254CA04702B0BDE8F08752
S214081E001D4B002119701E4A0120907003245C7136
S214081E10997198721C4B0093234685201B4CA0474B
S214081E20EBE7154B01225A7200221A70E5E7124BAF
S214081E3000225A721A70E0E70F4B01229A720021AC
S214081E401970B3F90530104A00920D4A85200F4CD8
S214081E50A047D2E7084BB3F901200232A3F80120C5
S214081E6000221A70C9E70022034B1A70C5E7002241
S214081E70014B1A70C1E700BF68040020D915080096
S214081E80000008202547080029180800595B0800A4
S214081E900347080008B50348034B98470348044B14
S214081EA0984708BDA116080035130800ED15080068
S214081EB0111308002E4B9B7C002B58D02C4B9B7A7A
S214081EC0002B54D12DE9F04182B0294BDB7B13B3AC
S214081ED0274BB3F901800025264F274E08E004EB70
S214081EE00803334493F84030DBB2344484F8403077
S214081EF0ACB2B84701358442F1DB01221C4B9A721A
S214081F001E4B009340231E4A002106201D4CA04766
S214081F1002B0BDE8F081174B984700281BDD144B2C
S214081F201B787BB9124BB3F901104A1CA3F80120A1
S214081F30114A0A4492F840201A70D3F80B2001324E
S214081F40C3F80B200A4B93F90030002BB4BF0E4B96
S214081F500E4B9847DCE70122054B9A72074B009315
S214081F6040230B4A00210620064CA047D0E77047BE
S214081F7068040020D9150800000008208917080002
S214081F8090000820595B0800951C0800ED1A080008
S214081F904000082008B51B4B5B88A03B122B30D8A6
S214081FA0DFE803F00A141A2F2F2F2F2F2F2F2F2F8B
S214081FB02F2F2F2F1E282C00124BDB88042B06BF32
S214081FC0114B18681148124B984708BD114B984793
S214081FD00A22114B1A7008BD00220F4B1A7008BD52
S214081FE0084BDB88042B06BF074B186807480B4BC3
S214081FF0984708BD1422084B1A7008BD0022064BE5
S2140820001A7008BD7C280020F823002040420F00E4
S214082010CD0808005D0908001C1E00202D080800D1
S21408202008B50022204B1A70204B5B78103B062B15
S2140820302FD8DFE803F004170E202E2E29000620DE
S2140820401B4B9847002826D01A4A184B1A610120BD
S21408205008BD0620164B9847F8B1174A134B1A6165
S214082060012008BD0620124B9847C0B1134A0F4BF3
S2140820701A61012008BD06200D4B984788B1104A02
S2140820800A4B1A61012008BD0E4A084B1A61012046
S21408209008BD002008BD002008BD002008BD00209F
S2140820A008BD002008BD00BF1C1E00207C2800209C
S2140820B01133080091210800F9200800C9200800FB
S2140820C03D210800951F080070B5074B5E68074B52
S2140820D098470425064C2846A0470028FBD03046DB
S2140820E0044B984770BD00BFF82300203D33080016
S2140820F01133080055330800F8B50A4B1E685F68A8
S214082100094B98470525094C2846A0470028FBD0C8
S2140821103846074B98474FF0C042064B1A60064BA6
S2140821201E60F8BDF82300203D3308001133080070
S21408213055330800201E0020241E0020F8B50E4B3C
S2140821401C685F680D4B984701260D4D3046A8471A
S2140821500028FBD038460B4B98474CB10A4A002358
S2140821600A4D12F8010F2968C85401339C42F8D169
S214082170024B9847F8BD00BFF82300203D330800FF
S2140821801133080055330800FF2300201C0B0020DD
S214082190F8B50A4B1E685F68094B98470225094C34
S2140821A02846A0470028FBD03846074B9847074ADA
S2140821B031464FF0C040064B9847F8BDF82300203C
S2140821C03D3308001133080055330800D5210800B0
S2140821D0B943080010B50446054B984704B110BD2E
S2140821E0044B98470228FAD10020034B9847F6E795
S2140821F03D330800493308001133080070B505461A
S2140822000C461F4B9847BDB91E4B1B78F3B944B113
S2140822101D4A1E4D12F8010F2968C85401339C4206
S214082220F8D11B4B984704280DD01A4A4FF4806102
S21408223019481A4B984770BD164A4FF480611648DD
S214082240164B984770BD0E4B9847EEE70A2B0CD0F6
S214082250142BEAD1002CE8D00B4D2C44104E15F860
S214082260010FB047A542FAD1DFE7002CDDD0064DB6
S2140822702C440C4E15F8010FB047AC42FAD1D4E7FF
S2140822803D3308001C1E0020372400201C0B0020AD
S21408229049330800FD21080038240020D5430800EB
S2140822A0B50808006D09080008B5134B5B78122BB3
S2140822B003D0152B0ED0002008BD0F4A0F4B1B6805
S2140822C093600F4B1968918100221A600D4B98474E
S2140822D0012008BD0A200C4B98470C4B003018BF4D
S2140822E00120187000225A709A70DA70024A9360B9
S2140822F004239381012008BD7C280020201E00208E
S214082300241E00203D330800B3460800B8230020EA
S21408231008B5044B98470448044B98470448054BAF
S214082320984708BD3D330800A92208001113080085
S2140823302120080035130800164B5B781A3B172B2C
S21408234026D8DFE803F0110C25252525161B25259C
S21408235025252525252525252525252525200E4A17
S2140823600C4B1A61012070470C4A0A4B1A6101206F
S21408237070470B4A074B1A6101207047094A054BFC
S2140823801A6101207047084A024B1A6101207047FB
S214082390002070477C28002039270800812708007D
S2140823A0AD230800B92308004527080008B5014BE7
S2140823B0984708BD393A080008B5014B984708BD44
S2140823C07D33080010B50D200A4B98474FF0006182
S2140823D01320094CA0474FF000611220A047074B76
S2140823E04FF40052C3F88021302183F80D131A6089
S2140823F010BD00BF694A08002547080000E100E054
S21408240008B5D0F8983203B108BD014B9847FBE7EA
S214082410C523080070B504460068194B984705465A
S21408242010F0010F03D115F0020F15D170BD20462C
S21408243050F81C3B9E69F6B200223146114B98476D
S21408244094F89C3213F0040FEDD00022314604F5C0
S214082450E2700C4B9847E6E704F1F00528460A4B6D
S214082460984720B902212068084B9847DEE7246879
S2140824702846074B984701462046064B984770BDA6
S2140824808D610800CB07080013080800856108005E
S214082490F5070800AD61080008B50248024B9847E2
S2140824A008BD00BFAC0400201524080038B5044653
S2140824B09DF810006160012A0ED022B1022A0FD0C2
S2140824C00022226101E000222261042B27D8DFE8DF
S2140824D003F00B171B1E22004FF480522261F4E70C
S2140824E04FF400522261F0E74FF40063E3600628D9
S2140824F036D0072837D0052815D0C023A36014E0A7
S2140825004FF40073E360F2E70023E360EFE74FF46D
S214082510C063E360EBE74FF48063E360E7E74FF4FC
S2140825200063E360E3E70023A360002363612046BB
S2140825300E4B984794F89C3243F0020384F89C327A
S21408254004F1F0000A4DA84704F11C00A84704F55A
S214082550E270A847074A211D2068074B984738BDF0
S2140825604023A360E1E78023A360DEE70124080098
S214082570C107080000D8B805AD60080070B5044665
S21408258000F1F005002228460E4B984720680E4BAF
S214082590984710F0020F00D070BD20680B4B984784
S2140825A010F0020F04D102212068094B9847F3E780
S2140825B026682846074B984701463046064B9847F4
S2140825C0F1E700BFCB070800896108008D610800A5
S2140825D081610800F5070800AD6108000028024878
S2140825E018BF0020704700BFAC04002010B582B0AA
S2140825F0244B5C88200A244B984700283FD0034683
S214082600E0B2142807D018281FD0102814BF0020BE
S214082610012002B010BD1B4AD288032A01D8002028
S214082620F7E7184A194C94600421918103F11C00BD
S214082630174B98472070C0F307236370C0F307430F
S214082640A370000EE0700120E3E70E4AD288032A42
S21408265001D80020DDE70B4A0C4C946004219181D8
S21408266003F1F0000A4B98472070C0F30723637005
S214082670C0F30743A370000EE0700120C9E70020EE
S214082680C7E700BF7C280020DD250800B823002007
S2140826901F08080070B582B01D4B5C88200A1D4BC9
S2140826A0984738B10546E3B2112B18D0122B23D021
S2140826B0102B01D002B070BD154BDB88072BF9D163
S2140826C0134CA3681E68144B9847A1684B790A797F
S2140826D08979009131462846104CA047EAE70E4B08
S2140826E0984728680E4B984728680E4B984701214C
S2140826F028680D4B9847DDE700680C4B9847286814
S2140827000B4B9847032128680A4B9847D2E700BF27
S2140827107C280020DD25080001240800AD240800D8
S2140827207561080069610800816108007B6108001E
S2140827306F6108008561080008B5014B984708BD19
S2140827409526080070B50C4B5E8800240B4D204675
S214082750A84760B146FA04F212F0010F90F89C22DE
S21408276014BF42F008026FF3C30280F89C220134BB
S214082770042CECD170BD00BF7C280020DD250800A5
S214082780F8B50C4B5888000A0B4B984788B1064694
S214082790084BDA889B8993420BD352B10024054D27
S2140827A0064FAB68195D3046B8470134EB88A3423C
S2140827B0F7DCF8BD7C280020DD2508007D2508000C
S2140827C070B50024094D0A4E02E00134042C05D0E9
S2140827D02046A8470028F8D0B047F6E70548064B35
S2140827E098470648064B984770BD00BFDD25080089
S2140827F00124080049280800111308003923080096
S21408280035130800F8B50D4D00240D4F2646204612
S214082810B8472E7020B190F89C32C3F3C0032B70D3
S21408282001340135042CF2D1064B044A9A60DA8842
S214082830042A28BF04229A810120F8BDB823002064
S214082840DD2508007C2800202DE9F041244B5B7824
S2140828501A3B172B3DD8DFE803F0100C3C3C3C3CF9
S21408286030343C3C3C3C3C3C3C3C3C3C3C3C3C3CAF
S2140828703C381C4B9847BDE8F081194B5888000A2D
S214082880194B984740B3164BDB88A3B1174D002465
S21408289000F11C08164E124F4046B04705F8010FC7
S2140828A00134FB88A342F7D80D4B124A9A609C81E4
S2140828B00120BDE8F0810024F6E70F4B9847BDE8F5
S2140828C0F0810E4B9847BDE8F0810D4B9847BDE860
S2140828D0F0810020BDE8F0810020BDE8F08100BF4F
S2140828E07C280020ED250800DD250800B7230020F9
S2140828F0F5070800B8230020393A08007D33080099
S2140829000528080008B5054B984790F89C3243F010
S214082910040380F89C32012008BD00BFDD250800AE
S21408292008B5044B984790F89C326FF3820380F8FA
S2140829309C3208BDDD2508002DE9F0478146174B77
S214082940984790F89C3203F00603062B01D0BDE8A2
S214082950F08707464846124B984705460028F6D0A3
S214082960104EDFF844A0DFF84480B5F5007F28BF96
S2140829704FF400752A4631464846D0473DB10024F4
S214082980315D3846C0470134A4B2A542F8D8484657
S214082990034B984705460028E7D1D8E7DD25080009
S2140829A0F1030800281E0020010608007D250800FF
S2140829B030B583B00D46144B984790F89C3213F008
S2140829C0040F03D004466B79042B01D903B030BD3D
S2140829D02968AB79053B9B01DBB2009300231A46B6
S2140829E00A4DA84720460A4B984710F0010FEDD12C
S2140829F02068084B98472068074B984701212068AD
S214082A00064B9847E2E700BFDD250800AD2408001E
S214082A10896108007561080069610800816108001D
S214082A202DE9F84F0025DFF84CB0DFF84C80DFF8CA
S214082A304CA0DFF84C900DE02046D04701463846BB
S214082A40C84706F5E2742046C0470028F4D1013589
S214082A50042D0CD0EFB22846D84706460028F6D0F4
S214082A6090F89C3203F00603062BF0D1E9E7BDE8A0
S214082A70F88F00BFDD25080013080800F5070800D2
S214082A8031070800104B1B681A6853881A440378E5
S214082A901844904211D24378042B10D08B4209D0A8
S214082AA003781844904206D24378042B09D08B4208
S214082AB0F6D107E0704700207047002070470020D6
S214082AC070470020704700BF3020002008B5034B31
S214082AD0987800F07F00024B984708BD7C280020B5
S214082AE0AD580800194B1B784BB3194B1B681B686D
S214082AF01A79824225D970B4164A13605C881C4439
S214082B00A34220D20025012607E0124A13600FE0F0
S214082B101A7813443546A3420CD25A78042AF7D1B9
S214082B209A788242F4D1DA788A42F1D1002DECD133
S214082B30012002E0074A1360002070BC704700209E
S214082B407047002070470020F7E700BF2D200020C0
S214082B5030200020342000202DE9F84304460021C8
S214082B60134B9847804610B94046BDE8F883114B8A
S214082B701B685B6853F82490D9F80C3098470146D0
S214082B8020460B4B984780460028EDD00A4B1C6819
S214082B9005260A4D0A4F31462046A847044610B176
S214082BA08078B847F7E7D9F804309847DCE700BFDD
S214082BB0E52A08003020002034200020852A080056
S214082BC0115908002DE9F0418046104B98470346F6
S214082BD0C8B10F4B1C6805260E4D0F4F31462046D0
S214082BE0A847044638B18288C1788078B847034633
S214082BF00028F3D107E0094B1B685B6853F82830B8
S214082C001B68984703461846BDE8F081E52A080081
S214082C1034200020852A0800455C08003020002063
S214082C20014B1868704700BF3420002008B5014BD8
S214082C30984708BD9157080070B50D4B1B7883B1AF
S214082C400C4B1B681B681B795BB100240A4E094DA8
S214082C502046B0470134E4B22B681B681B79A342B0
S214082C60F6D80023024A1370044A138070BD00BFCA
S214082C702D20002030200020592B08002820002076
S214082C8008B5024B9847024B984708BD855608007A
S214082C90392C080038B50D4B1B78B3B10C4B1B68A4
S214082CA01A6812798AB10024094D06E00134E4B2A4
S214082CB02B681A681279A24207D95B6853F8243041
S214082CC01B69002BF2D09847F0E738BD2D2000206E
S214082CD030200020F8B5884B00229A811A615A6184
S214082CE01B88B3F5E07F19D0834B1B7813F0800F51
S214082CF027D113F0600F00F050817F4B1B7803F04C
S214082D001F03012B40F2A9817B4B1B7803F01F039E
S214082D10022B00F0A58200231846F8BD774B98478B
S214082D2050B94D22764B83F8B6204FF4A5717448F7
S214082D30744B98470123EFE75722714B83F8B62068
S214082D40F3E76D4AD288002A00F0B38213F0600FCA
S214082D50D3D113F01F0307D167494978062917D03E
S214082D60082900F0C18059B1012B00F0DF80022B42
S214082D70C3D1614B5B78002B00F001810023FBE197
S214082D80022A40F06A8102215F485E4B984720E19C
S214082D90594B5A88D4B2130A013B0E2B00F25682BE
S214082DA0DFE813F00F0023007C00540254024600AC
S214082DB05400540254025402540254025402540258
S214082DC07700524B984728B9514B986801784D4B75
S214082DD0984732E04E4B1A68102191700221D17044
S214082DE018680178474B984727E0484B984788B1BA
S214082DF0474B9B685B7CA3427FF67FAF444B1B69BF
S214082E0053F8340041883F4B98473B4B9B68022257
S214082E105A7012E03E4B1B685B7CA3427FF66DAF90
S214082E203B4B5B6853F834004188364B9847ECE7D1
S214082E30374BD8680178334B98472F4BDA889B89ED
S214082E40934240F2C6802C4B9A81C2E02F4B98479B
S214082E5088B92F4B9B685B7CA3427FF64EAF2C4B02
S214082E601B6953F834004188264B9847224B9B68C9
S214082E7007225A70E1E7264B1B685B7CA3427FF665
S214082E803CAF234B5B6853F8340041881D4B98478A
S214082E90ECE721211F481B4B9847CEE7D2B2032AFE
S214082EA03FF62BAFDFE812F007000C00070204001D
S214082EB02024194A06E004211848124B9847BCE714
S214082EC0174A1524013A1749002312F8010F21F86A
S214082ED0020F0133DBB29C42F7D861000231114879
S214082EE00170084B9847A8E7012A40F0B6800121F0
S214082EF00D48044B98476CE07C280020A918080069
S214082F007007002005590800282000209D58080052
S214082F10380900204C070020680B00200009002014
S214082F2004090020BC0800202D2000209449497878
S214082F300A297FF41CAF012A40F08F80914B1B783A
S214082F40002B00F08A808E4B1C798F4B1D682B68EF
S214082F501B79A34240F28180002120468B4B98477C
S214082F6000283FF4CAAE6B6853F82430DB689847ED
S214082F70874B187001211846864B984729E0022A85
S214082F807FF4C2AE7E4B1879834B9847834B1880E4
S214082F90022118467F4B98471BE013F01F0340F0AA
S214082FA0DF80774A5278013A082A00F2D980DFE8AB
S214082FB012F01200D7002000D7000900D700D7006B
S214082FC0D70050006E4BDB88002B46D1744A6C4BFA
S214082FD01A610123A0E66A4BDB88002B3DD1684BBB
S214082FE05B88012B39D16F4A138823F002031380BC
S214082FF0EFE7634BDB88002B2FD1614B5B88022BF6
S21408300040F02681684B984700283FF476AE5C4B24
S2140830101B79002B7FF471AE644B9847584B9B88FE
S2140830201B0A013B032B00F21581DFE803F00206BA
S2140830300A0E5F4A524B1A61CBE75E4A504B1A613A
S214083040C7E75D4A4E4B1A61C3E75C4A4C4B1A61A8
S214083050BFE74B4BDB88002B2CD0494B9B88022BB9
S21408306000F0FA80474B1B78002B3FF44DAE444BDC
S2140830701C79454B1D682B681B79A3427FF644AE26
S21408308000212046414B984700283FF43DAE6B6828
S21408309053F82450EB689847014620463B4B984720
S2140830A000283FF431AEAB689847034600287FF403
S2140830B033AE29E6424B984700283FF41EAE3A4BFB
S2140830C09847002838D02E4B9A783E4B9B685B7CF6
S2140830D09A423FF712AE354B9847294B9B78294AB8
S2140830E01370002B3FF475AF2F4B984700282BD052
S2140830F0244B1B7803F10053013B324A126902EB5A
S214083100C303214A1360204B1B681B681B79002BDE
S2140831103FF45FAF002427462B4E1B4D394620460A
S214083120B04700283FF4E9AD0134E4B22B681B68C9
S2140831301B79A342F2D84CE7114B9A78214B1B68AF
S2140831405B7C9A42C7DDD8E50E4B1B7803F100532B
S214083150013B1C4A526802EBC3030B4A1360D2E7D2
S214083160012B33D0022B7FF4C8AD054B5B78012BBF
S21408317049D0032B57D00023002B7FF4CDADBCE5F8
S2140831807C2800202D20002030200020E52A08007A
S2140831902C20002005590800655908002A20002020
S2140831A0CD2A0800282000209D580800392C080041
S2140831B0315F0800555F0800795F0800915F0800D6
S2140831C0D558080038090020C52B08003B4A527815
S2140831D00B2AC7D1394BDB88002B7FF43EAF384B20
S2140831E01B78002B3FF439AF344B1C795D8820469A
S2140831F0344B984700283FF480ADE9B22046324B5E
S21408320098470346B8E72D4BDB88002B7FF47CAD48
S2140832102A4B5B88002B7FF477AD284B18792B4B0D
S21408322098470346A8E7254BDB88002B7FF46CAD50
S214083230224B5B88002B7FF467AD204C2079244B0B
S21408324098472079234B9847034695E7002393E74A
S214083250002391E700238FE70122184B9A8001E7A5
S214083260174B1B780BB31C4B1A6813681B79F3B102
S21408327000241A4E184F536853F82450EB689847A2
S21408328001462046B047034600283FF445ADAB68E4
S2140832909847034600287FF43FAD0134E4B23A6805
S2140832A011680979A142E6D836E5002334E50023FB
S2140832B032E5002330E51224094A03E67C2800207C
S2140832C02D200020592B0800C52B0800615A08003D
S2140832D0CD5E08009959080030200020E52A08002D
S2140832E01C090020064B5A68064911605968064AA8
S2140832F04A601969054808601B695A60704700BF2C
S21408330038090020C4090020300900208C0A002053
S21408331010B50446064B9847064B1B7833B9054B41
S2140833201C700124044B9847204610BD0024F9E77A
S214083330F1430800382000202D4408000022014BE5
S2140833401A70704738200020014B1878704700BF65
S2140833503820002008B501460448054B9847352014
S214083360044B98473520044B984708BD000E0E407E
S214083370A7460800E9460800CF46080038B57B4B44
S2140833809C787B4B1C707B4B9847631E212B00F266
S214083390E380DFE813F0220037003700E100E100A1
S2140833A06C00E100E100E1008800E100E100E100D6
S2140833B0E100E10090009400A40098009E009800A8
S2140833C09E00AD00A800AD00A800A800A800B200A6
S2140833D0E100E100B600CF00C000654C0023637032
S2140833E00D23A370644B07CBC4F80300C4F807107A
S2140833F0C4F80B201B78E3735C4B9C6010229A8100
S214083400012038BD594B9B681D78022C0CD002222F
S2140834105A4B1A8028465A4B9847032C17D0C02276
S214083420584B5A70012038BD5C780222534B1A80DC
S2140834302846534B984710F0020FF0D00022514B05
S2140834405A7021462846504B9847012038BD10F040
S214083450010FE4D04B4C0023637028464B4B98472B
S214083460A070464A138801331380012038BD3F4BAD
S2140834709A68D17893781B0443EA016311780B4362
S214083480527843EA0223424A1360002B07DB0022E5
S2140834903C4B5A700222394B1A80012038BD012253
S2140834A03C4B1A70F3E70022364B5A700222334B15
S2140834B01A80012038BD384B9847012038BD374B55
S2140834C09847012038BD36492046364B9847012094
S2140834D038BD33492046344B9847012038BD334B16
S2140834E09847012038BD2046314B9847012038BD03
S2140834F02046304B9847012038BD2F4B984701206F
S21408350038BD1A4A1F4B93601C4B198891810022BC
S2140835101A80012038BD154A53881B0AD288991884
S214083520B1F5807F20DC11481D490B4483608281F9
S214083530012038BD0D4A53881B0AD2889918B1F560
S214083540807F01DD002038BD084989681448184482
S2140835501A4B9847012038BDC9220A4B5A700222D6
S214083560064B1A80012038BD002038BD7C28002074
S2140835703C21002091400800A0CB08003A280020F3
S214083580F13508003C2800201936080005360800E2
S2140835905C280020382800205D0E0800990F0800D7
S2140835A03C20002085090800F10B0800F50F0800EC
S2140835B0250D0800C10D0800250E0800E16A080060
S2140835C0094B1B7883420AD0084B03F11B011A7873
S2140835D0824206D003338B42F9D100207047024856
S2140835E070471846704700BF200B0020230B0020AA
S2140835F008B5034B984708B1407808BD002008BDB9
S214083600C135080008B5034B984708B1807808BD4F
S214083610002008BDC135080010B50C46024B984777
S21408362000B1847010BD00BFC135080038B5054626
S214083630C0B2054CA047C5F30720A047C5F307400E
S214083640A047280EA04738BDC13E080008B5034B62
S2140836501B681843024B984708BD00BF400B002064
S2140836602D36080070B5074E074D084C8020B04729
S214083670A847236823B110F0020FF7D0012070BDC9
S214083680002070BDC13E0800ED3E080064280020FA
S21408369070B56B20094B98470F20094B9847074E83
S2140836A0084D094C2020B047A847236823B110F0DE
S2140836B0800FF7D1012070BD002070BDC13E080004
S2140836C04D360800ED3E0800642800202DE9F0413C
S2140836D082B01A4B9847C120194CA0475920A047DA
S2140836E0C220A0470220A047E020A0470DF107040B
S2140836F00DF1FF3812278926114D8DF800708DF8C8
S2140837000160AB238DF8023045238DF80330CD23B6
S2140837108DF80430D8238DF8053088238DF80630C8
S214083720FF238DF8073014F80109A8474445E4D16B
S214083730044B984702B0BDE8F08100BF8D3F0800F3
S214083740C13E08006536080070B5094B9847094C15
S214083750094D0A4EC120A0470020A0478120A04757
S214083760A84710B13368002BF4D1054B984770BDB5
S21408377065360800C13E0800ED3E080064280020B3
S214083780653E0800F8B507460D4614461E4B984792
S214083790034608B91846F8BD4C201C4EB0470A2008
S2140837A01B4B98474320B047012C23D96B20B047C2
S2140837B03846184B9847A020B047601EC0B2B0479E
S2140837C02420B047631E9BB274B1134A12685AB1DC
S2140837D06C1E1D44114E104FB04704F8010FAC4242
S2140837E002D03B68002BF7D10B4B1B68003318BF81
S2140837F00123CFE70C20054B98473846054B9847DA
S214083800064B98472870EFE791360800C13E080037
S2140838104D3608002D36080064280020ED3E0800C6
S2140838202DE9F04180460F4616460B4B984704464E
S21408383010B92046BDE8F0814C20084DA8470A205C
S214083840074B98474046A8474C20A8473846054B9C
S21408385098473046A847ECE791360800C13E08006E
S2140838604D3608002D3608002DE9F04781461746E4
S2140838701D46BDF8286013F0010F07D1E6B915F00C
S214083880020F3FD101242046BDE8F0878846284B22
S214083890984704460028F6D04C20264CA0470A2015
S2140838A0DFF894A0D0474046A0474C20A0470B20FE
S2140838B0D0470120A047E1E71D4B9847044600285B
S2140838C0E1D04C201B4CA0470A201B4B9847484683
S2140838D0A0476B20A0470898184B9847A020A047F9
S2140838E0701EC0B2A0476420A047099B5C1E013E1C
S2140838F0B6B21E44DFF83C8014F8010FC047B44245
S214083900FAD1BCE70A4B984704460028BBD04C209F
S214083910084DA8470A20084B98473846A8474C2021
S214083920A8470898054B98470020A847ABE700BF6C
S21408393091360800C13E08004D3608002D360800AE
S214083940F8B504460E46364B98470346A8B1402CB1
S21408395015D0302C22D04C20324DA8470A20324BA6
S21408396098472046A8474C20A84730462F4B9847EC
S2140839700020A8472E4B984703461846F8BD4C200B
S214083980284CA0470A20284DA8474020A0474C208E
S214083990A0470B20A8470120A047EBE74C20214C66
S2140839A0A0470A20204DA8473620A0474C20A0470D
S2140839B00B20A8470120A047194B98470346002824
S2140839C0DBD04C20A0470A20A8473320A0476B200E
S2140839D0A0473046154B9847A020A047154D287895
S2140839E00138C0B2A0476420A0472B884BB10024FA
S2140839F027460C4E3846B0470134E4B22B88A3421B
S214083A00F8D84C20074CA0470A20074DA847302076
S214083A10A0474C20A0470B20A8470120A047A9E7AD
S214083A2091360800C13E08004D3608002D360800BD
S214083A30653608003E0B002070B584B08E4B58885B
S214083A40C3B28E4A1370013B212B2BD8DFE813F044
S214083A5022002F0037007300A500C900CC002A00FA
S214083A602A002A002A002A002A002A002A002A00F9
S214083A702A002A002A002A002A002A002A002A00E9
S214083A802A002A002A002A002A002A002A006001A2
S214083A9041014F017A4B98477A4B984780F00100CE
S214083AA0794B1870794B9847002004B070BD744B5A
S214083AB09847774B98470022734B1A70F2E7704B7B
S214083AC098470022704B1A706B4B9B89042B15D9AC
S214083AD0694B9B681A79D978090441EA02615A78D1
S214083AE011439A7841EA02211B78013B072B17D825
S214083AF0DFE803F018080A0C0E1012140122624BB5
S214083B001A70CFE720200EE068200CE030200AE08C
S214083B10222008E02A2006E0322004E0182002E0EE
S214083B20002000E040205B4B98470028BAD10322CB
S214083B30554B1A70B6E7524B98470022524B1A70EC
S214083B404D4BDB88072B02D801224F4B1A704A4B85
S214083B509B685A791979090441EA02619A781143EF
S214083B60DA7841EA02211A78013A052A11D8DFE8FC
S214083B7012F0E1000800E500FD0006000C00082031
S214083B80F5E0262523202C22DBE0262523201A22F2
S214083B90D7E02E2226252320D3E0394B984700224B
S214083BA0394B1A70344B99688B794A7942EA032262
S214083BB00879CB781B0443EA00634878034388787F
S214083BC0B2F5807F28BF4FF48072334943EA00205D
S214083BD0324B984700287FF465AF03222A4B1A70A9
S214083BE060E7274B98475DE7254B98470022264B0A
S214083BF01A70214B998901290BD91F4B9A6813789B
S214083C00013B072B61D8DFE803F0081B282C60600F
S214083C10603001221C4B1A7044E7042903D801229D
S214083C20194B1A703EE71179D3781B0443EA0163EF
S214083C3051780B43927843EA0223194A136031E716
S214083C40022903D80122104B1A702BE79178537873
S214083C5043EA0123134A138024E75278124B1A705A
S214083C6020E75278114B1A701CE7042920D8012245
S214083C70054B1A7016E700BF7C2800205C21002040
S214083C8091400800CD36080060280020D94008007A
S214083C9049370800413908006021002085370800A8
S214083CA0400B00203E0B0020440B0020450B002054
S214083CB01179D3781B0443EA016351780B43907853
S214083CC043EA00202F4B9847ECE601222E4B1A7049
S214083CD0E8E6000A2D4BDB88C218B2F5807F27DCA1
S214083CE02A492B4A104488608B810120DDE6000AA9
S214083CF0264BDA888318B3F5807F01DD0020D4E6EA
S214083D00224B9968224B1844224B98470120CCE650
S214083D10214A1D4B1B785370204B1B68B3FA83F35C
S214083D205B099370194B9A6003229A810120BCE6BE
S214083D300020BAE626252320242202E03625332052
S214083D403522DE799C7944EA06245B78B4F5807FD0
S214083D5028BF4FF4807402940D4C019400912946B4
S214083D600F4CA04700287FF49DAE07E04C20084B78
S214083D701A780C4B984700287FF494AE0322024B1F
S214083D801A708FE621400800602800207C28002052
S214083D9060210020E16A08005C21002064280020D9
S214083DA0693808002138080038B50B4D0B4C2846F2
S214083DB0A0470028FBD0084C2046094B98472046C9
S214083DC0084B98474FF020511420074B984700227D
S214083DD0064B1A7038BD00BF0040094091610800C4
S214083DE06F610800756108002547080060220020FA
S214083DF070B51825144C154E2846A04710B13368E0
S214083E00002BF9D11825104C104E2846A04710B99B
S214083E103368002BF9D118250B4C0C4E2846A047C2
S214083E2010B13368002BF9D1094C2046094B984746
S214083E302046094B98474FF000611420074B9847D7
S214083E400122074B1A7070BDB3460800642800208C
S214083E50004009407B6108006961080025470800A2
S214083E606022002010B50F4B1B78BBB90E4C2046BD
S214083E700E4B984720460E4B98474FF02051182077
S214083E800C4CA0474FF020511520A0474FF020516A
S214083E901420A0470E20084B984710BD074B98479C
S214083EA0E4E700BF60220020004009407B6108006C
S214083EB06F610800254708009D4A0800A93D0800CC
S214083EC010B50446054B1B7823B121460448054B1C
S214083ED0984710BD044B9847F7E700BF60220020BC
S214083EE000400940AD610800F13D080070B582B099
S214083EF00A4B1B7873B90A4D0A4C0B4E01A9284683
S214083F00A047012802D13368002BF7D19DF804009A
S214083F1002B070BD054B9847EDE700BF6022002051
S214083F2000400940BF61080064280020A93D080039
S214083F30F8B5124B1B7823B10C271825104C114ED8
S214083F4006E0114B9847F7E77B1E13F0FF0713D0E0
S214083F502846A04710B13368002BF9D12846A04759
S214083F6010B93368002BF9D12846A0470028EBD0B3
S214083F703368002BF8D1E7E7F8BD00BF60220020C1
S214083F80B346080064280020F13D080070B586B0E6
S214083F900025194B1D700E20184B98474FF04051BE
S214083FA01420174CA0474FF020511520A0474FF07B
S214083FB040511820A04740F25710124EB047142020
S214083FC0114B98474520B0470295049505950F4B29
S214083FD00093C02301934FF4005303930C4A694699
S214083FE00C480D4B98474FF080511820A0470B4CB3
S214083FF0A047A04706B070BD60220020694A0800A6
S2140840002547080089000020CF46080020A10700A1
S21408401000B0710B0040094001610800313F0800FC
S214084020014B1860704700BF480B002038B51620B3
S214084030104B9847104B4FF48002C3F88021102588
S21408404083F816531A600D4C4CF2010200212046E4
S2140840500B4B98474FF4965200212046094B984739
S2140840602A4600212046084B98470122074B1A701B
S21408407038BD00BF694A080000E100E000000840BB
S214084080614108008941080091410800612200202A
S21408409010B50A4B1B786BB1094C00212046094B1A
S2140840A09847094B1A68094B1A6000212046084BA6
S2140840B0984710BD074B9847EEE700BF61220020DF
S2140840C00000084081410800480B002064280020B2
S2140840D0794108002D40080008B500210148024B28
S2140840E0984708BD000008408141080008B5054B00
S2140840F01B6813B1013B034A136000210248034BB7
S214084100984708BD64280020000008409941080028
S21408411038B5A1F10E03012B02D84FF0FF3038BD99
S214084120EFF3108472B6BFF35F8F00250A4B1D703D
S214084130120222F07F4222F0FF0242F0B442C9B2D5
S2140841401143064B9847002CE9D10122024B1A70FE
S214084150BFF35F8F62B638BD600B00206D0000208D
S21408416010B489014318022444504FF0FF31996275
S214084170196A5A6010BC7047890105234350704776
S214084180890102234350704700EB8111CA617047CA
S21408419000EB81114A62704700EB8111086A70478C
S2140841A070B586B004460E460423009302AB0F2271
S2140841B00E210D480D4DA84718B11025284606B003
S2140841C070BD0546042E28BF042656B102AA23460B
S2140841D004EB860152F8040B43F8040B8B42F9D122
S2140841E0ECE73546EAE700BF00080E40010000206D
S2140841F010B50620024CA0470720A04710BD00BFF8
S2140842009145080010B50620034CA0470720A04794
S2140842101D20024B984710BD91450800E946080046
S21408422008B50620024B98471D20024B984708BD44
S214084230B5450800CF46080008B50B4BA3FB00237E
S2140842409B094FF47A7202FB130080B218B1B0F5DE
S214084250FA7F04D008BD0620044B984708BD062000
S214084260034B9847F6E700BFD34D6210B5450800E4
S2140842709145080010B53E20074B9847074CA047C5
S2140842800028FCD04FF47102054BDA61054CA047B4
S2140842900028FCD010BD00BFD1490800F949080025
S2140842A000040E40594A0800024AD36923F48033B2
S2140842B0D361704700040E4010B51248124B984759
S2140842C03E20124B9847124CA0470028FCD04FF0CF
S2140842D08070104B9847104CA0470028FCD00F4B16
S2140842E098470F4A0F4B9A620F4CA0470028FCD0FD
S2140842F010200E4B98470E4B98470248024B98479B
S21408430010BD00BF00D8B8053D010020D1490800FF
S214084310F9490800194A0800094A0800394A0800F5
S214084320013F0F2000040E40494A08006D49080066
S214084330C9620800014B1878704700BF6222002047
S21408434008B5054B9847C378044A13700BB101208B
S21408435008BD034B984708BD212C080062220020A0
S2140843609113080008B5034B1B7803B108BD024B30
S2140843709847FBE762220020B913080008B50B4BE4
S2140843801B7813F0800F05D103F06003402B0AD08A
S214084390002008BD03F06003402B01D0002008BDB4
S2140843A0034B984708BD034B984708BD7C28002058
S2140843B019140800C513080010B582B000920B4601
S2140843C0024600218120024CA04702B010BD00BF63
S2140843D0595B080010B582B000920B4602460021D1
S2140843E00220024CA04702B010BD00BF595B08006F
S2140843F00B4B1B682BB9EFF310833BB10022094B1C
S2140844001A70074A136801331360704772B6BFF311
S2140844105F8F0022044B1A700122024B1A70F0E7D5
S2140844206422002068220020600B0020074B1A68D0
S214084430013A1A601B6843B9054B1B782BB1012259
S214084440044B1A70BFF35F8F62B670476422002071
S21408445068220020600B00202DE9F04180B90C4648
S2140844609046002A0FDD8F18084E094D3068214601
S2140844702B6898470134BC42F8D14046BDE8F08125
S2140844804FF0FF38F9E78046F7E700BF78280020A6
S214084490702800200138022815D82DE9F0410E466C
S2140844A014469AB10D46DFF838800C4FD8F800004D
S2140844B015F8011B3B68984700280ADBA81B013C37
S2140844C0F4D1BDE8F0814FF0FF3070471046BDE8E4
S2140844D0F0814FF0FF30BDE8F08100BF742800205F
S2140844E078280020F8B54FF060510620174CA047F2
S2140844F04FF060510720A0474FF040511D20A047BD
S2140845001D20134B98474FF060510820A0470820FD
S214084510104EB047104F4FF04052FF2138460F4D0F
S214084520A847FF2138460E4B98474FF06051352074
S214084530A0473520B0474FF000624FF4C0510948F5
S214084540A8474FF080511B20A047F8BD2547080014
S214084550E9460800CF460800000E0E40F54708005A
S214084560A1460800000C0E4010B54FF40042054B5B
S2140845705A600A20044CA0470B20A047034B9847D4
S21408458010BD00BF50120E40694A0800E5440800F6
S21408459010B50446062802D0072C04D010BD062005
S2140845A0034B9847F8E70720014B9847F6E700BF04
S2140845B0E946080010B50446062802D0072C04D0A1
S2140845C010BD0620034B9847F8E70720014B98478D
S2140845D0F6E700BFCF46080001EB810100EB81013A
S2140845E00A67704701EB810100EB81014A67704753
S2140845F001EB810100EB81018A67704701EB8101BD
S21408460000EB8101C1F8802070474264B1F1805FF9
S21408461016D00BD849B1B1F1006F05D1036F016F01
S2140846200B4023EA0203036742607047B1F1405F1C
S214084630FBD0B1F1605FF8D0B1F1205FF4D17047DC
S214084640036F13430367EFE7416412F0010F14BFCB
S2140846504166016612F00A0F14BF0162416212F049
S214084660020F07D112F0080F18BFC0F88410416176
S21408467001607047C0F88010F9E710B4019C4164E7
S21408468044B9016643B1016542B9416301610160FD
S21408469010BC70474166F5E74165F5E70163F5E745
S2140846A0C0F8A010704781637047C06C7047806C74
S2140846B07047430903F5001303F206735B02DB6BCE
S2140846C000F01F0023FA00F000F0010070474309CD
S2140846D003F5001303F206735B0200F01F000122C5
S2140846E002FA00F018637047430903F5001303F253
S2140846F006735B0200F01F00012202FA00F05863FE
S2140847007047430903F5001303F206735B02996BBF
S21408471000F01F0201209040014214BF586318633E
S2140847207047000070B582B00D46430903F50013C4
S21408473003F206735C0201F0F043B3F1205F31D058
S21408474016D8B3F1006F1BD0B3F1805F16D100F016
S2140847501F000126864032464FF080512046224BE5
S214084760984715F0010F14BF66662666012017E005
S214084770B3F1405F21D0B3F1605F1ED000200FE098
S21408478000F01F000126864032464FF000612046A2
S214084790154B984715F0010F14BF6666266601206C
S2140847A002B070BD00F01F0101262A4606FA01F184
S2140847B020460E4B98473046F2E705F0605200F068
S2140847C01F01012605EA06030093C5F38003B2F12C
S2140847D0605F14BF0022012206FA01F12046044C4D
S2140847E0A0473046DCE700BF0B46080049460800ED
S2140847F07B46080070B582B005460E46144602F0A1
S214084800F043B3F1205F27D011D8B3F1006F16D06C
S214084810B3F1805F11D10A464FF08051194B984783
S21408482014F0010F14BF6E662E66012012E0B3F175
S214084830405F15D0B3F1605F12D000200AE00A4648
S2140848404FF000610F4B984714F0010F14BF6E66C7
S2140848502E66012002B070BD0B4B98470120F9E781
S21408486004F0605204F001030093C4F38003B2F12D
S214084870605F14BF0022012231462846034CA04739
S2140848800120E7E70B460800494608007B46080073
S2140848902DE9F041044688460E4B984705462046C3
S2140848A00D4B9847054013D00C4C04F1600603E006
S2140848B0B4420DD010345DB120684045F8D1616827
S2140848C02942F5D0E3689847636825EA0305EFE7C9
S2140848D0BDE8F081AB460800AF4608006C22002011
S2140848E008B50A210148024B984708BD000C0E403F
S2140848F09148080008B50B210148024B984708BDA7
S214084900000E0E4091480800174A136B23F0030365
S21408491043F001031363936E13F0080F0AD14FF4A4
S214084920006311498A6E12F0080F03D1013BF9D1D2
S214084930012070470C4A136B23F07003184310636A
S214084940936E13F0080F0AD14FF4006306498A6E77
S21408495012F0080F05D1013BF9D10120704700205D
S21408496070470020704700BF00040E40174A136BBC
S21408497023F0700318431063936E13F0080F0AD1E0
S2140849804FF4006311498A6E12F0080F03D1013BF9
S214084990F9D1012070470D4A136B23F0030343F047
S2140849A002031363936E13F0080F0AD14FF40063E3
S2140849B006498A6E12F0080F05D1013BF9D101208D
S2140849C07047002070470020704700BF00040E4064
S2140849D0084A136A23F0030343F45C1343F0010305
S2140849E0000280B203431362936E13F0010FFBD0EC
S2140849F0704700BF00040E40024B986E00F001009E
S214084A00704700BF00040E40024B986E00F48030DA
S214084A10704700BF00040E40064B1B6A30B923F0EF
S214084A20807343F45C13034A1362704743F0807341
S214084A30F7E700BF00040E404FF00052014B9A62A1
S214084A40704700BF00040E40024B986E00F002004C
S214084A50704700BF00040E40024B986E00F04000FE
S214084A60704700BF00040E401D280ED81F280ED819
S214084A70094B9A690123834093430AD0012303FA1A
S214084A8000F0054B18610020704701207047002091
S214084A9070470020704700BF00040E401D2810D83D
S214084AA01F2810D8094B9A6901238340934301D0E5
S214084AB000207047012303FA00F0044B58610020D9
S214084AC07047012070470020704700BF00040E4062
S214084AD04FF4807303FA00F0014B1860704700BF6C
S214084AE000040E40034B1A6FC0F3120010431867F9
S214084AF0704700BF00040E40024B187880F0010093
S214084B00704700BFDC22002008B51420014B9847E8
S214084B1008BD00BF694A080008B51420014B98472D
S214084B2008BD00BF9D4A080010B443F699230469DF
S214084B3014F0010F03D1013BF9D1012009E0836885
S214084B40406810F0020F1CBFC3F3034010700B80C0
S214084B50002010BC704730B443F69924056915F058
S214084B60020F03D1013CF9D101200CE0446814F08F
S214084B70020F06D0120402F4702211430BB141F062
S214084B808071C160002030BC704732B900EB8100EC
S214084B90036B23F001030363704700EB8100036B8C
S214084BA043F001030363704732B900EB8100036BDF
S214084BB023F002030363704700EB8100036B43F0A6
S214084BC0020303637047431E1944B1FBF0F0431E0B
S214084BD0FE2B94BF00B24FF0FF30704700EB810108
S214084BE00B6B23F47F430B630B6B43EA02220A63C7
S214084BF0704700000346A8B9174A127842B3EFF385
S214084C00108272B6BFF35F8F144908701448817813
S214084C1001398170E2B90121104A1170BFF35F8F24
S214084C2062B615E00C4A127892B9EFF3108272B6A3
S214084C30BFF35F8F00200949087009488178013161
S214084C4081702AB90121054A1170BFF35F8F62B6D9
S214084C50014A1370704700BFDE220020600B002058
S214084C6068280020EFF3108372B6BFF35F8F002129
S214084C700D4A11704FF480610C4AC2F808112BB91E
S214084C800122094B1A70BFF35F8F62B64FF40072A9
S214084C90064BC3F81821064A002313615361938113
S214084CA0044A1370704700BF600B002000400A409B
S214084CB07C280020E42200200522034B1A702022BC
S214084CC0024BC3F814217047E422002000400A4033
S214084CD00322114B1A70EFF3108272B6BFF35F8F80
S214084CE000210E4B19700E4B4FF48061C3F8181153
S214084CF04FF40060C3F81401C3F804114FF40041E0
S214084D00C3F81811C3F804112AB90122034B1A7004
S214084D10BFF35F8F62B67047E4220020600B002066
S214084D2000400A4008B5024B1B6903B1984708BD06
S214084D307C28002038B5EFF3108372B6BFF35F8F78
S214084D4000214C4A11704FF480614B4AC2F8081192
S214084D502BB90122474B1A70BFF35F8F62B6474BD9
S214084D601B78032B57D0464B1B88464A9489E41A6F
S214084D70A4B2C4B9444A11880B449BB21380414A72
S214084D80D2889A424CD0414B1B78002B48D13D4BD9
S214084D905B69002B5FD0984700285CD00022384B10
S214084DA01A80384B9C893F2C55D90022374B1A70ED
S214084DB04024344B9A68324B1D88EFF3108072B645
S214084DC0BFF35F8F00212B4B19702B4BD3F81C3188
S214084DD013F4007F43D144B12A442D4B12F8011B2B
S214084DE003F8011BD9B2A142F8D32C44244B1C80EB
S214084DF0214B4FF48062C3F818214FF40061C3F8C2
S214084E001411C3F8042128B901221A4B1A70BFF3EB
S214084E105F8F62B638BD1F4B98471F4B984738BD03
S214084E200422164B1A70EFF3108372B6BFF35F8F27
S214084E300021104A1170104A4FF48041C2F8181128
S214084E40C2F80411002BE5D101220A4B1A70BFF3F1
S214084E505F8F62B638BD01220C4B1A70A9E728B9D5
S214084E600122044B1A70BFF35F8F62B60422034B0D
S214084E701A7038BD600B002000400A40E42200206B
S214084E80E02200207C280020E2220020DD220020EC
S214084E9000001820254D0800654C080038B5037D2D
S214084EA013F0010F13D00D46037D6FF3000303754F
S214084EB0046864B102F108035B010549CB5813F096
S214084EC0080F18BF42F0800281682846A04738BD00
S214084ED000400A40F8B5431E03EB4301594A02EB6B
S214084EE0C102127D12F0010F00F09E800A46554955
S214084EF001EBC202D4689268944279D0121BB2F5CC
S214084F00803F92BF17044FF480320027410101F119
S214084F10402101F52021D1F8005115F0080F14D0D2
S214084F20D1F8005105F007050821A94001391142BA
S214084F3013D047F0080703EB4301424D05EBC101C8
S214084F400D7D6FF341050D7507E0D1F80051C5F3E7
S214084F500115012D35D047F014073B4901EB001128
S214084F6003EB4305374E06EBC5056D682C444C60CD
S214084F70EFF3108572B6BFF35F8F0026334C2670AA
S214084F80CC6814F0100F25D147F021078F6003EB8B
S214084F9043002C4901EBC001C8681044C8600A6188
S214084FA02B4A11694FF0007000FA03F30B431361A4
S214084FB0002D39D10122254B1A70BFF35F8F62B6D8
S214084FC0F8BDD1F8005105F007050821A9408A4226
S214084FD0C3D8C0E72DB901211C4A1170BFF35F8FF3
S214084FE062B603EB4302174901EBC202D16891602F
S214084FF0420102F1402202F52022D2F8001111F0F7
S214085000080F08D003EB43010E4C04EBC101097DE1
S21408501011F0020F09D1024603EB430300210948A9
S21408502000EBC3000B4B9847F8BD4FF40063C2F87B
S2140850300431074B19694FF4807202FA00F00843EE
S2140850401861F8BDE822002000430A40600B0020E3
S21408505000400A409D4E08002DE9F0411D20A64B51
S2140850609847A64B984720B9A54B5B6913F0020FE3
S2140850700FD0A34B5B6913F0080F15D0A04B08227E
S2140850809A615B6913F0010F0BD09E4B9847BDE8F9
S214085090F08172B6BFF35F8F00229B4B1A70BDE893
S2140850A0F0819A4B9847F0E7954B5B6913F0040F2D
S2140850B037D1934AD2F81C31526912F4807F29D02E
S2140850C08F4A4FF48041C2F808114FF40041C2F8E5
S2140850D0081113F4805F2BD113F4806F06D0884A2A
S2140850E0D2F80C2112F4806F40F08F8013F4007F02
S2140850F040F08F8013F4005F04D04FF40051804ACC
S214085100C2F8181113F4004F40F03C8113F4804F96
S21408511040F04E8101237A494FF0007E4FF4807CA0
S21408512099E10422764B9A61784B9847BDE8F0815E
S214085130774B1B78002B41D1714BD3F81C31C3F346
S2140851400A53082B3FD1734A734B744813F8011B54
S21408515002F8011F8342F9D1714B984700283BD0CB
S2140851604FF48052664BC3F818216E4B93F9003003
S214085170002B3ADB6B4BDB88002B42D000226A4BB5
S2140851801A806A4B1A800121614B19705C494FF4EA
S2140851908040C1F81801EFF3108372B6BFF35F8F33
S2140851A0594C2270C1F80401002B40F06682012297
S2140851B02270BFF35F8F62B6BDE8F0815C4B9847FC
S2140851C05C4B9847B8E75C4B98474FF480524C4B7B
S2140851D0C3F81821BDE8F081574B98474FF4805222
S2140851E0474BC3F81821BDE8F08100234E4A1380C8
S2140851F04E4A13800222464B1A70504B9847BDE819
S214085200F0814F4B9847BDE8F0814C4B9847BDE876
S214085210F0813F4B1B78012B0CD0022B04D0042BBB
S21408522002D0454B984701E0414B9847414B984779
S214085230BDE8F081324BD3F81C01C0F30A50394B55
S2140852409B893A4A148822189342BCBF1B1B98B203
S214085250344B9A6878B1631E1A442F4B13F8011B17
S21408526002F8011FD9B28142F8D30444A4B22F4BE6
S2140852701C8040280ED02B4B9C815B690BB198474D
S21408528080B34FF400721E4BC3F818212C4B984776
S214085290BDE8F081234BDA88234B1B8823449A42C7
S2140852A0E9DD204B9B89A3424CD0154A4FF4007386
S2140852B0C2F818314FF48041C2F81811EFF3108382
S2140852C072B6BFF35F8F00240F480470C2F804114B
S2140852D0002B40F0D28101220270BFF35F8F62B6C6
S2140852E0BDE8F081144B98474FF40072044BC3F89E
S2140852F01821BDE8F08100BF694A0800F94A08008D
S21408530000400A4071130800600B0020952C080026
S214085310E42200207B28002000001820080018201F
S214085320D52C08007C280020E2220020E02200205D
S214085330254D0800654C0800B94C0800354D080096
S214085340D14C0800B04B5B6953B1984788B1AF4958
S214085350AF4A0B88108803440B8000231380A4E709
S214085360AC4B98474FF40072AB4BC3F81821BDE816
S214085370F081A84B98474FF40072A74BC3F8182142
S214085380BDE8F081A44B4FF40042C3F81821D3F8C7
S2140853901C3113F4806F40F07081A04B1B78032BF0
S2140853A040F06B8120229C4BC3F81421BDE8F081A5
S2140853B0994B4FF48042C3F81821D3F81C3113F4E4
S2140853C0007F40F05A81954B1B78012B08D0042BA0
S2140853D040F053812022904BC3F81421BDE8F08199
S2140853E08F4B9847BDE8F0818E4B03EB0013DA68C5
S2140853F012F0010F40F0418187490A6922EA060641
S2140854000E61DB681B0C08D0874A6C00651902EB36
S214085410C505E968CB1AEB60AB60844B9847BDE8D6
S214085420F081630103F1402303F520234FF4006263
S214085430C3F80821C3F8142105EB450502460021E8
S214085440794800EBC5007A4B9847BDE8F0810133F0
S214085450072B00F0FD80D8B21C465D1EA8460F69D3
S2140854600EFA05F6374202D04A691642BCD10F69D1
S2140854700CFA04F63742EAD001EB4412D2F80C21B3
S21408548012F4006F06D001EB4412D2F81C2112F475
S214085490006FC6D001EB4412D2F80C2112F4802F0C
S2140854A0D5D001EB4412D2F81C2112F4402FCED1ED
S2140854B0594B03EB44144FF48022C4F808211A69A8
S2140854C022EA06061E6108EB4808574B03EBC80895
S2140854D098F814206FF3820288F81420D4F808315C
S2140854E023F00203C4F808312023C4F814314023FB
S2140854F0C4F81831BDE8F0811022474B9A614A4D2E
S214085500002401274A4E0134E4B22246394628468A
S214085510B0471835062CF6D1464B98473E4B1A68C6
S21408552022F07F021A601A6842F080021A60D3F8E6
S214085530002122F47F7222F0030242F04302C3F8ED
S21408554000210122C3F80421EFF3108272B6BFF3DC
S2140855505F8F0020384908704FF48051C3F8041153
S2140855604FF40071C3F80411196941F48071196188
S2140855702AB90122304B1A70BFF35F8F62B62F4BE1
S2140855809847254B1A6942F008021A611A6942F0D0
S21408559004021A611A6942F002021A61BDE8F08133
S2140855A01D4B20229A611A6922F002021A611A69B2
S2140855B042F020021A6102229A611D20204B984769
S2140855C0204B98470020204B9847BDE8F0810120E3
S2140855D01D4B9847104B02229A6120229A611A693D
S2140855E022F020021A611A6942F002021A611A6948
S2140855F042F008021A611A6942F004021A61134B53
S2140856009847BDE8F08100BF7C280020E2220020F1
S214085610E0220020B94C080000400A40E42200209E
S214085620D14C080000430A40E8220020D54E080066
S2140856309D4E0800392C0800600B0020654C0800B9
S2140856409D4A080059130800F54B08006513080022
S2140856500B4B5B6913F0100F7FF44EAF084B1B69BA
S21408566013F0020F04D0064B5B6913F0020F97D1B4
S214085670034B5B6913F0200FA9D1BDE8F08100BF8A
S21408568000400A4070B5EFF3108572B6BFF35F8F1F
S214085690134E00243470134A136823F4807313607F
S2140856A0114B98471D20114B98472046104B98479A
S2140856B0EFF3108372B6BFF35F8F34700D49CA7864
S2140856C0013ACA7023B901223270BFF35F8F62B6FF
S2140856D02DB90122024B1A70BFF35F8F62B670BDF8
S2140856E0600B002000400A40A94208009D4A0800B6
S2140856F0F54B08006828002010B5EFF3108472B642
S214085700BFF35F8F00221D4B1A7001201C4B984771
S2140857101D201C4B98471C4B1A6842F400621A60FE
S2140857201A6822F400721A601A6942F010021A61A6
S2140857301A6942F002021A611A6942F020021A61D6
S2140857401A6942F008021A611A6942F004021A61DC
S21408575008229A6104229A6110229A6102229A61AA
S21408576020229A611D20094B98472CB90122034B29
S2140857701A70BFF35F8F62B610BD00BF600B0020C3
S214085780F54B0800694A080000400A409D4A080090
S21408579010B52A4B98471D20294B9847EFF31084DD
S2140857A072B6BFF35F8F0022264B1A7026490B6825
S2140857B043F480730B60254B402183F81D134FF08C
S2140857C00051196022485300991800EBC101097D61
S2140857D0134400EBC30301F0FE016FF38201197551
S2140857E00132062AEFD1184AD2F8E03023F0030334
S2140857F0C2F8E0304FF48020164B98470022164B2C
S2140858001A70EFF3108372B6BFF35F8F0D490A70F4
S2140858101249CA780132CA702BB90122094B1A708C
S214085820BFF35F8F62B60E4B98472CB90122054B23
S2140858301A70BFF35F8F62B610BD00BF75420800CE
S214085840694A0800600B002000400A4000E100E0BA
S214085850E8220020E54A0800DE220020682800200A
S214085860F956080008B51D20084B9847084B1A68D3
S21408587042F400721A601A6822F400621A601D2048
S214085880044B98470020044B984708BD694A08000F
S21408589000400A409D4A0800F54B0800024B58692C
S2140858A000F00100704700BF00400A40084B1A6825
S2140858B022F080021A601A6822F07F0200F07F0049
S2140858C002431A601A6842F080021A60704700BFE6
