S014000053414D33555F4357313137332E73726563E2
S214080000F03C00208D5E08008B5E08008B5E0800C2
S2140800108B5E08008B5E08008B5E08000000000000
S2140800200000000000000000000000008B5E0800D2
S2140800308B5E0800000000008B5E08008B5E0800E0
S2140800408B5E08008B5E08008B5E08008B5E0800DF
S2140800508B5E08008B5E08008B5E08008B5E0800CF
S2140800608B5E08008B5E08003D4508005145080079
S2140800708B5E0800752108008B5E08008B5E080002
S2140800808B5E08008B5E08008B5E08008B5E08009F
S2140800908B5E08008B5E0800693D08008B5E0800D2
S2140800A08B5E08008B5E08008B5E08008B5E08007F
S2140800B08B5E0800B54C08008B5E080010B5054C32
S2140800C0237833B9044B13B10448AFF300800123F7
S2140800D0237010BD5814002000000000BCCB080098
S2140800E00C4B43B10C4810B50C49AFF300800C48D4
S2140800F0036823B910BD0A48036833B97047094B2B
S214080100002BF7D0BDE810401847064B002BF5D05B
S214080110184700BF00000000BCCB08005C14002095
S214080120BCCB080000000000024A1378013BDBB293
S214080130137070477F140020002070470020704717
S2140801401D4B1B7813F0800F05D103F06003202B9E
S21408015018D00020704703F06003202B01D0002041
S2140801607047154B5B78212B24D1134BDB88072B64
S21408017001D000207047104B104A9A6007229A81D7
S214080180012070470C4B5878202804D0222814BF2A
S214080190002001207047084BDB88072B01D0002081
S2140801A07047054B064A1A61044A9A6007229A81E4
S2140801B00120704700207047AC27002078140020E4
S2140801C0DD03080010B50024124B1C70124B1C806F
S2140801D0124BA1221A7020225A705C8001229A8043
S2140801E00222DA801C810E494FF4E1330B600C7151
S2140801F04C7108238B7120460A4B984720460A4BB9
S2140802009847024620B103490B780133DBB20B70DE
S214080210104610BD7F14002094180020AC1C002047
S214080220781400208D260800E1250800424B1B782C
S21408023003B1704770B582B0404B984700283DD050
S2140802403F4B1C883F4B9847844272D0EFF310858B
S21408025072B6BFF35F8F00223B4B1A703B4B1C787D
S214080260E4B23B4B33F81430002B2ED00022394B27
S2140802701A80394B1B78002B43D1B4FA84F35B09F8
S214080280324A137001222C4B1A7025B92E4B1A705D
S214080290BFF35F8F62B626462D4B33F81430B3F59E
S2140802A0007F14BF0125002534D0244B984700282A
S2140802B02BD0244B9847224B18802EE0204B1C88C6
S2140802C0264B98478442C1D133E0224A138801332B
S2140802D013801A4B984718B91E4B1B88632B08D9EE
S2140802E0164B98470028C1D01A4B1B88B3F5487F91
S2140802F0BCD2F5B90122144B1A70BFF35F8F62B6F1
S21408030017E0B4FA84F46409BCE7144B98470C4B1E
S214080310188002E000220A4B1A800D4B33F816307C
S2140803200F4A00920F4A02EB4422294685200E4CBB
S214080330A04702B070BD00BFA81C0020F9540800F2
S214080340A41C0020515508007C0A0020A01C002090
S2140803509C1C0020741400209818002041550800A2
S2140803606D0308009C180020B557080000B17047B8
S21408037008B5074B1B78B3FA83F35B09054A22F8DE
S2140803801300054B1870054B1870054B984708BDA9
S214080390A01C00209C1C002098180020A81C0020E8
S2140803A02D02080008B50020014B984708BD00BF7D
S2140803B02D02080008B5064A1378013BDBB2137015
S2140803C01078044B98470022034B1A7008BD00BFEC
S2140803D080140020FD2508007614002008B5024980
S2140803E00020024B984708BD781400208D26080088
S2140803F0EFF3108372B6BFF35F8F00210A4A1170BD
S2140804000A4A108882B20A490978C9B2094830F8F7
S214080410110080B2801A2BB90122034B1A70BFF361
S2140804205F8F62B6704700BF7C0A00208C180020D9
S214080430881800208418002008B5034B9847003019
S21408044018BF012008BD00BFF103080010B582B030
S214080450EFF3108372B6BFF35F8F0021214A117045
S214080460214A1478214A12784AB9E4B2204A1188F7
S21408047089B2204A32F8142092B291420AD2002B4E
S2140804802DD10122174B1A70BFF35F8F62B600207A
S21408049002B010BD0021164A1180B4FA84F252093F
S2140804A011490A700121114A117023B90D4B1970B0
S2140804B0BFF35F8F62B600200F4B984758B90F4BB3
S2140804C000934FF400730E4A02EB442201210620E3
S2140804D00C4CA047DCE700200B4B9847EFE70020C2
S2140804E0D6E700BF7C0A0020881800209018002055
S2140804F08C1800208418002039040800A10508007C
S21408050084140020B55708001526080010B50024E6
S214080510164B1C70164B1C70164B1C70164B1C701A
S214080520164B1C805C80164B1C802046154B984743
S214080530154B1C70154B1C70154B1C805C80154B9E
S2140805401C802046144B9847014640B1074A13784A
S2140805500133DBB213701378DBB2012B01D00846E7
S21408056010BD01220D4B1A70F9E700BF8014002059
S214080570A81C002098180020A01C00209C1C002006
S214080580A41C00202D0208009018002088180020BF
S214080590841800208C1800204D04080076140020CB
S2140805A0F0B910B582B010460E4B1C78B4FA84F435
S2140805B0640951B189B20C4B23F8141000200B4B78
S2140805C018700B4B984702B010BD0A4B00934FF4B7
S2140805D00073094A02EB44220121084CA047F2E7BF
S2140805E0704700BF88180020841800209018002044
S2140805F04D040800A105080084140020B55708001B
S2140806002DE9F84F15468846204F4FF0000BDA467E
S2140806101F4EDFF8949019E01E4A32F81340A4B231
S214080620641AAC4228BF2C4601EB432122461A4BDB
S21408063019444046194B9847338823449BB2338065
S214080640A0442D1B5846164B9847DDB1EFF3108093
S21408065072B6BFF35F8F87F800A0318889B299F821
S2140806600030DBB20B4A32F8132092B220B90120D0
S2140806703870BFF35F8F62B69142CDD3094B1B78B3
S214080680002BE3D12846BDE8F88F00BF7C0A00207F
S2140806908C18002084180020841400203D67080069
S2140806A04D0408007614002088180020EFF3108206
S2140806B072B6BFF35F8F0021134B1970134B1B786C
S2140806C0DBB2134931F81300B0F5007F09D0C0F546
S2140806D000702AB901220C4B1A70BFF35F8F62B6FE
S2140806E070470C4909780029F1D10B490978002987
S2140806F0EDD1012008490870B3FA83F35B09034972
S2140807000B700020E3E700BF7C0A0020A01C002036
S2140807109C1C0020A81C00209818002008B5034B35
S2140807209847003018BF012008BD00BFAD06080076
S2140807302DE9F0410C461B4B9D79092D14BF002569
S2140807400125194E194FDFF874801DE0EFF310826B
S21408075072B6BFF35F8F00233B7098F80030DBB2A9
S214080760134931F8130000F1010E21F813E011497E
S21408077001EB43231C5422B901233B70BFF35F8F60
S21408078062B65DB1241200250020B0470028DDD1EE
S214080790094B1B78002BF7D1BDE8F0810120BDE896
S2140807A0F08100BF781400201D0708007C0A00208E
S2140807B09C1C00209C18002076140020A01C0020FA
S2140807C0064B5A68064911605968064A4A6019690C
S2140807D0054808601B695A60704700BFDC010020A6
S2140807E068020020D4010020300300200023436064
S2140807F003608360704710B404680134C82C28BFAF
S21408080000244368A34205D1002AFAD1836801333D
S214080810836003E0036803441973046010BC7047E0
S2140808200246436801688B4207D0591CC82928BF6E
S21408083000210344187B51607047FF207047026808
S2140808404068101A18BF0120704703684068181AD5
S21408085048BFC8307047000038B50546184C2046D3
S214080860184B984780232360636843F0010363604E
S214080870636843F010036360636823F08003636073
S214080880002211462046104B984701220021204698
S2140808900E4B98470E4928460E4B9847C2B2002181
S2140808A020460D4B9847012323604FF000610E2029
S2140808B00A4CA0474FF000610F20A04738BD00BF84
S2140808C00080004065470800E7470800054808001C
S2140808D000D8B805234808003948080081430800AE
S2140808E010B500231A4601460148024CA04710BD21
S2140808F000800040B347080038B505460820194B65
S2140809009847194C2046194B9847802323606368FC
S21408091043F001036360636843F010036360636831
S21408092023F080036360002211462046104B984748
S2140809300122002120460F4B98470F4928460F4BA7
S2140809409847C2B2002120460D4B984701232360E2
S2140809504FF000610E200B4CA0474FF000610F20AF
S214080960A04738BD6543080000800040654708007A
S214080970E74708000548080000D8B80523480800D7
S214080980394808008143080008B50820014B9847F5
S21408099008BD00BF4B43080010B500231A460146A1
S2140809A00148024CA04710BD00800040B34708002D
S2140809B0914B9B89092B00D070472DE9F04F8DB0DD
S2140809C002460C468C4B9D6809AB2868696803C3C9
S2140809D029891980BDF824300393B3F5807F09D997
S2140809E0864B1A70C0225A700222854B1A800DB0A8
S2140809F0BDE8F08F132A0CBF9DF82B309DF82C30DD
S214080A000493059415467F4B1B680793039B002B9E
S214080A103ED0013B9BB20133E318069327460023DA
S214080A200393AB4692E0784B9847784B4FF000021A
S214080A301A7099E09DF82A3043F008038DF82A309A
S214080A40704B1B8819F0010F00F0C68003936D4A9F
S214080A50136801331360BBF1130F74D19BB2002BDC
S214080A6071D10123694A13706DE0039356E003932E
S214080A7063E05D4600239DF826804FFA88F4002C34
S214080A800ADB5E4A1570537002225D4B1A80AEE789
S214080A900023F0E75D46EEE75D4F00231A469DF813
S214080AA0291038465B4EB04700231A460799C1F30B
S214080AB007213846B04700231A469DF81C103846CA
S214080AC0B04700231A4619463846B04718F0200F94
S214080AD007D0039B2BB924F0300343F010038DF89E
S214080AE026309DF827309DF826009DF82A2000928B
S214080AF0049A0399484CA0470346132DC1D1414A8E
S214080B001288002ABDD10121404A1170B9E719F0B0
S214080B10010F64D011E019F0010F0ED19DF82730AF
S214080B209DF82A200092049A039948463A4CA04712
S214080B3003460028AED10023039318F0010F86D190
S214080B40BBF1150F53D0069B9F4292D0059BA7EB8F
S214080B5003081FFA88F817F8016B9DF826902B4BA8
S214080B601B78002B7FF45FAF9DF828A000231A4659
S214080B7051462748274CA047224D00231A46697835
S214080B802348A04700231A4629782148A04700236F
S214080B901A4631461E48A047BBF1130F04BF8AF019
S214080BA0080A8DF828A0039B002BB4D1049BB342F7
S214080BB0ADD018F0010F03D0BBF1130F3FF43AAFD6
S214080BC09DF82A3023F008038DF82A300D4B1B8831
S214080BD019F0010F7FF44BAF002B7FF446AF19F0E6
S214080BE0080F9BD129F0060949F0020996E7054A3D
S214080BF0136801331360A6E7AC2700206C27002093
S214080C006A2700208C270020311208006827002059
S214080C1000800040B347080071120800434B9B89C8
S214080C20032B00D070472DE9F04F85B03F4B9B68EB
S214080C301B6803933E4A1070C024547002243D4A31
S214080C4014809BB20193B3F5807F6CD8002B64D0D8
S214080C5082464F1E0026384CB94623E0374B984745
S214080C60374B4FF000021A7022E088F008088DF81B
S214080C700E801BF0010F10D0324A13680133136040
S214080C8006E0304A136801331360BAF1160F04D031
S214080C909BB213B901232A4A13700136B3B2019ADC
S214080CA09A423AD91FFA86FB254B1B78002BD5D1DA
S214080CB09DF80E8000231A4641462046224DA84736
S214080CC0204F00231A4679782046A84700231A465C
S214080CD039782046A84700231A4619462046A847CA
S214080CE0236913F4007FFBD00DF109020DF10A0108
S214080CF02046164B98479DF80A3009F8013FBAF186
S214080D00140FB2D01BF0010FBBD1BAF1160FC4D125
S214080D100C4A136801331360BFE70022044B5A706D
S214080D200222044B1A8005B0BDE8F08FAC270020DD
S214080D306C2700206A270020008000403112080037
S214080D40682700208C270020B3470800854708003E
S214080D50204B9B89052B00D070472DE9F04F85B0B6
S214080D6007461C4B9B68186802901A798DF80C2069
S214080D7093F800B00DF1090601AD0DF1080A164CFE
S214080D80DFF86090DFF8608000231A4616F8011B2B
S214080D902046C847236913F4007FFBD00DF10102F3
S214080DA00DF102012046C0479DF8023005F8013BC8
S214080DB05545E9D1094B1F7000225A7004A98B4487
S214080DC01BF80D1C9970DA700422054B1A8005B0C2
S214080DD0BDE8F08FAC270020008000406C2700207C
S214080DE06A270020B347080085470800134B9B89ED
S214080DF0042B00D070472DE9F04383B081460F4B93
S214080E009B681B6802AC44F8043D0DF108080C4FBB
S214080E1000260C4D3346324614F8011B3846A847C0
S214080E204445F7D1084B83F8009000225A700222F6
S214080E30064B1A8003B0BDE8F08300BFAC2700203D
S214080E4000800040B34708006C2700206A2700206F
S214080E507047000000B9704738B5014643F2B062E3
S214080E60002343F2AF6400250448E0FB0145204612
S214080E702946034CA047034B984738BD00D8B80509
S214080E80B563080089000020434B9B890B2B00D0D4
S214080E9070472DE9F04F8BB03F4B9B6807AA186840
S214080EA0596803C21889997A108091705A7816463C
S214080EB003929878DC781A7901925A79029293F814
S214080EC006B00022354B1A60354DA847354B984773
S214080ED00120354B98473046A84704F1FF395FFA9A
S214080EE089F9002C51D0314B1B6823B12C4F304C5C
S214080EF0DFF8CCA01FE0C0233DE0BBF1000F39D0DF
S214080F000AAB5B4413F8113C029A934232D0002095
S214080F10254DA847039E3046B8470120A8473046C7
S214080F20B84709F1FF395FFA89F9B9F1FF0F2ED0F2
S214080F301E4B1B686BB30DF1230606AD0DF11C089E
S214080F400198B84700231A4616F8011B2046D047D2
S214080F50236913F4007FFBD00DF115020DF116017D
S214080F602046144B98479DF8163005F8013B454532
S214080F70E6D1C2E70023104A1021117053700222EE
S214080F800E4B1A800BB0BDE8F08FC023F3E7C023E2
S214080F90F1E7C023EFE700BFAC2700208C2700202E
S214080FA0550E0800AD1008006D11080094270020A3
S214080FB000800040854708006C2700206A2700202C
S214080FC0B3470800104B9B89022B00D0704710B51A
S214080FD082B00D4B9B681888ADF80400C0B20B4C65
S214080FE0A04700200A4B98470A4B98479DF80500EB
S214080FF0A047094B11221A7000225A700222074B8A
S2140810001A8002B010BD00BFAC270020550E08009D
S2140810106D110800551108006C2700206A2700206B
S2140810201B4B9B89062B00D070472DE9F04782B0F2
S214081030174B9B68186800909A88ADF8042093F8B8
S21408104000A093F801900DF102040DF10608114F67
S2140810500026114D3346324614F8011B3846A84779
S2140810604445F7D1B9F1000F0DD150460B4B9847C0
S2140810700B4B12221A7083F801900222094B1A8031
S21408108002B0BDE8F087084B98478146F0E700BFF6
S214081090AC27002000800040B3470800550E080023
S2140810A06C2700206A270020B111080038B5982060
S2140810B01E4B98471E4B53F820501E4C20461E4B7E
S2140810C0984780232360636843F00103636063687E
S2140810D043F010036360636823F080036360174976
S2140810E02846174B9847051EB8BFFF25002211460D
S2140810F02046144B9847012200212046124B984759
S214081100EAB200212046114B9847012323604FF08E
S21408111000610E200E4CA0474FF000610D20A0473E
S2140811204FF000610F20A04738BD00BF813208008D
S214081130C0030020008000406547080000D8B805B6
S21408114023480800E747080005480800394808000B
S2140811508143080008B5034802230360024B9847FA
S21408116008BD00BF008000407547080008B580B17C
S2140811704FF0605111200A4B98479E20094B98471C
S21408118018B91120084B984708BD1120074B9847F7
S21408119008BD4FF020511120014B984708BD00BFED
S2140811A081430800813208004B4308006543080065
S2140811B070B582B01A4C00261A4D33463246F021D6
S2140811C02046A8473346324631462046A847334687
S2140811D0324631462046A8473346324631462046F0
S2140811E0A847236913F4007FFBD00DF105020DF123
S2140811F0060120460C4B98479DF8063013F0010F61
S21408120005D00A4B1B68002BD7D1812005E0074B79
S2140812101B68002B14BF0020812002B070BD00BFE1
S21408122000800040B3470800854708009427002040
S21408123038B50C4D00231A464D2128460A4CA047BF
S21408124000231A4619462846A04700231A46074987
S21408125089782846A04700231A4619462846A047F4
S21408126038BD00BF00800040B34708008C27002028
S2140812702DE9F04782B09DF8289000F07E000828F7
S2140812804DD00F46904607DD202809D0402846D086
S214081290102833D0002035E002282FD00428F9D1B2
S2140812A04FEA172A1F4C00261F4D3346324649463A
S2140812B02046A8473346324651462046A847334676
S2140812C03246F9B22046A8473346324631462046CB
S2140812D0A847236913F4007FFBD00DF105020DF132
S2140812E006012046114B98479DF8063098450FD1C1
S2140812F00F4B1B68002BD8D1802003E018460D4BF7
S2140813009847002064220A4B1A6002B0BDE8F087AE
S214081310074B1B68002B14BF00208020F2E7064B03
S2140813209847EFE700800040B34708008547080065
S21408133094270020550E0800B1110800064B1B78AC
S2140813400F2B07D8591C044A1170044A42F8230088
S2140813500120704700207047F81C0020B81C0020A9
S214081360064B1B780F2B07D8591C044A1170044AE1
S21408137042F823000120704700207047F91C00201F
S214081380FC1C002008B5014B984708BD813E0800A4
S21408139008B5014B984708BD9D3E080008B5044BA4
S2140813A01B7803B908BD034B9847034B9847F9E7E2
S2140813B05006002041550800B53E080010B5012427
S2140813C0044B1C70044A4FF480610448044B984749
S2140813D0204610BD50060020D91E080068230020AD
S2140813E0514008000022014B1A7070475006002032
S2140813F038B5104B104A9A60DA88402A28BF40222F
S2140814009A810E4B1B789BB10D4D03F18042013A31
S21408141005EB8304013BDBB2D31A05EB830554F8CE
S214081420043D9847034608B9AC42F8D1184638BD7B
S2140814300023FBE7AC27002028230020F91C002007
S214081440FC1C002038B50C4B1B789BB10B4D03F1E8
S2140814508042013A05EB8304013BDBB2D31A05EB65
S214081460830554F8043D9847034608B9AC42F8D1BA
S214081470184638BD0023FBE7F81C0020B81C0020DF
S214081480054B5B78222B04D1044A034B1A610120D2
S21408149070470020704700BFAC270020A114080042
S2140814A010B5224B9B78013B102B3ED8DFE803F0A3
S2140814B00914183D3D3D3D3D3D3D3D3D3D3D3D2CE2
S2140814C03B003E201A4B98471A4CA0470028FCD0F1
S2140814D01020194B984710BD1020184B984710BD80
S2140814E001220C211648174B9847174B9847174B5D
S2140814F05A6812F4003FFBD1144A136843F0254398
S21408150043F005031360FEE70F4B98470F4B5A68E6
S21408151012F4003FFBD10D4A136843F0254343F00D
S21408152005031360FEE70A4B984710BDAC2700205A
S2140815302D4608005546080065450800C9450800B8
S21408154000080E408D3D0800C154080000120E40E9
S214081550B92F0800054B00221A70342159709A706A
S214081560034A93600323938101207047E8220020F2
S214081570AC27002038B50A4C40220A4920460A4DB6
S214081580A847202323723722084904F10900A847F0
S214081590074DAC602046074B9847A881012038BD08
S2140815A0E8220020ECC708000D6B0800E0C708001A
S2140815B0AC270020B16A080008B5074B5B78172BE4
S2140815C003D0402B04D0002008BD044B984708BD24
S2140815D0034B984708BD00BFAC27002055150800E8
S2140815E07515080008B50348034B98470348044B8D
S2140815F0984708BDB91508003D130800811408006F
S21408160061130800034B1888034B1B88C01A00B2E6
S214081610704700BF421D0020441D0020274B9B88B2
S214081620012B01D000207047244B5B78A02B10D0EC
S214081630224A5288A12B34D0A22B3DD1204B1344EA
S2140816401E4A23F0030393604FF4807393810120AE
S21408165070471C4B1A781C4B1A701C4A12785A7022
S2140816601B4A12789A701B4A1278DA701A4A12784D
S2140816701A711A4A12785A71194A1268D1B29971AF
S214081680C2F30721D971C2F307411972120E5A72B2
S214081690144A12789A72094A93600B2393810120A0
S2140816A07047094B1344054A23F0030393604FF42D
S2140816B0807393810120704701207047AC27002073
S2140816C0400008203C1D002000000820441D002083
S2140816D0421D00203E1D0020401D0020510600200F
S2140816E0481D00203D1D002010B582B0174B9B7882
S2140816F0422B06D0154B9B88012B0ED0002002B03B
S21408170010BD124B5B78222BF4D1114B9847114B26
S2140817109847114B98470120F1E70C4B5B780BB1C3
S2140817200120ECE706200D4CA0478520A0470C4B6F
S214081730009340230B4A002106200B4CA0470120AB
S2140817400A4B187000220A4B1A60D8E7AC2700200C
S2140817505D290800C107080009290800295B080058
S2140817607517080040000820B557080051060020E5
S214081770481D0020F0B583B0B8B11C4B1B78002B71
S2140817801B4B03F1400408BF1C461A4B98471A4BDC
S2140817900093C0F14003224600210620174CA047BC
S2140817A00122174B1A7003B0F0BD0E460F4B1B787C
S2140817B09BB100220D4B1A7079B114460D4F114D8E
S2140817C0B84720442B1993F88030DBB2284480F8B9
S2140817D040300134A4B2B442F2D30B4B1E8000232F
S2140817E00A4A1380064A1370DDE700BF461D00202C
S2140817F0400008200516080075170800B5570800A9
S2140818005106002000000820421D0020441D00202C
S21408181030B583B0C8B9164B1D886C1A0BD0002299
S214081820134614480A44825CD2B2C25401339BB2AF
S2140818301A46A342F6D3691A8BB20D4A138073B9B7
S21408184000220D4B1A7003B030BD094B1B880B4A9B
S2140818500092084A00218520094CA047F3E7074A6A
S2140818600092044A00218520054CA047EBE700BFFC
S2140818703E1D002000000820510600201118080010
S214081880B5570800034B1B780BB100F0010202F0B5
S214081890010070473D1D00202DE9F04771B306464C
S2140818A0184B1F7807F0080701F1FF395FFA89F926
S2140818B0C9F1060907244FF0000ADFF84C800DE04E
S2140818C046FA04F000F00100C04700FA04F545EABD
S2140818D00A055FFA85FA013C4C4510D0002FEFD078
S2140818E0C4F1070546FA05F000F00100C04700FA03
S2140818F005F545EA0A055FFA85FAECE78A46504692
S214081900BDE8F0873C1D00208518080008B50821AA
S214081910014B984708BD00BF9918080010B5374B0B
S2140819201B88FBB9364B9847002841DD354A138893
S214081930581C80B21080344A1A4492F84010C9B233
S2140819402E4A1180314A147814F0020F34D102332B
S2140819502C4A13802C4B034493F8403041EA032169
S214081960264B1980264B984700283EDB274B1C78C9
S21408197014F0500F3DD0234B1A88511C1980224B67
S214081980134493F84000224B984714F0200F05D0D4
S214081990204A1388591C11801B4AD054174A1388AA
S2140819A0013B9BB2138013B90022184B1A7010BD66
S2140819B00122194B1A7010BD0233124A1380124BBB
S2140819C0034493F84000154B984700220B4B1A80A7
S2140819D014F0200F05D00F4A1388591C11800A4AA4
S2140819E0D0540022094B1A7010BD01220A4B1A70F7
S2140819F010BD0020064B9847C7E700BF401D0020D3
S214081A0005160800441D0020000008203C1D002084
S214081A100D1908003E1D0020461D002099180800D4
S214081A2010B582B0464B1B78803B072B4AD8DFE8B8
S214081A3003F004361D4B5F6A4974424B98470128E9
S214081A4010DD00223E4B1A703F490B883F4AD018DB
S214081A5090F84000981C088001339BB2134493F812
S214081A6040302FE001223A4B1A702BE0354B98474E
S214081A70012810DD0022324B1A7033490B88334A8E
S214081A80D01890F84000981C088001339BB2134485
S214081A9093F8403016E001222D4B1A7012E0002110
S214081AA0274B1970294A117001232A4803802A48AF
S214081AB00370254C208818442080284800908520EC
S214081AC0274CA04702B010BD00211D4B19701F4AB5
S214081AD0012313701F4803801F4803701A4C208880
S214081AE0184420801D48009085201D4CA047E9E733
S214081AF001221C4B1A700022114B1A70124A1388C6
S214081B0001331380DEE70023164A13700C4A13705D
S214081B100D4A138801331380D4E701220E4B1A703E
S214081B200021074B19700B4B1B880C4A0092074A7A
S214081B3085200B4CA047044A138801331380C1E75D
S214081B403C1D002005160800441D00200000082043
S214081B50461D00203E1D00205106002011180800D2
S214081B60B55708003D1D002008B50348034B9847A5
S214081B700348044B984708BDE91608006113080097
S214081B801D1608003D1308002C4B1B78002B54D15B
S214081B902DE9F04182B02A4B1B7813B3294BB3F8D2
S214081BA000800025284F294E08E004EB080333443C
S214081BB093F84030DBB2344484F84030ACB2B847CF
S214081BC001358442F1DB01221C4B1A701E4B9847E4
S214081BD01F4B0093C0F13F031E4A002106201E4CEF
S214081BE0A047194B984700281BDD1C4B1B786BB980
S214081BF0144B1A88511C1980144B134493F8402030
S214081C00164B1A70164A136801331360134B93F970
S214081C100030002BB4BF134B134B984702B0BDE8F7
S214081C20F0810122054B1A70094B009340230F4A96
S214081C3000210620084CA047F0E770475106002010
S214081C40461D0020441D0020051608000000082038
S214081C507517080080000820B55708003C1D0020AE
S214081C60481D0020211A08001D19080040000820F9
S214081C7008B51B4B5B88A03B122B30D8DFE803F077
S214081C800A141A2F2F2F2F2F2F2F2F2F2F2F2F2FAC
S214081C901E282C00124BDB88042B06BF114B186835
S214081CA01148124B984708BD114B98470A22114B0A
S214081CB01A7008BD00220F4B1A7008BD084BDB8847
S214081CC0042B06BF074B186807480B4B984708BDF8
S214081CD01422084B1A7008BD0022064B1A7008BD5D
S214081CE0AC2700202823002040420F00F9080800EF
S214081CF0890908004C1D00205908080008B500226C
S214081D00204B1A70204B5B78103B062B2FD8DFE849
S214081D1003F004170E202E2E290006201B4B98478A
S214081D20002826D01A4A184B1A61012008BD06203A
S214081D30164B9847F8B1174A134B1A61012008BD8D
S214081D400620124B9847C0B1134A0F4B1A61012060
S214081D5008BD06200D4B984788B1104A0A4B1A61F1
S214081D60012008BD0E4A084B1A61012008BD002054
S214081D7008BD002008BD002008BD002008BD0020C2
S214081D8008BD00BF4C1D0020AC2700208D2F080082
S214081D906D1E0800D51D0800A51D0800191E0800A0
S214081DA0711C080070B5074B5E68074B98470425FA
S214081DB0064C2846A0470028FBD03046044B9847D8
S214081DC070BD00BF28230020B92F08008D2F0800FB
S214081DD0D12F0800F8B50A4B1E685F68094B98476C
S214081DE00525094C2846A0470028FBD03846074B4F
S214081DF098474FF0C042064B1A60064B1E60F8BD67
S214081E0028230020B92F08008D2F0800D12F08009E
S214081E10501D0020541D0020F8B50E4B1C685F6846
S214081E200D4B984701260D4D3046A8470028FBD095
S214081E3038460B4B98474CB10A4A00230A4D12F80D
S214081E40010F2968C85401339C42F8D1024B9847C1
S214081E50F8BD00BF28230020B92F08008D2F0800E2
S214081E60D12F08002F230020380A0020F8B50A4B87
S214081E701E685F68094B98470225094C2846A04704
S214081E800028FBD03846074B9847074A31464FF09C
S214081E90C040064B9847F8BD28230020B92F0800F5
S214081EA08D2F0800D12F0800B11E08003540080005
S214081EB010B50446054B984704B110BD044B984727
S214081EC00228FAD10020034B9847F6E7B92F0800F6
S214081ED0C52F08008D2F080070B505460C461F4B09
S214081EE09847BDB91E4B1B78F3B944B11D4A1E4D21
S214081EF012F8010F2968C85401339C42F8D11B4BCD
S214081F00984704280DD01A4A4FF4806119481A4B8E
S214081F10984770BD164A4FF480611648164B984786
S214081F2070BD0E4B9847EEE70A2B0CD0142BEAD15F
S214081F30002CE8D00B4D2C44104E15F8010FB04776
S214081F40A542FAD1DFE7002CDDD0064D2C440C4E16
S214081F5015F8010FB047AC42FAD1D4E7B92F0800FC
S214081F604C1D002067230020380A0020C52F0800D3
S214081F70D91E08006823002051400800E108080020
S214081F809909080008B5134B5B78122B03D0152B5C
S214081F900ED0002008BD0F4A0F4B1B6893600F4BEE
S214081FA01968918100221A600D4B9847012008BDD8
S214081FB00A200C4B98470C4B003018BF01201870AD
S214081FC000225A709A70DA70024A9360042393814A
S214081FD0012008BDAC270020501D0020541D0020FD
S214081FE0B92F08002F430800E822002008B5044B44
S214081FF098470448044B98470448054B984708BD3B
S214082000B92F0800851F08003D130800FD1C0800AE
S21408201061130800164B5B781A3B172B26D8DFE8A7
S21408202003F0110C25252525161B252525252525F0
S214082030252525252525252525200E4A0C4B1A61FC
S214082040012070470C4A0A4B1A61012070470B4A58
S214082050074B1A6101207047094A054B1A6101208F
S2140820607047084A024B1A610120704700207047E3
S214082070AC270020152408005D24080089200800E5
S214082080952008002124080008B5014B984708BD8C
S214082090B536080008B5014B984708BDF92F080063
S2140820A010B50D200A4B98474FF000611320094CD5
S2140820B0A0474FF000611220A047074B4FF400528C
S2140820C0C3F88021302183F80D131A6010BD00BFB5
S2140820D0C54608008143080000E100E008B5D0F8CE
S2140820E0983203B108BD014B9847FBE7A1200800CA
S2140820F070B504460068194B9847054610F0010F5E
S21408210003D115F0020F15D170BD204650F81C3BC0
S2140821109E69F6B200223146114B984794F89C32D5
S21408212013F0040FEDD00022314604F5E2700C4B94
S2140821309847E6E704F1F00528460A4B984720B981
S21408214002212068084B9847DEE724682846074B94
S214082150984701462046064B984770BDE95D08003B
S214082160F70708003F080800E15D08002108080096
S214082170095E080008B50248024B984708BD00BF2C
S21408218054060020F120080038B504469DF81000D3
S2140821906160012A0ED022B1022A0FD000222261E5
S2140821A001E000222261042B27D8DFE803F00B1792
S2140821B01B1E22004FF480522261F4E74FF40052AF
S2140821C02261F0E74FF40063E360062836D007285C
S2140821D037D0052815D0C023A36014E04FF4007349
S2140821E0E360F2E70023E360EFE74FF4C063E360E1
S2140821F0EBE74FF48063E360E7E74FF40063E360E0
S214082200E3E70023A3600023636120460E4B98474C
S21408221094F89C3243F0020384F89C3204F1F000F0
S2140822200A4DA84704F11C00A84704F5E270A84721
S214082230074A211D2068074B984738BD4023A360EE
S214082240E1E78023A360DEE7DD200800ED0708004D
S21408225000D8B805095D080070B5044600F1F00519
S214082260002228460E4B984720680E4B984710F0D9
S214082270020F00D070BD20680B4B984710F0020F75
S21408228004D102212068094B9847F3E726682846B8
S214082290074B984701463046064B9847F1E700BF7C
S2140822A0F7070800E55D0800E95D0800DD5D080041
S2140822B021080800095E08000028024818BF002008
S2140822C0704700BF5406002010B582B0244B5C88C7
S2140822D0200A244B984700283FD00346E0B214282B
S2140822E007D018281FD0102814BF0020012002B0DD
S2140822F010BD1B4AD288032A01D80020F7E7184ADF
S214082300194C94600421918103F11C00174B9847DF
S2140823102070C0F307236370C0F30743A370000E52
S214082320E0700120E3E70E4AD288032A01D800208D
S214082330DDE70B4A0C4C94600421918103F1F00010
S2140823400A4B98472070C0F307236370C0F307430F
S214082350A370000EE0700120C9E70020C7E700BFA1
S214082360AC270020B9220800E82200204B08080005
S21408237070B582B01D4B5C88200A1D4B984738B153
S2140823800546E3B2112B18D0122B23D0102B01D000
S21408239002B070BD154BDB88072BF9D1134CA36828
S2140823A01E68144B9847A1684B790A798979009179
S2140823B031462846104CA047EAE70E4B984728684F
S2140823C00E4B984728680E4B9847012128680D4BF6
S2140823D09847DDE700680C4B984728680B4B9847EA
S2140823E0032128680A4B9847D2E700BFAC2700208D
S2140823F0B9220800DD20080089210800D15D080000
S214082400C55D0800DD5D0800D75D0800CB5D0800E7
S214082410E15D080008B5014B984708BD7123080020
S21408242070B50C4B5E8800240B4D2046A84760B15B
S21408243046FA04F212F0010F90F89C2214BF42F0FC
S21408244008026FF3C30280F89C220134042CECD1F6
S21408245070BD00BFAC270020B9220800F8B50C4BA9
S2140824605888000A0B4B984788B10646084BDA8806
S2140824709B8993420BD352B10024054D064FAB6897
S214082480195D3046B8470134EB88A342F7DCF8BD3F
S214082490AC270020B92208005922080070B500248D
S2140824A0094D0A4E02E00134042C05D02046A84700
S2140824B00028F8D0B047F6E70548064B9847064880
S2140824C0064B984770BD00BFB9220800DD200800FB
S2140824D0252508003D13080015200800611308008C
S2140824E0F8B50D4D00240D4F26462046B8472E70E9
S2140824F020B190F89C32C3F3C0032B700134013529
S214082500042CF2D1064B044A9A60DA88042A28BFBB
S21408251004229A810120F8BDE8220020B92208008A
S214082520AC2700202DE9F041244B5B781A3B172B8B
S2140825303DD8DFE803F0100C3C3C3C3C30343C3CD7
S2140825403C3C3C3C3C3C3C3C3C3C3C3C3C381C4BD3
S2140825509847BDE8F081194B5888000A194B9847E8
S21408256040B3164BDB88A3B1174D002400F11C08B6
S214082570164E124F4046B04705F8010F0134FB8847
S214082580A342F7D80D4B124A9A609C810120BDE8F9
S214082590F0810024F6E70F4B9847BDE8F0810E4B14
S2140825A09847BDE8F0810D4B9847BDE8F0810020BC
S2140825B0BDE8F0810020BDE8F08100BFAC27002010
S2140825C0C9220800B9220800E722002021080800CE
S2140825D0E8220020B5360800F92F0800E124080094
S2140825E008B5054B984790F89C3243F0040380F8EA
S2140825F09C32012008BD00BFB922080008B5044B6C
S214082600984790F89C326FF3820380F89C3208BD96
S214082610B92208002DE9F0478146174B984790F8ED
S2140826209C3203F00603062B01D0BDE8F087074668
S2140826304846124B984705460028F6D0104EDFF855
S21408264044A0DFF84480B5F5007F28BF4FF4007536
S2140826502A4631464846D0473DB10024315D3846C3
S214082660C0470134A4B2A542F8D84846034B984759
S21408267005460028E7D1D8E7B9220800F103080084
S214082680581D0020010608005922080030B583B0FE
S2140826900D46144B984790F89C3213F0040F03D05D
S2140826A004466B79042B01D903B030BD2968AB7991
S2140826B0053B9B01DBB2009300231A460A4DA84748
S2140826C020460A4B984710F0010FEDD12068084BBA
S2140826D098472068074B984701212068064B98477B
S2140826E0E2E700BFB922080089210800E55D080076
S2140826F0D15D0800C55D0800DD5D08002DE9F84FCE
S2140827000025DFF84CB0DFF84C80DFF84CA0DFF887
S2140827104C900DE02046D04701463846C84706F597
S214082720E2742046C0470028F4D10135042D0CD0A9
S214082730EFB22846D84706460028F6D090F89C32CE
S21408274003F00603062BF0D1E9E7BDE8F88F00BFD3
S214082750B92208003F0808002108080031070800C9
S214082760104B1B681A6853881A440378184490421A
S21408277011D24378042B10D08B4209D00378184422
S214082780904206D24378042B09D08B42F6D107E054
S21408279070470020704700207047002070470020D0
S2140827A0704700BF601F002008B5034B987800F0FC
S2140827B07F00024B984708BDAC2700200955080043
S2140827C0194B1B784BB3194B1B681B681A79824246
S2140827D025D970B4164A13605C881C44A34220D2DC
S2140827E00025012607E0124A13600FE01A78134402
S2140827F03546A3420CD25A78042AF7D19A788242F0
S214082800F4D1DA788A42F1D1002DECD1012002E029
S214082810074A1360002070BC7047002070470020ED
S21408282070470020F7E700BF5D1F0020601F0020EC
S214082830641F00202DE9F84304460021134B9847EF
S214082840804610B94046BDE8F883114B1B685B68A4
S21408285053F82490D9F80C309847014620460B4B7D
S214082860984780460028EDD00A4B1C6805260A4D76
S2140828700A4F31462046A847044610B18078B84724
S214082880F7E7D9F804309847DCE700BFC127080007
S214082890601F0020641F0020612708006D5508008F
S2140828A02DE9F0418046104B98470346C8B10F4BB8
S2140828B01C6805260E4D0F4F31462046A84704468D
S2140828C038B18288C1788078B84703460028F3D1A3
S2140828D007E0094B1B685B6853F828301B68984765
S2140828E003461846BDE8F081C1270800641F00208B
S2140828F061270800A1580800601F0020014B1868CF
S214082900704700BF641F002008B5014B984708BDF4
S214082910ED53080070B50D4B1B7883B10C4B1B6844
S2140829201B681B795BB100240A4E094D2046B04748
S2140829300134E4B22B681B681B79A342F6D800233F
S214082940024A1370044A138070BD00BF5D1F002042
S214082950601F002035280800581F002008B5024BC5
S2140829609847024B984708BDE15208001529080009
S21408297038B50D4B1B78B3B10C4B1B681A68127927
S2140829808AB10024094D06E00134E4B22B681A68BF
S2140829901279A24207D95B6853F824301B69002BCA
S2140829A0F2D09847F0E738BD5D1F0020601F002072
S2140829B0F8B5954B00229A811A615A611B88B3F5BF
S2140829C0E07F19D0904B1B7813F0800F1AD113F0C4
S2140829D0600F00F045818C4B1B7803F01F03012B1A
S2140829E000F01182884B1B7803F01F03022B00F0BF
S2140829F0958200231846F8BDAA218448844B984738
S214082A000123F7E7804AD288002A00F0B08213F044
S214082A10600FE0D113F01F0307D17B4949780629D8
S214082A2016D0082900F0BF8059B1012B00F0C380EA
S214082A30022BD0D1744B5B78002B00F00381002367
S214082A40D3E1022ACED102217248714B984724E17D
S214082A506D4B5A88D4B2130A013B0E2B00F214822F
S214082A60DFE813F00F0023007B0012021202450075
S214082A70530012021202120212021202120212026A
S214082A807600654B984728B9644B98680178604B80
S214082A90984731E0614B1A68102191700221D17075
S214082AA0186801785A4B984726E05B4B984780B1E0
S214082AB05A4B9B685B7CA3428DD9584B1B6953F8CD
S214082AC034004188524B98474F4B9B6802225A70F5
S214082AD012E0524B1B685B7CA3427FF67CAF4F4BE1
S214082AE05B6853F834004188494B9847ECE74B4BF2
S214082AF0D8680178464B9847434BDA889B899342B7
S214082B0040F2CB80404B9A81C7E0434B984788B940
S214082B10424B9B685B7CA3427FF65DAF3F4B1B69CD
S214082B2053F8340041883A4B9847374B9B6807223E
S214082B305A70E1E7394B1B685B7CA3427FF64BAFC4
S214082B40364B5B6853F834004188314B9847ECE7BE
S214082B50212133482E4B9847CEE7D2B2032A3FF6B8
S214082B603AAFDFE812F007000C0008020400202441
S214082B702C4A06E004212C48254B9847BCE72B4AEC
S214082B801524013A2A49002312F8010F21F8020FEA
S214082B900133DBB29C42F7D8610002312448017049
S214082BA01B4B9847A8E7012A7FF41CAF0121214850
S214082BB0174B984771E0144949780A297FF438AFCB
S214082BC0012A40F020811B4B1B78002B00F01B814C
S214082BD00D4B1C79184B1D682B681B79A34240F2D5
S214082BE0128100212046154B984700283FF4F3AE83
S214082BF06B6853F82430DB689847114B187001212E
S214082C001846034B984748E0AC27002018090020D0
S214082C1061550800581F0020F9540800DC01002000
S214082C20F4080020840A0020080A00200C0A002065
S214082C30C40900205D1F0020601F0020C12708006F
S214082C405C1F0020022A7FF4CDAE924B1879924B77
S214082C509847924B188002211846914B98471CE0DB
S214082C6013F01F0340F0B5808A4A5278013A082AC2
S214082C7000F2AF80DFE812F01300AD002300AD00CD
S214082C800900AD00AD00AD005400824BDB88002B78
S214082C907FF4A8AE834A7F4B1A610123AAE67D4BD0
S214082CA0DB88002B7FF49EAE7A4B5B88012B7FF483
S214082CB099AE7D4A138823F002031380EDE7754B1F
S214082CC0DB88002B7FF48EAE724B5B88022B40F0BD
S214082CD0DD80764B984700283FF47DAE6D4B1B7918
S214082CE0002B7FF478AE724B98476A4B9B881B0A7A
S214082CF0013B032B00F2CC80DFE803F002060A0E45
S214082D006C4A644B1A61C8E76B4A624B1A61C4E79F
S214082D106A4A604B1A61C0E7694A5E4B1A61BCE7AB
S214082D205C4BDB88002B7FF45DAE664B984700282B
S214082D303FF451AE5D4B9847002836D0554B9A78ED
S214082D40614B9B685B7C9A423FF745AE584B984769
S214082D50504B9B785D4A1370002B9ED0534B984778
S214082D6000282AD0594B1B7803F10053013B564ADA
S214082D70126902EBC303564A1360554B1B681B685F
S214082D801B79002B89D000242746524E504D3946D1
S214082D902046B04700283FF41EAE0134E4B22B6844
S214082DA01B681B79A342F2D877E73A4B9A78464BCA
S214082DB01B685B7C9A42C9DD0DE6444B1B7803F121
S214082DC00053013B404A526802EBC303404A136073
S214082DD0D3E7012B0DD0022B7FF4FDAD2D4B5B788E
S214082DE0012B2ED0032B3CD00023002B7FF402AE01
S214082DF0F1E5284A52780B2AEDD1264BDB8813B921
S214082E00324B1B7873B9314B1B78002B00F0B1801E
S214082E10204B1C792E4B1D682B681B79A34263D860
S214082E200023E7E51B4B1C795D8820462A4B98470C
S214082E3000283FF4D0ADE9B22046264B9847034613
S214082E40D3E7144BDB88002B7FF4CCAD114B5B88A3
S214082E50002B7FF4C7AD0F4B1879204B98470346D5
S214082E60C3E70C4BDB88002B7FF4BCAD094B5B88B3
S214082E70002B7FF4B7AD074C2079194B984720797B
S214082E80184B98470346B0E70023AEE70023ACE7A5
S214082E900023AAE7AC270020C15508005A1F0020C7
S214082EA061550800A9270800581F0020F954080093
S214082EB0152908008D5B0800B15B0800D55B080083
S214082EC0ED5B080031550800DC0100205D1F00207E
S214082ED0601F0020A128080035280800BD560800F5
S214082EE0295B0800F555080000212046234B984723
S214082EF000283FF477AD6B6853F82450EB68984782
S214082F00014620461D4B984700283FF46BADAB683A
S214082F109847034600287FF46DAD63E5184B1B7889
S214082F200BB3184B1A6813681B79F3B10024134EB9
S214082F30144F536853F82450EB68984701462046C8
S214082F40B047034600283FF455ADAB68984703469C
S214082F5000287FF44FAD0134E4B23A681168097965
S214082F60A142E6D846E5002344E5002342E50023CF
S214082F7040E500233EE51224034A02E6C12708007E
S214082F805D1F0020601F0020240A002010B504469C
S214082F90064B9847064B1B7833B9054B1C70012423
S214082FA0044B9847204610BD0024F9E76D400800FA
S214082FB0681F0020A94008000022014B1A707047BD
S214082FC0681F0020014B1878704700BF681F002054
S214082FD008B501460448054B98473520044B9847E2
S214082FE03520044B984708BD000E0E4023430800C2
S214082FF0654308004B43080038B57B4B9C787B4BF1
S2140830001C707B4B9847631E212B00F2E380DFE899
S21408301013F0220037003700E100E1006C00E10001
S214083020E100E1008800E100E100E100E100E100E4
S21408303090009400A40098009E0098009E00AD00A2
S214083040A800AD00A800A800A800B200E100E100B2
S214083050B600CF00C000654C002363700D23A37034
S214083060644B07CBC4F80300C4F80710C4F80B2059
S2140830701B78E3735C4B9C6010229A81012038BD54
S214083080594B9B681D78022C0CD002225A4B1A808A
S21408309028465A4B9847032C17D0C022584B5A70CC
S2140830A0012038BD5C780222534B1A802846534BC1
S2140830B0984710F0020FF0D00022514B5A70214664
S2140830C02846504B9847012038BD10F0010FE4D031
S2140830D04B4C0023637028464B4B9847A070464AD3
S2140830E0138801331380012038BD3F4B9A68D17886
S2140830F093781B0443EA016311780B43527843EA3A
S2140831000223424A1360002B07DB00223C4B5A700E
S2140831100222394B1A80012038BD01223C4B1A7016
S214083120F3E70022364B5A700222334B1A800120EE
S21408313038BD384B9847012038BD374B9847012093
S21408314038BD36492046364B9847012038BD3349A6
S2140831502046344B9847012038BD334B984701200A
S21408316038BD2046314B9847012038BD2046304BA5
S2140831709847012038BD2F4B9847012038BD1A4A7A
S2140831801F4B93601C4B1988918100221A800120DE
S21408319038BD154A53881B0AD2889918B1F5807F1E
S2140831A020DC11481D490B4483608281012038BD0C
S2140831B00D4A53881B0AD2889918B1F5807F01DD1D
S2140831C0002038BD08498968144818441A4B98479F
S2140831D0012038BDC9220A4B5A700222064B1A80B3
S2140831E0012038BD002038BDAC2700206C20002008
S2140831F00D3D0800F8C708006A2700206D32080051
S2140832006C27002095320800813208008C270020A1
S21408321068270020890E0800C50F08006C1F0020CC
S214083220B10908001D0C080021100800510D0800FF
S214083230ED0D0800510E08003D670800094B1B7885
S21408324083420AD0084B03F11B011A78824206D043
S21408325003338B42F9D1002070470248704718465E
S214083260704700BF3C0A00203F0A002008B5034B01
S214083270984708B1407808BD002008BD3D320800D0
S21408328008B5034B984708B1807808BD002008BDEC
S2140832903D32080010B50C46024B984700B18470C2
S2140832A010BD00BF3D32080038B50546C0B2054C13
S2140832B0A047C5F30720A047C5F30740A047280E38
S2140832C0A04738BD3D3B080008B5034B1B681843AC
S2140832D0024B984708BD00BF5C0A0020A9320800C8
S2140832E070B5074E074D084C8020B047A84723689E
S2140832F023B110F0020FF7D0012070BD002070BD7A
S2140833003D3B0800693B08009427002070B56B20F9
S214083310094B98470F20094B9847074E084D094C0C
S2140833202020B047A847236823B110F0800FF7D1B4
S214083330012070BD002070BD3D3B0800C932080062
S214083340693B0800942700202DE9F04182B01A4B0B
S2140833509847C120194CA0475920A047C220A0472B
S2140833600220A047E020A0470DF107040DF1FF3822
S21408337012278926114D8DF800708DF80160AB2351
S2140833808DF8023045238DF80330CD238DF80430B0
S214083390D8238DF8053088238DF80630FF238DF85E
S2140833A0073014F80109A8474445E4D1044B984768
S2140833B002B0BDE8F08100BF093C08003D3B0800AC
S2140833C0E132080070B5094B9847094C094D0A4E7A
S2140833D0C120A0470020A0478120A047A84710B1D9
S2140833E03368002BF4D1054B984770BDE1320800CE
S2140833F03D3B0800693B080094270020E13A080096
S214083400F8B507460D4614461E4B9847034608B9B6
S2140834101846F8BD4C201C4EB0470A201B4B984750
S2140834204320B047012C23D96B20B0473846184BA9
S2140834309847A020B047601EC0B2B0472420B047C7
S214083440631E9BB274B1134A12685AB16C1E1D44AF
S214083450114E104FB04704F8010FAC4202D03B683B
S214083460002BF7D10B4B1B68003318BF0123CFE79F
S2140834700C20054B98473846054B9847064B984707
S2140834802870EFE70D3308003D3B0800C9320800F6
S214083490A932080094270020693B08002DE9F0416E
S2140834A080460F4616460B4B9847044610B92046EA
S2140834B0BDE8F0814C20084DA8470A20074B9847DE
S2140834C04046A8474C20A8473846054B98473046FC
S2140834D0A847ECE70D3308003D3B0800C932080052
S2140834E0A93208002DE9F047814617461D46BDF863
S2140834F0286013F0010F07D1E6B915F0020F3FD187
S21408350001242046BDE8F0878846284B984704469D
S2140835100028F6D04C20264CA0470A20DFF894A0B6
S214083520D0474046A0474C20A0470B20D047012054
S214083530A047E1E71D4B984704460028E1D04C20F9
S2140835401B4CA0470A201B4B98474846A0476B20B1
S214083550A0470898184B9847A020A047701EC0B2EE
S214083560A0476420A047099B5C1E013EB6B21E44D5
S214083570DFF83C8014F8010FC047B442FAD1BCE724
S2140835800A4B984704460028BBD04C20084DA8474D
S2140835900A20084B98473846A8474C20A84708985A
S2140835A0054B98470020A847ABE700BF0D33080037
S2140835B03D3B0800C9320800A9320800F8B50446A1
S2140835C00E46364B98470346A8B1402C15D0302CEB
S2140835D022D04C20324DA8470A20324B9847204626
S2140835E0A8474C20A84730462F4B98470020A847A6
S2140835F02E4B984703461846F8BD4C20284CA04743
S2140836000A20284DA8474020A0474C20A0470B205A
S214083610A8470120A047EBE74C20214CA0470A20EA
S214083620204DA8473620A0474C20A0470B20A84787
S2140836300120A047194B984703460028DBD04C20AA
S214083640A0470A20A8473320A0476B20A04730464B
S214083650154B9847A020A047154D28780138C0B2CA
S214083660A0476420A0472B884BB1002427460C4E61
S2140836703846B0470134E4B22B88A342F8D84C2029
S214083680074CA0470A20074DA8473020A0474C20E3
S214083690A0470B20A8470120A047A9E70D3308003C
S2140836A03D3B0800C9320800A9320800E13208008C
S2140836B05A0A002070B584B08E4B5888C3B28E4A1A
S2140836C01370013B212B2BD8DFE813F022002F00C4
S2140836D037007300A500C900CC002A002A002A007B
S2140836E02A002A002A002A002A002A002A002A007D
S2140836F02A002A002A002A002A002A002A002A006D
S2140837002A002A002A002A002A00600141014F01E7
S2140837107A4B98477A4B984780F00100794B187097
S214083720794B9847002004B070BD744B9847774B88
S21408373098470022734B1A70F2E7704B984700229E
S214083740704B1A706B4B9B89042B15D9694B9B6879
S2140837501A79D978090441EA02615A7811439A78A5
S21408376041EA02211B78013B072B17D8DFE803F054
S21408377018080A0C0E1012140122624B1A70CFE7B2
S21408378020200EE068200CE030200AE0222008E026
S2140837902A2006E0322004E0182002E0002000E09C
S2140837A040205B4B98470028BAD10322554B1A7025
S2140837B0B6E7524B98470022524B1A704D4BDB889F
S2140837C0072B02D801224F4B1A704A4B9B685A792E
S2140837D01979090441EA02619A781143DA7841EACC
S2140837E002211A78013A052A11D8DFE812F0E1001A
S2140837F00800E500FD0006000C000820F5E0262578
S21408380023202C22DBE0262523201A22D7E02E228E
S21408381026252320D3E0394B98470022394B1A70C7
S214083820344B99688B794A7942EA03220879CB782F
S2140838301B0443EA0063487803438878B2F5807F20
S21408384028BF4FF48072334943EA0020324B98472A
S21408385000287FF465AF03222A4B1A7060E7274BCF
S21408386098475DE7254B98470022264B1A70214B50
S214083870998901290BD91F4B9A681378013B072BA6
S21408388061D8DFE803F0081B282C6060603001224E
S2140838901C4B1A7044E7042903D80122194B1A70E6
S2140838A03EE71179D3781B0443EA016351780B434A
S2140838B0927843EA0223194A136031E7022903D8AB
S2140838C00122104B1A702BE79178537843EA0123AC
S2140838D0134A138024E75278124B1A7020E752785E
S2140838E0114B1A701CE7042920D80122054B1A70C0
S2140838F016E700BFAC2700208C2000200D3D0800EE
S2140839004933080090270020553D0800C5330800B5
S214083910BD35080090200020013408005C0A00200D
S2140839205A0A0020600A0020610A00201179D3781C
S2140839301B0443EA016351780B43907843EA00205E
S2140839402F4B9847ECE601222E4B1A70E8E6000A41
S2140839502D4BDB88C218B2F5807F27DC2A492B4A14
S214083960104488608B810120DDE6000A264BDA8841
S2140839708318B3F5807F01DD0020D4E6224B9968D2
S214083980224B1844224B98470120CCE6214A1D4B6F
S2140839901B785370204B1B68B3FA83F35B0993704C
S2140839A0194B9A6003229A810120BCE60020BAE6E9
S2140839B026252320242202E0362533203522DE79E8
S2140839C09C7944EA06245B78B4F5807F28BF4FF4D8
S2140839D0807402940D4C0194009129460F4CA04720
S2140839E000287FF49DAE07E04C20084B1A780C4B55
S2140839F0984700287FF494AE0322024B1A708FE68D
S214083A009D3C080090270020AC270020902000202E
S214083A103D6708008C20002094270020E534080025
S214083A209D34080038B50B4D0B4C2846A047002897
S214083A30FBD0084C2046094B98472046084B984729
S214083A404FF020511420074B98470022064B1A7057
S214083A5038BD00BF00400940ED5D0800CB5D08009A
S214083A60D15D0800814308009021002070B5182514
S214083A70144C154E2846A04710B13368002BF9D1D0
S214083A801825104C104E2846A04710B93368002B4E
S214083A90F9D118250B4C0C4E2846A04710B13368B0
S214083AA0002BF9D1094C2046094B98472046094B6C
S214083AB098474FF000611420074B98470122074BA0
S214083AC01A7070BD2F430800942700200040094054
S214083AD0D75D0800C55D08008143080090210020D6
S214083AE010B50F4B1B78BBB90E4C20460E4B9847AB
S214083AF020460E4B98474FF0205118200C4CA047F4
S214083B004FF020511520A0474FF020511420A04711
S214083B100E20084B984710BD074B9847E4E700BFB0
S214083B209021002000400940D75D0800CB5D0800C2
S214083B3081430800F9460800253A080010B50446EF
S214083B40054B1B7823B121460448054B984710BD02
S214083B50044B9847F7E700BF902100200040094033
S214083B60095E08006D3A080070B582B00A4B1B78EB
S214083B7073B90A4D0A4C0B4E01A92846A0470128DE
S214083B8002D13368002BF7D19DF8040002B070BD4F
S214083B90054B9847EDE700BF9021002000400940FC
S214083BA01B5E080094270020253A0800F8B5124B3B
S214083BB01B7823B10C271825104C114E06E0114B24
S214083BC09847F7E77B1E13F0FF0713D02846A04751
S214083BD010B13368002BF9D12846A04710B93368CE
S214083BE0002BF9D12846A0470028EBD03368002BD5
S214083BF0F8D1E7E7F8BD00BF902100202F43080062
S214083C00942700206D3A080070B586B00025194B39
S214083C101D700E20184B98474FF040511420174C33
S214083C20A0474FF020511520A0474FF040511820CC
S214083C30A04740F25710124EB0471420114B984731
S214083C404520B0470295049505950F4B0093C02371
S214083C5001934FF4005303930C4A69460C480D4BE6
S214083C6098474FF080511820A0470B4CA047A04714
S214083C7006B070BD90210020C546080081430800A4
S214083C80890000204B43080020A1070000B0710BF4
S214083C90004009405D5D0800AD3B0800014B186018
S214083CA0704700BF640A002038B51620104B9847A6
S214083CB0104B4FF48002C3F88021102583F8165362
S214083CC01A600D4C4CF20102002120460B4B984717
S214083CD04FF4965200212046094B98472A46002161
S214083CE02046084B98470122074B1A7038BD00BF7C
S214083CF0C546080000E100E000000840DD3D080079
S214083D00053E08000D3E08009121002010B50A4B1C
S214083D101B786BB1094C00212046094B9847094B84
S214083D201A68094B1A6000212046084B984710BDB0
S214083D30074B9847EEE700BF912100200000084097
S214083D40FD3D0800640A002094270020F53D080081
S214083D50A93C080008B500210148024B984708BD51
S214083D6000000840FD3D080008B5054B1B6813B168
S214083D70013B034A136000210248034B984708BDDD
S214083D809427002000000840153E080038B5A1F129
S214083D900E03012B02D84FF0FF3038BDEFF3108426
S214083DA072B6BFF35F8F00250A4B1D70120222F011
S214083DB07F4222F0FF0242F0B442C9B21143064BDA
S214083DC09847002CE9D10122024B1A70BFF35F8F87
S214083DD062B638BD7C0A00206D00002010B4890148
S214083DE04318022444504FF0FF319962196A5A600A
S214083DF010BC704789010523435070478901022388
S214083E004350704700EB8111CA61704700EB81117F
S214083E104A62704700EB8111086A704770B586B031
S214083E2004460E460423009302AB0F220E210D48CB
S214083E300D4DA84718B11025284606B070BD054692
S214083E40042E28BF042656B102AA234604EB860190
S214083E5052F8040B43F8040B8B42F9D1ECE73546CD
S214083E60EAE700BF00080E400100002010B5062053
S214083E70024CA0470720A04710BD00BF0D4208000F
S214083E8010B50620034CA0470720A0471D20024B6C
S214083E90984710BD0D4208006543080008B506207F
S214083EA0024B98471D20024B984708BD3142080030
S214083EB04B43080008B50B4BA3FB00239B094FF4A4
S214083EC07A7202FB130080B218B1B0F5FA7F04D0FC
S214083ED008BD0620044B984708BD0620034B9847A4
S214083EE0F6E700BFD34D6210314208000D420800C5
S214083EF010B53E20074B9847074CA0470028FCD033
S214083F004FF47102054BDA61054CA0470028FCD037
S214083F1010BD00BF2D4608005546080000040E4098
S214083F20B5460800024AD36923F48033D361704744
S214083F3000040E4010B51248124B98473E20124B0C
S214083F409847124CA0470028FCD04FF08070104BC2
S214083F509847104CA0470028FCD00F4B98470F4AAC
S214083F600F4B9A620F4CA0470028FCD010200E4B2F
S214083F7098470E4B98470248024B984710BD00BF1B
S214083F8000D8B8053D0100202D4608005546080013
S214083F90754608006546080095460800013F0F204C
S214083FA000040E40A5460800C9450800255F08001D
S214083FB0014B1878704700BF9221002008B5054BC2
S214083FC09847C378044A13700BB1012008BD034B09
S214083FD0984708BDFD28080092210020BD13080058
S214083FE008B5034B1B7803B108BD024B9847FBE79F
S214083FF092210020E513080008B50B4B1B7813F038
S214084000800F05D103F06003402B0AD0002008BDBE
S21408401003F06003402B01D0002008BD034B9847EF
S21408402008BD034B984708BDAC2700204514080078
S214084030F113080010B582B000920B460246002124
S2140840408120024CA04702B010BD00BFB55708003B
S21408405010B582B000920B46024600210220024CA0
S214084060A04702B010BD00BFB55708000B4B1B6831
S2140840702BB9EFF310833BB10022094B1A70074A9D
S214084080136801331360704772B6BFF35F8F002260
S214084090044B1A700122024B1A70F0E79421002094
S2140840A0982100207C0A0020074B1A68013A1A60FB
S2140840B01B6843B9054B1B782BB10122044B1A70B9
S2140840C0BFF35F8F62B670479421002098210020C6
S2140840D07C0A00202DE9F04180B90C469046002A5B
S2140840E00FDD8F18084E094D306821462B68984713
S2140840F00134BC42F8D14046BDE8F0814FF0FF38A5
S214084100F9E78046F7E700BFA8270020A027002089
S2140841100138022815D82DE9F0410E4614469AB102
S2140841200D46DFF838800C4FD8F8000015F8011B4C
S2140841303B68984700280ADBA81B013CF4D1BDE879
S214084140F0814FF0FF3070471046BDE8F0814FF021
S214084150FF30BDE8F08100BFA4270020A827002074
S214084160F8B54FF060510620174CA0474FF0605145
S2140841700720A0474FF040511D20A0471D20134B95
S21408418098474FF060510820A0470820104EB047C7
S214084190104F4FF04052FF2138460F4DA847FF21D9
S2140841A038460E4B98474FF060513520A0473520CB
S2140841B0B0474FF000624FF4C0510948A8474FF087
S2140841C080511B20A047F8BD8143080065430800BE
S2140841D04B430800000E0E40514408001D430800DB
S2140841E0000C0E4010B54FF40042054B5A600A20EA
S2140841F0044CA0470B20A047034B984710BD00BFB0
S21408420050120E40C54608006141080010B5044625
S214084210062802D0072C04D010BD0620034B98476A
S214084220F8E70720014B9847F6E700BF6543080004
S21408423010B50446062802D0072C04D010BD062068
S214084240034B9847F8E70720014B9847F6E700BF67
S2140842504B43080001EB810100EB81010A677047B8
S21408426001EB810100EB81014A67704701EB810190
S21408427000EB81018A67704701EB810100EB810141
S214084280C1F8802070474264B1F1805F16D00BD821
S21408429049B1B1F1006F05D1036F016F0B4023EAF6
S2140842A00203036742607047B1F1405FFBD0B1F18B
S2140842B0605FF8D0B1F1205FF4D17047036F134305
S2140842C00367EFE7416412F0010F14BF4166016609
S2140842D012F00A0F14BF0162416212F0020F07D1F2
S2140842E012F0080F18BFC0F88410416101607047CB
S2140842F0C0F88010F9E710B4019C416444B901661F
S21408430043B1016542B941630161016010BC704761
S2140843104166F5E74165F5E70163F5E7C0F8A010E3
S214084320704781637047C06C7047806C704743095C
S21408433003F5001303F206735B02DB6B00F01F0045
S21408434023FA00F000F001007047430903F5001354
S21408435003F206735B0200F01F00012202FA00F067
S21408436018637047430903F5001303F206735B02EC
S21408437000F01F00012202FA00F0586370470000A0
S21408438070B582B00D46430903F5001303F20673B1
S2140843905C0201F0F043B3F1205F31D016D8B3F1D8
S2140843A0006F1BD0B3F1805F16D100F01F00012606
S2140843B0864032464FF080512046224B984715F0EB
S2140843C0010F14BF66662666012017E0B3F1405F4A
S2140843D021D0B3F1605F1ED000200FE000F01F0070
S2140843E00126864032464FF000612046154B984716
S2140843F015F0010F14BF66662666012002B070BD70
S21408440000F01F0101262A4606FA01F120460E4B47
S21408441098473046F2E705F0605200F01F01012683
S21408442005EA06030093C5F38003B2F1605F14BF84
S2140844300022012206FA01F12046044CA047304625
S214084440DCE700BF87420800C5420800F7420800BC
S21408445070B582B005460E46144602F0F043B3F136
S214084460205F27D011D8B3F1006F16D0B3F1805F64
S21408447011D10A464FF08051194B984714F0010F96
S21408448014BF6E662E66012012E0B3F1405F15D0A9
S214084490B3F1605F12D000200AE00A464FF00061D0
S2140844A00F4B984714F0010F14BF6E662E66012056
S2140844B002B070BD0B4B98470120F9E704F0605234
S2140844C004F001030093C4F38003B2F1605F14BFE5
S2140844D00022012231462846034CA0470120E7E780
S2140844E087420800C5420800F74208002DE9F04157
S2140844F0044688460E4B9847054620460D4B984777
S214084500054013D00C4C04F1600603E0B4420DD00D
S21408451010345DB120684045F8D161682942F5D06D
S214084520E3689847636825EA0305EFE7BDE8F08186
S214084530274308002B4308009C21002008B50A21C1
S2140845400148024B984708BD000C0E40ED44080091
S21408455008B50B210148024B984708BD000E0E40CF
S214084560ED440800174A136B23F0030343F00103D6
S2140845701363936E13F0080F0AD14FF400631149C2
S2140845808A6E12F0080F03D1013BF9D1012070475B
S2140845900C4A136B23F0700318431063936E13F0E2
S2140845A0080F0AD14FF4006306498A6E12F0080F06
S2140845B005D1013BF9D10120704700207047002043
S2140845C0704700BF00040E40174A136B23F07003B1
S2140845D018431063936E13F0080F0AD14FF4006364
S2140845E011498A6E12F0080F03D1013BF9D1012058
S2140845F070470D4A136B23F0030343F0020313635B
S214084600936E13F0080F0AD14FF4006306498A6EBA
S21408461012F0080F05D1013BF9D1012070470020A0
S21408462070470020704700BF00040E40084A136A0F
S21408463023F0030343F45C1343F00103000280B243
S21408464003431362936E13F0010FFBD0704700BF4D
S21408465000040E40024B986E00F00100704700BF41
S21408466000040E40024B986E00F48030704700BF7E
S21408467000040E40064B1B6A30B923F0807343F4DF
S2140846805C13034A1362704743F08073F7E700BF72
S21408469000040E404FF00052014B9A62704700BF6C
S2140846A000040E40024B986E00F00200704700BFF0
S2140846B000040E40024B986E00F04000704700BFA2
S2140846C000040E401D280ED81F280ED8094B9A69DC
S2140846D00123834093430AD0012303FA00F0054BD5
S2140846E0186100207047012070470020704700209E
S2140846F0704700BF00040E401D2810D81F2810D889
S214084700094B9A6901238340934301D000207047E0
S214084710012303FA00F0044B58610020704701207B
S21408472070470020704700BF00040E404FF48073A7
S21408473003FA00F0014B1860704700BF00040E40F3
S214084740034B1A6FC0F3120010431867704700BF78
S21408475000040E40024B187880F00100704700BF36
S2140847600C22002008B51420014B984708BD00BF4E
S214084770C546080008B51420014B984708BD00BF79
S214084780F946080010B443F69923046914F0010F9B
S21408479003D1013BF9D1012009E08368406810F095
S2140847A0020F1CBFC3F3034010700B80002010BC20
S2140847B0704730B443F69924056915F0020F03D103
S2140847C0013CF9D101200CE0446814F0020F06D031
S2140847D0120402F4702211430BB141F08071C160DB
S2140847E0002030BC704732B900EB8100036B23F021
S2140847F001030363704700EB8100036B43F001037A
S2140848000363704732B900EB8100036B23F00203A1
S2140848100363704700EB8100036B43F002030363F6
S2140848207047431E1944B1FBF0F0431EFE2B94BF9D
S21408483000B24FF0FF30704700EB81010B6B23F49A
S2140848407F430B630B6B43EA02220A637047000040
S2140848500346A8B9174A127842B3EFF3108272B625
S214084860BFF35F8F14490870144881780139817046
S214084870E2B90121104A1170BFF35F8F62B615E0E6
S2140848800C4A127892B9EFF3108272B6BFF35F8FB4
S21408489000200949087009488178013181702AB9D1
S2140848A00121054A1170BFF35F8F62B6014A137083
S2140848B0704700BF0E2200207C0A002098270020A0
S2140848C0EFF3108372B6BFF35F8F00210D4A1170A5
S2140848D04FF480610C4AC2F808112BB90122094B23
S2140848E01A70BFF35F8F62B64FF40072064BC3F8B8
S2140848F01821064A0023136153619381044A1370F2
S214084900704700BF7C0A002000400A40AC27002001
S214084910142200200522034B1A702022024BC3F8EB
S214084920142170471422002000400A400322114B2D
S2140849301A70EFF3108272B6BFF35F8F00210E4B2A
S21408494019700E4B4FF48061C3F818114FF40060CD
S214084950C3F81401C3F804114FF40041C3F8181142
S214084960C3F804112AB90122034B1A70BFF35F8FEC
S21408497062B67047142200207C0A002000400A40D5
S21408498008B5024B1B6903B1984708BDAC27002041
S21408499038B5EFF3108372B6BFF35F8F00214C4A29
S2140849A011704FF480614B4AC2F808112BB90122E6
S2140849B0474B1A70BFF35F8F62B6474B1B78032BC3
S2140849C057D0464B1B88464A9489E41AA4B2C4B901
S2140849D0444A11880B449BB21380414AD2889A42B3
S2140849E04CD0414B1B78002B48D13D4B5B69002BC4
S2140849F05FD0984700285CD00022384B1A80384B86
S214084A009C893F2C55D90022374B1A704024344BCA
S214084A109A68324B1D88EFF3108072B6BFF35F8F2B
S214084A2000212B4B19702B4BD3F81C3113F4007F45
S214084A3043D144B12A442D4B12F8011B03F8011B3D
S214084A40D9B2A142F8D32C44244B1C80214B4FF4F6
S214084A508062C3F818214FF40061C3F81411C3F834
S214084A60042128B901221A4B1A70BFF35F8F62B669
S214084A7038BD1F4B98471F4B984738BD0422164B26
S214084A801A70EFF3108372B6BFF35F8F0021104AD7
S214084A901170104A4FF48041C2F81811C2F8041178
S214084AA0002BE5D101220A4B1A70BFF35F8F62B65E
S214084AB038BD01220C4B1A70A9E728B90122044B0D
S214084AC01A70BFF35F8F62B60422034B1A7038BDA4
S214084AD07C0A002000400A401422002010220020F1
S214084AE0AC270020122200200D22002000001820EB
S214084AF081490800C148080038B5037D13F0010F46
S214084B0013D00D46037D6FF300030375046864B184
S214084B1002F108035B010549CB5813F0080F18BFCC
S214084B2042F0800281682846A04738BD00400A4007
S214084B30F8B5431E03EB4301594A02EBC102127D46
S214084B4012F0010F00F09E800A46554901EBC2029A
S214084B50D4689268944279D0121BB2F5803F92BF0F
S214084B6017044FF480320027410101F1402101F576
S214084B702021D1F8005115F0080F14D0D1F80051B3
S214084B8005F007050821A9400139114213D047F05E
S214084B90080703EB4301424D05EBC1010D7D6FF39A
S214084BA041050D7507E0D1F80051C5F30115012D33
S214084BB035D047F014073B4901EB001103EB4305DA
S214084BC0374E06EBC5056D682C444C60EFF3108530
S214084BD072B6BFF35F8F0026334C2670CC6814F08D
S214084BE0100F25D147F021078F6003EB43002C49AF
S214084BF001EBC001C8681044C8600A612B4A1169F5
S214084C004FF0007000FA03F30B431361002D39D1FF
S214084C100122254B1A70BFF35F8F62B6F8BDD1F834
S214084C20005105F007050821A9408A42C3D8C0E705
S214084C302DB901211C4A1170BFF35F8F62B603EBD2
S214084C404302174901EBC202D1689160420102F1A2
S214084C50402202F52022D2F8001111F0080F08D0E1
S214084C6003EB43010E4C04EBC101097D11F0020F62
S214084C7009D1024603EB43030021094800EBC300B1
S214084C800B4B9847F8BD4FF40063C2F80431074B46
S214084C9019694FF4807202FA00F008431861F8BDEB
S214084CA01822002000430A407C0A002000400A40E0
S214084CB0F94A08002DE9F0411D20A64B9847A64B57
S214084CC0984720B9A54B5B6913F0020F0FD0A34B8A
S214084CD05B6913F0080F15D0A04B08229A615B6930
S214084CE013F0010F0BD09E4B9847BDE8F08172B6C3
S214084CF0BFF35F8F00229B4B1A70BDE8F0819A4B7A
S214084D009847F0E7954B5B6913F0040F37D1934A41
S214084D10D2F81C31526912F4807F29D08F4A4FF49A
S214084D208041C2F808114FF40041C2F8081113F484
S214084D30805F2BD113F4806F06D0884AD2F80C21F6
S214084D4012F4806F40F08F8013F4007F40F08F805D
S214084D5013F4005F04D04FF40051804AC2F81811CB
S214084D6013F4004F40F03C8113F4804F40F04E811E
S214084D7001237A494FF0007E4FF4807C99E10422A3
S214084D80764B9A61784B9847BDE8F081774B1B784D
S214084D90002B41D1714BD3F81C31C3F30A53082BAF
S214084DA03FD1734A734B744813F8011B02F8011F6E
S214084DB08342F9D1714B984700283BD04FF4805274
S214084DC0664BC3F818216E4B93F90030002B3ADB7C
S214084DD06B4BDB88002B42D000226A4B1A806A4B4A
S214084DE01A800121614B19705C494FF48040C1F864
S214084DF01801EFF3108372B6BFF35F8F594C227019
S214084E00C1F80401002B40F0668201222270BFF32D
S214084E105F8F62B6BDE8F0815C4B98475C4B98475D
S214084E20B8E75C4B98474FF480524C4BC3F81821B0
S214084E30BDE8F081574B98474FF48052474BC3F86C
S214084E401821BDE8F08100234E4A13804E4A13808D
S214084E500222464B1A70504B9847BDE8F0814F4BDC
S214084E609847BDE8F0814C4B9847BDE8F0813F4B2A
S214084E701B78012B0CD0022B04D0042B02D0454BF8
S214084E80984701E0414B9847414B9847BDE8F08169
S214084E90324BD3F81C01C0F30A50394B9B893A4A67
S214084EA0148822189342BCBF1B1B98B2344B9A68CE
S214084EB078B1631E1A442F4B13F8011B02F8011F22
S214084EC0D9B28142F8D30444A4B22F4B1C804028A0
S214084ED00ED02B4B9C815B690BB1984780B34FF47F
S214084EE000721E4BC3F818212C4B9847BDE8F0817A
S214084EF0234BDA88234B1B8823449A42E9DD204B50
S214084F009B89A3424CD0154A4FF40073C2F8183157
S214084F104FF48041C2F81811EFF3108372B6BFF34E
S214084F205F8F00240F480470C2F80411002B40F06D
S214084F30D28101220270BFF35F8F62B6BDE8F081AE
S214084F40144B98474FF40072044BC3F81821BDE879
S214084F50F08100BFC54608005547080000400A40D3
S214084F609D1308007C0A00207129080014220020DE
S214084F70AB2700200000182008001820B1290800D8
S214084F80AC270020122200201022002081490800A9
S214084F90C148080015490800914908002D4908002D
S214084FA0B04B5B6953B1984788B1AF49AF4A0B8895
S214084FB0108803440B8000231380A4E7AC4B984763
S214084FC04FF40072AB4BC3F81821BDE8F081A84B2C
S214084FD098474FF40072A74BC3F81821BDE8F08134
S214084FE0A44B4FF40042C3F81821D3F81C3113F42D
S214084FF0806F40F07081A04B1B78032B40F06B81CC
S21408500020229C4BC3F81421BDE8F081994B4FF43D
S2140850108042C3F81821D3F81C3113F4007F40F0FF
S2140850205A81954B1B78012B08D0042B40F05381EE
S2140850302022904BC3F81421BDE8F0818F4B984787
S214085040BDE8F0818E4B03EB0013DA6812F0010F0F
S21408505040F0418187490A6922EA06060E61DB6844
S2140850601B0C08D0874A6C00651902EBC505E96871
S214085070CB1AEB60AB60844B9847BDE8F0816301C0
S21408508003F1402303F520234FF40062C3F80821F8
S214085090C3F8142105EB450502460021794800EBC4
S2140850A0C5007A4B9847BDE8F0810133072B00F01E
S2140850B0FD80D8B21C465D1EA8460F690EFA05F696
S2140850C0374202D04A691642BCD10F690CFA04F678
S2140850D03742EAD001EB4412D2F80C2112F4006FE2
S2140850E006D001EB4412D2F81C2112F4006FC6D089
S2140850F001EB4412D2F80C2112F4802FD5D001EB24
S2140851004412D2F81C2112F4402FCED1594B03EB8F
S21408511044144FF48022C4F808211A6922EA0606C5
S2140851201E6108EB4808574B03EBC80898F814208C
S2140851306FF3820288F81420D4F8083123F00203AB
S214085140C4F808312023C4F814314023C4F81831B1
S214085150BDE8F0811022474B9A614A4D002401278A
S2140851604A4E0134E4B2224639462846B047183536
S214085170062CF6D1464B98473E4B1A6822F07F021B
S2140851801A601A6842F080021A60D3F8002122F4E6
S2140851907F7222F0030242F04302C3F80021012284
S2140851A0C3F80421EFF3108272B6BFF35F8F0020B6
S2140851B0384908704FF48051C3F804114FF4007151
S2140851C0C3F80411196941F4807119612AB90122DA
S2140851D0304B1A70BFF35F8F62B62F4B9847254B3C
S2140851E01A6942F008021A611A6942F004021A6142
S2140851F01A6942F002021A61BDE8F0811D4B2022AE
S2140852009A611A6922F002021A611A6942F02002AB
S2140852101A6102229A611D20204B9847204B984716
S2140852200020204B9847BDE8F08101201D4B984789
S214085230104B02229A6120229A611A6922F02002F3
S2140852401A611A6942F002021A611A6942F00802E3
S2140852501A611A6942F004021A61134B9847BDE8AE
S214085260F08100BFAC270020122200201022002068
S2140852701549080000400A40142200202D4908005D
S21408528000430A4018220020314B0800F94A08005B
S214085290152908007C0A0020C1480800F9460800BD
S2140852A08513080051480800911308000B4B5B69EA
S2140852B013F0100F7FF44EAF084B1B6913F0020F64
S2140852C004D0064B5B6913F0020F97D1034B5B695A
S2140852D013F0200FA9D1BDE8F08100BF00400A40B6
S2140852E070B5EFF3108572B6BFF35F8F134E0024C8
S2140852F03470134A136823F480731360114B98476D
S2140853001D20114B98472046104B9847EFF3108303
S21408531072B6BFF35F8F34700D49CA78013ACA7007
S21408532023B901223270BFF35F8F62B62DB901220E
S214085330024B1A70BFF35F8F62B670BD7C0A0020FE
S21408534000400A40253F0800F94608005148080072
S2140853509827002010B5EFF3108472B6BFF35F8F5E
S21408536000221D4B1A7001201C4B98471D201C4B11
S21408537098471C4B1A6842F400621A601A6822F4AE
S21408538000721A601A6942F010021A611A6942F02D
S21408539002021A611A6942F020021A611A6942F07A
S2140853A008021A611A6942F004021A6108229A6110
S2140853B004229A6110229A6102229A6120229A6136
S2140853C01D20094B98472CB90122034B1A70BFF3CE
S2140853D05F8F62B610BD00BF7C0A002051480800E7
S2140853E0C546080000400A40F946080010B52A4B92
S2140853F098471D20294B9847EFF3108472B6BFF3E1
S2140854005F8F0022264B1A7026490B6843F4807378
S2140854100B60254B502183F81D134FF0005119607F
S21408542022485300991800EBC101097D134400EB8C
S214085430C30301F0FE016FF3820119750132062AD3
S214085440EFD1184AD2F8E03023F00303C2F8E03070
S2140854504FF48020164B98470022164B1A70EFF32D
S214085460108372B6BFF35F8F0D490A701249CA7867
S2140854700132CA702BB90122094B1A70BFF35F8F2D
S21408548062B60E4B98472CB90122054B1A70BFF32B
S2140854905F8F62B610BD00BFF13E0800C546080023
S2140854A07C0A002000400A4000E100E018220020A4
S2140854B0414708000E220020982700205553080070
S2140854C008B51D20084B9847084B1A6842F4007226
S2140854D01A601A6822F400621A601D20044B984766
S2140854E00020044B984708BDC546080000400A40FF
S2140854F0F946080051480800024B586900F00100B8
S214085500704700BF00400A40084B1A6822F0800225
S2140855101A601A6822F07F0200F07F0002431A60C1
S2140855201A6842F080021A60704700BF00400A40BE
S214085530024B186800F07F00704700BF00400A4022
S214085540024B5868C0F3CA00704700BF00400A40C4
S214085550024B586800F00700704700BF00400A403A
S214085560014B986099817047AC27002000F00F0225
S214085570062A00D9704770B5530103F1402000F59C
S21408558020200121C0F808110346D0F8000120F0B9
S214085590C000C3F80001561E074C06FA01F5A81904
S2140855A004EBC000054B9847354404EBC504237D3F
S2140855B06FF38203237570BD18220020F94A08008D
S2140855C000F00F00430103F1402303F52023D3F82E
S2140855D01C3113F0200F09D1013800EB4000044BB2
S2140855E003EBC000007DC0F38000704701207047C1
S2140855F01822002000F00F03062B52D85A0102F199
S214085600402202F52022D2F81C2112F0200F4AD19F
S21408561010B4591E01EB4104264A02EBC402127D5F
S21408562012F0040F41D112F0010F41D110F0800F93
S21408563013D15B0103F1402303F52023D3F8082197
S21408564022F00202C3F808214FF40052C3F81821CA
S2140856502022C3F81421012028E05A0102F1402232
S21408566002F52022D2F81C2112F4402FE1D0114A6C
S21408567002EBC40101F11002097D41F00401117129
S2140856800D4903F1080201EB42124FF480205060E6
S21408569008694FF4807202FA03F303430B61012092
S2140856A004E00020704701207047012010BC7047B6
S2140856B00020FBE71822002000400A4000F00F00F8
S2140856C0062864D838B5421E02EB4201374B03EB76
S2140856D0C1031B7D13F0040F5BD00B46334901EB67
S2140856E0C303197D6FF382011975314B03EB40151F
S2140856F04FF48021C5F8081119694FF48074844066
S21408570021EA04011961D5F81C3113F0200F24D0C2
S214085710430103F1402303F52023D3F81C3113F487
S214085720005F0BD0430103F1402303F520234FF419
S2140857300051C3F818114021C3F81811430103F1AA
S214085740402303F520232021C3F818111846D3F860
S214085750043143F00203C0F8043102EB4203134954
S21408576001EBC3031B7D13F0010F01D1012038BDE7
S214085770084651008B1800EBC3031C7D6FF300042A
S2140857801C750A4450F832309847012038BD00206E
S2140857907047430103F1402303F52023D3F81C3157
S2140857A013F0200FB4D1012038BD00BF1822002006
S2140857B000400A4000F00F00062861D8F8B54401FA
S2140857C004F1402404F52024D4F80C4114F0010F09
S2140857D058D0440104F1402404F52024D4F81C4190
S2140857E014F0200F50D1441E04EB4406294D05EB57
S2140857F0C6052D7D15F0040F48D1EFF3108772B655
S214085800BFF35F8F4FF0000E234E86F800E015F0CA
S214085810010F08D0002F3BD101223270BFF35F8FF3
S21408582062B67046F8BD04EB44051A4E06EBC5058D
S2140858302E7D46F001062E752FB90126164D2E70C0
S214085840BFF35F8F62B6134F04EB4405ED007E1975
S2140858507260B3600022F2603261069A7A5111B91A
S214085860B3FA83F1490904EB44040A4B03EBC40476
S214085870237D61F341032375084B98470120F8BD43
S214085880002070470020F8BD0020F8BD0020F8BDB5
S2140858900020F8BD182200207C0A0020314B0800A2
S2140858A02DE9F04F83B000F00F06062E00F22A818D
S2140858B0730103F1402303F52023D3F80C3113F0CA
S2140858C0010340F0248101F00304022C3FD0032C8E
