:0200000280007C
:100000000020082095700800937008009370080085
:1000100093700800937008009370080000000000BF
:1000200000000000000000000000000093700800C5
:10003000937008000000000093700800937008009F
:100040009370080093700800937008009370080084
:100050009370080093700800937008009370080074
:1000600093700800937008003D5208005152080038
:10007000937008001139080031390800513908001F
:100080009370080093700800937008009370080044
:10009000937008009370080065340800937008009E
:1000A0009370080093700800937008009370080024
:1000B00093700800A55C08009370080010B5054C0B
:1000C000237833B9044B13B10448AFF30080012304
:1000D000237010BDC0100020000000000CE00800DC
:1000E0000C4B43B10C4810B50C49AFF300800C48E1
:1000F000036823B910BD0A48036833B97047094B38
:10010000002BF7D0BDE810401847064B002BF5D068
:10011000184700BF000000000CE00800C4100020D9
:100120000CE0080000000000024A1378013BDBB23B
:1001300013707047E71000200020704700207047C0
:100140001D4B1B7813F0800F05D103F06003202BAB
:1001500018D00020704703F06003202B01D000204E
:100160007047154B5B78212B24D1134BDB88072B71
:1001700001D000207047104B104A9A6007229A81E4
:10018000012070470C4B5878202804D0222814BF37
:10019000002001207047084BDB88072B01D000208E
:1001A0007047054B064A1A61044A9A6007229A81F1
:1001B0000120704700207047EC2D0020E010002047
:1001C000C50108007047000008B50020104B1870EA
:1001D000104B1880104BA1221A7020225A705880A0
:1001E00001229A800222DA8018810C4B4FF4E1320E
:1001F0001A601871587108229A71094B9847024683
:1002000020B103490B780133DBB20B70104608BDF7
:10021000E7100020FC14002014190020E01000203A
:1002200019330800424B1B7803B1704770B582B098
:10023000404B984700283DD03F4B1C883F4B984788
:10024000844272D0EFF3108572B6BFF35F8F002245
:100250003B4B1A703B4B1C78E4B23B4B33F81430E9
:10026000002B2ED00022394B1A80394B1B78002BE3
:1002700043D1B4FA84F35B09324A137001222C4B48
:100280001A7025B92E4B1A70BFF35F8F62B62646DF
:100290002D4B33F81430B3F5007F14BF0125002532
:1002A00034D0244B984700282BD0244B9847224B1E
:1002B00018802EE0204B1C88264B98478442C1D1E1
:1002C00033E0224A1388013313801A4B984718B938
:1002D0001E4B1B88632B08D9164B98470028C1D0AA
:1002E0001A4B1B88B3F5487FBCD2F5B90122144BD9
:1002F0001A70BFF35F8F62B617E0B4FA84F4640932
:10030000BCE7144B98470C4B188002E000220A4BC4
:100310001A800D4B33F816300F4A00920F4A02EB49
:100320004422294681200E4CA04702B070BD00BF78
:1003300010190020756408000C190020CD64080015
:10034000EA0600200819002004190020DC10002013
:1003500000150020BD640800650308000415002096
:100360003167080000B1704708B5074B1B78B3FA36
:1003700083F35B09054A22F81300054B1870054BFF
:100380001870054B984708BD081900200419002073
:1003900000150020101900202502080008B50020D3
:1003A000014B984708BD00BF2502080008B5064A62
:1003B0001378013BDBB213701078044B984700228E
:1003C000034B1A7008BD00BFE81000202933080055
:1003D000DE100020EFF3108372B6BFF35F8F0021B1
:1003E0000A4A11700A4A108882B20A490978C9B2C9
:1003F000094830F8110080B2801A2BB90122034B52
:100400001A70BFF35F8F62B6704700BFEA06002024
:10041000F4140020F0140020EC14002008B5034B65
:100420009847003018BF012008BD00BFD503080061
:1004300010B582B0EFF3108372B6BFF35F8F002167
:10044000214A1170214A1478214A12784AB9E4B23B
:10045000204A118889B2204A32F8142092B291427F
:100460000AD2002B2DD10122174B1A70BFF35F8FD8
:1004700062B6002002B010BD0021164A1180B4FA05
:1004800084F2520911490A700121114A117023B9ED
:100490000D4B1970BFF35F8F62B600200F4B98476A
:1004A00058B90F4B00934FF400730E4A02EB4422ED
:1004B000012102200C4CA047DCE700200B4B9847A1
:1004C000EFE70020D6E700BFEA060020F014002086
:1004D000F8140020F4140020EC1400201D0408007F
:1004E00085050800EC10002031670800353308004E
:1004F00010B50024164B1C70164B1C70164B1C704C
:10050000164B1C70164B1C805C80164B1C802046C2
:10051000154B9847154B1C70154B1C70154B1C80C8
:100520005C80154B1C802046144B9847014640B117
:10053000074A13780133DBB213701378DBB2012B57
:1005400001D0084610BD01220D4B1A70F9E700BF1B
:10055000E8100020101900200015002008190020C4
:10056000041900200C19002025020800F8140020AE
:10057000F0140020EC140020F414002031040800D2
:10058000DE100020F0B910B582B010460E4B1C787A
:10059000B4FA84F4640951B189B20C4B23F81410F5
:1005A00000200B4B18700B4B984702B010BD0A4B44
:1005B00000934FF40073094A02EB44220121084CD6
:1005C000A047F2E7704700BFF0140020EC140020B1
:1005D000F81400203104080085050800EC10002004
:1005E000316708002DE9F84F15468846204F4FF037
:1005F000000BDA461F4EDFF8949019E01E4A32F8DD
:100600001340A4B2641AAC4228BF2C4601EB43212C
:1006100022461A4B19444046194B984733882344C5
:100620009BB23380A0442D1B5846164B9847DDB132
:10063000EFF3108072B6BFF35F8F87F800A03188A8
:1006400089B299F80030DBB20B4A32F8132092B22B
:1006500020B901203870BFF35F8F62B69142CDD3CD
:10066000094B1B78002BE3D12846BDE8F88F00BF6B
:10067000EA060020F4140020EC140020EC10002006
:10068000857A080031040800DE100020F0140020F4
:10069000EFF3108272B6BFF35F8F0021134B197016
:1006A000134B1B78DBB2134931F81300B0F5007F10
:1006B00009D0C0F500702AB901220C4B1A70BFF3A3
:1006C0005F8F62B670470C4909780029F1D10B4958
:1006D00009780029EDD1012008490870B3FA83F3A5
:1006E0005B0903490B700020E3E700BFEA06002026
:1006F00008190020041900201019002000150020FE
:1007000008B5034B9847003018BF012008BD00BF53
:10071000910608002DE9F84F17461F4B9B79092BCE
:1007200008BF57008946DFF884B0DFF8848028E0EE
:1007300072B6BFF35F8F002388F80030174B1D7827
:10074000EDB2DFF870A03AF81560C6F50074BC424F
:1007500028BF3C4606EB452322464946104818442C
:10076000104B984726442AF81560EFF310832BB9F5
:10077000012388F80030BFF35F8F62B6A1443F1BAE
:1007800007D00020D8470028D2D1074B1B78002B78
:10079000F7D13846BDE8F88FE01000200819002096
:1007A00004150020857A0800DE10002001070800EB
:1007B000EA0600200419002010B504460246002174
:1007C0000220024B9847204610BD00BF7D0E080056
:1007D00008B5024640211020014B984708BD00BFD4
:1007E000B10D080010B5044602460C210E20024B44
:1007F0009847204610BD00BF7D0E080010B5044686
:100800000246B021B220024B9847204610BD00BFDF
:100810007D0E080008B5024610214FF4B060014B70
:10082000984708BDB10D080010B504460246B22134
:10083000B420024B9847204610BD00BF7D0E080033
:1008400008B5024610214FF4B260014B984708BD2D
:10085000B10D080008B50020014B984708BD00BF46
:10086000D50B080008B50220014B984708BD00BF12
:10087000D50B080008B50120014B984708BD00BF03
:10088000D50B080010B582B00DF106000B4CA04747
:10089000BDF80630DB4302A820F8043D084B98471A
:1008A0000DF10600A047BDF80400BDF806309842DF
:1008B0004FF0FF3018BF002002B010BD290808001B
:1008C0004108080010B504460388028892B2C3F3B9
:1008D000072343EA02239BB20380024610215020E3
:1008E000054B98472388228892B2C3F3072343EA33
:1008F00002239BB2238010BDB10D080000B583B068
:100900004FF2F003ADF80630084B1B8802AA22F81C
:10091000043D012140F2A150054B98470DF106001E
:10092000044B984703B05DF804FB00BFC4DA08002D
:10093000B10D0800C508080010B582B080238DF8FD
:10094000043000238DF8053001AA1021B020044C9A
:10095000A04701AA10214FF43870A04702B010BD83
:10096000B10D080010B586B04FF2F003ADF80230BB
:10097000134B984700B3134B98470DF10200124BED
:10098000984701AC114B93E8030084E8030020462C
:100990000F4B98474DF60763ADF8043020460D4BDA
:1009A00098470D4B98470D4B98470D4B98470D4B6B
:1009B0009847002006B010BD4FF0FF30FAE700BFA7
:1009C00085080800FD080800C5080800C8DA080006
:1009D000D107080041080800390908005508080037
:1009E000750808006508080000B583B001A8094B28
:1009F00098479DF804100423002041FA03F212F0F6
:100A0000010F1CBF0130C0B20133082BF5D103B078
:100A10005DF804FBE507080008B50E20014B984778
:100A200008BD00BF8900002008B50248024B984766
:100A300008BD00BF259A0D008900002070B5044D47
:100A40004FF000762E63034CA0476E63A04770BD45
:100A5000000C0E40190A080070B5044D4FF00076E6
:100A60006E63034CA0472E63A04770BD000C0E4080
:100A7000190A080010B5044B20225A6308225A6351
:100A8000024CA047A04710BD000C0E40190A0800F8
:100A900008B5044B08221A6320225A63024B984778
:100AA00008BD00BF000C0E40190A080070B50446CE
:100AB0002022114B1A63114B9847BCB94FF48002A6
:100AC0000D4B5A630D4CA0470B4D4FF000762E6333
:100AD000A04720236B6346F62530094B98476E6389
:100AE000A0474FF480036B63A04770BD4FF48002B2
:100AF000014B1A63E6E700BF000C0E40190A08001C
:100B00008900002030B585B0124B0093C0230193BB
:100B10000023039302930F200F4B98470F4C104A6A
:100B2000694620460F4B98474FF0006116200E4D46
:100B3000A8474FF000611720A8474FF080511920B7
:100B4000A8472046094B98472046094B984705B0CF
:100B500030BD00BF48E80100D553080000800940BF
:100B600000D8B805396E080081500800AD6F080044
:100B70009D6F080010B5104C2046104B984720463A
:100B80000F4B98474FF0405116200E4CA0474FF0A6
:100B900020511720A0474FF040511920A0470A4B81
:100BA0004FF000725A634FF480025A63074B984724
:100BB000074B984710BD00BF00800940B36F080085
:100BC000A36F080081500800000C0E40190A0800AD
:100BD000750A080038B530B1022819D001281AD09A
:100BE0000E4B984709E040F2B4540C4B98470C4D1B
:100BF000A847013CA4B2002CFAD10822094B1A6381
:100C00000120094B9847094B9847094B984738BD35
:100C10004FF4C364E9E740F2F954E6E7750B0800C6
:100C20003D0A0800000C0E40AD0A0800910A0800B9
:100C3000050B08002DE9F84307460E46534B98472D
:100C40005024534DA847013CA4B2002CFAD11022E5
:100C5000504B1A63504B98470F24DFF83891DFF858
:100C600038814B4D47FA04F313F0010F4FF4800322
:100C700014BFC9F83430C9F83030C047A847013C28
:100C8000B4F1FF3FEED1434D4FF000736B63424C24
:100C9000A047A0474FF480036B63A047A047012EF5
:100CA00003D000243B4D3D4F50E045203C4B98473E
:100CB00010226A633B4B98473B4B9847202560E0E6
:100CC000344C20252563344EB0474FF48003236312
:100CD000B0474FF000732363B04710236363314B79
:100CE0009847314B98474CE0032E0FD000202F4BF4
:100CF0009847284BDB6B13F4000F10D1ECB1012C9B
:100D00001DD0022C0CBF2125202509E01022214BEB
:100D10005A63244B9847244B9847202531E02425DB
:100D20001E4B9847042C08BF20251022194B5A63EC
:100D30001C4B98471C4B984723E02325F0E72225BE
:100D4000EEE7B8470134A4B2042C1DD0EB6B13F4CA
:100D5000000FF6D0022EB3D00120144B9847202369
:100D60000C49CA6B12F4000FBED0013B9BB2002BA2
:100D7000F7D11022074B5A630A4B98470A4B984702
:100D800025252846BDE8F8832025CEE7750B080009
:100D9000590A0800000C0E40190A08003D0A080014
:100DA00089000020910A0800050B0800AD0A080020
:100DB0002DE9F84F06460F4690462A4B9847B6F560
:100DC000387F08D216B30024274DA8470134A4B2B7
:100DD000A642FAD11AE040F2DF24234DA847013C95
:100DE000A4B2002CFAD1214C4FF4800525631E4B90
:100DF00098476563A6F53875002D07DD0024DFF8F8
:100E00006890C8470134A4B2AC42FADB27B3013F73
:100E1000BFB201370025AB46DFF85CA0DFF8489091
:100E20000FE05846D047E40818F80430EA4302F0CF
:100E30000702134113F0010F0BD0C8470135BD4223
:100E40000AD0ACB2331913F00F0FEAD0002CEAD15C
:100E5000E7E70120D047F0E7054B9847054B984757
:100E6000BDE8F88F750B08003D0A0800000C0E4025
:100E7000910A0800050B0800AD0A08002DE9F04FA3
:100E800083B007468A469346124B9847DFB15E46C9
:100E90000025114CDFF84890DFF8488003E0013569
:100EA000EDB2AF420FD000212046C847636913F06E
:100EB000020FFBD001A92046C047AA45EFD8019BED
:100EC00033700136EBE7054B9847584603B0BDE851
:100ED000F08F00BF750A080000800940910A0800E1
:100EE000FD6F08002770080010B582B04FF0405128
:100EF0000420274CA0474FF040510520A0474FF059
:100F000060510320A047234B20225A6308221A6312
:100F1000214B9847214B984701A8214B9847BDF892
:100F20000420130243EA12231BB240F60F729342CD
:100F300002D0012002B010BD0DF10200194CA047F3
:100F4000BDF802300533ADF802300DF10200164B4A
:100F5000984701A8A0470288BDF802309A4218BFFE
:100F60000220E7D1114B984704280CD8DFE800F0A5
:100F7000090705030D001320DCE71220DAE7112032
:100F8000D8E71020D6E71020D4E71420D2E700BF1E
:100F900081500800000C0E40050B0800290A0800CB
:100FA000B9070800FD07080015080800E90908004E
:100FB00010B52022114B5A634FF020510420104CE1
:100FC000A0474FF020510520A0474FF020510320AB
:100FD000A0474FF020511620A0474FF02051172076
:100FE000A0474FF020511920A047064C2046064B41
:100FF00098472046054B984710BD00BF000C0E4097
:101000008150080000800940B36F0800A36F0800FA
:1010100008B504490220044B9847044B9847044BF9
:10102000984708BD0100002881500800B10F080052
:10103000910A0800F8B505460F46184B98475035F9
:101040000024174EB0470134A4B2AC42FADB1022A0
:10105000144B1A63144B9847DFB94FF48002114BBD
:101060001A63114CA0470E4B98470E4D08232B6373
:101070004FF000736B63A047A0474FF480036B638E
:10108000A047A04710236B63084B9847084B98472D
:10109000F8BD4FF48002034B5A63E2E7750B08007A
:1010A000590A0800000C0E40190A0800910A0800AD
:1010B000050B080010B40002082341F2210481EA64
:1010C000000212F4004F4FEA410189B218BF61409B
:1010D000400080B2013B13F0FF03F0D1084610BC82
:1010E0007047000008B5024B1868024B984708BDCE
:1010F000EC230020655008002DE9F04383B005463D
:1011000089461D4B1B7843B91C4C2846A04710F458
:10111000007FFAD00122184B1A700024174EDFF816
:101120006C80174F2846B04710F0010F0DD1611C9D
:10113000D8F80030A7FB03239B0C42F6E06202FBC9
:1011400003F39C4213D80C46ECE701A928460D4B4B
:101150009847019B89F800302846084B984742F28F
:10116000E054044004D02846074B984700E0FF2491
:10117000204603B0BDE8F083F0020020C56F0800F0
:1011800083DE1B430F700800C96F0800E8230020AE
:1011900070B504460E46144B1B78012B13D0134D2B
:1011A0002046A84710F0020FFAD031462046104BD7
:1011B000984720460D4B984742F2E05310EA03054A
:1011C0000DD1284670BD0B4B984720460A4B9847D7
:1011D00020460A4B98470022034B1A70DFE720464F
:1011E000044B9847EDE700BFF0020020C56F0800F0
:1011F000E96F0800C96F0800D16F0800D96F0800B7
:101200002DE9F04F87B007460190894692461C466B
:1012100009786E4EB047054699F801103846B04738
:10122000054399F802103846B047054399F8031072
:101230003846B047054399F804103846B04705438F
:10124000042C2CD0052C10D0062C16D0072C19D02D
:1012500099F8044094BB99F8053099F8064004EBDE
:101260000324A4B24FF003081CE099F80440FCB931
:101270004FF002084FF4807414E099F804404FF0E6
:1012800003080FE099F80440ACB999F8053099F8D3
:10129000064004EB0324A4B24FF0020802E04FF032
:1012A000010800240023029303930527484E56E0CB
:1012B0004FF00208F6E74FF00308F3E74FF003089A
:1012C000F0E7B8F1020F26D0DFF800B17E1CB6B20D
:1012D00019F807100198D8470543013CA4B23746D6
:1012E000002CF3D1029B002B65D0039A541CA4B2AE
:1012F0009DF817300AF802300AEB04010198344BCC
:10130000984745EA00013348334B9847601C80B248
:1013100007B0BDE8F08F03992646DFF8B4904F1C64
:10132000BFB251440198C8470543013EB6B23946A1
:10133000002EF4D1039B1C44A3B20393D2E7039A7B
:1013400002F1010B1FFA8BFB0AEB02010198B04777
:101350000543CDF80CB0013CA4B2002CC2D00DF175
:1013600017010198B04705439DF81730602BF4D062
:1013700003F0F002602A18D0902A19D099F80120C1
:1013800093429ED0DB43DBB29342ABD1B8F1020F64
:10139000D5D007F1010B1FFA8BFB19F80710019844
:1013A0000A4B984705435F46D5E701230293D4E7EC
:1013B00001230293D1E7039B5C1CA4B20AEB030157
:1013C0000198034B9847054396E700BF9111080029
:1013D000F910080038DB08005D7A08002DE9F84FA5
:1013E000002B00F0A48090460D468346724B1E7879
:1013F00006F0010A46F30006B6B291F8029009F130
:10140000030900246D4F06E03146B8470646013413
:10141000E4B24C4506DA285DBAF1000FF4D146403B
:10142000B6B2F4E70024664F295D5846B847013448
:10143000E4B2AB7803339C42F6DBF1B25846604B22
:1014400098475D4B1B7813F0010F4FD1414658462A
:101450005C4B9847FF286DD008F101015846594B65
:101460009847FF2869D008F102015846554B984724
:10147000FF2865D098F80240651C4F4B1B7813F08D
:10148000010338D005F101092E1D032E88BF4D46FA
:1014900040F2828003210C46DFF8289141445846EF
:1014A000C847FF284FD00134E4B22146B442F5D3F7
:1014B000414B1B7813F0010F48D198F8012098F8A0
:1014C00000305A4098F802305A4003210B4618F871
:1014D00001104A400133DBB21946B342F7D341440D
:1014E0004B7893421FD00320BDE8F88F0021584667
:1014F000334B9847AAE7EE1C032ECBD8002B4AD1DA
:1015000098F8002098F801305A4098F802305A4074
:101510000321E4E7A84418F8013CC0B2834202D09A
:101520000320BDE8F88FE81C80B2BDE8F88F1846AC
:10153000BDE8F88F0020BDE8F88F0120BDE8F88FE6
:101540000220BDE8F88F0320BDE8F88F4FF6FF7149
:1015500098F80000194CA047014698F80100A047F0
:10156000014698F80200A04703231C46134F01468A
:1015700018F80300B8470134E4B22346B442F6D366
:1015800008EB050313F8022CC0F30F239A42C1D0D5
:101590000320BDE8F88FA9464FF6FF7198F80000C8
:1015A000064DA847014698F80100A8470146204685
:1015B000A8474D46E4E700BF1F190020B5100800FA
:1015C00091110800F91008002DE9F04707460E4672
:1015D000904600231370554A1370554A1370554AAC
:1015E0001370554CA047711C3846A047747804F01E
:1015F000F00914F0100F1DD1022514F0200F22D194
:1016000014F0400F27D119F0800F2BD1737813F00D
:101610000F030BD0741905EB03094E44464D2146C8
:101620003846A8470134B442F9D14D4688F80050F5
:10163000BDE8F087B11C38463F4B9847B2783B4B2A
:101640001A700325D9E705F1010A711938463A4B9A
:1016500098475546D4E76C1C71193846364B984765
:101660002546D0E771193846334B984716F8059050
:101670002F4B83F800906C1C19F0F00A0BD019F076
:10168000100F0AD119F0200F0ED119F0400F12D10E
:101690001AF0800F16D12546B8E7023531193846C1
:1016A000254B98472C46EDE7651C31193846224BEF
:1016B00098472C46E9E7651C311938461E4B984778
:1016C0002C46E5E7311938461B4B9847651C16F840
:1016D000049019F0F00A99D019F0100F0ED119F0FA
:1016E000200F12D119F0400F16D11AF0800F8DD0B3
:1016F00071193846104B9847013587E70234711944
:1017000038460D4B98472546E9E76C1C7119384659
:10171000094B98472546E5E76C1C71193846064B7E
:101720009847725D034B1A702546DEE71E190020AC
:10173000201900201F190020F910080010B582B0F0
:101740000446164B9847164B1B68164AA2FB032308
:101750009B0CC3EB0313DB000CD000221048114993
:1017600001320368A1FB03E39B0CC3EB0313B2EB51
:10177000C30FF5D301A920460B4B984720460B4BCE
:10178000984720460A4B984720460A4B98470A4BF1
:1017900018680A4B984702B010BD00BFE51008005A
:1017A000E823002083DE1B430F700800C96F080088
:1017B000D16F0800D96F0800EC2300204B500800BF
:1017C0002DE9F0419CB086468846654E0CAC354606
:1017D0000FCD0FC40FCD0FC40FCD0FC495E80F0070
:1017E00084E80F0002AD06F140040FCC0FC50FCC0A
:1017F0000FC594E8030085E803000023019398F8DF
:10180000011011F0100F18D001F0F003022204E0D3
:1018100018F8023003F0F003013273B113F0100F27
:1018200018BF013213F0200F18BF013213F0400F20
:1018300018BF013213F0800FEAD111F00F0203D06C
:10184000002301339A42FCD1464B187810F0100F58
:1018500040F08180444B1B787BB113F00F0244D0E1
:101860001B091CA901EB830301EB820253F8406CB6
:1018700052F8683CB6FBF3F600E0002610F00F00CB
:101880006AD17446FF217046384DA8471021204682
:10189000A847354F39782046A847397881F0EF01BD
:1018A0002046A84701A92046314DA8470DF1050162
:1018B0002046A8470DF106012046A8470DF1070173
:1018C0002046A8479DF80430FF2B03D19DF8053032
:1018D000102B0CD02046274B98470DF103024146B0
:1018E0002046254B9847002036E00026C6E79DF8A5
:1018F00006201D4B1B78934213D09DF8073082F0D1
:10190000EF0293421CD11A091CA901EB820203F0D9
:101910000F0301EB830352F8406C53F8683CB6FBAD
:10192000F3F62046154B98472046154B98472664FA
:101930002046144B98472046134B984700200BE055
:1019400020460C4B98470DF10302414620460A4BB6
:101950009847002000E000201CB0BDE8F08100BFE7
:10196000D0DA0800201900201E190020911108006B
:10197000F91008003D170800C9150800B36F0800EA
:10198000A36F0800AD6F08009D6F080070B5044696
:101990000D4616460D4A136018460D4B98470D4BE1
:1019A0001E601A68294620460B4B98474FF0FF31BE
:1019B00020460A4B984705212046094B9847204668
:1019C000084B98472046084B984770BDEC230020F1
:1019D00065500800E8230020656D0800BD6F080011
:1019E000A96F0800AD6F08009D6F08000B4B5B8866
:1019F000180A0B4A128890420DD8C1B2121ADBB2F3
:101A000092B2934228BF13460448064A0A448260B1
:101A100083810120704700231946F5E7EC2D002053
:101A2000F0240020F42400200E4B9B78012B04D0DE
:101A30008BB1022B09D0002070470A4B0A4A9A60EA
:101A40000A4A12789A8101207047064B084A9A6028
:101A5000012098817047034B064A9A6001209881C3
:101A6000704700BFEC2D0020F8250020F425002051
:101A700030260020F1020020054B5B88022B01D0AC
:101A800000207047024B034A9A60012098817047FA
:101A9000EC2D00202F260020114BD8889B898342F3
:101AA0001DD3E0B1F0B50E4B5C88D3F808C0661CBE
:101AB000B6B200221346DFF830E00A4F04E00133EB
:101AC000DBB29AB2904209D91919FF29F7DC1CF848
:101AD00003500EF8015032443A80F0E7F0BD7047F1
:101AE000EC2D002032260020F023002008B52D4BDD
:101AF000DA889B89934203D32A4B9B78032B00D02F
:101B000008BD0021284B1970002AF9D0013A92B281
:101B1000244BDA8098680378023B062BF0D8DFE884
:101B200003F0040B151E262F3800204B9847204B3E
:101B300098471D4B187008BD012AE1D90021B0F863
:101B400001001C4B9847184B187008BD012AD7D9C3
:101B50000130194B98470122134B1A7008BD174BDF
:101B600098470028CCD101220F4B1A7008BD022AD9
:101B7000C6D9417840880F4B98470B4B187008BD69
:101B80000F4B9847084A1070064B9A6001229A81C1
:101B900008BD01210F200B4B98470122024B1A7000
:101BA000AEE700BFEC2D00202F260020111008000A
:101BB000E90E0800350C0800C50808006509080092
:101BC000E9090800351008002DE9F04188B0314BD3
:101BD00000934FF4BA730193002302930393049389
:101BE00003250595069307930F202B4B98474FF03D
:101BF00000611620294CA0474FF080511920A047C2
:101C00004FF040512846A047254C2B46254A6946AF
:101C10002046254DA8472046244B9847244D254E65
:101C20002A4631462046244B984731462046234BCE
:101C30009847234B187029782248234B98472B78D4
:101C40006BB1751E0024DFF894801F4F184E15F8F5
:101C5000011F4046B84701343378A342F7D81B48E8
:101C6000194B9847164B1B78012B02D008B0BDE8E2
:101C7000F081079300230593094C0A4A69462046E0
:101C8000134B98472046134B98472046124B9847D2
:101C9000ECE700BF007E3600D553080081500800F5
:101CA0000080094000D8B8058D1908003D170800CC
:101CB000F4250020F8250020C9150800C1170800E8
:101CC000302600203CDB08005D7A080030DC08008C
:101CD000656D0800AD6F08009D6F08004CDB0800C3
:101CE000154BDA889B899A4224D810B5124B9B7801
:101CF000012B02D0052B03D010BD104B984710BD0F
:101D000000220F4B1A800F4B1B784BB90E4B1B88D0
:101D10000E4A0F490F48104CA047094B188010BDC0
:101D2000094B1B88094A0A490A480C4CA047044B36
:101D3000188010BD704700BFEC2D0020C91B0800A3
:101D4000F02400203026002032260020F424002039
:101D5000F02300200080094001120800DD13080074
:101D600010B50446064B9847064B1B7833B9054B14
:101D70001C700124044B9847204610BD0024F9E74D
:101D80006D4D080021190020A94D08000022014BCB
:101D90001A70704721190020014B1878704700BF56
:101DA0002119002008B501460448054B9847352005
:101DB000044B98473520044B984708BD000E0E4051
:101DC00023500800655008004B50080010B50B4C1C
:101DD0004FF4807200212046094B9847094A0021A0
:101DE0002046094B9847094A00212046084B98474E
:101DF000032200212046074B984710BD00000E40EB
:101E0000554F080001010404614F0800020005005D
:101E10006D4F0800794F080038B5A1F10E03012B72
:101E200002D84FF0FF3038BDEFF3108472B6BFF325
:101E30005F8F00250A4B1D70120222F07F4222F0B4
:101E4000FF0242F0B442C9B21143064B9847002C3E
:101E5000E9D10122024B1A70BFF35F8F62B638BD21
:101E6000EA0600206D00002010B489014318022406
:101E700044504FF0FF319962196A5A6010BC7047A4
:101E8000890105234350704789010223435070475D
:101E900000EB8111CA61704700EB81114A62704703
:101EA00000EB8111086A704770B586B004460E4693
:101EB0000423009302AB0F220E210D480D4DA847BD
:101EC00018B11025284606B070BD0546042E28BF5F
:101ED000042656B102AA234604EB860152F8040BED
:101EE00043F8040B8B42F9D1ECE73546EAE700BF33
:101EF00000080E400100002000234360036083605F
:101F00007047000010B472B6BFF35F8F0024114B0E
:101F10001C7004680134C82C28BF00244368A34205
:101F20000BD1002AFAD18368013383600122094B67
:101F30001A70BFF35F8F62B609E003680344197338
:101F400004600122034B1A70BFF35F8F62B610BCAE
:101F5000704700BFEA060020024672B6BFF35F8FEB
:101F600000210E4B1970436801688B420DD0591C3B
:101F7000C82928BF00210344187B51600122074B68
:101F80001A70BFF35F8F62B670470122034B1A705D
:101F9000BFF35F8F62B6FF20704700BFEA060020E4
:101FA00002684068101A18BF0120704772B6BFF36C
:101FB0005F8F0022064B1A7003684068181A48BFEA
:101FC000C8300122024B1A70BFF35F8F62B67047B0
:101FD000EA0600202DE9F04F8DB00491904B9989CD
:101FE000092905D08F48904B98470DB0BDE8F08F78
:101FF00005468B4B9A6809AB1068516803C3128978
:102000001A80BDF824300393B3F5807F07D9874B3E
:102010001D70C0225A700222854B1A80E5E7132DED
:102020000CBF9DF82B309DF82C300593814B1B681D
:102030000793039B002B3FD0013B9BB20133049AD3
:10204000D3180693174600230393AB4692E07A4BCE
:1020500098477A4B4FF000021A7099E09DF82A30A9
:1020600043F008038DF82A30724B1B8819F0010FDA
:1020700000F0C68003936F4A136801331360BBF10D
:10208000130F74D19BB2002B71D101236B4A1370D3
:102090006DE0039356E0039363E05D4600239DF8F3
:1020A00026804FFA88F4002C0ADB604A15705370C2
:1020B00002225F4B1A8098E70023F0E75D46EEE7C7
:1020C0005F4F00231A469DF8291038465D4EB047F1
:1020D00000231A460799C1F307213846B047002369
:1020E0001A469DF81C103846B04700231A46194678
:1020F0003846B04718F0200F07D0039B2BB924F0C7
:10210000300343F010038DF826309DF827309DF8FA
:1021100026009DF82A200092059A03994A4CA04770
:102120000346132DC1D1434A1288002ABDD1012193
:10213000424A1170B9E719F0010F64D011E019F0AB
:10214000010F0ED19DF827309DF82A200092059AA4
:10215000039948463C4CA04703460028AED10023D3
:10216000039318F0010F86D1BBF1150F53D0069BD6
:102170009F4292D0049BA7EB03081FFA88F817F838
:10218000016B9DF826902D4B1B78002B7FF45FAFE1
:102190009DF828A000231A4651462948294CA047FB
:1021A000244D00231A4669782548A04700231A4683
:1021B00029782348A04700231A4631462048A047E3
:1021C000BBF1130F04BF8AF0080A8DF828A0039B07
:1021D000002BB4D1059BB342ADD018F0010F03D052
:1021E000BBF1130F3FF43AAF9DF82A3023F00803F8
:1021F0008DF82A300F4B1B8819F0010F7FF44BAF7D
:10220000002B7FF446AF19F0080F9BD129F0060987
:1022100049F0020996E7074A136801331360A6E7FD
:10222000EC2D002064DB08005D7A080038260020D1
:102230003626002058260020BD280800342600201D
:1022400000800040A3570800FD2808002DE9F04F4A
:1022500085B0444B9B89032B06D019464248434B1B
:10226000984705B0BDE8F08F82463E4B9B681B68DF
:1022700003933F4A1070C020507002203D4A1080E6
:102280009BB20193B3F5807FEBD8002B63D001F1B3
:10229000FF390026384C23E0384B9847384B4FF035
:1022A00000021A7022E088F008088DF80E801BF0FA
:1022B000010F10D0334A13680133136006E0314A2E
:1022C000136801331360BAF1160F04D09BB213B92F
:1022D00001232B4A13700136B3B2019A9A423AD9BC
:1022E0001FFA86FB264B1B78002BD5D19DF80E805C
:1022F00000231A4641462046234DA847214F00237C
:102300001A4679782046A84700231A46397820468D
:10231000A84700231A4619462046A847236913F404
:10232000007FFBD00DF109020DF10A012046174B89
:1023300098479DF80A3009F8013FBAF1140FB2D05E
:102340001BF0010FBBD1BAF1160FC4D10D4A1368AF
:1023500001331360BFE70022054B5A700222054B80
:102360001A807EE7EC2D0020A0DB08005D7A0800D3
:10237000382600203626002000800040BD280800B6
:102380003426002058260020A3570800755708005F
:102390002DE9F04F85B0214B9989052939D1834624
:1023A0001E4B9B68186802901A798DF80C2093F8E0
:1023B00000A00DF1090601AD0DF10809184CDFF878
:1023C0007880184F00231A4616F8011B2046C04794
:1023D000236913F4007FFBD00DF101020DF102011E
:1023E0002046B8479DF8023005F8013B4D45E9D13C
:1023F0000D4B83F800B000225A7004A98A441AF8E1
:102400000D1C9970DA700422084B1A8005B0BDE8E3
:10241000F08F0748074B9847F8E700BFEC2D0020E6
:10242000008000407557080038260020362600201E
:1024300064DB08005D7A0800A35708002DE9F0432B
:1024400083B0134B998904291ED18146104B9B6898
:102450001B6802AC44F8043D0DF108080D4F00263E
:102460000D4D3346324614F8011B3846A847444503
:10247000F7D10A4B83F8009000225A700222084BD1
:102480001A8003B0BDE8F0830648074B9847F8E789
:10249000EC2D002000800040A357080038260020C3
:1024A0003626002064DB08005D7A080070470000D3
:1024B00000B9704738B5014643F2B062002343F2D9
:1024C000AF6400250448E0FB014520462946034C43
:1024D000A047034B984738BD00D8B805FD760800E3
:1024E000890000202DE9F04F8BB0454B99890B29CD
:1024F00005D04448444B98470BB0BDE8F08F404BA3
:102500009B6807AA1868596803C21889997A1080CD
:1025100091705A78164603929878DC781A7901926D
:102520005A79029293F806B00022384B1A60384D5F
:10253000A847384B98470120374B98473046A84763
:1025400004F1FF395FFA89F9002C53D0334B1B6833
:10255000C024002B42D02E4F314CDFF8D8A01DE014
:10256000BBF1000F39D00AAB5B4413F8113C029A5F
:10257000934232D00020284DA847039E3046B847EA
:102580000120A8473046B84709F1FF395FFA89F9B9
:10259000B9F1FF0F30D0214B1B687BB30DF123063F
:1025A00006AD0DF11C080198B84700231A4616F82D
:1025B000011B2046D047236913F4007FFBD00DF1A7
:1025C00015020DF116012046164B98479DF816305E
:1025D00005F8013B4545E6D1C2E7002421461248F3
:1025E000094B9847114B10221A705C700222104B55
:1025F0001A8081E7C024F1E7C024EFE7C024EDE7AB
:10260000EC2D002064DB08005D7A080058260020CD
:10261000B124080039270800F92708005C260020AB
:10262000008000407557080080DB08003826002035
:1026300036260020A357080010B582B0104B9989A8
:10264000022904D00F48104B984702B010BD0C4B24
:102650009B681888ADF80400C0B20C4CA04700205D
:102660000B4B98470B4B98479DF80500A0470A4B2A
:1026700011221A7000225A700222084B1A80E4E7D5
:10268000EC2D002064DB08005D7A0800B12408000E
:10269000F9270800E1270800382600203626002008
:1026A0002DE9F04782B01B4B998906292AD1194B95
:1026B0009B68186800909A88ADF8042093F800A0F1
:1026C00093F801900DF102040DF10608124F002657
:1026D000124D3346324614F8011B3846A84744458C
:1026E000F7D1B9F1000F11D150460D4B98470D4B62
:1026F00012221A7083F8019002220B4B1A8002B04A
:10270000BDE8F08709480A4B9847F8E7094B984716
:102710008146ECE7EC2D002000800040A357080024
:10272000B1240800382600203626002054DB08009B
:102730005D7A08003D28080038B598201E4B984760
:102740001E4B53F820501E4C20461E4B98478023AA
:102750002360636843F001036360636843F0100320
:102760006360636823F08003636017492846174B52
:102770009847051EB8BFFF25002211462046144B7E
:102780009847012200212046124B9847EAB20021C7
:102790002046114B9847012323604FF000610E2023
:1027A0000E4CA0474FF000610D20A0474FF0006194
:1027B0000F20A04738BD00BF612C0800F8020020A0
:1027C000008000405557080000D8B805135808008D
:1027D000D7570800F557080029580800815008000D
:1027E00008B5034802230360024B984708BD00BFA9
:1027F000008000406557080008B580B14FF0605177
:1028000011200A4B98479E20094B984718B9112070
:10281000084B984708BD1120074B984708BD4FF05B
:1028200020511120014B984708BD00BF815008007E
:10283000612C08004B5008006550080070B582B04C
:102840001A4C00261A4D33463246F0212046A8473E
:102850003346324631462046A84733463246314653
:102860002046A8473346324631462046A8472369CA
:1028700013F4007FFBD00DF105020DF10601204697
:102880000C4B98479DF8063013F0010F05D00A4B0A
:102890001B68002BD7D1812005E0074B1B68002B5C
:1028A00014BF0020812002B070BD00BF0080004036
:1028B000A3570800755708005C26002038B50C4D5A
:1028C00000231A464D2128460A4CA04700231A46E9
:1028D00019462846A04700231A4607498978284602
:1028E000A04700231A4619462846A04738BD00BF16
:1028F00000800040A3570800582600202DE9F0472B
:1029000082B09DF8289000F07E0008284DD00F4638
:10291000904607DD202809D0402846D0102833D023
:10292000002035E002282FD00428F9D14FEA172AD9
:102930001F4C00261F4D3346324649462046A847C5
:102940003346324651462046A84733463246F9B20E
:102950002046A8473346324631462046A8472369D9
:1029600013F4007FFBD00DF105020DF106012046A6
:10297000114B98479DF8063098450FD10F4B1B68B7
:10298000002BD8D1802003E018460D4B984700203B
:1029900064220A4B1A6002B0BDE8F087074B1B683F
:1029A000002B14BF00208020F2E7064B9847EFE78A
:1029B00000800040A3570800755708005C260020DF
:1029C000B12408003D28080038B57D4B9C787D4B2C
:1029D0001C707D4B9847631E212B00F2E680DFE8D8
:1029E00013F0220037003700E400E4006C00E4003C
:1029F000E400E4008B00E400E400E400E400E40010
:102A000093009700A7009B00A1009B00A100B000CD
:102A1000AB00B000AB00AB00AB00B500E400E400DD
:102A2000B900D200C300674C002363700D23A3706C
:102A3000664B07CBC4F80300C4F80710C4F80B209A
:102A40001B78E3735E4B9C6010229A81012038BD95
:102A50005B4B9B681D78022C0CD002225C4B1A80C9
:102A600028465C4B9847032C17D0C0225A4B5A700B
:102A7000012038BD5C780222554B1A802846554B00
:102A8000984710F0020FF0D00022534B5A702146A5
:102A90002846524B9847012038BD10F0010FE4D072
:102AA0004D4C0023637028464D4B9847A070484A10
:102AB000138801331380012038BD414B9B68DA78BD
:102AC0009978090441EA02611A7811435B7841EA76
:102AD0000321444B196000290ADB4348434B9847C4
:102AE00000223D4B5A700222394B1A80012038BD1A
:102AF00001223F4B1A70F0E70022374B5A70022236
:102B0000334B1A80012038BD3A4B9847012038BD1D
:102B1000394B9847012038BD38492046384B9847F3
:102B2000012038BD35492046364B9847012038BD35
:102B3000354B9847012038BD2046344B984701203B
:102B400038BD2046324B9847012038BD314B98475D
:102B5000012038BD1A4A204B93601D4B1988918182
:102B600000221A80012038BD154A53881B0AD288DA
:102B70009918B1F5807F20DC114820490B4483600F
:102B80008281012038BD0E4A53881B0AD2889918C9
:102B9000B1F5807F01DD002038BD094989681748FB
:102BA00018441D4B9847012038BDC9220A4B5A7062
:102BB0000222074B1A80012038BD002038BD00BF1B
:102BC000EC2D0020241A002009340800C8DB08007E
:102BD000362600204D2C080038260020752C0800D1
:102BE000612C080058260020D8DB08005D7A080018
:102BF00034260020E5240800392608002419002086
:102C0000D51F08004D220800A126080091230800C6
:102C10003D240800AD240800857A0800094B1B7884
:102C200083420AD0084B03F11B011A78824206D076
:102C300003338B42F9D10020704702487047184691
:102C4000704700BF880500208B05002008B5034BA6
:102C5000984708B1407808BD002008BD1D2C080029
:102C600008B5034B984708B1807808BD002008BD1F
:102C70001D2C080010B50C46024B984700B184701B
:102C800010BD00BF1D2C0800F8B50A4B1E685F6818
:102C9000094B98470525094C2846A0470028FBD03A
:102CA0003846074B98474FF0C042064B1A60064B18
:102CB0001E60F8BD481A00208D1D0800611D080027
:102CC000A51D0800881A00208C1A0020F8B50E4BAC
:102CD0001C685F680D4B984701260D4D3046A8478C
:102CE0000028FBD038460B4B98474CB10A4A0023CA
:102CF0000A4D12F8010F2968C85401339C42F8D1DB
:102D0000024B9847F8BD00BF481A00208D1D0800EF
:102D1000611D0800A51D08004F1A0020F4020020C4
:102D200070B5074B5E68074B98470425064C28464C
:102D3000A0470028FBD03046044B984770BD00BF29
:102D4000481A00208D1D0800611D0800A51D0800FF
:102D5000F8B50A4B1E685F68094B98470225094C75
:102D60002846A0470028FBD03846074B9847074A1B
:102D700031464FF0C040064B9847F8BD481A002036
:102D80008D1D0800611D0800A51D0800E12E08002A
:102D90001D45080008B5014B984708BD7D3D08005A
:102DA00008B5014B984708BDC929080010B584B083
:102DB0001E4B9B781BB1012B12D004B010BD1C4CD4
:102DC00020461C4B984720461B4B98470021204625
:102DD0001A4B98474FF40042194BC3F88020ECE798
:102DE0000F20184B9847002303930293C0230193AD
:102DF0000F4C69462046144B98472046134B984782
:102E00004FF400420E4B1A60012120460B4B9847AD
:102E10004FF0006117200E4CA0474FF08051362034
:102E2000A0474FF080511920A047C6E7EC2D0020A5
:102E300000800940B36F0800A36F0800B96F080055
:102E400000E100E0D5530800F56E0800AD6F080002
:102E500081500800F8B50A4BDA889B8993420DD35C
:102E600062B10024064D074F074EAB681A5D002182
:102E70003846B0470134EB88A342F6DCF8BD00BF0A
:102E8000EC2D002000000940D537080008B50021CE
:102E90000148024B984708BD0000094089340800EA
:102EA00008B50B4B5B88A12B07D0A22B0BD0A02B16
:102EB00000D008BD074B984708BD074B98470A222A
:102EC000064B1A7008BD0022044B1A70F1E700BFD0
:102ED000EC2D00209572080029730800451A002087
:102EE00008B5084B9847022804D0064B984703289A
:102EF00003D008BD044B984708BD044B9847024BCC
:102F00009847F6E7991D08008D1D0800CD1D0800A3
:102F100070B5B8B9184B1B78F3B941B1174A184DC1
:102F200012F8014F2868C45401339942F8D1154B67
:102F3000984704280DD0144A4FF480611348144B6D
:102F4000984770BD104A4FF480611048104B984765
:102F500070BD104B9847EEE70A2BECD10029EAD060
:102F60000A4D6C1E01390D440B4E14F8010FB04789
:102F7000AC42FAD1DFE700BF451A0020931A0020C7
:102F8000F4020020991D0800112F0800941A002057
:102F9000394508008D1D08003973080010B5174B1E
:102FA0009B78022B0ED0032B10D0012B25D13E2075
:102FB000134B9847134CA0470028FCD01020124B0D
:102FC000984710BD1020114B984710BD1D20104B85
:102FD000984701220C210F480F4B98470F4B9847F9
:102FE0000F4B5A6812F4003FFBD10D4A136843F0AF
:102FF000254343F005031360FEE710BDEC2D0020D0
:103000002D5308005553080065520800C9520800A6
:103010006550080000080E40191E08003D640800B5
:1030200000120E4008B50022024B1A70024B98475E
:1030300008BD00BF441A00207943080008B5014BC1
:10304000984708BD9543080008B5044B1B7803B9A1
:1030500008BD034B9847034B9847F9E7A6050020A6
:10306000BD640800AD43080010B50124054B1C7079
:10307000054B1C70054A4FF480610548054B984785
:10308000204610BDA6050020441A0020112F08007C
:10309000941A0020394508000022014B1A7070472D
:1030A000A605002008B53F4B3F4A9A60DA88402ABF
:1030B00028BF40229A8100213C4A11705B78103B66
:1030C000122B65D8DFE803F00A1E142864645064EC
:1030D00064643732413C464B555A5F000620344BFE
:1030E0009847002856D0334A2E4B1A61012008BD5C
:1030F00006202F4B984700284ED02F4A294B1A61A3
:10310000012008BD06202A4B9847002846D02B4AAC
:10311000244B1A61012008BD0620254B9847002842
:103120003ED0274A1F4B1A61012008BD254A1D4B7E
:103130001A61012008BD244A1A4B1A61012008BDFA
:10314000224A184B1A61012008BD214A154B1A6109
:10315000012008BD1F4A134B1A61012008BD1E4AF9
:10316000104B1A61012008BD1C4A0E4B1A61012048
:1031700008BD1B4A0B4B1A61012008BD194A094BB7
:103180001A61012008BD184A064B1A61012008BDCA
:10319000002008BD002008BD002008BD002008BD9B
:1031A000002008BDEC2D0020481A0020451A002000
:1031B000611D0800512D0800892C0800212D0800F0
:1031C000CD2C08008D2E0800552E0800E11C0800AB
:1031D000991A0800ED1A0800AD2D0800A12E08006C
:1031E000952D0800A12D08009D2F08003B4BDA8883
:1031F000C82A6ED82DE9F0415B78123B0F2B6AD8B4
:10320000DFE803F01F69692D694E696908485F5B53
:103210006369404400246AB1314D0024DFF8E48042
:10322000304F2E4E4046B84705F8010F0134F38861
:10323000A342F7D8294B2C4A9A609C810120BDE813
:10324000F081264A294B1B689360294B19689181AC
:1032500000221A60274B98470120BDE8F0810A2020
:10326000254B9847204B003018BF012018700022D2
:103270005A709A70DA70194A93600423938101207E
:10328000BDE8F0811D4B9847BDE8F0811C4B984785
:10329000BDE8F08101211B481B4B9847BDE8F08138
:1032A000114B00221A70172159709A700B4A9360C3
:1032B000032393810120BDE8F081144B9847BDE8BA
:1032C000F081134B9847BDE8F081124B9847BDE859
:1032D000F081002070470020BDE8F081EC2D002037
:1032E000931E002055380800941E0020881A0020E4
:1032F0008C1A00208D1D08002F5008007D3D08000D
:10330000C92908000000094089340800291A08006A
:10331000ED190800791A08000123024A13541846CF
:10332000704700BF901A00200022014B1A547047CA
:10333000901A0020124B1B5C03B970472DE9F04135
:103340000446104B9847B0F5007F28BF4FF400703B
:10335000054602460C4920460C4B98476DB10024A7
:10336000DFF824800A4F0B4E18F80420002138465D
:10337000B0470134A4B2A542F6D8BDE8F08100BF41
:10338000901A0020D50308005C1F0020E505080006
:1033900000000940D5370800014B1860704700BF96
:1033A000A805002038B51620104B9847104B4FF455
:1033B0008002C3F88021102583F816531A600D4C43
:1033C0004CF20102002120460B4B98474FF49652D5
:1033D00000212046094B98472A4600212046084BE9
:1033E00098470122074B1A7038BD00BFD55308001B
:1033F00000E100E000000840691E0800911E08007E
:10340000991E08005C21002010B50A4B1B786BB197
:10341000094C00212046094B9847094B1A68094B73
:103420001A6000212046084B984710BD074B98476B
:10343000EEE700BF5C21002000000840891E080064
:10344000A80500205C260020811E0800A533080086
:1034500008B500210148024B984708BD000008400C
:10346000891E080008B5054B1B6813B1013B034AD0
:10347000136000210248034B984708BD5C260020DA
:1034800000000840A11E080070B588B005460C4633
:10349000934B9B78103B082B00F28481DFE813F0FC
:1034A00009009300D4008201E200820182018201BE
:1034B000170131B18A4BDC88042C14BF0020012095
:1034C000C4E0874BDB88072B78D1854B9B681A6853
:1034D00002921A79012A0FD022B1022A10D00022BA
:1034E000059201E0002205925A79042A28D8DFE8E3
:1034F00002F00B181C1F23004FF480520592F3E7D3
:103500004FF400520592EFE74FF4006204929B796A
:10351000062B2DD0072B2ED0052B15D0C0230393BF
:1035200014E04FF400720492F1E700220492EEE7F7
:103530004FF4C0620492EAE74FF480620492E6E737
:103540004FF400620492E2E7002303930023069302
:10355000644B9D4212D0644B9D421DD0634B9D42F3
:1035600023D0634A02A92846624B984720466DE063
:1035700040230393EAE780230393E7E70D205E4BA4
:1035800098475E485E4EB0475E48B0475E48B047D9
:103590005E485F4B9847E4E70E20574B98475D48DD
:1035A000574EB0475C48B047DBE70F20524B984777
:1035B0005A48534EB0475A48B047D2E75948544B3F
:1035C0009847204642E009B100203FE0564B98471B
:1035D0002846564B984701212846554B9847414B62
:1035E0009D4207D0404B9D4218D0404B9D4220D079
:1035F00020462BE04FF0006113204E4DA8474FF0BE
:1036000000611220A8474C4B4FF40052C3F88021B0
:10361000502183F80D131A60204617E0464B4FF4F3
:103620008042C3F88021502183F80E131A6020468F
:103630000CE0414B4FF40042C3F88021502183F845
:103640000F131A60204601E011B1002008B070BDD0
:103650003A4EB0472846B04703212846384B984792
:103660002046F3E7002900F09F801D4BDB88042BE8
:1036700001D00020EAE71A4B324A9A6004229A816C
:10368000184B984214D0184B984216D0174B9842BA
:1036900018D02C4B9DF804201A709DF805205A7004
:1036A0009DF806209A709DF80720DA702046CDE735
:1036B0001548254B98470190EBE71748224B984750
:1036C0000190E6E71648204B98470190E1E7002972
:1036D0006CD0034BDB88042B38D00020B6E700BF4A
:1036E000EC2D002000000940004009400080094006
:1036F00000D8B805A96C0800D5530800B0290020EF
:10370000F91E0800002D002034270020F4DB0800FB
:103710005D7A0800DC2800202C2C00206026002088
:10372000582B002008DC0800AD6F08009D6F0800D2
:10373000B96F08008150080000E100E0B36F080095
:10374000BD6F080060210020AD1F0800184B194A0A
:103750009A6004229A81184B984214D0174B9842D1
:1037600016D0174B984218D0124B9DF804201A70AF
:103770009DF805205A709DF806209A709DF8072044
:10378000DA70204662E70F480F4B98470190EBE74D
:103790000E480D4B98470190E6E70D480A4B9847B5
:1037A0000190E1E7002051E708464FE708464DE762
:1037B000EC2D00206021002000000940004009405D
:1037C00000800940002D0020AD1F0800DC280020EB
:1037D0006026002038B5044613460D4659B1002234
:1037E00019462846124B98472046124B984710F02E
:1037F000020F11D038BD104A904209D002F5804224
:10380000904207D002F580429042F3D10B4DE6E79B
:103810000B4DE4E70B4DE2E728460B4B984701467A
:1038200020460A4B984702212046094B9847E1E77A
:10383000051F0800C16F0800000009406026002035
:10384000002D0020DC280020591F0800FD6F080013
:10385000B96F080008B50A4B98420BD003F58043B6
:10386000984209D003F58043984201D0FF2008BD5B
:10387000044802E0044800E00448054B984708BDAE
:1038800000000940582B0020342700202C2C002059
:10389000591F08002DE9F041054688461646154B8C
:1038A0009847044610F0010F04D114F0020F0ED116
:1038B000BDE8F081AF69FFB2002239464046DFF82B
:1038C0004C80C047002239460B48C047EDE73046E0
:1038D0000A4B984720B902212846094B9847E7E749
:1038E0003046084B984701462846074B9847BDE8A5
:1038F000F08100BFC56F0800B0290020A11F08009B
:10390000BD6F0800591F0800FD6F0800051F080063
:1039100008B5034A03490448044B984708BD00BF53
:10392000002D0020342700200000094095380800B1
:1039300008B5034A03490448044B984708BD00BF33
:10394000DC2800202C2C002000400940953808007D
:1039500008B5034A03490448044B984708BD00BF13
:1039600060260020582B0020008009409538080070
:1039700038B50546C0B2054CA047C5F30720A0479F
:10398000C5F30740A047280EA04738BD05420800F0
:1039900008B5034B1B681843024B984708BD00BF8E
:1039A000B00500207139080070B5074E074D084C6E
:1039B0008020B047A847236823B110F0020FF7D04A
:1039C000012070BD002070BD054208003142080092
:1039D0005C26002070B56B20094B98470F20094BDF
:1039E0009847074E084D094C2020B047A847236848
:1039F00023B110F0800FF7D1012070BD002070BD01
:103A00000542080091390800314208005C26002078
:103A10002DE9F04182B01A4B9847C120194CA047BC
:103A20005920A047C220A0470220A047E020A0477D
:103A30000DF107040DF1FF3812278926114D8DF87D
:103A400000708DF80160AB238DF8023045238DF8AE
:103A50000330CD238DF80430D8238DF8053088232A
:103A60008DF80630FF238DF8073014F80109A847B8
:103A70004445E4D1044B984702B0BDE8F08100BF53
:103A8000D142080005420800A939080070B5094B69
:103A90009847094C094D0A4EC120A0470020A04775
:103AA0008120A047A84710B13368002BF4D1054B03
:103AB000984770BDA9390800054208003142080046
:103AC0005C260020A9410800F8B507460D461446BB
:103AD0001E4B9847034608B91846F8BD4C201C4EAB
:103AE000B0470A201B4B98474320B047012C23D9ED
:103AF0006B20B0473846184B9847A020B047601E4F
:103B0000C0B2B0472420B047631E9BB274B1134AC1
:103B100012685AB16C1E1D44114E104FB04704F884
:103B2000010FAC4202D03B68002BF7D10B4B1B6856
:103B3000003318BF0123CFE70C20054B98473846C8
:103B4000054B9847064B98472870EFE7D539080092
:103B50000542080091390800713908005C260020F0
:103B6000314208002DE9F04180460F4616460B4BC6
:103B70009847044610B92046BDE8F0814C20084D16
:103B8000A8470A20074B98474046A8474C20A8471B
:103B90003846054B98473046A847ECE7D53908002A
:103BA0000542080091390800713908002DE9F047F5
:103BB000814617461D46BDF8286013F0010F07D156
:103BC000E6B915F0020F3FD101242046BDE8F08789
:103BD0008846284B984704460028F6D04C20264CAF
:103BE000A0470A20DFF894A0D0474046A0474C20C9
:103BF000A0470B20D0470120A047E1E71D4B984785
:103C000004460028E1D04C201B4CA0470A201B4B47
:103C100098474846A0476B20A0470898184B9847FC
:103C2000A020A047701EC0B2A0476420A047099BF7
:103C30005C1E013EB6B21E44DFF83C8014F8010F52
:103C4000C047B442FAD1BCE70A4B98470446002863
:103C5000BBD04C20084DA8470A20084B984738464F
:103C6000A8474C20A8470898054B98470020A8472C
:103C7000ABE700BFD53908000542080091390800BC
:103C800071390800F8B504460E46364B984703468E
:103C9000A8B1402C15D0302C22D04C20324DA84752
:103CA0000A20324B98472046A8474C20A847304668
:103CB0002F4B98470020A8472E4B9847034618469D
:103CC000F8BD4C20284CA0470A20284DA84740208A
:103CD000A0474C20A0470B20A8470120A047EBE7B6
:103CE0004C20214CA0470A20204DA8473620A04751
:103CF0004C20A0470B20A8470120A047194B98470C
:103D000003460028DBD04C20A0470A20A8473320D8
:103D1000A0476B20A0473046154B9847A020A047EE
:103D2000154D28780138C0B2A0476420A0472B88E1
:103D30004BB1002427460C4E3846B0470134E4B25C
:103D40002B88A342F8D84C20074CA0470A20074DE7
:103D5000A8473020A0474C20A0470B20A8470120AF
:103D6000A047A9E7D53908000542080091390800A5
:103D700071390800A9390800AC05002070B584B07D
:103D80008E4B5888C3B28E4A1370013B212B2BD81F
:103D9000DFE813F022002F0037007300A500C900F0
:103DA000CC002A002A002A002A002A002A002A0021
:103DB0002A002A002A002A002A002A002A002A00B3
:103DC0002A002A002A002A002A002A002A002A00A3
:103DD0002A00600141014F017A4B98477A4B98477E
:103DE00080F00100794B1870794B9847002004B09F
:103DF00070BD744B9847774B98470022734B1A70ED
:103E0000F2E7704B98470022704B1A706B4B9B89FE
:103E1000042B15D9694B9B681A79D978090441EAB2
:103E200002615A7811439A7841EA02211B78013BDA
:103E3000072B17D8DFE803F018080A0C0E1012142D
:103E40000122624B1A70CFE720200EE068200CE0C0
:103E500030200AE0222008E02A2006E0322004E098
:103E6000182002E0002000E040205B4B984700282B
:103E7000BAD10322554B1A70B6E7524B984700222D
:103E8000524B1A704D4BDB88072B02D801224F4B47
:103E90001A704A4B9B685A791979090441EA026100
:103EA0009A781143DA7841EA02211A78013A052A10
:103EB00011D8DFE812F0E1000800E500FD0006007F
:103EC0000C000820F5E0262523202C22DBE0262507
:103ED00023201A22D7E02E2226252320D3E0394B97
:103EE00098470022394B1A70344B99688B794A797C
:103EF00042EA03220879CB781B0443EA006348783E
:103F000003438878B2F5807F28BF4FF4807233492D
:103F100043EA0020324B984700287FF465AF032224
:103F20002A4B1A7060E7274B98475DE7254B984767
:103F30000022264B1A70214B998901290BD91F4B5E
:103F40009A681378013B072B61D8DFE803F0081B60
:103F5000282C6060603001221C4B1A7044E7042951
:103F600003D80122194B1A703EE71179D3781B044C
:103F700043EA016351780B43927843EA0223194ADA
:103F8000136031E7022903D80122104B1A702BE786
:103F90009178537843EA0123134A138024E7527837
:103FA000124B1A7020E75278114B1A701CE7042943
:103FB00020D80122054B1A7016E700BFEC2D002017
:103FC0007021002009340800113A0800D42D002087
:103FD000513408008D3A0800853C08007421002007
:103FE000C93A0800B0050020AC050020B405002047
:103FF000B50500201179D3781B0443EA0163517899
:104000000B43907843EA00202F4B9847ECE60122BF
:104010002E4B1A70E8E6000A2D4BDB88C218B2F569
:10402000807F27DC2A492B4A104488608B8101203D
:10403000DDE6000A264BDA888318B3F5807F01DDC0
:104040000020D4E6224B9968224B1844224B984713
:104050000120CCE6214A1D4B1B785370204B1B6876
:10406000B3FA83F35B099370194B9A6003229A8128
:104070000120BCE60020BAE626252320242202E007
:10408000362533203522DE799C7944EA06245B7894
:10409000B4F5807F28BF4FF4807402940D4C0194D6
:1040A000009129460F4CA04700287FF49DAE07E001
:1040B0004C20084B1A780C4B984700287FF494AE9C
:1040C0000322024B1A708FE699330800D42D00208A
:1040D000EC2D002074210020857A0800702100203A
:1040E0005C260020AD3B0800653B080038B50B4D51
:1040F0000B4C2846A0470028FBD0084C2046094B13
:1041000098472046084B98474FF020511420074B02
:1041100098470022064B1A7038BD00BF0040094086
:10412000E16F0800A36F0800AD6F08008150080020
:104130007422002070B51825144C154E2846A0474F
:1041400010B13368002BF9D11825104C104E2846B9
:10415000A04710B93368002BF9D118250B4C0C4E31
:104160002846A04710B13368002BF9D1094C2046EE
:10417000094B98472046094B98474FF0006114209F
:10418000074B98470122074B1A7070BD2F5008004B
:104190005C26002000400940B36F08009D6F0800B6
:1041A000815008007422002010B50F4B1B78BBB95A
:1041B0000E4C20460E4B984720460E4B98474FF02A
:1041C000205118200C4CA0474FF020511520A0473B
:1041D0004FF020511420A0470E20084B984710BDE7
:1041E000074B9847E4E700BF7422002000400940D5
:1041F000B36F0800A36F080081500800095408003D
:10420000ED40080010B50446054B1B7823B121464C
:104210000448054B984710BD044B9847F7E700BF8B
:104220007422002000400940FD6F0800354108005D
:1042300070B582B00A4B1B7873B90A4D0A4C0B4E0D
:1042400001A92846A047012802D13368002BF7D1E5
:104250009DF8040002B070BD054B9847EDE700BF24
:1042600074220020004009400F7008005C260020E6
:10427000ED400800F8B5124B1B7823B10C27182528
:10428000104C114E06E0114B9847F7E77B1E13F0D8
:10429000FF0713D02846A04710B13368002BF9D18F
:1042A0002846A04710B93368002BF9D12846A0470B
:1042B0000028EBD03368002BF8D1E7E7F8BD00BF4A
:1042C000742200202F5008005C2600203541080091
:1042D00070B586B00025194B1D700E20184B9847FD
:1042E0004FF040511420174CA0474FF0205115209B
:1042F000A0474FF040511820A04740F25710124EEF
:10430000B0471420114B98474520B04702950495BB
:1043100005950F4B0093C02301934FF40053039373
:104320000C4A69460C480D4B98474FF080511820B5
:10433000A0470B4CA047A04706B070BD74220020D8
:10434000D553080081500800890000204B50080018
:1043500020A1070000B0710B00400940FD6C08006F
:104360007542080010B50620024CA0470720A04760
:1043700010BD00BF0D4F080010B50620034CA0472C
:104380000720A0471D20024B984710BD0D4F080085
:104390006550080008B50620024B98471D20024BC7
:1043A000984708BD314F08004B50080008B50B4B2B
:1043B000A3FB00239B094FF47A7202FB130080B227
:1043C00018B1B0F5FA7F04D008BD0620044B984719
:1043D00008BD0620034B9847F6E700BFD34D621097
:1043E000314F08000D4F080010B53E20074B98478D
:1043F000074CA0470028FCD04FF47102054BDA614E
:10440000054CA0470028FCD010BD00BF2D5308006C
:104410005553080000040E40C553080010B512485B
:10442000124B98473E20124B9847124CA047002849
:10443000FCD04FF08070104B9847104CA0470028DC
:10444000FCD00F4B98470F4A0F4B9A620F4CA04776
:104450000028FCD010200E4B98470E4B984702487E
:10446000024B984710BD00BF00D8B8053D010020A1
:104470002D53080055530800755308006553080074
:1044800095530800013F0F2000040E40A55308007B
:10449000C95208002D710800014B1878704700BF01
:1044A0007522002008B5054B9847C378044A13705D
:1044B0000BB1012008BD034B984708BDF146080029
:1044C000752200206930080008B5034B1B7803B142
:1044D00008BD024B9847FBE7752200209930080081
:1044E00008B50B4B1B7813F0800F05D103F0600368
:1044F000402B0AD0002008BD03F06003402B01D000
:10450000002008BD034B984708BD034B984708BDE2
:10451000EC2D0020ED310800A530080010B582B068
:1045200000920B46024600218520024CA04702B0B3
:1045300010BD00BF3167080010B582B000920B4675
:10454000024600210620024CA04702B010BD00BF69
:1045500031670800104B1B681A6853881A440378A7
:104560001844904211D24378042B10D08B4209D0CA
:1045700003781844904206D24378042B09D08B422A
:10458000F6D107E0704700207047002070470020F8
:1045900070470020704700BF7C22002008B5034B05
:1045A000987800F07F00024B984708BDEC2D002062
:1045B00085640800194B1B784BB3194B1B681B68AB
:1045C0001A79824225D970B4164A13605C881C445B
:1045D000A34220D20025012607E0124A13600FE013
:1045E0001A7813443546A3420CD25A78042AF7D1DC
:1045F0009A788242F4D1DA788A42F1D1002DECD156
:10460000012002E0074A1360002070BC70470020C0
:104610007047002070470020F7E700BF7B22002092
:104620007C220020802200202DE9F843044600214E
:10463000134B9847804610B94046BDE8F883114BAC
:104640001B685B6853F82490D9F80C3098470146F2
:1046500020460B4B984780460028EDD00A4B1C683B
:1046600005260A4D0A4F31462046A847044610B198
:104670008078B847F7E7D9F804309847DCE700BFFF
:10468000B54508007C220020802200205545080006
:10469000E96408002DE9F0418046104B9847034635
:1046A000C8B10F4B1C6805260E4D0F4F31462046F2
:1046B000A847044638B18288C1788078B847034655
:1046C0000028F3D107E0094B1B685B6853F82830DA
:1046D0001B68984703461846BDE8F081B5450800B9
:1046E00080220020554508001D6808007C2200201B
:1046F000014B1868704700BF8022002008B5014BAD
:10470000984708BD6963080070B50D4B1B7883B1ED
:104710000C4B1B681B681B795BB100240A4E094DCA
:104720002046B0470134E4B22B681B681B79A342D2
:10473000F6D80023024A1370044A138070BD00BFEC
:104740007B2200207C2200202946080076220020BF
:1047500038B50D4B1B78B3B10C4B1B681A68127936
:104760008AB10024094D06E00134E4B22B681A68CE
:104770001279A24207D95B6853F824301B69002BD9
:10478000F2D09847F0E738BD7B2200207C22002041
:10479000F8B5954B00229A811A615A611B88B3F5CE
:1047A000E07F19D0904B1B7813F0800F1AD113F0D3
:1047B000600F00F045818C4B1B7803F01F03012B29
:1047C00000F01182884B1B7803F01F03022B00F0CE
:1047D000958200231846F8BDAE218448844B984743
:1047E0000123F7E7804AD288002A00F0B08213F054
:1047F000600FE0D113F01F0307D17B4949780629E8
:1048000016D0082900F0BF8059B1012B00F0C380F9
:10481000022BD0D1744B5B78002B00F00381002376
:10482000D3E1022ACED102217248714B984724E18C
:104830006D4B5A88D4B2130A013B0E2B00F214823E
:10484000DFE813F00F0023007B0012021202450084
:104850005300120212021202120212021202120279
:104860007600654B984728B9644B98680178604B8F
:10487000984731E0614B1A68102191700221D17084
:10488000186801785A4B984726E05B4B984780B1EF
:104890005A4B9B685B7CA3428DD9584B1B6953F8DC
:1048A00034004188524B98474F4B9B6802225A7004
:1048B00012E0524B1B685B7CA3427FF67CAF4F4BF0
:1048C0005B6853F834004188494B9847ECE74B4B01
:1048D000D8680178464B9847434BDA889B899342C6
:1048E00040F2CB80404B9A81C7E0434B984788B950
:1048F000424B9B685B7CA3427FF65DAF3F4B1B69DD
:1049000053F8340041883A4B9847374B9B6807224D
:104910005A70E1E7394B1B685B7CA3427FF64BAFD3
:10492000364B5B6853F834004188314B9847ECE7CD
:10493000212133482E4B9847CEE7D2B2032A3FF6C7
:104940003AAFDFE812F007000C0008020400202450
:104950002C4A06E004212C48254B9847BCE72B4AFB
:104960001524013A2A49002312F8010F21F8020FF9
:104970000133DBB29C42F7D8610002312448017058
:104980001B4B9847A8E7012A7FF41CAF012121485F
:10499000174B984771E0144949780A297FF438AFDA
:1049A000012A40F020811B4B1B78002B00F01B815B
:1049B0000D4B1C79184B1D682B681B79A34240F2E4
:1049C000128100212046154B984700283FF4F3AE92
:1049D0006B6853F82430DB689847114B187001213D
:1049E0001846034B984748E0EC2D00204006002075
:1049F000DD6408007622002075640800D4010020E0
:104A000034DC0800F0060020100600201406002008
:104A1000CC0500207B2200207C220020B545080028
:104A20007A220020022A7FF4CDAE924B1879924B65
:104A30009847924B188002211846914B98471CE0EA
:104A400013F01F0340F0B5808A4A5278013A082AD1
:104A500000F2AF80DFE812F01300AD002300AD00DC
:104A60000900AD00AD00AD005400824BDB88002B87
:104A70007FF4A8AE834A7F4B1A610123AAE67D4BDF
:104A8000DB88002B7FF49EAE7A4B5B88012B7FF492
:104A900099AE7D4A138823F002031380EDE7754B2E
:104AA000DB88002B7FF48EAE724B5B88022B40F0CC
:104AB000DD80764B984700283FF47DAE6D4B1B7927
:104AC000002B7FF478AE724B98476A4B9B881B0A89
:104AD000013B032B00F2CC80DFE803F002060A0E54
:104AE0006C4A644B1A61C8E76B4A624B1A61C4E7AF
:104AF0006A4A604B1A61C0E7694A5E4B1A61BCE7BB
:104B00005C4BDB88002B7FF45DAE664B984700283A
:104B10003FF451AE5D4B9847002836D0554B9A78FC
:104B2000614B9B685B7C9A423FF745AE584B984778
:104B3000504B9B785D4A1370002B9ED0534B984787
:104B400000282AD0594B1B7803F10053013B564AE9
:104B5000126902EBC303564A1360554B1B681B686E
:104B60001B79002B89D000242746524E504D3946E0
:104B70002046B04700283FF41EAE0134E4B22B6853
:104B80001B681B79A342F2D877E73A4B9A78464BD9
:104B90001B685B7C9A42C9DD0DE6444B1B7803F130
:104BA0000053013B404A526802EBC303404A136082
:104BB000D3E7012B0DD0022B7FF4FDAD2D4B5B789D
:104BC000012B2ED0032B3CD00023002B7FF402AE10
:104BD000F1E5284A52780B2AEDD1264BDB8813B930
:104BE000324B1B7873B9314B1B78002B00F0B1802E
:104BF000204B1C792E4B1D682B681B79A34263D870
:104C00000023E7E51B4B1C795D8820462A4B98471B
:104C100000283FF4D0ADE9B22046264B9847034622
:104C2000D3E7144BDB88002B7FF4CCAD114B5B88B2
:104C3000002B7FF4C7AD0F4B1879204B98470346E4
:104C4000C3E70C4BDB88002B7FF4BCAD094B5B88C2
:104C5000002B7FF4B7AD074C2079194B984720798A
:104C6000184B98470346B0E70023AEE70023ACE7B4
:104C70000023AAE7EC2D00203D65080078220020E3
:104C8000DD6408009D450800762200207564080058
:104C9000094708002D6B0800516B0800756B080070
:104CA0008D6B0800AD640800D40100207B22002039
:104CB0007C22002095460800294608003966080035
:104CC000C96A08007165080000212046234B9847F7
:104CD00000283FF477AD6B6853F82450EB68984791
:104CE000014620461D4B984700283FF46BADAB684A
:104CF0009847034600287FF46DAD63E5184B1B7899
:104D00000BB3184B1A6813681B79F3B10024134EC8
:104D1000144F536853F82450EB68984701462046D7
:104D2000B047034600283FF455ADAB6898470346AB
:104D300000287FF44FAD0134E4B23A681168097974
:104D4000A142E6D846E5002344E5002342E50023DE
:104D500040E500233EE51224034A02E6B54508007B
:104D60007B2200207C2200202C0600200B4B1B689D
:104D70002BB9EFF310833BB10022094B1A70074A9D
:104D8000136801331360704772B6BFF35F8F002260
:104D9000044B1A700122024B1A70F0E784220020A3
:104DA00088220020EA060020074B1A68013A1A60A0
:104DB0001B6843B9054B1B782BB10122044B1A70B9
:104DC000BFF35F8F62B670478422002088220020E4
:104DD000EA0600202DE9F04180B90C469046002AF1
:104DE0000FDD8F18084E094D306821462B68984713
:104DF0000134BC42F8D14046BDE8F0814FF0FF38A5
:104E0000F9E78046F7E700BFE82D0020E02D0020FD
:104E10000138022815D82DE9F0410E4614469AB102
:104E20000D46DFF838800C4FD8F8000015F8011B4C
:104E30003B68984700280ADBA81B013CF4D1BDE879
:104E4000F0814FF0FF3070471046BDE8F0814FF021
:104E5000FF30BDE8F08100BFE42D0020E82D0020E8
:104E6000F8B54FF060510620174CA0474FF0605145
:104E70000720A0474FF040511D20A0471D20134B95
:104E800098474FF060510820A0470820104EB047C7
:104E9000104F4FF04052FF2138460F4DA847FF21D9
:104EA00038460E4B98474FF060513520A0473520CB
:104EB000B0474FF000624FF4C0510948A8474FF087
:104EC00080511B20A047F8BD8150080065500800A4
:104ED0004B500800000E0E40515108001D500800B4
:104EE000000C0E4010B54FF40042054B5A600A20EA
:104EF000044CA0470B20A047034B984710BD00BFB0
:104F000050120E40D5530800614E080010B50446FB
:104F1000062802D0072C04D010BD0620034B98476A
:104F2000F8E70720014B9847F6E700BF65500800F7
:104F300010B50446062802D0072C04D010BD062068
:104F4000034B9847F8E70720014B9847F6E700BF67
:104F50004B50080001EB810100EB81010A677047AB
:104F600001EB810100EB81014A67704701EB810190
:104F700000EB81018A67704701EB810100EB810141
:104F8000C1F8802070474264B1F1805F16D00BD821
:104F900049B1B1F1006F05D1036F016F0B4023EAF6
:104FA0000203036742607047B1F1405FFBD0B1F18B
:104FB000605FF8D0B1F1205FF4D17047036F134305
:104FC0000367EFE7416412F0010F14BF4166016609
:104FD00012F00A0F14BF0162416212F0020F07D1F2
:104FE00012F0080F18BFC0F88410416101607047CB
:104FF000C0F88010F9E710B4019C416444B901661F
:1050000043B1016542B941630161016010BC704761
:105010004166F5E74165F5E70163F5E7C0F8A010E3
:10502000704781637047C06C7047806C704743095C
:1050300003F5001303F206735B02DB6B00F01F0045
:1050400023FA00F000F001007047430903F5001354
:1050500003F206735B0200F01F00012202FA00F067
:1050600018637047430903F5001303F206735B02EC
:1050700000F01F00012202FA00F0586370470000A0
:1050800070B582B00D46430903F5001303F20673B1
:105090005C0201F0F043B3F1205F31D016D8B3F1D8
:1050A000006F1BD0B3F1805F16D100F01F00012606
:1050B000864032464FF080512046224B984715F0EB
:1050C000010F14BF66662666012017E0B3F1405F4A
:1050D00021D0B3F1605F1ED000200FE000F01F0070
:1050E0000126864032464FF000612046154B984716
:1050F00015F0010F14BF66662666012002B070BD70
:1051000000F01F0101262A4606FA01F120460E4B47
:1051100098473046F2E705F0605200F01F01012683
:1051200005EA06030093C5F38003B2F1605F14BF84
:105130000022012206FA01F12046044CA047304625
:10514000DCE700BF874F0800C54F0800F74F080095
:1051500070B582B005460E46144602F0F043B3F136
:10516000205F27D011D8B3F1006F16D0B3F1805F64
:1051700011D10A464FF08051194B984714F0010F96
:1051800014BF6E662E66012012E0B3F1405F15D0A9
:10519000B3F1605F12D000200AE00A464FF00061D0
:1051A0000F4B984714F0010F14BF6E662E66012056
:1051B00002B070BD0B4B98470120F9E704F0605234
:1051C00004F001030093C4F38003B2F1605F14BFE5
:1051D0000022012231462846034CA0470120E7E780
:1051E000874F0800C54F0800F74F08002DE9F04130
:1051F000044688460E4B9847054620460D4B984777
:10520000054013D00C4C04F1600603E0B4420DD00D
:1052100010345DB120684045F8D161682942F5D06D
:10522000E3689847636825EA0305EFE7BDE8F08186
:10523000275008002B5008008C22002008B50A21B6
:105240000148024B984708BD000C0E40ED51080084
:1052500008B50B210148024B984708BD000E0E40CF
:10526000ED510800174A136B23F0030343F00103C9
:105270001363936E13F0080F0AD14FF400631149C2
:105280008A6E12F0080F03D1013BF9D1012070475B
:105290000C4A136B23F0700318431063936E13F0E2
:1052A000080F0AD14FF4006306498A6E12F0080F06
:1052B00005D1013BF9D10120704700207047002043
:1052C000704700BF00040E40174A136B23F07003B1
:1052D00018431063936E13F0080F0AD14FF4006364
:1052E00011498A6E12F0080F03D1013BF9D1012058
:1052F00070470D4A136B23F0030343F0020313635B
:10530000936E13F0080F0AD14FF4006306498A6EBA
:1053100012F0080F05D1013BF9D1012070470020A0
:1053200070470020704700BF00040E40084A136A0F
:1053300023F0030343F45C1343F00103000280B243
:1053400003431362936E13F0010FFBD0704700BF4D
:1053500000040E40024B986E00F00100704700BF41
:1053600000040E40024B986E00F48030704700BF7E
:1053700000040E40064B1B6A30B923F0807343F4DF
:105380005C13034A1362704743F08073F7E700BF72
:1053900000040E404FF00052014B9A62704700BF6C
:1053A00000040E40024B986E00F00200704700BFF0
:1053B00000040E40024AD36923F48033D36170475E
:1053C00000040E40024B986E00F04000704700BF92
:1053D00000040E401D280ED81F280ED8094B9A69CC
:1053E0000123834093430AD0012303FA00F0054BC5
:1053F000186100207047012070470020704700208E
:10540000704700BF00040E401D2810D81F2810D878
:10541000094B9A6901238340934301D000207047D0
:10542000012303FA00F0044B58610020704701206B
:1054300070470020704700BF00040E404FF4807397
:1054400003FA00F0014B1860704700BF00040E40E3
:10545000034B1A6FC0F3120010431867704700BF68
:1054600000040E400A4A136F43F480131367094A7D
:10547000136923F00403136120BF4FF4FA7300BFD4
:10548000013BFCD1024A136A13F0080FFBD07047AE
:1054900000040E4000ED00E02DE9F84F431E042B00
:1054A00000F23581DFE813F0050005001D001D0046
:1054B0002701984A136F23F480131367964A1369E0
:1054C00023F0040313610122944B1A70BFF35F8F22
:1054D00062B6022802D020BFBDE8F88F30BFBDE819
:1054E000F88F72B6BFF35F8F00228C4B1A700122C7
:1054F0008B4B1A70874BD3F820801D6B894AD2F8EA
:1055000000A002F50072D2F800909F6AD3F81CB098
:1055100048F45C1242F008021A6205F00306012EFC
:1055200040F29D8025F0030141F0010119631A4604
:10553000936E13F0080FFBD011F0700F08D021F01C
:105540007001744B19631A46936E13F0080FFBD069
:105550000446754B9847754B98476E4A936E13F403
:10556000003FFBD06B4A136A23F09B7323F4803314
:1055700043F45C131362936E13F4803FFBD02AF460
:105580007063684A136029F4706302F50072136057
:10559000042C66D0614C01232370BFF35F8F62B689
:1055A000634B984772B6BFF35F8F0023237018F0E8
:1055B000020F61D0574A136A5E4919405E4B0B4394
:1055C0001362136A23F45C1323F0780343F45C132F
:1055D00013625A4B3B40002B7FD047F000574D4B96
:1055E0009F6202221BF4803F04D04A4BC3F81CB0D8
:1055F00042F04002022E72D0032E76D045490B6B4A
:1056000023F0700305F0700003430B638B6E13F0FF
:10561000080FFBD0434BC3F800A003F50073C3F899
:105620000090A3F5C0631D6319468B6E13F0080F3D
:10563000FBD038498B6E1342FCD00022384B1A70D5
:105640003F4B1B681BB1984700223D4B1A6001225B
:10565000324B1A70BFF35F8F62B6BDE8F88F2946F0
:105660006AE7A2F5C062136A23F45C1323F0010316
:1056700043F45C1313628DE718F0010FA9D0254B9A
:105680001B6A13F0010F0ED1224A136A23F45C1334
:1056900023F0030343F45C1343F001031362936E9E
:1056A00013F0010FFBD01B4B1B6A13F0807F0AD154
:1056B000184A136A43F09B7343F480331362936E6A
:1056C00013F4803FFBD0134A136A23F45C1323F0D6
:1056D000780343F45C1313627BE7002282E70D49F1
:1056E0008B6E13F0020FFBD088E70A498B6E13F024
:1056F000400FFBD082E7084A136943F004031361AB
:105700000122064B1A70BFF35F8F62B620BFBDE85F
:10571000F88F00BF00040E4000ED00E0EA06002014
:10572000FC22002000080E4095530800B5530800E5
:1057300065540800FCFFC8FE020037010000FF07A7
:1057400000230020024B187880F00100704700BF52
:10575000FC22002008B51420014B984708BD00BF6B
:10576000D553080008B51420014B984708BD00BF69
:105770000954080010B443F69923046914F0010F8A
:1057800003D1013BF9D1012009E08368406810F0A2
:10579000020F1CBFC3F3034010700B80002010BC2D
:1057A000704730B443F69924056915F0020F03D110
:1057B000013CF9D101200CE0446814F0020F06D03E
:1057C000120402F4702211430BB141F08071C160E8
:1057D000002030BC704732B900EB8100036B23F02E
:1057E00001030363704700EB8100036B43F0010387
:1057F0000363704732B900EB8100036B23F00203AF
:105800000363704700EB8100036B43F00203036303
:105810007047431E1944B1FBF0F0431EFE2B94BFAA
:1058200000B24FF0FF30704700EB81010B6B23F4A7
:105830007F430B630B6B43EA02220A63704700004D
:105840000346A8B9174A127842B3EFF3108272B632
:10585000BFF35F8F14490870144881780139817053
:10586000E2B90121104A1170BFF35F8F62B615E0F3
:105870000C4A127892B9EFF3108272B6BFF35F8FC1
:1058800000200949087009488178013181702AB9DE
:105890000121054A1170BFF35F8F62B6014A137090
:1058A000704700BF05230020EA060020D82D002005
:1058B000EFF3108372B6BFF35F8F00210D4A1170B2
:1058C0004FF480610C4AC2F808112BB90122094B30
:1058D0001A70BFF35F8F62B64FF40072064BC3F8C5
:1058E0001821064A0023136153619381044A1370FF
:1058F000704700BFEA06002000400A40EC2D00205F
:105900000A2300200522034B1A702022024BC3F801
:10591000142170470A23002000400A400322114B43
:105920001A70EFF3108272B6BFF35F8F00210E4B37
:1059300019700E4B4FF48061C3F818114FF40060DA
:10594000C3F81401C3F804114FF40041C3F818114F
:10595000C3F804112AB90122034B1A70BFF35F8FF9
:1059600062B670470A230020EA06002000400A4081
:1059700008B5024B1B6903B1984708BDEC2D002008
:1059800038B5EFF3108372B6BFF35F8F00214C4A36
:1059900011704FF480614B4AC2F808112BB90122F3
:1059A000474B1A70BFF35F8F62B6474B1B78032BD0
:1059B00057D0464B1B88464A9489E41AA4B2C4B90E
:1059C000444A11880B449BB21380414AD2889A42C0
:1059D0004CD0414B1B78002B48D13D4B5B69002BD1
:1059E0005FD0984700285CD00022384B1A80384B93
:1059F0009C893F2C55D90022374B1A704024344BD8
:105A00009A68324B1D88EFF3108072B6BFF35F8F38
:105A100000212B4B19702B4BD3F81C3113F4007F52
:105A200043D144B12A442D4B12F8011B03F8011B4A
:105A3000D9B2A142F8D32C44244B1C80214B4FF403
:105A40008062C3F818214FF40061C3F81411C3F841
:105A5000042128B901221A4B1A70BFF35F8F62B676
:105A600038BD1F4B98471F4B984738BD0422164B33
:105A70001A70EFF3108372B6BFF35F8F0021104AE4
:105A80001170104A4FF48041C2F81811C2F8041185
:105A9000002BE5D101220A4B1A70BFF35F8F62B66B
:105AA00038BD01220C4B1A70A9E728B90122044B1A
:105AB0001A70BFF35F8F62B60422034B1A7038BDB1
:105AC000EA06002000400A400A23002006230020A6
:105AD000EC2D0020082300200423002000001820C3
