:0200000280007C
:100000000020082069560800675608006756080057
:100010006756080067560800675608000000000091
:10002000000000000000000000000000675608000B
:100030006756080000000000675608006756080071
:10004000675608006756080067560800675608009C
:10005000675608006756080067560800675608008C
:100060006756080067560800613D0800753D0800A6
:1000700067560800151A08006756080067560800FA
:10008000675608006756080067560800675608005C
:1000900067560800675608009D2D0800675608003F
:1000A000675608006756080067560800675608003C
:1000B000675608000D4508006756080010B5054C46
:1000C000237833B9044B13B10448AFF30080012304
:1000D000237010BD5813002000000000FCCF080062
:1000E00008B5034B1BB103490348AFF3008008BDBB
:1000F000000000005C130020FCCF0800024A1378C7
:10010000013BDBB2137070477F1300200020704763
:10011000002070471E4A137892F90020002A05DB60
:1001200003F06003202B1AD00020704703F0600317
:10013000202B01D000207047154B5B78212B01D07C
:1001400000207047124BDB88072B01D0002070473E
:100150000F4B104A9A6007229A81012070470C4B7E
:100160005878202804D0222814BF0020012070478E
:10017000074BDB88072B01D000207047044B064A51
:100180001A61044A9A6007229A810120704700BFD1
:100190009C26002078130020B103080010B500242D
:1001A000114B1C70114B1C80114BA1221A70202284
:1001B0005A705C8001229A800222DA801C810D49EB
:1001C0004FF4E1330B600C714C7108238B712046A6
:1001D000094B98472046094B984720B1024A1378AB
:1001E0000133DBB2137010BD7F1300209417002081
:1001F000AC1B002078130020251F0800711E08008A
:10020000424B1B7803B1704770B582B0404B9847A2
:10021000002845D03F4B1C883F4B984784423DD037
:10022000EFF3108572B6BFF35F8F3C4B00221A705C
:100230003B4B1B78DCB23B4A32F81330002B36D0F4
:10024000394B00221A80394B1B78002B4CD1B4FA61
:1002500084F35B09324A13702C4B01221A7025B9C2
:100260002E4B1A70BFF35F8F62B626462D4B33F8C4
:100270001430B3F5007F14BF0125002538D1254B7C
:1002800000221A802A4B0093264B33F81630294A55
:1002900002EB442229468520274CA04702B070BDBE
:1002A0001C4B1C88254B98478442B9D1F6E71E4A5F
:1002B000138801331380164B984718B91A4B1B88C3
:1002C000632B08D9124B98470028B9D0164B1B88CE
:1002D000B3F5487FB4D2002DE0D1104B01221A7043
:1002E000BFF35F8F62B6D9E7B4FA84F46409B3E769
:1002F000074B984720B1084B9847064B1880C1E739
:100300000E4B9847034B1880BCE700BFA81B00208A
:10031000B14C0800A41B0020094D080082090020F0
:10032000A01B00209C1B00207413002098170020A5
:10033000410308009C1700206D4F0800F94C08008D
:1003400000B1704708B5074B1B78B3FA83F35B091C
:10035000054A22F81300054B1870054B1870054B21
:10036000984708BDA01B00209C1B00209817002068
:10037000A81B00200102080008B50020014B984787
:1003800008BD00BF0102080008B5064A1378013B0A
:10039000DBB213701078044B9847044B00221A709C
:1003A00008BD00BF801300208D1E080076130020BA
:1003B00008B502490020024B984708BD7813002079
:1003C000251F0800EFF3108172B6BFF35F8F0B4B50
:1003D00000221A700A4B188883B20A4A1278D2B2E5
:1003E000094830F8120080B2C01A29B9034B012223
:1003F0001A70BFF35F8F62B6704700BF820900209A
:100400008C170020881700208417002008B5034BA4
:100410009847003818BF012008BD00BFC503080079
:1004200010B582B0EFF3108172B6BFF35F8F214B2E
:1004300000221A70204B1C78204B1B785BBBE4B267
:100440001F4B1A8892B21F4B33F814309BB29A425A
:1004500021D31B4B00221A80B4FA84F35B09164A9D
:100460001370164B01221A7021B9124B1A70BFF388
:100470005F8F62B60020144B9847A8B9134B0093C6
:100480004FF40073124A02EB442201210620114C62
:10049000A04702B010BD59B9064B01221A70BFF334
:1004A0005F8F62B60020F4E700200B4B9847E5E72A
:1004B0000020EEE782090020881700209017002016
:1004C0008C170020841700200D0408006D0508001B
:1004D000841300206D4F0800A51E080010B50024ED
:1004E000154B1C70154B1C70154B1C70154B1C705C
:1004F000154B1C805C80154B1C802046144B984784
:10050000144B1C70144B1C70144B1C805C80144BDF
:100510001C802046134B984740B1074A137801339B
:10052000DBB213701378DBB2012B00D010BD0E4B81
:1005300001221A70FAE700BF80130020A81B0020D8
:1005400098170020A01B00209C1B0020A41B00204B
:10055000010208009017002088170020841700204F
:100560008C1700202104080076130020F8B930B55C
:1005700083B015460E4B1C78B4FA84F4640951B16B
:1005800089B20C4B23F8141000200B4B18700B4B46
:10059000984703B030BD0A4B00934FF40073094AEB
:1005A00002EB442201212846074CA047F1E770479F
:1005B00088170020841700209017002021040800CD
:1005C0006D050800841300206D4F08002DE9F84FD9
:1005D00088461746214E4FF0000BDA46204DDFF8D3
:1005E00098900AE001203070BFF35F8F62B68A42B4
:1005F00016D81C4B1B78002B2DD0EFF3108072B651
:10060000BFF35F8F86F800A0298889B299F800307F
:10061000DBB2154A32F8132092B20028E7D1E1E7A5
:10062000114A32F81340A4B2641ABC4228BF3C46B7
:1006300001EB432122460D4B194440460C4B984791
:100640002B8823449BB22B80A0443F1B5846094B68
:100650009847002FD1D13846BDE8F88F8209002095
:100660008C170020761300208417002084130020AC
:10067000015F0800210408008817002010B4EFF380
:10068000108272B6BFF35F8F144B00211970144BA8
:100690001B78144931F81300B0F5007F0AD0C0F57B
:1006A00000702AB90D4B01221A70BFF35F8F62B63A
:1006B00010BC7047DCB20C4B1B78002BEFD10B4BFE
:1006C0001B78002BEBD1094B01211970B4FA84F48B
:1006D0006409034B1C700020E1E700BF8209002081
:1006E000A01B00209C1B0020A81B002098170020A6
:1006F00008B5034B9847003818BF012008BD00BF5C
:100700007D0608002DE9F0410C461A4B9D79092D14
:1007100014BF00250125184E184FDFF870801DE02A
:10072000EFF3108072B6BFF35F8F00233B7098F831
:100730000020D1B2124B33F8122002F1010C23F841
:1007400011C0104B03EB41239C5420B901233B7093
:10075000BFF35F8F62B65DB1241200250020B04761
:100760000028DDD1084B1B78002BF7D1BDE8F081C4
:100770000120FBE778130020F10608008209002021
:100780009C1B00209C17002076130020A01B00203B
:100790000023436003608360704710B40468013431
:1007A000C82C28BF00244368A34205D1002AFAD1EF
:1007B00083680133836003E00368034419730460B2
:1007C00010BC704702464368C118087B1168994203
:1007D00005D00133C82B28BF002353607047FF208A
:1007E000704703684068C01A18BF0120704703684B
:1007F0004068181A48BFC8307047000010B5184C40
:100800002046184B984780232360636843F0010318
:100810006360636843F010036360636823F08003E0
:1008200063600022114620460F4B984701220021A9
:1008300020460E4B98470E490E480F4B9847C2B2C0
:10084000002120460D4B9847012323604FF00061A3
:100850000E200B4CA0474FF000610F20A04710BDA9
:10086000008000406D3F0800EF3F08000D40080089
:1008700000D8B80540420F002B4008004140080056
:10088000A53B080008B50820014B984708BD00BFEC
:10089000713B080010B5014600231A460148024C7E
:1008A000A04710BD00800040BB3F08002DE9F04F7D
:1008B0008DB00391924B9989092905D09148924BAB
:1008C00098470DB0BDE8F08F83468D4B9A6809AB11
:1008D0001068516803C312891A80BDF8243005934B
:1008E000B3F5807F13D8BBF1130F0CBF9DF82B30ED
:1008F0009DF82C300693854B1B680793059B002BB6
:1009000043D0002404942746CDF808B0A6E0804BDD
:1009100083F800B0C0225A707E4B02221A80D0E7C2
:100920007D4B98477D4B1F70A3E09DF82A3043F024
:1009300008038DF82A30754B1B8818F0010F00F062
:10094000D4800493714A136801331360029A132A06
:100950007FD19BB2002B7CD10123704A137078E0C9
:10096000049361E004936DE0DDF808B000239DF886
:1009700026509DF92640002C0EDB654A82F800B017
:100980005370644B02221A809BE7059B049300235B
:10099000EDE7DDF808B0EAE7614F00231A469DF85D
:1009A000291038465F4EB04700231A460799C1F315
:1009B00007213846B04700231A469DF81C103846D8
:1009C000B04700231A4619463846B04715F0200FA5
:1009D00007D0049B2BB924F0300343F010038DF8AB
:1009E00026309DF82A3000939DF82730069A049906
:1009F0009DF826004C4CA0470346BBF1130FBCD119
:100A0000424A1288002AB8D1444A01211170B4E741
:100A10003E4A1368013313601BE018F0010F67D0E2
:100A200010E018F0010F0DD19DF82A3000939DF8C9
:100A30002730069A049940463B4DA84703460028B4
:100A4000A7D1049714F0010F7FF47CAF029B152B04
:100A5000DED00134A4B2059BA34285D0039B13F8DA
:100A600001BB03939DF826802C4B1B78002B7FF451
:100A700057AF9DF828902A4E3B463A4649463046A5
:100A8000284DA847DFF884A03B463A469AF8011063
:100A90003046A8473B463A469AF800103046A847E9
:100AA0003B463A4659463046A847029B132B04BFA3
:100AB00089F008098DF82890049B002BB1D1069B82
:100AC0005B45AAD014F0010F03D0029B132B3FF417
:100AD0002CAF9DF82A3023F008038DF82A300B4BF9
:100AE0001B8818F0010F7FF43DAF002B7FF438AF67
:100AF00018F0080F98D128F0060848F0020893E78C
:100B00009C26002054CA0800D95E08007C260020DC
:100B10005C2600205A2600208D110800582600204F
:100B200000800040BB3F0800CD1108002DE9F04FC8
:100B300085B00090454B9B89032B18D1434B9B6894
:100B40001B680393424A00981070C0205070414ABD
:100B5000022010809BB20193B3F5807F72D8002BE6
:100B60006AD001F1FF3800273E463B4C26E019468B
:100B70003A483B4B984765E03A4B98473A4B1E70D2
:100B800022E089F008098DF80E901BF0010F10D0BB
:100B9000364A13680133136006E0344A13680133A0
:100BA0001360009A162A04D09BB213B901232E4A6F
:100BB00013700137BBB2019A9A423DD91FFA87FBE5
:100BC000294B1B78002BD7D19DF80E903346324627
:100BD00049462046264DA847DFF890A033463246C6
:100BE0009AF801102046A847334632469AF800107A
:100BF0002046A8473346324631462046A847236957
:100C000013F4007FFBD00DF109020DF10A0120461B
:100C1000184B98479DF80A3008F8013F009B142BA9
:100C2000AFD01BF0010FB8D1009B162BC1D10F4ADA
:100C3000136801331360BCE7054B00225A70054B63
:100C400002221A8005B0BDE8F08F00BF9C2600206C
:100C50005C2600205A26002000800040FCC90800C5
:100C6000D95E08008D110800582600207C2600203F
:100C7000BB3F08008D3F08002DE9F04F85B0214BA8
:100C80009989052939D107461E4B9B68186802903F
:100C90001A798DF80C2093F800B00DF1090601AD1A
:100CA0000DF1080A184CDFF87490DFF87480002307
:100CB0001A4616F8011B2046C847236913F4007F23
:100CC000FBD00DF101020DF102012046C0479DF855
:100CD000023005F8013B5545E9D10C4B1F7000224D
:100CE0005A7004A98B441BF80D1C9970DA70084BDC
:100CF00004221A8005B0BDE8F08F0648064B9847DD
:100D0000F8E700BF9C260020008000405C26002001
:100D10005A26002054CA0800D95E0800BB3F0800CC
:100D20008D3F08002DE9F04383B0134B99890429C6
:100D30001DD10546104B9B681B68019301AC0DF15A
:100D40000809DFF84C8000270C4E3B463A4614F861
:100D5000011B4046B0474C45F7D1094B1D7000229E
:100D60005A70084B02221A8003B0BDE8F08306488F
:100D7000064B9847F8E700BF9C260020BB3F0800C1
:100D80005C2600205A26002054CA0800D95E0800BC
:100D9000008000407047000000B9704738B5014638
:100DA00043F2B0620023064843F2AF640025E0FB43
:100DB000014520462946034CA047034B984738BDC0
:100DC00000D8B805995B0800870000202DE9F04F96
:100DD0008BB0424B99890B2903D04148414B98472E
:100DE00074E03E4B9B6807AA1868596803C21889CB
:100DF000997A108091705E7803969878DC7893F8F1
:100E000004B05A7902929B790193374B00221A6001
:100E1000364DA847364B98470120364B9847304609
:100E2000A84704F1FF385FFA88F814B12F46324C16
:100E30001CE0C0243FE0019B002B3BD00AAAD31842
:100E400013F8113C029A934234D00020294DA84750
:100E5000039E3046B8470120A8473046B84708F1FE
:100E6000FF385FFA88F8B8F1FF0F34D0234B1B68C6
:100E70007BB30DF1230606AD0DF11C0ADFF890904F
:100E80005846B84700231A4616F8011B2046C847A3
:100E9000236913F4007FFBD00DF115020DF116014B
:100EA0002046174B98479DF8163005F8013B5545ED
:100EB000E6D1C0E70024214612480A4B9847124B5E
:100EC00010221A705C70114B02221A800BB0BDE820
:100ED000F08FC024EFE7C024EDE700BF9C26002080
:100EE00054CA0800D95E08007C260020990D08002D
:100EF0000D100800CD10080000800040842600205E
:100F00008D3F080024CA08005C2600205A260020D5
:100F1000BB3F080038B50F4B9989022903D00E4812
:100F20000E4B984738BD0B4B9B681D88E8B20C4CA4
:100F3000A04700200B4B98470B4B9847280AA04727
:100F40000A4B11221A7000225A70094B02221A8091
:100F5000E8E700BF9C26002054CA0800D95E0800BC
:100F6000990D0800CD100800B51008005C2600207F
:100F70005A2600202DE9F04782B01B4B998906299B
:100F80002AD1194B9B68186800909A88ADF8042004
:100F900093F800A093F801900DF102040DF10608FA
:100FA000124F0026124D3346324614F8011B3846C4
:100FB000A8474445F7D1B9F1000F11D150460D4B68
:100FC00098470D4B12221A7083F801900B4B0222A6
:100FD0001A8002B0BDE8F08709480A4B9847F8E745
:100FE000094B98478146ECE79C2600200080004092
:100FF000BB3F0800990D08005C2600205A260020FF
:1010000044CA0800D95E08001111080038B59820BC
:101010001E4B98471E4B53F820501E4C20461E4B2B
:10102000984780232360636843F00103636063682B
:1010300043F010036360636823F080036360174923
:101040002846174B9847041EB8BFFF24114D0022B5
:1010500011462846134B9847012200212846124B7F
:101060009847E2B200212846104B984701232B6095
:101070004FF000610E200E4CA0474FF000610D2094
:10108000A0474FF000610F20A04738BDBD220800E7
:10109000EC020020008000406D3F080000D8B80539
:1010A0002B400800EF3F08000D40080041400800B9
:1010B000A53B080008B5034802230360024B98478C
:1010C00008BD00BF008000407D3F080008B580B12A
:1010D0004FF0605111200A4B98479E20094B9847CA
:1010E00018B91120084B984708E01120074B984782
:1010F00004E04FF020511120014B984708BD00BF7C
:10110000A53B0800BD220800713B08008B3B08008E
:1011100070B582B0194C0026194D33463246F02185
:101120002046A8473346324631462046A847334634
:10113000324631462046A84733463246314620469D
:10114000A847236913F4007FFBD00DF105020DF1D0
:10115000060120460B4B98479DF8060010F0010051
:1011600005D0094B1B68002BD7D1812004E0064B2A
:101170001B68002B08BF812002B070BD00800040BA
:10118000BB3F08008D3F08008426002038B50C4D79
:1011900000231A464D2128460A4CA04700231A4630
:1011A00019462846A04700231A4607498978284649
:1011B000A04700231A4619462846A04738BD00BF5D
:1011C00000800040BB3F08007C2600202DE9F0474E
:1011D00082B09DF8288000F07E04202C18DC0E469A
:1011E0001746012C5BDD023C1E2C5AD8DFE804F0C8
:1011F00019591E595959545959595959595919591F
:1012000059595959595959595959595959591E00E2
:10121000402C41D00020244B64221A6002B0BDE86B
:10122000F0871846214B98470020F4E74FEA112A2F
:101230001F4C4FF000091F4D4B464A464146204681
:10124000A8474B464A4651462046A8474B464A4681
:10125000F1B22046A8474B464A4649462046A84791
:10126000236913F4007FFBD00DF105020DF1060197
:101270002046114B98479DF806309F4205D10A4BF6
:101280001B68002BD8D18020C5E7074B1B68002BBB
:1012900014BF00208020BEE7084B9847BBE7002022
:1012A000B9E70020B7E700BF84260020990D0800A9
:1012B00000800040BB3F08008D3F0800111108006E
:1012C000064B1B780F2B07D8591C044A1170044A8F
:1012D00042F823000120704700207047F81B0020CF
:1012E000B81B0020064B1B780F2B07D8591C044A4B
:1012F0001170044A42F82300012070470020704713
:10130000F91B0020FC1B002008B5014B984708BDC5
:10131000B52E080008B5014B984708BDD12E08002E
:1013200008B5044B1B7803B908BD034B9847034B22
:101330009847F9E77C050020F94C0800E92E0800E1
:1013400010B50124044B1C70044A4FF4806104481A
:10135000044B9847204610BD7C05002099170800D3
:101360005822002079300800014B00221A70704783
:101370007C05002038B50F4B0F4A9A60DA88402A66
:1013800028BF40229A810D4B1D788DB10C4B03EB89
:1013900085046A1ED2B2AD1A043B03EB850554F8EE
:1013A000043D9847034608B9AC42F8D1184638BD09
:1013B0000023FBE79C26002018220020F91B0020B8
:1013C000FC1B002038B50B4B1D788DB10A4B03EB8D
:1013D00085046A1ED2B2AD1A043B03EB850554F8AE
:1013E000043D9847034608B9AC42F8D1184638BDC9
:1013F0000023FBE7F81B0020B81B0020054B5B789F
:10140000222B01D000207047024B034A1A610120B1
:10141000704700BF9C2600201D14080010B5224B09
:101420009B78013B102B14D8DFE803F00914181344
:1014300013131313131313131313132C3B003E2016
:101440001A4B98471A4CA0470028FCD01020194B83
:10145000984710BD1020184B9847FAE701220C213D
:101460001648174B9847174B9847174B5A6812F472
:10147000003FFBD1144A136843F0254343F00503B2
:101480001360FEE70F4B98470F4B5A6812F4003F6A
:10149000FBD10D4A136843F0254343F00503136065
:1014A000FEE70A4B9847D4E79C260020493E0800F7
:1014B000713E0800893D0800E93D080000080E4023
:1014C000C12D0800794C080000120E40F51F0800DD
:1014D000054B00221A70322159709A70034A9360AA
:1014E0000323938101207047D82100209C260020EF
:1014F00038B50A4C40220A4920460A4DA847202305
:1015000023723722084904F10900A847074DAC604F
:101510002046074B9847A881012038BDD8210020DC
:101520007CCA0800DD62080070CA08009C26002002
:101530008162080008B5074B5B78172B03D0402B5E
:1015400004D0002008BD044B9847FBE7034B9847A5
:10155000F8E700BF9C260020D1140800F114080011
:1015600008B50348034B98470348044B984708BD08
:1015700035150800C1120800FD130800E512080027
:1015800008B50B4B5B88A12B07D0A22B0BD0A02B4F
:1015900000D008BD074B9847FBE7074B9847074B20
:1015A0000A221A70F5E7054B00221A70F1E700BF16
:1015B0009C260020FD070800850808003C1C002030
:1015C00008B5204B00221A701F4B5B78103B062B8E
:1015D00036D8DFE803F0041A0F2535353000062031
:1015E0001A4B984708B9002029E0174B184A1A618E
:1015F000012024E00620154B984708B900201EE082
:10160000114B144A1A61012019E006200F4B98472C
:1016100008B9002013E00C4B0F4A1A6101200EE0BC
:1016200006200A4B984708B9002008E0064B0B4AF1
:101630001A61012003E0044B094A1A61012008BD28
:101640000020FCE73C1C00209C260020C91F08004D
:101650002D1708009516080065160800D916080011
:101660008115080070B5074B5E68074B9847042545
:10167000064C2846A0470028FBD03046044B98472C
:1016800070BD00BF18220020F51F0800C91F080008
:101690000D200800F8B50A4B1E685F68094B984793
:1016A0000525094C2846A0470028FBD03846074BA3
:1016B0009847074B4FF0C0421A60064B1E60F8BDBA
:1016C00018220020F51F0800C91F08000D2008007F
:1016D000401C0020441C0020F8B50E4B1C685F68BD
:1016E0000D4B984701260D4D3046A8470028FBD0EA
:1016F00038460B4B98474CB10A4A00230A4D2968DB
:1017000012F8010FC85401339C42F8D1024B98479C
:10171000F8BD00BF18220020F51F0800C91F0800EF
:101720000D2008001F22002020080020F8B50A4BD9
:101730001E685F68094B98470225094C2846A04758
:101740000028FBD03846074B9847074A31464FF0F0
:10175000C040064B9847F8BD18220020F51F08002E
:10176000C91F08000D200800711708005D3008002F
:1017700010B50446054B984704B110BD044B98477B
:101780000228FAD10020034B9847F6E7F51F08001E
:1017900001200800C91F080070B505460C46194B0A
:1017A0009847BDB9184B1B78F3B944B1174A184D87
:1017B000296812F8010BC85401339C42F8D1154B2B
:1017C000984704280DD0144A4FF480610F48134BFA
:1017D000984770BD104A4FF480610C480F4B9847F2
:1017E000F7E7084B9847EEE70A2BECD1002CEAD03C
:1017F000064D2C440A4E15F8010BB047A542FAD10C
:10180000E1E700BFF51F08003C1C00205822002023
:1018100020080020012008009917080079300800EE
:101820009508080008B5134B5B78122B03D0152BD5
:101830000ED0002008BD0F4A0F4B1B6893600F4B62
:101840001968918100221A600D4B98470120F1E739
:101850000A200C4B98470C4B003818BF0120187019
:1018600000225A709A70DA70024A936004239381BE
:101870000120DFE79C260020401C0020441C0020A3
:10188000F51F0800553B0800D821002008B5044B7F
:1018900098470448044B98470448054B984708BDAF
:1018A000F51F080025180800C1120800C11508001E
:1018B000E5120800164B5B781A3B172B26D8DFE899
:1018C00003F0110C25252525161B25252525252565
:1018D000252525252525252525200D4B0D4A1A6171
:1018E000012070470A4B0C4A1A6101207047084BCF
:1018F0000A4A1A6101207047054B094A1A61012002
:101900007047034B074A1A61012070470020704757
:101910009C260020AD1C0800F91C080029190800AD
:1019200035190800B91C080008B5014B984708BDD7
:10193000E926080008B5014B984708BD3520080086
:1019400010B50D200A4B98474FF000611320094C49
:10195000A0474FF000611220A047074B4FF4005200
:10196000C3F88021502183F80D131A6010BD00BF09
:10197000E13E0800A53B080000E100E008B5D0F812
:10198000983203B108BD014B9847FBE741190800A5
:1019900070B504460068194B9847054610F0010FD2
:1019A00003D115F0020F15D170BD204650F81C3B35
:1019B0009E69F6B200223146114B984794F89C324A
:1019C00013F0040FEDD00022314604F5E2700C4B09
:1019D0009847E6E704F1F00528460A4B984740B1DE
:1019E00024682846084B984701462046074B9847ED
:1019F000DAE702212068064B9847D5E7C55508006D
:101A00009B070800E3070800C5070800E555080024
:101A1000BD55080008B50248024B984708BD00BFF5
:101A2000800500209119080038B504469DF8100083
:101A30006160012A0DD0022A0FD012B1002222616A
:101A400000E02261042B27D8DFE803F00B171B1EF0
:101A500022004FF480522261F4E74FF400522261D9
:101A6000F0E74FF40063E360062837D0072838D04A
:101A7000052815D0C023A36014E04FF40073E36081
:101A8000F2E70023E360EFE74FF4C063E360EBE7C6
:101A90004FF48063E360E7E74FF40063E360E3E75C
:101AA0000023A3600023636120460F4B984794F8FE
:101AB0009C3243F0020384F89C3204F1F0000B4D99
:101AC000A84704F11C00A84704F5E270A847214686
:101AD00051F8040B064A074B984738BD4023A360D2
:101AE000E0E78023A360DDE77D1908009107080087
:101AF00000D8B805E954080070B5044600F1F005B7
:101B0000002228460E4B984720680E4B984710F04D
:101B1000020F00D070BD20680B4B984710F0020FE9
:101B200004D102212068094B9847F3E7266828462C
:101B3000074B984701463046064B9847F1E700BFF0
:101B40009B070800C1550800C5550800B955080095
:101B5000C5070800E55508000028024818BF002006
:101B6000704700BF8005002010B5254B5C88200A17
:101B7000244B9847002840D00346E0B2142806D0F2
:101B800018281FD0102814BF0020012010BD1C4AA7
:101B9000D288032A01D80020F8E7194A1A4C946029
:101BA0000421918103F11C00184B98472070C0F369
:101BB00007236370C0F30743A370C0F30760E070AE
:101BC0000120E3E70E4AD288032A01D80020DDE78E
:101BD0000B4A0D4C94600421918103F1F0000B4BF2
:101BE00098472070C0F307236370C0F30743A370C6
:101BF000C0F30760E0700120C8E70020C6E700BF1F
:101C00009C260020591B0800D8210020EF0708005F
:101C100030B583B01B4B5C88200A1B4B984738B10A
:101C20000546E3B2112B14D0122B1FD0102B01D07C
:101C300003B030BD134BDB88072BF9D1114B9868EB
:101C40004379027901688079009028460F4CA047BB
:101C5000EEE70F4B984728680E4B984728680E4BC5
:101C60009847012128680D4B9847E1E700680C4B25
:101C7000984728680B4B9847032128680A4B9847D8
:101C8000D6E700BF9C260020591B0800291A08002F
:101C90007D190800AD550800A1550800B955080088
:101CA000B3550800A7550800BD55080008B5014BFD
:101CB000984708BD111C080070B50D4B5E880024C4
:101CC0000C4D02E00134042C11D02046A847002816
:101CD000F8D046FA04F212F0010F90F89C2214BFDB
:101CE00042F008026FF3C30280F89C22EAE770BD5D
:101CF0009C260020591B0800F8B50C4B5888000A98
:101D00000B4B984788B10646084BDA889B8993426B
:101D10000BD352B10024054D064FAB68195D304618
:101D2000B8470134EB88A342F7DCF8BD9C260020BD
:101D3000591B0800F91A080070B50024094D0A4E15
:101D400002E00134042C05D02046A8470028F8D032
:101D5000B047F6E70548064B98470648064B9847B4
:101D600070BD00BF591B08007D190800C51D080083
:101D7000C1120800B5180800E5120800F8B50E4DAC
:101D800000240E4F264602E00134042C0CD02046DD
:101D9000B84705F8016B0028F6D090F89C32C3F3E1
:101DA000C00305F8013CEFE7054B034A9A600422A3
:101DB0009A810120F8BD00BFD8210020591B0800DE
:101DC0009C2600202DE9F041214B5B781A3B172B14
:101DD00039D8DFE803F00F0C383838382F3238386C
:101DE0003838383838383838383838383835194B82
:101DF000984729E0164B5888000A174B9847064623
:101E000020B3134BDB889BB1144D00241C36DFF844
:101E10005C800F4F3046C04705F8010B0134FB884A
:101E2000A342F7D80A4B0D4A9A609C8101200BE02F
:101E30000024F7E70A4B984706E00A4B984703E06F
:101E4000094B984700E00020BDE8F0810020FBE747
:101E50009C260020691B0800591B0800D82100207F
:101E6000E9260800352008007D1D0800C507080088
:101E700008B5054B984790F89C3243F0040380F86E
:101E80009C32012008BD00BF591B080008B5044B57
:101E9000984790F89C326FF3820380F89C3208BD1B
:101EA000591B08002DE9F0478146194B984790F8D7
:101EB0009C3203F00603062B01D0BDE8F0870546EF
:101EC0004846144B984704460028F6D0124FDFF8D6
:101ED0004CA0DFF84C8005E048460E4B984704467E
:101EE0000028EAD02646B4F5007F28BF4FF40076DC
:101EF000324639464846D047002CEDD00024395DA3
:101F00002846C0470134A4B2B442F8D3E4E700BF86
:101F1000591B0800C5030800481C0020CD05080017
:101F2000F91A080010B582B00C460C4B984790F88F
:101F30009C3203F00603062B01D002B010BD63797A
:101F4000042BFAD8A379053B9B01DBB20093002355
:101F50001A462168024CA047EFE700BF591B080052
:101F6000291A08002DE9F84F0024DFF84CB0DFF8FB
:101F70004C80DFF84CA0DFF84C9002E00134042CD8
:101F800017D0E7B22046D84706460028F6D090F88A
:101F90009C3203F00603062BF0D106F5E2752846C5
:101FA000C0470028EAD02846D04701463846C847EF
:101FB000F3E7BDE8F88F00BF591B0800E3070800EE
:101FC000C50708000507080010B50446064B9847EA
:101FD000064B1B7833B9054B1C700124044B984702
:101FE000204610BD0024F9E78D380800481E002067
:101FF000C9380800014B00221A707047481E0020A3
:10200000014B1878704700BF481E002008B50146F4
:102010000448054B98473520044B98473520044B1E
:10202000984708BD000E0E40493B08008B3B080056
:10203000713B080038B57E4B9C787E4B1C707E4B04
:102040009847631E212B00F2E880DFE813F022009E
:1020500037003700E600E6006C00E600E600E60028
:102060008B00E600E600E600E600E600930097003D
:10207000A7009B00A1009B00A100B000AB00B00036
:10208000AB00AB00AB00B500E600E600B900D30042
:10209000C300684B00225A700D229A70674C07CC1F
:1020A000C3F80300C3F80710C3F80B202278DA73D3
:1020B0005F4A936010239381012038BD5C4B9B687D
:1020C0001D78022C0CD05E4B02221A8028465D4BF4
:1020D0009847032C17D05C4BC0225A700120ECE7C4
:1020E0005C78574B02221A802846564B984710F0CE
:1020F000020FF0D0544B00225A7021462846534B11
:1021000098470120D9E710F0010FE4D04E4C00238E
:10211000637028464E4B9847A070494A1388013394
:1021200013800120C9E7424B9B68DA78997809044B
:1021300041EA02611A7811435B7841EA0321454B79
:10214000196000290ADB4448444B98473E4B002263
:102150005A703B4B02221A800120AEE7404B01220D
:102160001A70F0E7384B00225A70354B02221A8061
:102170000120A2E73B4B984701209EE73A4B984746
:1021800001209AE739492046394B9847012094E7C6
:1021900036492046374B984701208EE7364B984703
:1021A00001208AE72046354B9847012085E72046E5
:1021B000334B9847012080E7324B984701207CE75A
:1021C0001B4A214B93601E4B1988918100221A8073
:1021D000012072E7164A5388180AD28802EB1323AB
:1021E000B3F5807F21DC1249204B03448B608A8148
:1021F000012062E70E4A5388180AD28802EB1323A3
:10220000B3F5807F01DD002057E7094B9968174B34
:1022100018441D4B984701204FE70B4BC9225A70B9
:10222000074B02221A80012047E7002045E700BF44
:102230009C2600204C1F0020412D080088CA080061
:102240005A260020A92208005C260020D12208007E
:10225000BD2208007C26002098CA0800D95E08002C
:1022600058260020CD0D0800150F08004C1E002038
:10227000AD0808002D0B0800750F0800790C080048
:10228000250D0800950D0800015F0800024605486D
:1022900000F11E010378934203D003308842F9D144
:1022A000002070472408002008B5034B984708B168
:1022B000407808BD0020FCE78D22080008B5034BDC
:1022C000984708B1807808BD0020FCE78D220800FF
:1022D00010B50C46024B984700B1847010BD00BF8A
:1022E0008D22080038B50446C0B2054DA847C4F396
:1022F0000720A847C4F30740A847200EA84738BDC9
:10230000712B080008B5034B1B681843024B984714
:1023100008BD00BF44080020E522080070B5074E44
:10232000074D084C8020B047A847236823B110F020
:10233000020FF7D0012000E0002070BD712B0800D3
:102340009D2B08008426002070B56B20094B984710
:102350000F20094B9847074E084D094C2020B047E5
:10236000A847236823B110F0800FF7D1012000E0C7
:10237000002070BD712B0800052308009D2B08006C
:10238000842600202DE9F04383B01A4B9847C120E2
:10239000194CA0475920A047C220A0470220A047BF
:1023A000E020A0470DF10704E9464FF01208892705
:1023B000114E8DF800808DF80170AB238DF802303E
:1023C00045238DF80330CD238DF80430D8238DF8C4
:1023D000053088238DF80630FF238DF807302078EC
:1023E000B0474C4504F1FF34E3D1044B984703B0A8
:1023F000BDE8F0833D2C0800712B08001D23080068
:1024000070B5094B9847094C094D0A4EC120A047A9
:102410000020A0478120A047A84710B13368002BB7
:10242000F4D1054B984770BD1D230800712B08009F
:102430009D2B080084260020152B0800F8B50646C1
:102440000C4615461C4B9847034608B91846F8BD7C
:102450004C201A4FB8470A20194B98474320B847D9
:10246000012D19D96B20B8473046164B9847A0204C
:10247000B847681EC0B2B8472420B847013DADB286
:1024800001352544104E114F336873B1B84704F835
:10249000010BAC42F8D108E00C20084B98473046BD
:1024A000084B9847094B98472070074B1B68003B27
:1024B00018BF0123CAE700BF49230800712B080099
:1024C00005230800E5220800842600209D2B080033
:1024D0002DE9F0410746884616460B4B98470546BE
:1024E00010B92846BDE8F0814C20084CA0470A20CE
:1024F000074B98473846A0474C20A0474046054B1D
:1025000098473046A047ECE749230800712B0800A4
:1025100005230800E52208002DE9F84F81461746FB
:102520001C460B9DBDF8306013F0010F08D1F6B9C1
:1025300014F0020F3FD14FF0010A5046BDE8F88F6A
:102540008846274B984782460028F6D04C20DFF873
:102550009CA0D0470A20DFF88CB0D8474046D0472F
:102560004C20D0470B20D8470120D047DFE71C4B39
:10257000984782460028E0D04C20DFF87080C047A2
:102580000A20184B98474846C0476B20C0470A9816
:10259000154B9847A020C047701EC0B2C0476420AA
:1025A000C047013EB6B201362E4415F8010BC047B4
:1025B000B542FAD1BCE70A4B984782460028BCD006
:1025C0004C200A4CA0470A20064B98473846A047A3
:1025D0004C20A0470A98044B98470020A047ACE73E
:1025E0004923080005230800E5220800712B080094
:1025F000F8B504460D46364B98470346A8B1402C23
:1026000015D0302C22D04C20324EB0470A20324B0D
:1026100098472046B0474C20B04728462F4B984754
:102620000020B0472E4B984703461846F8BD4C2073
:10263000284CA0470A20284DA8474020A0474C20FE
:10264000A0470B20A8470120A047EBE74C20214CD6
:10265000A0470A20204EB0473620A0474C20A04774
:102660000B20B0470120A047194B9847034600288C
:10267000DBD04C20A0470A20B0473320A0476B2076
:10268000A0472846154B9847A020A047154D28780D
:102690000138C0B2A0476420A0472B884BB100246A
:1026A00027460C4E3846B047631CDCB22A88A2424B
:1026B000F8D84C20074CA0470A20074DA8473020E7
:1026C000A0474C20A0470B20A8470120A047A9E71E
:1026D00049230800712B080005230800E5220800A3
:1026E0001D2308004208002070B584B08F4B598824
:1026F000CBB28F4A1370013B212B2BD8DFE813F0AC
:1027000022002F0037007300C200E600E9002A0013
:102710002A002A002A002A002A002A002A002A0069
:102720002A002A002A002A002A002A002A002A0059
:102730002A002A002A002A002A002A002A007C01F6
:102740005C016B017B4B98477B4B984780F0010005
:102750007A4B18707A4B9847002004B070BD754BC7
:102760009847784B9847754B00221A70F2E7714BE7
:102770009847724B00221A706C4B9B89042B15D919
:102780006A4B9B681A79D978090441EA02615A7840
:1027900011439A7841EA02211B78013B072B1ED88E
:1027A000DFE803F01F0811131517191B634B0122F3
:1027B0001A70CFE72020644B98470028CAD15F4B9E
:1027C00003221A70C6E76820F5E73020F3E72220DD
:1027D000F1E72A20EFE73220EDE71820EBE70020B1
:1027E000E9E74020E7E7534B9847544B00221A7023
:1027F0004E4BDB88072B02D8504B01221A704B4BF3
:102800009B685A791979090441EA02619A7811435F
:10281000DA7841EA02211A78013A052A2ED8DFE84F
:1028200012F0FD000E00010105010600290008203C
:10283000464B1A78464B984700288BD116E0262540
:1028400023202C22DE799C7944EA06245B78B4F5B7
:10285000807F28BF4FF4807402943C4C0194009117
:1028600029463C4CA04700287FF474AF334B032229
:102870001A706FE7262523201A22E3E72E22262549
:102880002320DFE72B4B98472C4B00221A70274B55
:1028900099688B794A7942EA03220879CB781B043C
:1028A00043EA0063487803438878B2F5807F28BF05
:1028B0004FF48072254943EA0020274B98470028AF
:1028C0007FF448AF1D4B03221A7043E7194B98471A
:1028D00040E7184B9847194B00221A70134B9989FF
:1028E00001290BD9114B9A681378013B072B5FD84C
:1028F000DFE803F0083643475E5E5E4B0F4B012274
:102900001A7027E704290CD91179D3781B0443EAFC
:10291000016351780B43927843EA02230F4A136014
:1029200018E7064B01221A7014E700BF9C2600200E
:102930006C1F0020412D0800852308008026002000
:10294000892D080001240800F1250800701F0020CF
:10295000D1240800192508003D240800440800205F
:10296000022906D99178537843EA0123304A13802B
:10297000F0E6304B01221A70ECE652782E4B1A70BA
:10298000E8E652782D4B1A70E4E6042903D8294B67
:1029900001221A70DEE61179D3781B0443EA016341
:1029A00051780B43907843EA0020254B9847D1E6B5
:1029B000204B01221A70CDE6080A224BDB8803EB7C
:1029C0001121B1F5807F27DC1E491F4A02448A602D
:1029D0008B810120C1E6080A1A4BDA8802EB11212B
:1029E000B1F5807F01DD0020B7E69968164B1844E9
:1029F000164B98470120B0E6154A0E4B1B785370D2
:102A0000144B1B68B3FA83F35B0993700D4B9A6008
:102A100003229A810120A0E600209EE6262523209D
:102A200024220FE73625332035220BE74C20FFE622
:102A30004208002080260020480800204908002085
:102A4000D12C08009C260020701F0020015F080088
:102A50006C1F00208426002038B50B4D0B4C2846F7
:102A6000A0470028FBD0084C2046094B9847204639
:102A7000084B98474FF020511420074B9847074BBD
:102A800000221A7038BD00BF00400940C955080037
:102A9000A7550800AD550800A53B08007020002090
:102AA00070B51825144C154E2846A04710B1336850
:102AB000002BF9D11825104C104E2846A04710B90C
:102AC0003368002BF9D118250B4C0C4E2846A04733
:102AD00010B13368002BF9D1094C2046094B9847B7
:102AE0002046094B98474FF000611420074B984748
:102AF000074B01221A7070BD553B08008426002048
:102B000000400940B3550800A1550800A53B080046
:102B10007020002010B50F4B1B78BBB90E4C20461F
:102B20000E4B984720460E4B98474FF020511820E7
:102B30000C4CA0474FF020511520A0474FF02051DA
:102B40001420A0470E20084B984710BD074B98470C
:102B5000E4E700BF7020002000400940B3550800A2
:102B6000A7550800A53B08000D3F0800592A08009A
:102B700010B50446054B1B7823B121460448054B8C
:102B8000984710BD044B9847F7E700BF702000201E
:102B900000400940E5550800A12A080070B582B040
:102BA0000A4B1B7873B90A4D0A4C0B4E01A92846F3
:102BB000A047012802D13368002BF7D19DF804000B
:102BC00002B070BD054B9847EDE700BF70200020B4
:102BD00000400940F755080084260020592A0800C3
:102BE000F8B5124B1B7823B10C271825104C114E49
:102BF00006E0114B9847F7E7013F17F0FF0713D0A6
:102C00002846A04710B13368002BF9D12846A047C9
:102C100010B93368002BF9D12846A0470028EBD023
:102C20003368002BF8D1E7E7F8BD00BF7020002023
:102C3000553B080084260020A12A080070B586B004
:102C40000025194B1D700E20184B98474FF040512E
:102C50001420174CA0474FF020511520A0474FF0EB
:102C600040511820A04740F25710124EB047142090
:102C7000114B98474520B0470295049505950F4B99
:102C80000093C02301934FF4005303930C4A694609
:102C90000C480D4B98474FF080511820A0470B4C23
:102CA000A047A04706B070BD70200020E13E08009C
:102CB000A53B080087000020713B080020A1070009
:102CC00000B0710B0040094039550800E12B0800A5
:102CD000014B1860704700BF4C08002038B5162023
:102CE000104B9847104B4FF48002C3F880211025F9
:102CF00083F816531A600D4C4CF201020021204655
:102D00000B4B98474FF4965200212046094B9847A9
:102D10002A4600212046084B9847084B01221A708A
:102D200038BD00BFE13E080000E100E000000840BF
:102D3000112E08003B2E0800432E080071200020B1
:102D400010B50A4B1B786BB1094C00212046094B8A
:102D50009847094B1A68094B1A6000212046084B16
:102D6000984710BD074B9847EEE700BF7120002041
:102D700000000840332E08004C0800208426002064
:102D80002B2E0800DD2C080008B500210148024B5D
:102D9000984708BD00000840332E080008B5054BD1
:102DA0001B6813B1013B034A136000210248034B27
:102DB000984708BD84260020000008404B2E0800DC
:102DC00038B5A1F10E03012B1AD9EFF3108472B6B6
:102DD000BFF35F8F0C4B00251D70120222F07F4263
:102DE00022F0FF02C9B2114341F0B441074B9847AA
:102DF0002CB9054B01221A70BFF35F8F62B638BD44
:102E00004FF0FF30FBE700BF820900206D0000207B
:102E100010B48B0100EB81110224C4504FF0FF333A
:102E20008B620B6A4A6010BC7047890105234350CE
:102E30007047890102234350704700EB8110C26143
:102E4000704700EB81104262704700EB8110006A0E
:102E50007047000070B586B004460D460423009309
:102E600002AB0F220E210C480C4EB04780B903462E
:102E70002E46042D28BF042665B102A9221F51F851
:102E8000044B42F8044F01339E42F8D806B070BD9F
:102E90001020FBE72846F9E700080E40010000205B
:102EA00010B50620024CA0470720A04710BD00BF68
:102EB000353A080010B50620034CA0470720A0476C
:102EC0001D20024B984710BD353A08008B3B080087
:102ED00008B50620024B98471D20024B984708BDB5
:102EE000593A0800713B080008B50B4BA3FB0023BF
:102EF0009B094FF47A7202FB130080B218B1B0F54F
:102F0000FA7F04D008BD0620044B9847FAE7062054
:102F1000034B9847F6E700BFD34D6210593A0800BB
:102F2000353A080010B53E20074B9847074CA0479C
:102F30000028FCD0064B4FF47102DA61054CA04723
:102F40000028FCD010BD00BF493E0800713E0800BB
:102F500000040E40D13E080010B51248124B9847AD
:102F60003E20124B9847124CA0470028FCD04FF04F
:102F70008070104B9847104CA0470028FCD00F4B96
:102F800098470F4B0F4A9A620F4CA0470028FCD07D
:102F900010200E4B98470E4B98470248024B98471B
:102FA00010BD00BF00D8B80539010020493E080017
:102FB000713E0800913E0800813E0800B13E0800C5
:102FC00000040E40013F0F20C13E0800E93D08000B
:102FD00005570800014B1878704700BF7220002089
:102FE00008B5054B9847C378044A13700BB101200C
:102FF00008BD034B9847FBE71532080072200020FC
:103000004113080008B5034B1B7803B108BD024B00
:103010009847FBE7722000206913080008B50C4AA6
:10302000137892F90020002A06DB03F06003402B9E
:1030300018BF002009D008BD03F06003402B18BF63
:103040000020F8D1034B9847F5E7034B9847F2E788
:103050009C260020C51308007513080010B582B027
:103060000B460092024600218120024CA04702B08C
:1030700010BD00BF6D4F080010B582B00B46009226
:10308000024600210220024CA04702B010BD00BF42
:103090006D4F08000B4B1B681A6853881A4403785D
:1030A000184490420AD24378042B09D08B4208D0AE
:1030B000037818449042F6D30020704700207047F0
:1030C000002070477C20002008B5034B987800F062
:1030D0007F00024B984708BD9C260020C14C080089
:1030E000184B1B783BB3184B1B681B681A7982423C
:1030F00023D970B4154A13605C881C44A3421ED2C5
:103100000025012604E01A7813443546A3420DD267
:103110005A78042AF7D19A788242F4D1DA788A422E
:10312000F1D10DB1094A1360012002E0074A136092
:10313000002070BC704700207047002070470020BE
:10314000F7E700BF792000207C20002080200020AD
:103150002DE9F84304460021124B98478046F0B110
:10316000114B1B685B6853F82490D9F80C309847D2
:10317000014620460B4B9847804680B10B4B1C689C
:1031800005260B4D0B4F01E08078B84731462046AD
:10319000A84704460028F7D1D9F80430984740469C
:1031A000BDE8F883E13008007C200020802000206A
:1031B00095300800254D08002DE9F0418046104B60
:1031C00098470346C8B10F4B1C6805260E4D0F4F9C
:1031D00031462046A847044638B18288C1788078B5
:1031E000B84703460028F3D107E0094B1B685B682A
:1031F00053F828301B68984703461846BDE8F0810D
:10320000E130080080200020953008006950080057
:103210007C200020014B1868704700BF80200020F0
:1032200008B5014B984708BDA54B080070B50D4B7C
:103230001B7883B10C4B1B681B681B795BB10024A6
:103240000A4E094DE0B2B04701342B681B681A7969
:10325000E3B29A42F6D80023024A1370044A13805C
:1032600070BD00BF792000207C2000205131080073
:103270007420002038B50E4B1B78BBB10D4B1A687B
:1032800013681B7993B100240A4D06E02A680134C3
:1032900013681979E3B2994208D9E3B2526852F837
:1032A00023301B69002BF1D09847EFE738BD00BFF2
:1032B000792000207C2000202DE9F041914B002254
:1032C0009A811A615A611B88B3F5E07F1BD08D4B40
:1032D0001A7893F90030002B1BDB12F0600F00F01E
:1032E0004781884B1B7803F01F03012B00F04582B8
:1032F000844B1B7803F01F03022B00F09182002304
:103300001846BDE8F081AE217F48804B98470123E5
:10331000F6E77C4BDB88002B00F0AE8212F0600FEA
:10332000DFD112F01F0240F0C180764A5278062A9F
:103330000BD0082A00F0B280002AD2D1022BD0D1C3
:1033400002217348714B98472FE16E4B5A88D4B2D3
:10335000130A013B0E2B00F20982DFE813F00F0085
:1033600023007A0007020702440052000702070206
:10337000070207020702070207027500654B98471C
:1033800028B9654B98680178604B984730E0624BEC
:103390001A68102191700221D170186801785B4B76
:1033A000984725E05B4B984780B15B4B9B685B7C03
:1033B000A34296D9584B1B6953F834004188534BAC
:1033C0009847504B9B6802225A7011E0524B1B6881
:1033D0005B7CA34285D9504B5B6853F8340041882D
:1033E0004A4B9847EDE74C4BD8680178474B9847D4
:1033F000444BDA889B89934240F2D780414B9A81B3
:10340000D3E0444B984788B9434B9B685B7CA3420D
:103410007FF667AF404B1B6953F8340041883B4B44
:103420009847384B9B6807225A70E1E73A4B1B6874
:103430005B7CA3427FF655AF374B5B6853F8340093
:103440004188324B9847ECE7212134482F4B98476D
:10345000CEE7D2B2032A3FF644AFDFE802F01419F8
:103460001C0220202E4A13462E49024413F8014B19
:1034700021F8024F9A42F9D14100023129480170E6
:10348000224B9847B4E704212748204B9847AFE7E1
:103490001520264AE7E71220254AE4E7012B7FF4AE
:1034A00020AF01212348194B98477EE0012A49D1DA
:1034B000144A52780A2A7FF414AF012B7FF411AF1B
:1034C0001C4B1B78002B3FF40CAF0E4B1C791A4B96
:1034D0001D682B681B79A3427FF603AF00212046AD
:1034E000164B984700283FF4FCAE6B6853F8243025
:1034F000DB689847124B187001211846034B984718
:1035000053E000BF9C260020D8080020194D080079
:1035100074200020B14C0800D0010020B4CA08007B
:103520008809002064080020A8080020AC080020BA
:10353000C4080020792000207C200020E130080011
:1035400078200020022A7FF4CCAE934A5278002AD9
:103550007FF4C7AE022B7FF4C4AE8F4B18798F4B2C
:1035600098478F4B1880022118468E4B98471CE0D5
:1035700012F01F0240F0B180874B5B78013B082BB3
:1035800000F2AB80DFE813F01300A9002300A900CC
:103590000900A900A900A90054007F4BDB88002B7B
:1035A0007FF49FAE7C4B804A1A610123A8E67A4BD8
:1035B000DB88002B7FF495AE774B5B88012B7FF483
:1035C00090AE7A4A138823F002031380EDE7724B22
:1035D000DB88002B7FF485AE6F4B5B88022B7FF47A
:1035E00080AE734B984700283FF47BAE6A4B1B7943
:1035F000002B7FF476AE6F4B9847674B9B881B0A76
:10360000013B032B00F2B780DFE803F002060A0E4D
:10361000614B694A1A61C8E75F4B684A1A61C4E79F
:103620005D4B674A1A61C0E75B4B664A1A61BCE7AB
:10363000594BDB88002B7FF454AE634B984700282E
:103640003FF44FAE5A4B9847002834D05F4B9B68ED
:103650005A7C514B9B789A42FFF443AE554B9847A6
:103660004D4B9B785A4A1370002B9ED0504B984775
:10367000002828D0564B1B7803F10052013A534BD7
:103680001B6903EBC203534A13601B681B79002BB1
:103690008BD000242646504D4E4F3146E0B2A8470D
:1036A00000283FF41EAE01343B681B681A79E3B270
:1036B0009A42F2D879E7454B1B685A7C364B9B7887
:1036C0009A42CBD20DE6424B1B7803F10052013AED
:1036D0003E4B5B6803EBC203D5E7012A1AD0022AEE
:1036E0007FF4FFAD2C4B5B78012B31D0032B7FF4A3
:1036F000F8AD294AD388528813439BB2002B7FF43C
:10370000F0AD254C2079354B98472079344B9847BC
:1037100003462CE0204B5B780B2B7FF4E2AD1E4B75
:10372000DB88002B7FF4DDAD294B1B78002B3FF4A9
:10373000D8AD194B1C795D8820462A4B9847002844
:103740003FF4CFADE9B22046234B984703460EE045
:10375000114AD388528813439BB2002B7FF4C1AD2A
:103760000D4B1879204B9847034600E00023002BAF
:103770007FF4C6ADB5E50023F9E7154B1B78002BA8
:103780007CD0054B1C79134B1D682B681B79A34219
:103790002CD80023B4E500BF9C2600207D4D0800F6
:1037A00076200020194D0800C93008007420002040
:1037B000B14C08002D3208006553080089530800F9
:1037C000AD530800C5530800E94C0800D0010020A3
:1037D000792000207C200020B9310800F152080037
:1037E000B14D080051310800754E080000212046F7
:1037F000234B984700283FF47BAD6B6853F8245067
:10380000EB689847014620461D4B984700283FF437
:103810006FADAB689847034600287FF471AD67E54C
:10382000184B1B7823B3184B1A6813681B790BB31A
:103830000025134E144FECB2536853F82480D8F887
:103840000C30984701462046B047034600283FF415
:1038500057ADD8F808309847034600287FF450AD9C
:103860003A68013511680879E9B28842E3D847E53A
:10387000002345E5002343E5002341E500233FE520
:10388000E1300800792000207C2000200B4B1B68D1
:103890005BB9EFF310836BB972B6BFF35F8F084B60
:1038A00000221A70074B01221A70044A1368013370
:1038B00013607047034B00221A70F6E78420002043
:1038C0008209002088200020074B1A68013A1A60FC
:1038D0001B6843B9054B1B782BB1054B01221A70AD
:1038E000BFF35F8F62B670478420002088200020DD
:1038F000820900202DE9F04180B90C469046002A4B
:103900000FDD8F18084E094D30682B682146984707
:103910000134BC42F8D14046BDE8F0814FF0FF3899
:10392000F9E78046F7E700BF9826002090260020A0
:10393000013802281AD82DE9F8430E461746C2B1BD
:103940004D1EDFF83C90DFF83C80D9F800002C4693
:10395000D8F8003015F8011F984700280BDB023417
:10396000A01BEB433B44F342EFD106E04FF0FF30A6
:103970007047104601E04FF0FF30BDE8F88300BF0C
:103980009826002094260020F8B54FF060510620BC
:10399000174CA0474FF060510720A0474FF040510F
:1039A0001D20A0471D20134B98474FF06051082061
:1039B000A0470820104EB047104F4FF04052FF2153
:1039C00038460F4DA847FF2138460E4B98474FF019
:1039D00060513520A0473520B0474FF000624FF4CA
:1039E000C0510948A8474FF080511B20A047F8BD9F
:1039F000A53B08008B3B0800713B0800000E0E4001
:103A0000753C0800433B0800000C0E4010B5064B07
:103A10004FF400425A600A20044CA0470B20A047F4
:103A2000034B984710BD00BF50120E40E13E080006
:103A30008939080010B50446062802D0072C04D0A6
:103A400010BD0620034B9847F8E70720014B984725
:103A5000F6E700BF8B3B080010B50446062802D0ED
:103A6000072C04D010BD0620034B9847F8E7072029
:103A7000014B9847F6E700BF713B080001EB81015D
:103A800000EB81010A67704701EB810100EB8101C6
:103A90004A67704701EB810100EB81018A6770473B
:103AA00001EB810100EB8101C1F880207047426485
:103AB000B1F1805F15D00AD891B1B1F1006F0ED18C
:103AC000016F036F0B4023EA0203036707E0B1F1C4
:103AD000405F05D021F08051B1F1205F00D04260FD
:103AE0007047036F13430367F9E7416412F0010F56
:103AF00014BF4166016612F00A0F14BF01624162F1
:103B000012F0020F04D0C0F88010416101607047CC
:103B100012F0080F18BFC0F88410F6E710B4019C2B
:103B2000416444B1416643B1016542B10163016141
:103B3000016010BC70470166F5E74165F5E7416338
:103B4000F5E7C0F8A010704781637047C06C7047FC
:103B5000806C7047430903F5001303F206735B02A0
:103B6000DB6B00F01F0023FA00F000F0010070474B
:103B7000430903F5001303F206735B0200F01F0014
:103B8000012202FA00F018637047430903F500139D
:103B900003F206735B0200F01F00012202FA00F03C
:103BA00058637047F0B583B00E46430903F5001320
:103BB00003F206735D0201F0F043B3F1205F32D0EF
:103BC00018D8B3F1006F1DD0B3F1805F18BF00208B
:103BD00016D100F01F000124844022464FF080518E
:103BE0002846214B984716F0010012BF6C662C66E0
:103BF000012005E001F0E043B3F1405F1ED000205A
:103C000003B0F0BD00F01F000124844022464FF0B5
:103C100000612846144B984716F0010012BF6C66ED
:103C20002C660120ECE700F01F010124324604FA63
:103C300001F128460D4B98472046E1E701F060521C
:103C400000F01F01012706EA07030093C6F3800373
:103C5000B2F1605F14BF0022012207FA01F1284689
:103C6000034CA0473846CBE7AF3A0800EB3A0800D0
:103C70001D3B080070B582B005460E46144602F0A2
:103C8000F043B3F1205F29D014D8B3F1006F19D0FD
:103C9000B3F1805F18BF002012D10A464FF0805167
:103CA0002846184B984714F0010012BF6E662E6626
:103CB000012005E002F0E043B3F1405F12D00020A4
:103CC00002B070BD0A464FF000610E4B984714F0E9
:103CD000010012BF6E662E660120F1E70A4B98477D
:103CE0000120EDE702F0605204F001030093C4F3F9
:103CF0008003B2F1605F14BF00220122034CA04791
:103D00000120DDE7AF3A0800EB3A08001D3B080050
:103D10002DE9F04104460E460E4B984705462046D5
:103D20000D4B9847054013D00C4C04F1600803E09C
:103D300044450DD010345DB12068B042F8D16168BF
:103D40002942F5D0E3689847636825EA0305EFE761
:103D5000BDE8F0814D3B0800513B08008C2000205D
:103D600008B50A210148024B984708BD000C0E40D7
:103D7000113D080008B50B210148024B984708BDCA
:103D8000000E0E40113D0800164A136B23F003038A
:103D900043F001031363936E13F0080F0AD14FF43D
:103DA000006310498A6E12F0080F03D1013BF9D16C
:103DB000012070470B4A136B23F070030343136316
:103DC000906E10F008000AD14FF4006305498A6E26
:103DD00012F0080F05D1013BF9D1012070470020F6
:103DE0007047704700040E40164A136B23F07003AF
:103DF00003431363936E13F0080F0AD14FF400636B
:103E000010498A6E12F0080F03D1013BF9D101204D
:103E100070470C4A136B23F0030343F00203136350
:103E2000906E10F008000AD14FF4006305498A6EC5
:103E300012F0080F05D1013BF9D101207047002095
:103E40007047704700040E4008490A6A03029BB29B
:103E500022F00302134343F45C1343F001030B62AB
:103E60000A46936E13F0010FFBD0704700040E401A
:103E7000024B986E00F00100704700BF00040E4036
:103E8000024B986E00F48030704700BF00040E4073
:103E9000064B1B6A30B143F0807343F45C13034A52
:103EA0001362704723F08073F7E700BF00040E40F1
:103EB000024B4FF000529A62704700BF00040E4060
:103EC000024B986E00F00200704700BF00040E40E5
:103ED000024B986E00F04000704700BF00040E4097
:103EE0001D280CD8084B9A6901238340934308D0BE
:103EF000012303FA00F0044B1861002070470120F1
:103F000070470020704700BF00040E401D280ED8E7
:103F1000084B9A6901238340934301D000207047E6
:103F2000012303FA00F0034B586100207047012081
:103F3000704700BF00040E404FF480738340014A75
:103F40001360704700040E40034B1A6FC0F3120059
:103F500010431867704700BF00040E40024B1878EA
:103F600080F00100704700BFFC20002008B514203D
:103F7000014B984708BD00BFE13E080008B514207A
:103F8000014B984708BD00BF0D3F080010B443F631
:103F90009923046914F0010F03D1013BF9D10120E9
:103FA00009E08368406810F0020F1CBFC3F30340B0
:103FB00010700B80002010BC704730B443F6992479
:103FC000056915F0020F03D1013CF9D101200CE085
:103FD000446814F0020F06D0120402F47022114358
:103FE0000BB141F08071C160002030BC704732B12C
:103FF00000EB8100036B43F001030363704700EBA8
:104000008100036B23F001030363704732B100EBBF
:104010008100036B43F002030363704700EB8100F0
:10402000036B23F0020303637047431E0B44B3FB8F
:10403000F0F0431EFE2B94BF00B24FF0FF307047EC
:1040400000EB8101086B20F47F4008630B6B43EAAF
:1040500002230B63704700000346C0B9184A127868
:1040600092B1EFF3108072B6BFF35F8F154A002153
:10407000117015498A78013A8A7028B9114A0121CC
:104080001170BFF35F8F62B60D4A137070470C4A10
:104090001278002AF8D1EFF3108072B6BFF35F8F69
:1040A000084A0021117008498A7801328A70002874
:1040B000EAD1044A01211170BFF35F8F62B6E3E7D2
:1040C000FE2000208209002088260020EFF31083C4
:1040D00072B6BFF35F8F0E4A002111700D4A4FF484
:1040E0008061C2F808112BB9094B01221A70BFF385
:1040F0005F8F62B6074B4FF40072C3F81821064A6F
:104100000023136153619381044A1370704700BF09
:104110008209002000400A409C2600200421002043
:10412000034B05221A70034B2022C3F81421704759
:104130000421002000400A40114B03221A70EFF3C3
:10414000108172B6BFF35F8F0E4B00221A700E4BB8
:104150004FF48062C3F818214FF40060C3F81401D3
:10416000C3F804214FF40042C3F81821C3F8042116
:1041700029B9044B01221A70BFF35F8F62B67047F2
:10418000042100208209002000400A4008B5024BAB
:104190001B6903B1984708BD9C26002038B5EFF392
:1041A000108372B6BFF35F8F4C4A002111704C4AE6
:1041B0004FF48061C2F808112BB9484B01221A70E4
:1041C000BFF35F8F62B6474B1B78032B5AD0464B29
:1041D0001B88464A9489E41AA4B2C4B9444A118897
:1041E0000B449BB21380414AD2889A424FD0414B34
:1041F0001B78002B4BD13D4B5B69002B6CD0984753
:10420000002869D0384B00221A80384B9C893F2CFB
:1042100092BF012200224024364B1A70334B9A6819
:10422000314B1888EFF3108572B6BFF35F8F2B4BBD
:10423000002119702A4BD3F81C3113F4007F40D1B0
:104240004CB102442C4B1946013312F8010B087093
:10425000D9B2A142F7D3244A13881C441480204BBE
:104260004FF48062C3F818214FF40061C3F81411B1
:10427000C3F804217DBB194B01221A70BFF35F8F75
:1042800062B628E01D4B98471D4B984723E0154B1D
:1042900004221A70EFF3108172B6BFF35F8F0F4BD9
:1042A00000221A700E4B4FF48042C3F81821C3F855
:1042B000042181B9094B01221A70BFF35F8F62B6E6
:1042C00009E02DB9054B01221A70BFF35F8F62B66A
:1042D000044B04221A7038BD01229DE78209002098
:1042E00000400A4004210020002100209C260020DC
:1042F00002210020FD200020000018208D41080030
:10430000CD40080038B503460846197D11F0010F6D
:1043100011D0197D6FF3000119751C685CB102F1B1
:1043200008014901044D695811F0080F18BF42F007
:1043300080029968A04738BD00400A40F8B502469F
:10434000431E03EB43006C4901EBC001097D11F0F2
:10435000010F00F0CA800146674800EBC101CD683B
:104360008868854200F0A680401BB0F5803F63D886
:104370000404510101F1402101F52021D1F800612F
:1043800016F0080F14D0D1F8006106F007060821D6
:10439000B1400139014268D044F0080403EB430105
:1043A000554E06EBC1010E7D6FF341060E755CE0C4
:1043B000510101F1402101F52021D1F80061C6F33E
:1043C0000116012E4FD1D1F8006106F00706082131
:1043D000B140814247D248E044F021048C6003EBB5
:1043E0004301454A02EBC102D1680144D16010612A
:1043F000424A11694FF0007000FA03F30B43136156
:10440000002D72D13E4B01221A70BFF35F8F62B64E
:104410006BE04FF40063C1F80431384B19694FF475
:10442000807000FA02F20A431A615EE0D1F80011CE
:104430004FF48030002418E0510101F1402101F5D2
:104440002021D1F8004114F00804EFD1510101F10D
:10445000402101F52021D1F80001C0F3011001280D
:1044600044D04FF4803044F01404264901EB02118B
:1044700003EB4306204F07EBC606766835444D60D4
:10448000EFF3108572B6BFF35F8F1D4E00273770B4
:10449000CE6816F0100F9FD02DB919490120087071
:1044A000BFF35F8F62B603EB4301134800EBC1011A
:1044B000C8688860510101F1402101F52021D1F83F
:1044C000000110F0080F08D003EB43000A4C04EB86
:1044D000C000007D10F0020F9BD103EB43030021CD
:1044E000054800EBC300084B9847F8BDD1F8001110
:1044F0004FF48030B9E700BF0821002000400A4097
:104500008209002000430A40054308002DE9F041DC
:104510001D20A04B9847A04B984720B99F4B5B6943
:1045200013F0020F41D09D4B5B6913F0080F43D18C
:104530009A4B5B6913F0040F4CD1984AD2F81C31A6
:10454000526912F4807F29D0944A4FF48041C2F816
:1045500008114FF40041C2F8081113F4805F3FD1F5
:1045600013F4806F06D08D4AD2F80C2112F4806FBC
:1045700040F09E8013F4007F40F09D8013F4005FB4
:1045800004D0864A4FF40051C2F8181113F4004FBA
:1045900040F0448113F4804F40F0558101237F495E
:1045A0004FF0007C4FF4807E9CE172B6BFF35F8FCA
:1045B0007B4B00221A7008E0784B08229A615B69F5
:1045C00013F0010F03D0774B9847BDE8F081764B8D
:1045D0009847F8E7714B04229A61734B9847F4E7C8
:1045E000724B1B78002B40D16C4BD3F81C31C3F3BA
:1045F0000A53082B3ED16E4A6E4B6F481946013361
:10460000097802F8011F8342F8D16C4B98470028C3
:1046100038D0624B4FF48052C3F81821684B93F99D
:104620000030002B36DB664BDB88002B3DD00023AF
:10463000644A1380644A13805C4A01211170574A0E
:104640004FF48041C2F81811EFF3108072B6BFF337
:104650005F8F534C2370C2F804110028B5D101229A
:104660002270BFF35F8F62B6AFE7584B9847584B45
:104670009847B9E7574B9847484B4FF48052C3F8D7
:104680001821A2E7534B9847444B4FF48052C3F88C
:1046900018219AE700234B4A13804B4A1380434B5F
:1046A00002221A704C4B98478FE74C4B98478CE787
:1046B000494B984789E73D4B1B78012B0BD0022BC8
:1046C00001D0042B04D1414B9847414B98477CE7DC
:1046D000404B9847F9E7314BD3F81C01C0F30A501F
:1046E000374B9B89384A148822189342BCBF1B1B46
:1046F00098B2334B9A68224470B12E4B194601335D
:10470000097802F8011BD9B28142F7D30444A4B25C
:104710002D4B1C8040280DD0294B9C815B690BB12F
:10472000984770B31D4B4FF40072C3F818212B4B00
:1047300098474AE7224BDA88224B1B8823449A4247
:10474000EADD1F4B9B89A3424AD0144B4FF4007201
:10475000C3F818214FF48042C3F81821EFF31081F9
:1047600072B6BFF35F8F0E4800240470C3F80421B3
:1047700000297FF42AAF01220270BFF35F8F62B677
:1047800023E7144B9847054B4FF40072C3F81821E8
:104790001BE700BFE13E08005D3F080000400A4003
:1047A000820900202113080075320800042100202E
:1047B0009B2600200000182008001820B9320800AD
:1047C0009C26002002210020002100208D410800AD
:1047D000CD400800214108009D41080039410800F2
:1047E0009D4B5B6953B1984780B19C499C4A0B88AB
:1047F000108803440B8000231380A6E7994B984749
:10480000994B4FF40072C3F81821DEE6954B984798
:10481000954B4FF40072C3F81821D6E6924B4FF433
:104820000042C3F81821D3F81C3113F4806F7FF4D1
:10483000CCAE8E4B1B78032B7FF4C7AE8A4B202265
:10484000C3F81421C1E6884B4FF48042C3F8182105
:10485000D3F81C3113F4007F7FF4B7AE834B1B7881
:10486000012B07D0042B7FF4B0AE7F4B2022C3F87E
:104870001421AAE67E4B9847A7E67E4B03EB021372
:10488000D96811F0010F7FF4A0AE7748016921EAE1
:1048900006060661DB681B0C08D0774905EB45046A
:1048A00001EBC404E068C31AE360A3601046734BD5
:1048B00098478AE6630103F1402303F520234FF470
:1048C0000061C3F80811C3F8141105EB4505002178
:1048D000694800EBC5006A4B984776E60133072B21
:1048E00000F0DC80DAB21C465D1EA8460F690CFAA7
:1048F00005F6374202D048690642BED10F690EFA6A
:1049000004F63742EAD001EB4410D0F80C0110F461
:10491000006F06D001EB4410D0F81C0110F4006FBA
:10492000C8D001EB4412D2F80C2112F4802FD5D05C
:1049300001EB4412D2F81C2112F4402FCED14A4B85
:1049400003EB44144FF48022C4F808211A6922EAC8
:1049500006061E6108EB4808474B03EBC80898F8A9
:1049600014306FF3820388F81430D4F8083123F040
:104970000203C4F808312023C4F814314023C4F8DA
:10498000183122E6384B10229A613B4D0024012752
:104990003B4E0134E4B2224639462846B04718352A
:1049A000062CF6D1374B98472F4B1A6822F07F021E
:1049B0001A601A6842F080021A60D3F8002122F4CB
:1049C0007F7222F0030242F04302C3F80021012269
:1049D000C3F80421EFF3108172B6BFF35F8F2A4A48
:1049E000002010704FF48052C3F804214FF400727D
:1049F000C3F804211A6942F480721A6129B9224B62
:104A000001221A70BFF35F8F62B6204B9847164B96
:104A10001A6942F008021A611A6942F004021A6126
:104A20001A6942F002021A61CFE50F4B20229A6107
:104A30001A6922F002021A611A6942F020021A6110
:104A400002229A611D20124B9847124B9847002072
:104A5000114B9847B9E500BF9C2600200221002099
:104A6000002100202141080000400A4004210020CC
:104A70003941080000430A40082100203D43080056
:104A8000054308002D32080082090020CD400800AF
:104A90000D3F08000913080059400800184B5B69D6
:104AA00013F0100F7FF46EAF154B1B6913F0020F5C
:104AB00004D0134B5B6913F0020FB6D1104B5B6946
:104AC00013F0200F3FF481AD01200E4B98470C4BA3
:104AD00002229A6120229A611A6922F020021A6148
:104AE0001A6942F002021A611A6942F008021A6158
:104AF0001A6942F004021A61034B984765E500BF4A
:104B000000400A40594008001513080010B5EFF3A3
:104B1000108472B6BFF35F8F1D4B00221A70012004
:104B20001C4B98471D201C4B98471C4B1A6842F49D
:104B300000621A601A6822F400721A601A6942F060
:104B400010021A611A6942F002021A611A6942F0EF
:104B500020021A611A6942F008021A611A6942F0C9
:104B600004021A6108229A6104229A6110229A6151
:104B700002229A6120229A611D20094B98472CB984
:104B8000034B01221A70BFF35F8F62B610BD00BFE6
:104B90008209002059400800E13E080000400A4018
:104BA0000D3F080010B52A4B98471D20294B984708
:104BB000EFF3108472B6BFF35F8F0023264A1370A1
:104BC00026490A6842F480720A60254A502182F818
:104BD0001D134FF000511160224803EB430200EB1C
:104BE000C202127D03EB430100EBC10102F0FE02A1
:104BF0006FF382020A750133062BEED1174AD2F801
:104C0000E03023F00303C2F8E0304FF48020164B6D
:104C100098470023154A1370EFF3108172B6BFF363
:104C20005F8F0D4A1370124AD3780133D37029B9BC
:104C3000094B01221A70BFF35F8F62B60D4B984784
:104C40002CB9054B01221A70BFF35F8F62B610BDFD
:104C5000252F0800E13E08008209002000400A409C
:104C600000E100E008210020493F0800FE2000206C
:104C7000882600200D4B080008B51D20084B9847DA
:104C8000084B1A6842F400721A601A6822F4006233
:104C90001A601D20044B98470020044B984708BD1C
:104CA000E13E080000400A400D3F0800594008005E
:104CB000024B586900F00100704700BF00400A40F5
:104CC000084B1A6822F080021A601A6822F07F02EC
:104CD00000F07F0002431A601A6842F080021A60F6
:104CE000704700BF00400A40024B186800F07F0088
:104CF000704700BF00400A40024B5868C0F3CA002A
:104D0000704700BF00400A40024B586800F007009F
:104D1000704700BF00400A40014B9860998170477E
:104D20009C26002000F00F02062A00D9704770B5BB
:104D3000530103F1402000F520200121C0F80811A3
:104D40000346D0F8000120F0C000C3F80001551E52
:104D5000084C05FA01F605EB450004EBC000064BD4
:104D60009847354404EBC504237D6FF38203237514
:104D700070BD00BF082100200543080000F00F00AF
:104D8000430103F1402303F52023D3F81C3113F032
:104D9000200F09D1013800EB4000044B03EBC000A9
:104DA000007DC0F38000704701207047082100207B
:104DB00000F00F03062B51D85A0102F1402202F5F0
:104DC0002022D2F81C2112F0200F49D110B4591E14
:104DD00001EB4104254A02EBC402127D12F0040FDC
:104DE00040D112F0010F3FD110F0800F14D15B01C0
:104DF00003F1402303F52023D3F8082122F0020217
:104E0000C3F808214FF40052C3F818212022C3F838
:104E10001421012010BC70475A0102F1402202F512
:104E20002022D2F81C2112F4402FE0D00F4A02EBCE
:104E3000C4010A7D42F004020A750D4903F108021B
:104E400001EB42124FF48020506008694FF48072E9
:104E500002FA03F303430B610120DBE700207047F4
:104E6000012070470120D5E70020D3E7082100206A
:104E700000400A4000F00F00062862D838B5421EF4
:104E800002EB4201374B03EBC1031B7D13F0040F10
:104E90005BD00B46334901EBC303197D6FF38201ED
:104EA0001975314B03EB40154FF48021C5F80811FB
:104EB00019694FF48074844021EA04011961D5F81E
:104EC0001C3113F0200F24D0430103F1402303F5DC
:104ED0002023D3F81C3113F4005F0BD0430103F1FE
:104EE000402303F520234FF40051C3F8181140214B
:104EF000C3F81811430103F1402303F520232021B7
:104F0000C3F818111846D3F8043143F00203C0F86F
:104F1000043102EB4203134901EBC3031B7D13F081
:104F2000010F10D002EB420301EBC303187D6FF3B6
:104F30000000187502EB420251F832309847012008
:104F400002E000207047012038BD430103F14023F7
:104F500003F52023D3F81C3113F0200FB4D1012026
:104F6000F2E700BF0821002000400A4000F00F00D7
:104F7000062868D8F8B5440104F1402404F520243B
:104F8000D4F80C4114F0010F5FD0440104F1402427
:104F900004F52024D4F81C4114F0200F57D1441EEE
:104FA00004EB44062D4D05EBC6052D7D15F0040FD1
:104FB0004FD1EFF3108772B6BFF35F8F284D0026F5
:104FC0002E7004EB4405254E06EBC5052D7D15F02E
:104FD000010F21D104EB4405204E06EBC5052E7DC3
:104FE00046F001062E752FB91D4D01262E70BFF318
:104FF0005F8F62B6194E04EB440706EBC7056A6083
:10500000AB600022EA602A61069A46F8372061B94F
:10501000B3FA83F35B0909E0EFB9114B01221A706F
:10502000BFF35F8F62B6002010E0012304EB44045D
:105030000A4A02EBC404227D63F341022275094B44
:105040009847012002E0002070470020F8BD0020B2
:10505000FCE70020FAE70020F8E700BF0821002065
:10506000820900203D4308002DE9F04F83B000F095
:105070000F05062D00F22A816C0104F1402404F58D
:105080002024D4F80C4114F0010440F0238101F0F5
:10509000030CBCF1020F5ED0BCF1030F64D0BCF175
:1050A000010F01D0002012E1002D52D0EB1EDBB227
:1050B000012B94BF002301239E464FF00208002BD2
:1050C00054D002F4C053B3F5006F4AD0B3F5805FFB
:1050D00008BF4FF0030C22F4C05292B24FF0020806
:1050E0006F0107F1402707F52027D7F8006126F464
:1050F0007F7626F003060B0103F0300310F0800FDB
:105100000CBF21460821B2F5806F37D2082A38BF7C
:1051100008225200013AB2FA82F2C2F11C02334371
:1051200043EA88130B43BEF1000F01D04FEA0C2471
:105130001A432243C7F80021D7F80031002B80F230
:10514000CD800123C7F804310623002665480124D9
:105150001BE00023B0E7032D34BFE0464FF0010809
:1051600004E04FF0020CB6E74FF0010812F4C05F04
:1051700040F0B2804FF0000EF446B1E740F2FF720B
:10518000C9E7013BDBB29D421ED800EB4312D2F8C7
:105190000C2112F0010FF4D05A0102F1402202F565
:1051A0002022D2F80011C1F381115F00B9400E43F3
:1051B000B6B200EB4311C1F80841D2F8001121F05A
:1051C000C001C2F80011DCE72C4605EB4503464D53
:1051D00005EBC305444F4FF00108DFF8109123E0C1
:1051E0000EEB4E03404A52F83340002C78D00CF1BD
:1051F000080C4FEA4C1C3B4B53F80C3013F0080FD3
:1052000018BF40F080000EEB4E0E374B03EBCE0E76
:105210000246DEF80C100120A047002057E00134C0
:105220001835E3B2062B4FD8E0B2A446630046FA25
:1052300003F313F00302F2D004F1FF3E0EEB4E0134
:1052400007EBC1010B7D03F0010A6FF300030B753F
:10525000630103F1402303F52023D3F8001121F06B
:10526000C00141EA8212C3F80021C3F80481D3F8D7
:105270000021002AB4DAD3F8042142F00202C3F874
:105280000421BAF1000FCAD055F80CBC55F8082C0F
:10529000ABEB020145F80C1C55F8103C02EB030A7D
:1052A00055F8142C0EEB4E0E07EBCE0E9EF814C0E4
:1052B00055F8183C0093AAEB0B030A44CCF34001C9
:1052C000C8470028ABD102E0012000E0002003B075
:1052D000BDE8F08F0020FAE70020F8E70020F6E7AD
:1052E0000020F4E700400A40082100206D4F08002C
:1052F00010B500F00F02184B03EB02130021996068
:1053000010F0800F09D1501E00EB40000121134B1B
:1053100003EBC000124B984710BD510101F1402131
:1053200001F52021D1F81C1111F4402FEBD05301CD
:1053300003F1402101F5202101F58A744FF400703A
:105340002060D1F81C3113F4007FFAD1D1F81C3160
:1053500013F4402FF4D1D6E700430A40082100207F
:1053600005430800074AD2F8E03023F0030343F076
:105370000203C2F8E030D2F8E03043F00403C2F890
:10538000E030704700400A40074AD2F8E03023F08E
:10539000030343F00203C2F8E030D2F8E03043F0F8
:1053A0000803C2F8E030704700400A40044AD2F8CF
:1053B000E03023F0030343F00203C2F8E03070470B
:1053C00000400A4030B48EB06C46214D0FCD0FC462
:1053D0000FCD0FC40FCD0FC495E8030044F8040BA4
:1053E00021701C4B0121C3F80811D3F8002122F4CD
:1053F0007F7222F0030242F06B02C3F80021C3F86F
:105400000411D3F8E02022F0030242F00202C3F8B4
:10541000E020D3F8E02042F01002C3F8E0206B4611
:105420000D480EAA801A0DF135041A1813F8011B45
:105430001170A342F9D1074B4FF48062C3F81821D1
:105440004FF40062C3F814210EB030BC704700BFA7
:10545000D8CA080000400A403800182010B4B2EB47
:10546000011F14D2C9004B0803EBC202B2FBF1F2D8
:10547000D3085C1E4FF6FE718C4201D9012018E062
:10548000416841F4002141600DE0012011E00C0170
:10549000630803EBC202B2FBF4F2D3085C1E4FF6C2
:1054A000FE718C42F1D8120402F4E0221A43026227
:1054B000002010BC704700000A4BC0F8E430002305
:1054C00043604362836288230360242303604FF4B4
:1054D000807303604FF4002303604FF400330360D4
:1054E000704700BF0041535570B505460C4616463F
:1054F0000E4B98470E4B00221A6094B13246216839
:1055000028460C4B984770B96368A2681343226918
:105510001343E2681343064A13606A6813436B60DF
:1055200070BD0120FCE70120FAE700BFB954080074
:10553000982100205D54080070B506460D461446BB
:10554000154B9847154B00221A6005B32B6804EBE6
:105550005302B2FBF3F2511E4FF6FE73994218D874
:105560003262736823F4987343F4807373606B68DA
:10557000EA681343AA6813432A69134343F4802358
:10558000064A1360726813437360002070BD0120E7
:10559000FCE70120FAE700BFB95408009C21002075
:1055A000402303607047802303607047102303602B
:1055B000704720230360704781607047C160704767
:1055C00000697047406970474069C0F340207047E8
:1055D000436913F0020F1DBFC1F30801C161002030
:1055E00001207047436913F0020FFBD0C1F308019B
:1055F000C16100207047436913F0010F05D0836932
:10560000C3F308030B60002070470120704710B4FB
:10561000AC2303600B684A68B3FBF2F31B095C1E02
:105620004FF6FE7294420BD803628B68436040F2DF
:105630000223C0F8203150230360002010BC7047C3
:105640000120FBE7436913F0020F1ABFC16100207C
:1056500001207047436913F0010F1DBF83690B7070
:10566000002001207047FEE708B51D4A1D4B9A42F5
:1056700011D01A461C4B9A420DD21146013B9B1A7F
:1056800023F003030433164A134452F8040B41F881
:10569000040B9A42F9D1154A154B9A420AD2013BA2
:1056A0009B1A23F0030304331344002142F8041B24
:1056B0009342FBD10F4B23F0604222F07F020E4950
:1056C0008A6003F16043B3F5004F03D28B6843F067
:1056D00000538B60094B9847094B9847FEE700BF82
:1056E000FCCF0800000000205813002058130020B1
:1056F000DC2600200000080000ED00E0915E0800BC
:105700008D5908003D4B1A6B02F00303012B32D078
:1057100012F0020F1BD153B9394B5B6913F0800FA4
:10572000384B14BF4FF400424FF4FA421A60334B27
:105730001B6B03F07003702B58D0304B1A6BC2F305
:105740000212304B1B68D3402E4A136070472B4B1C
:105750001B6A13F0807F2AD12A4B2B4A1A60274BF1
:105760001B6A03F07003102B2ED0202B22D1254B67
:10577000264A1A601EE0214B1B6A13F0807F03D07B
:10578000204B224A1A60D2E71E4B1F4A1A601B4B5D
:105790001B6A03F07003102B05D0202BC7D1194BC7
:1057A0001A4A1A60C3E7174B194A1A60BFE7154B2C
:1057B000164A1A60114B1B6B03F00303022B07D030
:1057C000104B144A1A60B2E70E4B114A1A60F1E707
:1057D0000A4A916A926A0B48C1F30A41036801FBC5
:1057E0000333D2B2B3FBF2F30360A0E7054B1B68AF
:1057F000094AA2FB03235B08A6E700BF00040E4092
:1058000010120E408409002000093D00001BB70063
:1058100000127A00001C4E0EABAAAAAA0346094A3F
:1058200012685AB1074A1068C118074A9142DDBF91
:105830000B46044A13604FF0FF307047014A03499A
:105840001160EFE7A0210020FCFF072000200820C6
:105850004FF0FF3070474FF400534B60002070470B
:10586000012070470020704708B501460148024BEF
:105870009847FEE710CB0800D95E080070474FF04C
:10588000FF307047F0B583B005460C460023019306
:10589000184B984210D0184B984221D0174B984281
:1058A00011D11E46164D01A93046A8470028FAD14D
:1058B000019B237003B0F0BD1F46124E21463846AF
:1058C000B0470028FAD1104B9D42F3D11E460C4D33
:1058D00001A93046A8470028FAD1019B2370E9E7C7
:1058E0001E46074D01A93046A8470028FAD1019B62
:1058F0002370DFE700060E40000009400040094029
:10590000F7550800555608000080094070B50C4650
:10591000184B98420AD0184B984210D0174B984217
:1059200016D0174B98421CD0002070BD1E46154D56
:1059300021463046A8470028FAD10120F5E71E4647
:10594000114D21463046A8470028FAD10120ECE746
:105950001E460D4D21463046A8470028FAD10120A9
:10596000E3E71E46084D21463046A8470028FAD1F5
:105970000120DAE700060E4000000940004009401F
:105980000080094045560800D15508002DE9F04136
:1059900088B010210DEB0100524B98470820524D62
:1059A000A847524C524B1C60524B534A1A60534BFF
:1059B000534A1A60534B01934FF4E13302934FF46F
:1059C000006303930820A84701A920464E4B98473F
:1059D0004E4D2B68002198684D4CA0472B68002144
:1059E0005868A04701214B4B1970BFF35F8F62B617
:1059F000494B00221A705A709A70DA701A715971F4
:105A0000464B9847464B9847464B984704AC464D03
:105A10000DF12008454F464E54F8042B39462846D0
:105A2000B0470835A045F7D13F4C002684F82060E8
:105A3000404A41494148424FB84721464148B8474A
:105A40000920294B9847404D294629203F4CA04723
:105A500029462A20A04729462B20A04729462C204A
:105A6000A04729462D20A04729462E20A047294699
:105A70002F20A04729463020A04729463320A047A1
:105A800029463720A04729463420A0473048B84748
:105A9000304C314A31462046304B9847304A3146E7
:105AA0002046304B9847304A314620462F4B984786
:105AB0000322314620462E4B98472E4B98472E4BBB
:105AC00098472E4B04221A6430462D4B98472D4898
:105AD000B8472D4B98472D4B98472D4B98472D4C49
